{
	"data": {
		"bytecode": {
			"linkReferences": {},
			"object": "608060405234801561000f575f80fd5b506040516106f23803806106f2833981810160405281019061003191906101af565b80805f90816100409190610403565b5050506104d2565b5f604051905090565b5f80fd5b5f80fd5b5f80fd5b5f80fd5b5f601f19601f8301169050919050565b7f4e487b71000000000000000000000000000000000000000000000000000000005f52604160045260245ffd5b6100a782610061565b810181811067ffffffffffffffff821117156100c6576100c5610071565b5b80604052505050565b5f6100d8610048565b90506100e4828261009e565b919050565b5f67ffffffffffffffff82111561010357610102610071565b5b61010c82610061565b9050602081019050919050565b5f5b8381101561013657808201518184015260208101905061011b565b5f8484015250505050565b5f61015361014e846100e9565b6100cf565b90508281526020810184848401111561016f5761016e61005d565b5b61017a848285610119565b509392505050565b5f82601f83011261019657610195610059565b5b81516101a6848260208601610141565b91505092915050565b5f602082840312156101c4576101c3610051565b5b5f82015167ffffffffffffffff8111156101e1576101e0610055565b5b6101ed84828501610182565b91505092915050565b5f81519050919050565b7f4e487b71000000000000000000000000000000000000000000000000000000005f52602260045260245ffd5b5f600282049050600182168061024457607f821691505b60208210810361025757610256610200565b5b50919050565b5f819050815f5260205f209050919050565b5f6020601f8301049050919050565b5f82821b905092915050565b5f600883026102b97fffffffffffffffffffffffffffffffffffffffffffffffffffffffffffffffff8261027e565b6102c3868361027e565b95508019841693508086168417925050509392505050565b5f819050919050565b5f819050919050565b5f6103076103026102fd846102db565b6102e4565b6102db565b9050919050565b5f819050919050565b610320836102ed565b61033461032c8261030e565b84845461028a565b825550505050565b5f90565b61034861033c565b610353818484610317565b505050565b5b818110156103765761036b5f82610340565b600181019050610359565b5050565b601f8211156103bb5761038c8161025d565b6103958461026f565b810160208510156103a4578190505b6103b86103b08561026f565b830182610358565b50505b505050565b5f82821c905092915050565b5f6103db5f19846008026103c0565b1980831691505092915050565b5f6103f383836103cc565b9150826002028217905092915050565b61040c826101f6565b67ffffffffffffffff81111561042557610424610071565b5b61042f825461022d565b61043a82828561037a565b5f60209050601f83116001811461046b575f8415610459578287015190505b61046385826103e8565b8655506104ca565b601f1984166104798661025d565b5f5b828110156104a05784890151825560018201915060208501945060208101905061047b565b868310156104bd57848901516104b9601f8916826103cc565b8355505b6001600288020188555050505b505050505050565b610213806104df5f395ff3fe608060405234801561000f575f80fd5b5060043610610029575f3560e01c806306fdde031461002d575b5f80fd5b61003561004b565b6040516100429190610160565b60405180910390f35b5f8054610057906101ad565b80601f0160208091040260200160405190810160405280929190818152602001828054610083906101ad565b80156100ce5780601f106100a5576101008083540402835291602001916100ce565b820191905f5260205f20905b8154815290600101906020018083116100b157829003601f168201915b505050505081565b5f81519050919050565b5f82825260208201905092915050565b5f5b8381101561010d5780820151818401526020810190506100f2565b5f8484015250505050565b5f601f19601f8301169050919050565b5f610132826100d6565b61013c81856100e0565b935061014c8185602086016100f0565b61015581610118565b840191505092915050565b5f6020820190508181035f8301526101788184610128565b905092915050565b7f4e487b71000000000000000000000000000000000000000000000000000000005f52602260045260245ffd5b5f60028204905060018216806101c457607f821691505b6020821081036101d7576101d6610180565b5b5091905056fea264697066735822122066abf307b358039866d0cae560ee060cb679800ac4aefed129d0e6d4e7ad7b1664736f6c63430008160033",
			"opcodes": "PUSH1 0x80 PUSH1 0x40 MSTORE CALLVALUE DUP1 ISZERO PUSH2 0xF JUMPI PUSH0 DUP1 REVERT JUMPDEST POP PUSH1 0x40 MLOAD PUSH2 0x6F2 CODESIZE SUB DUP1 PUSH2 0x6F2 DUP4 CODECOPY DUP2 DUP2 ADD PUSH1 0x40 MSTORE DUP2 ADD SWAP1 PUSH2 0x31 SWAP2 SWAP1 PUSH2 0x1AF JUMP JUMPDEST DUP1 DUP1 PUSH0 SWAP1 DUP2 PUSH2 0x40 SWAP2 SWAP1 PUSH2 0x403 JUMP JUMPDEST POP POP POP PUSH2 0x4D2 JUMP JUMPDEST PUSH0 PUSH1 0x40 MLOAD SWAP1 POP SWAP1 JUMP JUMPDEST PUSH0 DUP1 REVERT JUMPDEST PUSH0 DUP1 REVERT JUMPDEST PUSH0 DUP1 REVERT JUMPDEST PUSH0 DUP1 REVERT JUMPDEST PUSH0 PUSH1 0x1F NOT PUSH1 0x1F DUP4 ADD AND SWAP1 POP SWAP2 SWAP1 POP JUMP JUMPDEST PUSH32 0x4E487B7100000000000000000000000000000000000000000000000000000000 PUSH0 MSTORE PUSH1 0x41 PUSH1 0x4 MSTORE PUSH1 0x24 PUSH0 REVERT JUMPDEST PUSH2 0xA7 DUP3 PUSH2 0x61 JUMP JUMPDEST DUP2 ADD DUP2 DUP2 LT PUSH8 0xFFFFFFFFFFFFFFFF DUP3 GT OR ISZERO PUSH2 0xC6 JUMPI PUSH2 0xC5 PUSH2 0x71 JUMP JUMPDEST JUMPDEST DUP1 PUSH1 0x40 MSTORE POP POP POP JUMP JUMPDEST PUSH0 PUSH2 0xD8 PUSH2 0x48 JUMP JUMPDEST SWAP1 POP PUSH2 0xE4 DUP3 DUP3 PUSH2 0x9E JUMP JUMPDEST SWAP2 SWAP1 POP JUMP JUMPDEST PUSH0 PUSH8 0xFFFFFFFFFFFFFFFF DUP3 GT ISZERO PUSH2 0x103 JUMPI PUSH2 0x102 PUSH2 0x71 JUMP JUMPDEST JUMPDEST PUSH2 0x10C DUP3 PUSH2 0x61 JUMP JUMPDEST SWAP1 POP PUSH1 0x20 DUP2 ADD SWAP1 POP SWAP2 SWAP1 POP JUMP JUMPDEST PUSH0 JUMPDEST DUP4 DUP2 LT ISZERO PUSH2 0x136 JUMPI DUP1 DUP3 ADD MLOAD DUP2 DUP5 ADD MSTORE PUSH1 0x20 DUP2 ADD SWAP1 POP PUSH2 0x11B JUMP JUMPDEST PUSH0 DUP5 DUP5 ADD MSTORE POP POP POP POP JUMP JUMPDEST PUSH0 PUSH2 0x153 PUSH2 0x14E DUP5 PUSH2 0xE9 JUMP JUMPDEST PUSH2 0xCF JUMP JUMPDEST SWAP1 POP DUP3 DUP2 MSTORE PUSH1 0x20 DUP2 ADD DUP5 DUP5 DUP5 ADD GT ISZERO PUSH2 0x16F JUMPI PUSH2 0x16E PUSH2 0x5D JUMP JUMPDEST JUMPDEST PUSH2 0x17A DUP5 DUP3 DUP6 PUSH2 0x119 JUMP JUMPDEST POP SWAP4 SWAP3 POP POP POP JUMP JUMPDEST PUSH0 DUP3 PUSH1 0x1F DUP4 ADD SLT PUSH2 0x196 JUMPI PUSH2 0x195 PUSH2 0x59 JUMP JUMPDEST JUMPDEST DUP2 MLOAD PUSH2 0x1A6 DUP5 DUP3 PUSH1 0x20 DUP7 ADD PUSH2 0x141 JUMP JUMPDEST SWAP2 POP POP SWAP3 SWAP2 POP POP JUMP JUMPDEST PUSH0 PUSH1 0x20 DUP3 DUP5 SUB SLT ISZERO PUSH2 0x1C4 JUMPI PUSH2 0x1C3 PUSH2 0x51 JUMP JUMPDEST JUMPDEST PUSH0 DUP3 ADD MLOAD PUSH8 0xFFFFFFFFFFFFFFFF DUP2 GT ISZERO PUSH2 0x1E1 JUMPI PUSH2 0x1E0 PUSH2 0x55 JUMP JUMPDEST JUMPDEST PUSH2 0x1ED DUP5 DUP3 DUP6 ADD PUSH2 0x182 JUMP JUMPDEST SWAP2 POP POP SWAP3 SWAP2 POP POP JUMP JUMPDEST PUSH0 DUP2 MLOAD SWAP1 POP SWAP2 SWAP1 POP JUMP JUMPDEST PUSH32 0x4E487B7100000000000000000000000000000000000000000000000000000000 PUSH0 MSTORE PUSH1 0x22 PUSH1 0x4 MSTORE PUSH1 0x24 PUSH0 REVERT JUMPDEST PUSH0 PUSH1 0x2 DUP3 DIV SWAP1 POP PUSH1 0x1 DUP3 AND DUP1 PUSH2 0x244 JUMPI PUSH1 0x7F DUP3 AND SWAP2 POP JUMPDEST PUSH1 0x20 DUP3 LT DUP2 SUB PUSH2 0x257 JUMPI PUSH2 0x256 PUSH2 0x200 JUMP JUMPDEST JUMPDEST POP SWAP2 SWAP1 POP JUMP JUMPDEST PUSH0 DUP2 SWAP1 POP DUP2 PUSH0 MSTORE PUSH1 0x20 PUSH0 KECCAK256 SWAP1 POP SWAP2 SWAP1 POP JUMP JUMPDEST PUSH0 PUSH1 0x20 PUSH1 0x1F DUP4 ADD DIV SWAP1 POP SWAP2 SWAP1 POP JUMP JUMPDEST PUSH0 DUP3 DUP3 SHL SWAP1 POP SWAP3 SWAP2 POP POP JUMP JUMPDEST PUSH0 PUSH1 0x8 DUP4 MUL PUSH2 0x2B9 PUSH32 0xFFFFFFFFFFFFFFFFFFFFFFFFFFFFFFFFFFFFFFFFFFFFFFFFFFFFFFFFFFFFFFFF DUP3 PUSH2 0x27E JUMP JUMPDEST PUSH2 0x2C3 DUP7 DUP4 PUSH2 0x27E JUMP JUMPDEST SWAP6 POP DUP1 NOT DUP5 AND SWAP4 POP DUP1 DUP7 AND DUP5 OR SWAP3 POP POP POP SWAP4 SWAP3 POP POP POP JUMP JUMPDEST PUSH0 DUP2 SWAP1 POP SWAP2 SWAP1 POP JUMP JUMPDEST PUSH0 DUP2 SWAP1 POP SWAP2 SWAP1 POP JUMP JUMPDEST PUSH0 PUSH2 0x307 PUSH2 0x302 PUSH2 0x2FD DUP5 PUSH2 0x2DB JUMP JUMPDEST PUSH2 0x2E4 JUMP JUMPDEST PUSH2 0x2DB JUMP JUMPDEST SWAP1 POP SWAP2 SWAP1 POP JUMP JUMPDEST PUSH0 DUP2 SWAP1 POP SWAP2 SWAP1 POP JUMP JUMPDEST PUSH2 0x320 DUP4 PUSH2 0x2ED JUMP JUMPDEST PUSH2 0x334 PUSH2 0x32C DUP3 PUSH2 0x30E JUMP JUMPDEST DUP5 DUP5 SLOAD PUSH2 0x28A JUMP JUMPDEST DUP3 SSTORE POP POP POP POP JUMP JUMPDEST PUSH0 SWAP1 JUMP JUMPDEST PUSH2 0x348 PUSH2 0x33C JUMP JUMPDEST PUSH2 0x353 DUP2 DUP5 DUP5 PUSH2 0x317 JUMP JUMPDEST POP POP POP JUMP JUMPDEST JUMPDEST DUP2 DUP2 LT ISZERO PUSH2 0x376 JUMPI PUSH2 0x36B PUSH0 DUP3 PUSH2 0x340 JUMP JUMPDEST PUSH1 0x1 DUP2 ADD SWAP1 POP PUSH2 0x359 JUMP JUMPDEST POP POP JUMP JUMPDEST PUSH1 0x1F DUP3 GT ISZERO PUSH2 0x3BB JUMPI PUSH2 0x38C DUP2 PUSH2 0x25D JUMP JUMPDEST PUSH2 0x395 DUP5 PUSH2 0x26F JUMP JUMPDEST DUP2 ADD PUSH1 0x20 DUP6 LT ISZERO PUSH2 0x3A4 JUMPI DUP2 SWAP1 POP JUMPDEST PUSH2 0x3B8 PUSH2 0x3B0 DUP6 PUSH2 0x26F JUMP JUMPDEST DUP4 ADD DUP3 PUSH2 0x358 JUMP JUMPDEST POP POP JUMPDEST POP POP POP JUMP JUMPDEST PUSH0 DUP3 DUP3 SHR SWAP1 POP SWAP3 SWAP2 POP POP JUMP JUMPDEST PUSH0 PUSH2 0x3DB PUSH0 NOT DUP5 PUSH1 0x8 MUL PUSH2 0x3C0 JUMP JUMPDEST NOT DUP1 DUP4 AND SWAP2 POP POP SWAP3 SWAP2 POP POP JUMP JUMPDEST PUSH0 PUSH2 0x3F3 DUP4 DUP4 PUSH2 0x3CC JUMP JUMPDEST SWAP2 POP DUP3 PUSH1 0x2 MUL DUP3 OR SWAP1 POP SWAP3 SWAP2 POP POP JUMP JUMPDEST PUSH2 0x40C DUP3 PUSH2 0x1F6 JUMP JUMPDEST PUSH8 0xFFFFFFFFFFFFFFFF DUP2 GT ISZERO PUSH2 0x425 JUMPI PUSH2 0x424 PUSH2 0x71 JUMP JUMPDEST JUMPDEST PUSH2 0x42F DUP3 SLOAD PUSH2 0x22D JUMP JUMPDEST PUSH2 0x43A DUP3 DUP3 DUP6 PUSH2 0x37A JUMP JUMPDEST PUSH0 PUSH1 0x20 SWAP1 POP PUSH1 0x1F DUP4 GT PUSH1 0x1 DUP2 EQ PUSH2 0x46B JUMPI PUSH0 DUP5 ISZERO PUSH2 0x459 JUMPI DUP3 DUP8 ADD MLOAD SWAP1 POP JUMPDEST PUSH2 0x463 DUP6 DUP3 PUSH2 0x3E8 JUMP JUMPDEST DUP7 SSTORE POP PUSH2 0x4CA JUMP JUMPDEST PUSH1 0x1F NOT DUP5 AND PUSH2 0x479 DUP7 PUSH2 0x25D JUMP JUMPDEST PUSH0 JUMPDEST DUP3 DUP2 LT ISZERO PUSH2 0x4A0 JUMPI DUP5 DUP10 ADD MLOAD DUP3 SSTORE PUSH1 0x1 DUP3 ADD SWAP2 POP PUSH1 0x20 DUP6 ADD SWAP5 POP PUSH1 0x20 DUP2 ADD SWAP1 POP PUSH2 0x47B JUMP JUMPDEST DUP7 DUP4 LT ISZERO PUSH2 0x4BD JUMPI DUP5 DUP10 ADD MLOAD PUSH2 0x4B9 PUSH1 0x1F DUP10 AND DUP3 PUSH2 0x3CC JUMP JUMPDEST DUP4 SSTORE POP JUMPDEST PUSH1 0x1 PUSH1 0x2 DUP9 MUL ADD DUP9 SSTORE POP POP POP JUMPDEST POP POP POP POP POP POP JUMP JUMPDEST PUSH2 0x213 DUP1 PUSH2 0x4DF PUSH0 CODECOPY PUSH0 RETURN INVALID PUSH1 0x80 PUSH1 0x40 MSTORE CALLVALUE DUP1 ISZERO PUSH2 0xF JUMPI PUSH0 DUP1 REVERT JUMPDEST POP PUSH1 0x4 CALLDATASIZE LT PUSH2 0x29 JUMPI PUSH0 CALLDATALOAD PUSH1 0xE0 SHR DUP1 PUSH4 0x6FDDE03 EQ PUSH2 0x2D JUMPI JUMPDEST PUSH0 DUP1 REVERT JUMPDEST PUSH2 0x35 PUSH2 0x4B JUMP JUMPDEST PUSH1 0x40 MLOAD PUSH2 0x42 SWAP2 SWAP1 PUSH2 0x160 JUMP JUMPDEST PUSH1 0x40 MLOAD DUP1 SWAP2 SUB SWAP1 RETURN JUMPDEST PUSH0 DUP1 SLOAD PUSH2 0x57 SWAP1 PUSH2 0x1AD JUMP JUMPDEST DUP1 PUSH1 0x1F ADD PUSH1 0x20 DUP1 SWAP2 DIV MUL PUSH1 0x20 ADD PUSH1 0x40 MLOAD SWAP1 DUP2 ADD PUSH1 0x40 MSTORE DUP1 SWAP3 SWAP2 SWAP1 DUP2 DUP2 MSTORE PUSH1 0x20 ADD DUP3 DUP1 SLOAD PUSH2 0x83 SWAP1 PUSH2 0x1AD JUMP JUMPDEST DUP1 ISZERO PUSH2 0xCE JUMPI DUP1 PUSH1 0x1F LT PUSH2 0xA5 JUMPI PUSH2 0x100 DUP1 DUP4 SLOAD DIV MUL DUP4 MSTORE SWAP2 PUSH1 0x20 ADD SWAP2 PUSH2 0xCE JUMP JUMPDEST DUP3 ADD SWAP2 SWAP1 PUSH0 MSTORE PUSH1 0x20 PUSH0 KECCAK256 SWAP1 JUMPDEST DUP2 SLOAD DUP2 MSTORE SWAP1 PUSH1 0x1 ADD SWAP1 PUSH1 0x20 ADD DUP1 DUP4 GT PUSH2 0xB1 JUMPI DUP3 SWAP1 SUB PUSH1 0x1F AND DUP3 ADD SWAP2 JUMPDEST POP POP POP POP POP DUP2 JUMP JUMPDEST PUSH0 DUP2 MLOAD SWAP1 POP SWAP2 SWAP1 POP JUMP JUMPDEST PUSH0 DUP3 DUP3 MSTORE PUSH1 0x20 DUP3 ADD SWAP1 POP SWAP3 SWAP2 POP POP JUMP JUMPDEST PUSH0 JUMPDEST DUP4 DUP2 LT ISZERO PUSH2 0x10D JUMPI DUP1 DUP3 ADD MLOAD DUP2 DUP5 ADD MSTORE PUSH1 0x20 DUP2 ADD SWAP1 POP PUSH2 0xF2 JUMP JUMPDEST PUSH0 DUP5 DUP5 ADD MSTORE POP POP POP POP JUMP JUMPDEST PUSH0 PUSH1 0x1F NOT PUSH1 0x1F DUP4 ADD AND SWAP1 POP SWAP2 SWAP1 POP JUMP JUMPDEST PUSH0 PUSH2 0x132 DUP3 PUSH2 0xD6 JUMP JUMPDEST PUSH2 0x13C DUP2 DUP6 PUSH2 0xE0 JUMP JUMPDEST SWAP4 POP PUSH2 0x14C DUP2 DUP6 PUSH1 0x20 DUP7 ADD PUSH2 0xF0 JUMP JUMPDEST PUSH2 0x155 DUP2 PUSH2 0x118 JUMP JUMPDEST DUP5 ADD SWAP2 POP POP SWAP3 SWAP2 POP POP JUMP JUMPDEST PUSH0 PUSH1 0x20 DUP3 ADD SWAP1 POP DUP2 DUP2 SUB PUSH0 DUP4 ADD MSTORE PUSH2 0x178 DUP2 DUP5 PUSH2 0x128 JUMP JUMPDEST SWAP1 POP SWAP3 SWAP2 POP POP JUMP JUMPDEST PUSH32 0x4E487B7100000000000000000000000000000000000000000000000000000000 PUSH0 MSTORE PUSH1 0x22 PUSH1 0x4 MSTORE PUSH1 0x24 PUSH0 REVERT JUMPDEST PUSH0 PUSH1 0x2 DUP3 DIV SWAP1 POP PUSH1 0x1 DUP3 AND DUP1 PUSH2 0x1C4 JUMPI PUSH1 0x7F DUP3 AND SWAP2 POP JUMPDEST PUSH1 0x20 DUP3 LT DUP2 SUB PUSH2 0x1D7 JUMPI PUSH2 0x1D6 PUSH2 0x180 JUMP JUMPDEST JUMPDEST POP SWAP2 SWAP1 POP JUMP INVALID LOG2 PUSH5 0x6970667358 0x22 SLT KECCAK256 PUSH7 0xABF307B3580398 PUSH7 0xD0CAE560EE060C 0xB6 PUSH26 0x800AC4AEFED129D0E6D4E7AD7B1664736F6C6343000816003300 "
		},
		"gasEstimates": {
			"creation": {
				"codeDepositCost": "106200",
				"executionCost": "infinite",
				"totalCost": "infinite"
			},
			"external": {
				"name()": "infinite"
			}
		},
		"methodIdentifiers": {
			"name()": "06fdde03"
		}
	},
	"abi": [
		{
			"inputs": [
				{
					"internalType": "string",
					"name": "_name",
					"type": "string"
				}
			],
			"stateMutability": "nonpayable",
			"type": "constructor"
		},
		{
			"inputs": [],
			"name": "name",
			"outputs": [
				{
					"internalType": "string",
					"name": "",
					"type": "string"
				}
			],
			"stateMutability": "view",
			"type": "function"
		}
	]
}