{
	"contracts/SomeContract.sol": {
		"SomeContract": {
			"abi": [
				{
					"inputs": [
						{
							"internalType": "uint256",
							"name": "number",
							"type": "uint256"
						}
					],
					"name": "add3",
					"outputs": [
						{
							"internalType": "uint256",
							"name": "",
							"type": "uint256"
						}
					],
					"stateMutability": "pure",
					"type": "function"
				}
			],
			"devdoc": {
				"kind": "dev",
				"methods": {},
				"version": 1
			},
			"evm": {
				"assembly": "    /* \"contracts/SomeContract.sol\":90:264  contract SomeContract {... */\n  mstore(0x40, 0x80)\n  callvalue\n  dup1\n  iszero\n  tag_1\n  jumpi\n  0x00\n  dup1\n  revert\ntag_1:\n  pop\n  dataSize(sub_0)\n  dup1\n  dataOffset(sub_0)\n  0x00\n  codecopy\n  0x00\n  return\nstop\n\nsub_0: assembly {\n        /* \"contracts/SomeContract.sol\":90:264  contract SomeContract {... */\n      mstore(0x40, 0x80)\n      callvalue\n      dup1\n      iszero\n      tag_1\n      jumpi\n      0x00\n      dup1\n      revert\n    tag_1:\n      pop\n      jumpi(tag_2, lt(calldatasize, 0x04))\n      shr(0xe0, calldataload(0x00))\n      dup1\n      0x36005839\n      eq\n      tag_3\n      jumpi\n    tag_2:\n      0x00\n      dup1\n      revert\n        /* \"contracts/SomeContract.sol\":164:261  function add3(uint number) public pure returns (uint) {... */\n    tag_3:\n      tag_4\n      0x04\n      dup1\n      calldatasize\n      sub\n      dup2\n      add\n      swap1\n      tag_5\n      swap2\n      swap1\n      tag_6\n      jump\t// in\n    tag_5:\n      tag_7\n      jump\t// in\n    tag_4:\n      mload(0x40)\n      tag_8\n      swap2\n      swap1\n      tag_9\n      jump\t// in\n    tag_8:\n      mload(0x40)\n      dup1\n      swap2\n      sub\n      swap1\n      return\n    tag_7:\n        /* \"contracts/SomeContract.sol\":212:216  uint */\n      0x00\n        /* \"contracts/SomeContract.sol\":236:242  number */\n      dup2\n        /* \"contracts/SomeContract.sol\":236:246  number.add */\n      linkerSymbol(\"4ad2bc4b0078c2e4199685d6d735f46821b498081a518da96fbc55c83f5ac0b0\")\n      0x771602f7\n      swap1\n      swap2\n        /* \"contracts/SomeContract.sol\":247:248  3 */\n      0x03\n        /* \"contracts/SomeContract.sol\":236:249  number.add(3) */\n      mload(0x40)\n      dup4\n      0xffffffff\n      and\n      0xe0\n      shl\n      dup2\n      mstore\n      0x04\n      add\n      tag_11\n      swap3\n      swap2\n      swap1\n      tag_12\n      jump\t// in\n    tag_11:\n      0x20\n      mload(0x40)\n      dup1\n      dup4\n      sub\n      dup2\n      dup7\n      gas\n      delegatecall\n      iszero\n      dup1\n      iszero\n      tag_14\n      jumpi\n      returndatasize\n      0x00\n      dup1\n      returndatacopy\n      revert(0x00, returndatasize)\n    tag_14:\n      pop\n      pop\n      pop\n      pop\n      mload(0x40)\n      returndatasize\n      not(0x1f)\n      0x1f\n      dup3\n      add\n      and\n      dup3\n      add\n      dup1\n      0x40\n      mstore\n      pop\n      dup2\n      add\n      swap1\n      tag_15\n      swap2\n      swap1\n      tag_16\n      jump\t// in\n    tag_15:\n        /* \"contracts/SomeContract.sol\":229:249  return number.add(3) */\n      swap1\n      pop\n        /* \"contracts/SomeContract.sol\":164:261  function add3(uint number) public pure returns (uint) {... */\n      swap2\n      swap1\n      pop\n      jump\t// out\n        /* \"#utility.yul\":88:205   */\n    tag_18:\n        /* \"#utility.yul\":197:198   */\n      0x00\n        /* \"#utility.yul\":194:195   */\n      dup1\n        /* \"#utility.yul\":187:199   */\n      revert\n        /* \"#utility.yul\":334:411   */\n    tag_20:\n        /* \"#utility.yul\":371:378   */\n      0x00\n        /* \"#utility.yul\":400:405   */\n      dup2\n        /* \"#utility.yul\":389:405   */\n      swap1\n      pop\n        /* \"#utility.yul\":334:411   */\n      swap2\n      swap1\n      pop\n      jump\t// out\n        /* \"#utility.yul\":417:539   */\n    tag_21:\n        /* \"#utility.yul\":490:514   */\n      tag_36\n        /* \"#utility.yul\":508:513   */\n      dup2\n        /* \"#utility.yul\":490:514   */\n      tag_20\n      jump\t// in\n    tag_36:\n        /* \"#utility.yul\":483:488   */\n      dup2\n        /* \"#utility.yul\":480:515   */\n      eq\n        /* \"#utility.yul\":470:533   */\n      tag_37\n      jumpi\n        /* \"#utility.yul\":529:530   */\n      0x00\n        /* \"#utility.yul\":526:527   */\n      dup1\n        /* \"#utility.yul\":519:531   */\n      revert\n        /* \"#utility.yul\":470:533   */\n    tag_37:\n        /* \"#utility.yul\":417:539   */\n      pop\n      jump\t// out\n        /* \"#utility.yul\":545:684   */\n    tag_22:\n        /* \"#utility.yul\":591:596   */\n      0x00\n        /* \"#utility.yul\":629:635   */\n      dup2\n        /* \"#utility.yul\":616:636   */\n      calldataload\n        /* \"#utility.yul\":607:636   */\n      swap1\n      pop\n        /* \"#utility.yul\":645:678   */\n      tag_39\n        /* \"#utility.yul\":672:677   */\n      dup2\n        /* \"#utility.yul\":645:678   */\n      tag_21\n      jump\t// in\n    tag_39:\n        /* \"#utility.yul\":545:684   */\n      swap3\n      swap2\n      pop\n      pop\n      jump\t// out\n        /* \"#utility.yul\":690:1019   */\n    tag_6:\n        /* \"#utility.yul\":749:755   */\n      0x00\n        /* \"#utility.yul\":798:800   */\n      0x20\n        /* \"#utility.yul\":786:795   */\n      dup3\n        /* \"#utility.yul\":777:784   */\n      dup5\n        /* \"#utility.yul\":773:796   */\n      sub\n        /* \"#utility.yul\":769:801   */\n      slt\n        /* \"#utility.yul\":766:885   */\n      iszero\n      tag_41\n      jumpi\n        /* \"#utility.yul\":804:883   */\n      tag_42\n      tag_18\n      jump\t// in\n    tag_42:\n        /* \"#utility.yul\":766:885   */\n    tag_41:\n        /* \"#utility.yul\":924:925   */\n      0x00\n        /* \"#utility.yul\":949:1002   */\n      tag_43\n        /* \"#utility.yul\":994:1001   */\n      dup5\n        /* \"#utility.yul\":985:991   */\n      dup3\n        /* \"#utility.yul\":974:983   */\n      dup6\n        /* \"#utility.yul\":970:992   */\n      add\n        /* \"#utility.yul\":949:1002   */\n      tag_22\n      jump\t// in\n    tag_43:\n        /* \"#utility.yul\":939:1002   */\n      swap2\n      pop\n        /* \"#utility.yul\":895:1012   */\n      pop\n        /* \"#utility.yul\":690:1019   */\n      swap3\n      swap2\n      pop\n      pop\n      jump\t// out\n        /* \"#utility.yul\":1025:1143   */\n    tag_23:\n        /* \"#utility.yul\":1112:1136   */\n      tag_45\n        /* \"#utility.yul\":1130:1135   */\n      dup2\n        /* \"#utility.yul\":1112:1136   */\n      tag_20\n      jump\t// in\n    tag_45:\n        /* \"#utility.yul\":1107:1110   */\n      dup3\n        /* \"#utility.yul\":1100:1137   */\n      mstore\n        /* \"#utility.yul\":1025:1143   */\n      pop\n      pop\n      jump\t// out\n        /* \"#utility.yul\":1149:1371   */\n    tag_9:\n        /* \"#utility.yul\":1242:1246   */\n      0x00\n        /* \"#utility.yul\":1280:1282   */\n      0x20\n        /* \"#utility.yul\":1269:1278   */\n      dup3\n        /* \"#utility.yul\":1265:1283   */\n      add\n        /* \"#utility.yul\":1257:1283   */\n      swap1\n      pop\n        /* \"#utility.yul\":1293:1364   */\n      tag_47\n        /* \"#utility.yul\":1361:1362   */\n      0x00\n        /* \"#utility.yul\":1350:1359   */\n      dup4\n        /* \"#utility.yul\":1346:1363   */\n      add\n        /* \"#utility.yul\":1337:1343   */\n      dup5\n        /* \"#utility.yul\":1293:1364   */\n      tag_23\n      jump\t// in\n    tag_47:\n        /* \"#utility.yul\":1149:1371   */\n      swap3\n      swap2\n      pop\n      pop\n      jump\t// out\n        /* \"#utility.yul\":1377:1503   */\n    tag_24:\n        /* \"#utility.yul\":1472:1496   */\n      tag_49\n        /* \"#utility.yul\":1490:1495   */\n      dup2\n        /* \"#utility.yul\":1472:1496   */\n      tag_20\n      jump\t// in\n    tag_49:\n        /* \"#utility.yul\":1467:1470   */\n      dup3\n        /* \"#utility.yul\":1460:1497   */\n      mstore\n        /* \"#utility.yul\":1377:1503   */\n      pop\n      pop\n      jump\t// out\n        /* \"#utility.yul\":1509:1594   */\n    tag_25:\n        /* \"#utility.yul\":1554:1561   */\n      0x00\n        /* \"#utility.yul\":1583:1588   */\n      dup2\n        /* \"#utility.yul\":1572:1588   */\n      swap1\n      pop\n        /* \"#utility.yul\":1509:1594   */\n      swap2\n      swap1\n      pop\n      jump\t// out\n        /* \"#utility.yul\":1600:1660   */\n    tag_26:\n        /* \"#utility.yul\":1628:1631   */\n      0x00\n        /* \"#utility.yul\":1649:1654   */\n      dup2\n        /* \"#utility.yul\":1642:1654   */\n      swap1\n      pop\n        /* \"#utility.yul\":1600:1660   */\n      swap2\n      swap1\n      pop\n      jump\t// out\n        /* \"#utility.yul\":1666:1824   */\n    tag_27:\n        /* \"#utility.yul\":1724:1733   */\n      0x00\n        /* \"#utility.yul\":1757:1818   */\n      tag_53\n        /* \"#utility.yul\":1775:1817   */\n      tag_54\n        /* \"#utility.yul\":1784:1816   */\n      tag_55\n        /* \"#utility.yul\":1810:1815   */\n      dup5\n        /* \"#utility.yul\":1784:1816   */\n      tag_25\n      jump\t// in\n    tag_55:\n        /* \"#utility.yul\":1775:1817   */\n      tag_26\n      jump\t// in\n    tag_54:\n        /* \"#utility.yul\":1757:1818   */\n      tag_20\n      jump\t// in\n    tag_53:\n        /* \"#utility.yul\":1744:1818   */\n      swap1\n      pop\n        /* \"#utility.yul\":1666:1824   */\n      swap2\n      swap1\n      pop\n      jump\t// out\n        /* \"#utility.yul\":1830:1985   */\n    tag_28:\n        /* \"#utility.yul\":1933:1978   */\n      tag_57\n        /* \"#utility.yul\":1972:1977   */\n      dup2\n        /* \"#utility.yul\":1933:1978   */\n      tag_27\n      jump\t// in\n    tag_57:\n        /* \"#utility.yul\":1928:1931   */\n      dup3\n        /* \"#utility.yul\":1921:1979   */\n      mstore\n        /* \"#utility.yul\":1830:1985   */\n      pop\n      pop\n      jump\t// out\n        /* \"#utility.yul\":1991:2363   */\n    tag_12:\n        /* \"#utility.yul\":2128:2132   */\n      0x00\n        /* \"#utility.yul\":2166:2168   */\n      0x40\n        /* \"#utility.yul\":2155:2164   */\n      dup3\n        /* \"#utility.yul\":2151:2169   */\n      add\n        /* \"#utility.yul\":2143:2169   */\n      swap1\n      pop\n        /* \"#utility.yul\":2179:2258   */\n      tag_59\n        /* \"#utility.yul\":2255:2256   */\n      0x00\n        /* \"#utility.yul\":2244:2253   */\n      dup4\n        /* \"#utility.yul\":2240:2257   */\n      add\n        /* \"#utility.yul\":2231:2237   */\n      dup6\n        /* \"#utility.yul\":2179:2258   */\n      tag_24\n      jump\t// in\n    tag_59:\n        /* \"#utility.yul\":2268:2356   */\n      tag_60\n        /* \"#utility.yul\":2352:2354   */\n      0x20\n        /* \"#utility.yul\":2341:2350   */\n      dup4\n        /* \"#utility.yul\":2337:2355   */\n      add\n        /* \"#utility.yul\":2328:2334   */\n      dup5\n        /* \"#utility.yul\":2268:2356   */\n      tag_28\n      jump\t// in\n    tag_60:\n        /* \"#utility.yul\":1991:2363   */\n      swap4\n      swap3\n      pop\n      pop\n      pop\n      jump\t// out\n        /* \"#utility.yul\":2369:2512   */\n    tag_29:\n        /* \"#utility.yul\":2426:2431   */\n      0x00\n        /* \"#utility.yul\":2457:2463   */\n      dup2\n        /* \"#utility.yul\":2451:2464   */\n      mload\n        /* \"#utility.yul\":2442:2464   */\n      swap1\n      pop\n        /* \"#utility.yul\":2473:2506   */\n      tag_62\n        /* \"#utility.yul\":2500:2505   */\n      dup2\n        /* \"#utility.yul\":2473:2506   */\n      tag_21\n      jump\t// in\n    tag_62:\n        /* \"#utility.yul\":2369:2512   */\n      swap3\n      swap2\n      pop\n      pop\n      jump\t// out\n        /* \"#utility.yul\":2518:2869   */\n    tag_16:\n        /* \"#utility.yul\":2588:2594   */\n      0x00\n        /* \"#utility.yul\":2637:2639   */\n      0x20\n        /* \"#utility.yul\":2625:2634   */\n      dup3\n        /* \"#utility.yul\":2616:2623   */\n      dup5\n        /* \"#utility.yul\":2612:2635   */\n      sub\n        /* \"#utility.yul\":2608:2640   */\n      slt\n        /* \"#utility.yul\":2605:2724   */\n      iszero\n      tag_64\n      jumpi\n        /* \"#utility.yul\":2643:2722   */\n      tag_65\n      tag_18\n      jump\t// in\n    tag_65:\n        /* \"#utility.yul\":2605:2724   */\n    tag_64:\n        /* \"#utility.yul\":2763:2764   */\n      0x00\n        /* \"#utility.yul\":2788:2852   */\n      tag_66\n        /* \"#utility.yul\":2844:2851   */\n      dup5\n        /* \"#utility.yul\":2835:2841   */\n      dup3\n        /* \"#utility.yul\":2824:2833   */\n      dup6\n        /* \"#utility.yul\":2820:2842   */\n      add\n        /* \"#utility.yul\":2788:2852   */\n      tag_29\n      jump\t// in\n    tag_66:\n        /* \"#utility.yul\":2778:2852   */\n      swap2\n      pop\n        /* \"#utility.yul\":2734:2862   */\n      pop\n        /* \"#utility.yul\":2518:2869   */\n      swap3\n      swap2\n      pop\n      pop\n      jump\t// out\n\n    auxdata: 0xa26469706673582212207d1d1cc094aaa4164f3a4966bf683c7f808e7a930626d163c03bf304e111c3ea64736f6c63430008160033\n}\n",
				"bytecode": {
					"linkReferences": {
						"contracts/SomeLibrary.sol": {
							"SomeLibrary": [
								{
									"length": 20,
									"start": 126
								}
							]
						}
					},
					"object": "608060405234801561000f575f80fd5b506102578061001d5f395ff3fe608060405234801561000f575f80fd5b5060043610610029575f3560e01c8063360058391461002d575b5f80fd5b61004760048036038101906100429190610117565b61005d565b6040516100549190610151565b60405180910390f35b5f8173__$4ad2bc4b0078c2e4199685d6d735f46821$__63771602f7909160036040518363ffffffff1660e01b815260040161009a9291906101bb565b602060405180830381865af41580156100b5573d5f803e3d5ffd5b505050506040513d601f19601f820116820180604052508101906100d991906101f6565b9050919050565b5f80fd5b5f819050919050565b6100f6816100e4565b8114610100575f80fd5b50565b5f81359050610111816100ed565b92915050565b5f6020828403121561012c5761012b6100e0565b5b5f61013984828501610103565b91505092915050565b61014b816100e4565b82525050565b5f6020820190506101645f830184610142565b92915050565b610173816100e4565b82525050565b5f819050919050565b5f819050919050565b5f6101a56101a061019b84610179565b610182565b6100e4565b9050919050565b6101b58161018b565b82525050565b5f6040820190506101ce5f83018561016a565b6101db60208301846101ac565b9392505050565b5f815190506101f0816100ed565b92915050565b5f6020828403121561020b5761020a6100e0565b5b5f610218848285016101e2565b9150509291505056fea26469706673582212207d1d1cc094aaa4164f3a4966bf683c7f808e7a930626d163c03bf304e111c3ea64736f6c63430008160033",
					"opcodes": "PUSH1 0x80 PUSH1 0x40 MSTORE CALLVALUE DUP1 ISZERO PUSH2 0xF JUMPI PUSH0 DUP1 REVERT JUMPDEST POP PUSH2 0x257 DUP1 PUSH2 0x1D PUSH0 CODECOPY PUSH0 RETURN INVALID PUSH1 0x80 PUSH1 0x40 MSTORE CALLVALUE DUP1 ISZERO PUSH2 0xF JUMPI PUSH0 DUP1 REVERT JUMPDEST POP PUSH1 0x4 CALLDATASIZE LT PUSH2 0x29 JUMPI PUSH0 CALLDATALOAD PUSH1 0xE0 SHR DUP1 PUSH4 0x36005839 EQ PUSH2 0x2D JUMPI JUMPDEST PUSH0 DUP1 REVERT JUMPDEST PUSH2 0x47 PUSH1 0x4 DUP1 CALLDATASIZE SUB DUP2 ADD SWAP1 PUSH2 0x42 SWAP2 SWAP1 PUSH2 0x117 JUMP JUMPDEST PUSH2 0x5D JUMP JUMPDEST PUSH1 0x40 MLOAD PUSH2 0x54 SWAP2 SWAP1 PUSH2 0x151 JUMP JUMPDEST PUSH1 0x40 MLOAD DUP1 SWAP2 SUB SWAP1 RETURN JUMPDEST PUSH0 DUP2 PUSH20 0x0 PUSH4 0x771602F7 SWAP1 SWAP2 PUSH1 0x3 PUSH1 0x40 MLOAD DUP4 PUSH4 0xFFFFFFFF AND PUSH1 0xE0 SHL DUP2 MSTORE PUSH1 0x4 ADD PUSH2 0x9A SWAP3 SWAP2 SWAP1 PUSH2 0x1BB JUMP JUMPDEST PUSH1 0x20 PUSH1 0x40 MLOAD DUP1 DUP4 SUB DUP2 DUP7 GAS DELEGATECALL ISZERO DUP1 ISZERO PUSH2 0xB5 JUMPI RETURNDATASIZE PUSH0 DUP1 RETURNDATACOPY RETURNDATASIZE PUSH0 REVERT JUMPDEST POP POP POP POP PUSH1 0x40 MLOAD RETURNDATASIZE PUSH1 0x1F NOT PUSH1 0x1F DUP3 ADD AND DUP3 ADD DUP1 PUSH1 0x40 MSTORE POP DUP2 ADD SWAP1 PUSH2 0xD9 SWAP2 SWAP1 PUSH2 0x1F6 JUMP JUMPDEST SWAP1 POP SWAP2 SWAP1 POP JUMP JUMPDEST PUSH0 DUP1 REVERT JUMPDEST PUSH0 DUP2 SWAP1 POP SWAP2 SWAP1 POP JUMP JUMPDEST PUSH2 0xF6 DUP2 PUSH2 0xE4 JUMP JUMPDEST DUP2 EQ PUSH2 0x100 JUMPI PUSH0 DUP1 REVERT JUMPDEST POP JUMP JUMPDEST PUSH0 DUP2 CALLDATALOAD SWAP1 POP PUSH2 0x111 DUP2 PUSH2 0xED JUMP JUMPDEST SWAP3 SWAP2 POP POP JUMP JUMPDEST PUSH0 PUSH1 0x20 DUP3 DUP5 SUB SLT ISZERO PUSH2 0x12C JUMPI PUSH2 0x12B PUSH2 0xE0 JUMP JUMPDEST JUMPDEST PUSH0 PUSH2 0x139 DUP5 DUP3 DUP6 ADD PUSH2 0x103 JUMP JUMPDEST SWAP2 POP POP SWAP3 SWAP2 POP POP JUMP JUMPDEST PUSH2 0x14B DUP2 PUSH2 0xE4 JUMP JUMPDEST DUP3 MSTORE POP POP JUMP JUMPDEST PUSH0 PUSH1 0x20 DUP3 ADD SWAP1 POP PUSH2 0x164 PUSH0 DUP4 ADD DUP5 PUSH2 0x142 JUMP JUMPDEST SWAP3 SWAP2 POP POP JUMP JUMPDEST PUSH2 0x173 DUP2 PUSH2 0xE4 JUMP JUMPDEST DUP3 MSTORE POP POP JUMP JUMPDEST PUSH0 DUP2 SWAP1 POP SWAP2 SWAP1 POP JUMP JUMPDEST PUSH0 DUP2 SWAP1 POP SWAP2 SWAP1 POP JUMP JUMPDEST PUSH0 PUSH2 0x1A5 PUSH2 0x1A0 PUSH2 0x19B DUP5 PUSH2 0x179 JUMP JUMPDEST PUSH2 0x182 JUMP JUMPDEST PUSH2 0xE4 JUMP JUMPDEST SWAP1 POP SWAP2 SWAP1 POP JUMP JUMPDEST PUSH2 0x1B5 DUP2 PUSH2 0x18B JUMP JUMPDEST DUP3 MSTORE POP POP JUMP JUMPDEST PUSH0 PUSH1 0x40 DUP3 ADD SWAP1 POP PUSH2 0x1CE PUSH0 DUP4 ADD DUP6 PUSH2 0x16A JUMP JUMPDEST PUSH2 0x1DB PUSH1 0x20 DUP4 ADD DUP5 PUSH2 0x1AC JUMP JUMPDEST SWAP4 SWAP3 POP POP POP JUMP JUMPDEST PUSH0 DUP2 MLOAD SWAP1 POP PUSH2 0x1F0 DUP2 PUSH2 0xED JUMP JUMPDEST SWAP3 SWAP2 POP POP JUMP JUMPDEST PUSH0 PUSH1 0x20 DUP3 DUP5 SUB SLT ISZERO PUSH2 0x20B JUMPI PUSH2 0x20A PUSH2 0xE0 JUMP JUMPDEST JUMPDEST PUSH0 PUSH2 0x218 DUP5 DUP3 DUP6 ADD PUSH2 0x1E2 JUMP JUMPDEST SWAP2 POP POP SWAP3 SWAP2 POP POP JUMP INVALID LOG2 PUSH5 0x6970667358 0x22 SLT KECCAK256 PUSH30 0x1D1CC094AAA4164F3A4966BF683C7F808E7A930626D163C03BF304E111C3 0xEA PUSH5 0x736F6C6343 STOP ADDMOD AND STOP CALLER "
				},
				"gasEstimates": {
					"creation": {
						"codeDepositCost": "119800",
						"executionCost": "163",
						"totalCost": "119963"
					},
					"external": {
						"add3(uint256)": "infinite"
					}
				},
				"methodIdentifiers": {
					"add3(uint256)": "36005839"
				}
			},
			"storageLayout": {
				"storage": [],
				"types": null
			},
			"userdoc": {
				"kind": "user",
				"methods": {},
				"version": 1
			}
		}
	}
}