{
	"contracts/AbiEncode.sol": {
		"AbiEncode": {
			"abi": [
				{
					"anonymous": false,
					"inputs": [
						{
							"indexed": false,
							"internalType": "bytes",
							"name": "res",
							"type": "bytes"
						},
						{
							"indexed": false,
							"internalType": "string",
							"name": "strres",
							"type": "string"
						}
					],
					"name": "log",
					"type": "event"
				},
				{
					"inputs": [
						{
							"internalType": "string",
							"name": "str1",
							"type": "string"
						},
						{
							"internalType": "string",
							"name": "str2",
							"type": "string"
						}
					],
					"name": "encodeCall",
					"outputs": [
						{
							"internalType": "bytes",
							"name": "",
							"type": "bytes"
						}
					],
					"stateMutability": "pure",
					"type": "function"
				},
				{
					"inputs": [
						{
							"internalType": "string",
							"name": "str1",
							"type": "string"
						},
						{
							"internalType": "string",
							"name": "str2",
							"type": "string"
						}
					],
					"name": "encodeWithSelector",
					"outputs": [
						{
							"internalType": "bytes",
							"name": "",
							"type": "bytes"
						}
					],
					"stateMutability": "pure",
					"type": "function"
				},
				{
					"inputs": [
						{
							"internalType": "string",
							"name": "str1",
							"type": "string"
						},
						{
							"internalType": "string",
							"name": "str2",
							"type": "string"
						}
					],
					"name": "encodeWithSignature",
					"outputs": [
						{
							"internalType": "bytes",
							"name": "",
							"type": "bytes"
						}
					],
					"stateMutability": "pure",
					"type": "function"
				},
				{
					"inputs": [
						{
							"internalType": "address",
							"name": "_contract",
							"type": "address"
						},
						{
							"internalType": "bytes",
							"name": "data",
							"type": "bytes"
						}
					],
					"name": "test",
					"outputs": [
						{
							"internalType": "string",
							"name": "",
							"type": "string"
						}
					],
					"stateMutability": "nonpayable",
					"type": "function"
				}
			],
			"devdoc": {
				"kind": "dev",
				"methods": {},
				"version": 1
			},
			"evm": {
				"assembly": "    /* \"contracts/AbiEncode.sol\":177:1189  contract AbiEncode {... */\n  mstore(0x40, 0x80)\n  callvalue\n  dup1\n  iszero\n  tag_1\n  jumpi\n  0x00\n  dup1\n  revert\ntag_1:\n  pop\n  dataSize(sub_0)\n  dup1\n  dataOffset(sub_0)\n  0x00\n  codecopy\n  0x00\n  return\nstop\n\nsub_0: assembly {\n        /* \"contracts/AbiEncode.sol\":177:1189  contract AbiEncode {... */\n      mstore(0x40, 0x80)\n      callvalue\n      dup1\n      iszero\n      tag_1\n      jumpi\n      0x00\n      dup1\n      revert\n    tag_1:\n      pop\n      jumpi(tag_2, lt(calldatasize, 0x04))\n      shr(0xe0, calldataload(0x00))\n      dup1\n      0x83c027ec\n      eq\n      tag_3\n      jumpi\n      dup1\n      0x93e01418\n      eq\n      tag_4\n      jumpi\n      dup1\n      0xcbd3a291\n      eq\n      tag_5\n      jumpi\n      dup1\n      0xebc71074\n      eq\n      tag_6\n      jumpi\n    tag_2:\n      0x00\n      dup1\n      revert\n        /* \"contracts/AbiEncode.sol\":965:1186  function encodeCall(string memory str1,string memory str2) external pure returns (bytes memory) {... */\n    tag_3:\n      tag_7\n      0x04\n      dup1\n      calldatasize\n      sub\n      dup2\n      add\n      swap1\n      tag_8\n      swap2\n      swap1\n      tag_9\n      jump\t// in\n    tag_8:\n      tag_10\n      jump\t// in\n    tag_7:\n      mload(0x40)\n      tag_11\n      swap2\n      swap1\n      tag_12\n      jump\t// in\n    tag_11:\n      mload(0x40)\n      dup1\n      swap2\n      sub\n      swap1\n      return\n        /* \"contracts/AbiEncode.sol\":245:501  function test(address _contract, bytes calldata data) public returns(string memory) {... */\n    tag_4:\n      tag_13\n      0x04\n      dup1\n      calldatasize\n      sub\n      dup2\n      add\n      swap1\n      tag_14\n      swap2\n      swap1\n      tag_15\n      jump\t// in\n    tag_14:\n      tag_16\n      jump\t// in\n    tag_13:\n      mload(0x40)\n      tag_17\n      swap2\n      swap1\n      tag_18\n      jump\t// in\n    tag_17:\n      mload(0x40)\n      dup1\n      swap2\n      sub\n      swap1\n      return\n        /* \"contracts/AbiEncode.sol\":737:957  function encodeWithSelector(... */\n    tag_5:\n      tag_19\n      0x04\n      dup1\n      calldatasize\n      sub\n      dup2\n      add\n      swap1\n      tag_20\n      swap2\n      swap1\n      tag_9\n      jump\t// in\n    tag_20:\n      tag_21\n      jump\t// in\n    tag_19:\n      mload(0x40)\n      tag_22\n      swap2\n      swap1\n      tag_12\n      jump\t// in\n    tag_22:\n      mload(0x40)\n      dup1\n      swap2\n      sub\n      swap1\n      return\n        /* \"contracts/AbiEncode.sol\":509:729  function encodeWithSignature(... */\n    tag_6:\n      tag_23\n      0x04\n      dup1\n      calldatasize\n      sub\n      dup2\n      add\n      swap1\n      tag_24\n      swap2\n      swap1\n      tag_9\n      jump\t// in\n    tag_24:\n      tag_25\n      jump\t// in\n    tag_23:\n      mload(0x40)\n      tag_26\n      swap2\n      swap1\n      tag_12\n      jump\t// in\n    tag_26:\n      mload(0x40)\n      dup1\n      swap2\n      sub\n      swap1\n      return\n        /* \"contracts/AbiEncode.sol\":965:1186  function encodeCall(string memory str1,string memory str2) external pure returns (bytes memory) {... */\n    tag_10:\n        /* \"contracts/AbiEncode.sol\":1047:1059  bytes memory */\n      0x60\n        /* \"contracts/AbiEncode.sol\":1166:1170  str1 */\n      dup3\n        /* \"contracts/AbiEncode.sol\":1172:1176  str2 */\n      dup3\n        /* \"contracts/AbiEncode.sol\":1129:1178  abi.encodeCall(IMyString.strConcat, (str1, str2)) */\n      add(0x24, mload(0x40))\n      tag_28\n      swap3\n      swap2\n      swap1\n      tag_29\n      jump\t// in\n    tag_28:\n      mload(0x40)\n      0x20\n      dup2\n      dup4\n      sub\n      sub\n      dup2\n      mstore\n      swap1\n      0x40\n      mstore\n      shl(0xe0, 0xff74927b)\n      0x20\n      dup3\n      add\n      dup1\n      mload\n      0xffffffffffffffffffffffffffffffffffffffffffffffffffffffff\n      dup4\n      dup2\n      dup4\n      and\n      or\n      dup4\n      mstore\n      pop\n      pop\n      pop\n      pop\n        /* \"contracts/AbiEncode.sol\":1122:1178  return abi.encodeCall(IMyString.strConcat, (str1, str2)) */\n      swap1\n      pop\n        /* \"contracts/AbiEncode.sol\":965:1186  function encodeCall(string memory str1,string memory str2) external pure returns (bytes memory) {... */\n      swap3\n      swap2\n      pop\n      pop\n      jump\t// out\n        /* \"contracts/AbiEncode.sol\":245:501  function test(address _contract, bytes calldata data) public returns(string memory) {... */\n    tag_16:\n        /* \"contracts/AbiEncode.sol\":314:327  string memory */\n      0x60\n        /* \"contracts/AbiEncode.sol\":341:348  bool ok */\n      0x00\n        /* \"contracts/AbiEncode.sol\":350:366  bytes memory res */\n      dup1\n        /* \"contracts/AbiEncode.sol\":370:379  _contract */\n      dup6\n        /* \"contracts/AbiEncode.sol\":370:384  _contract.call */\n      0xffffffffffffffffffffffffffffffffffffffff\n      and\n        /* \"contracts/AbiEncode.sol\":385:389  data */\n      dup6\n      dup6\n        /* \"contracts/AbiEncode.sol\":370:390  _contract.call(data) */\n      mload(0x40)\n      tag_31\n      swap3\n      swap2\n      swap1\n      tag_32\n      jump\t// in\n    tag_31:\n      0x00\n      mload(0x40)\n      dup1\n      dup4\n      sub\n      dup2\n      0x00\n      dup7\n      gas\n      call\n      swap2\n      pop\n      pop\n      returndatasize\n      dup1\n      0x00\n      dup2\n      eq\n      tag_35\n      jumpi\n      mload(0x40)\n      swap2\n      pop\n      and(add(returndatasize, 0x3f), not(0x1f))\n      dup3\n      add\n      0x40\n      mstore\n      returndatasize\n      dup3\n      mstore\n      returndatasize\n      0x00\n      0x20\n      dup5\n      add\n      returndatacopy\n      jump(tag_34)\n    tag_35:\n      0x60\n      swap2\n      pop\n    tag_34:\n      pop\n        /* \"contracts/AbiEncode.sol\":340:390  (bool ok, bytes memory res) = _contract.call(data) */\n      swap2\n      pop\n      swap2\n      pop\n        /* \"contracts/AbiEncode.sol\":409:411  ok */\n      dup2\n        /* \"contracts/AbiEncode.sol\":401:427  require(ok, \"call failed\") */\n      tag_36\n      jumpi\n      mload(0x40)\n      0x08c379a000000000000000000000000000000000000000000000000000000000\n      dup2\n      mstore\n      0x04\n      add\n      tag_37\n      swap1\n      tag_38\n      jump\t// in\n    tag_37:\n      mload(0x40)\n      dup1\n      swap2\n      sub\n      swap1\n      revert\n    tag_36:\n        /* \"contracts/AbiEncode.sol\":443:464  log(res, string(res)) */\n      0x4fd69603ecb4e575f8a345051d766ec5ef30ae2205ecba35684aa98875ee0c2f\n        /* \"contracts/AbiEncode.sol\":447:450  res */\n      dup2\n        /* \"contracts/AbiEncode.sol\":459:462  res */\n      dup3\n        /* \"contracts/AbiEncode.sol\":443:464  log(res, string(res)) */\n      mload(0x40)\n      tag_39\n      swap3\n      swap2\n      swap1\n      tag_40\n      jump\t// in\n    tag_39:\n      mload(0x40)\n      dup1\n      swap2\n      sub\n      swap1\n      log1\n        /* \"contracts/AbiEncode.sol\":489:492  res */\n      dup1\n        /* \"contracts/AbiEncode.sol\":475:493  return string(res) */\n      swap3\n      pop\n      pop\n      pop\n        /* \"contracts/AbiEncode.sol\":245:501  function test(address _contract, bytes calldata data) public returns(string memory) {... */\n      swap4\n      swap3\n      pop\n      pop\n      pop\n      jump\t// out\n        /* \"contracts/AbiEncode.sol\":737:957  function encodeWithSelector(... */\n    tag_21:\n        /* \"contracts/AbiEncode.sol\":853:865  bytes memory */\n      0x60\n        /* \"contracts/AbiEncode.sol\":908:936  IMyString.strConcat.selector */\n      shl(0xe0, 0xff74927b)\n        /* \"contracts/AbiEncode.sol\":938:942  str1 */\n      dup4\n        /* \"contracts/AbiEncode.sol\":944:948  str2 */\n      dup4\n        /* \"contracts/AbiEncode.sol\":885:949  abi.encodeWithSelector(IMyString.strConcat.selector, str1, str2) */\n      add(0x24, mload(0x40))\n      tag_42\n      swap3\n      swap2\n      swap1\n      tag_29\n      jump\t// in\n    tag_42:\n      mload(0x40)\n      0x20\n      dup2\n      dup4\n      sub\n      sub\n      dup2\n      mstore\n      swap1\n      0x40\n      mstore\n      swap1\n      not(0xffffffffffffffffffffffffffffffffffffffffffffffffffffffff)\n      and\n      0x20\n      dup3\n      add\n      dup1\n      mload\n      0xffffffffffffffffffffffffffffffffffffffffffffffffffffffff\n      dup4\n      dup2\n      dup4\n      and\n      or\n      dup4\n      mstore\n      pop\n      pop\n      pop\n      pop\n        /* \"contracts/AbiEncode.sol\":878:949  return abi.encodeWithSelector(IMyString.strConcat.selector, str1, str2) */\n      swap1\n      pop\n        /* \"contracts/AbiEncode.sol\":737:957  function encodeWithSelector(... */\n      swap3\n      swap2\n      pop\n      pop\n      jump\t// out\n        /* \"contracts/AbiEncode.sol\":509:729  function encodeWithSignature(... */\n    tag_25:\n        /* \"contracts/AbiEncode.sol\":626:638  bytes memory */\n      0x60\n        /* \"contracts/AbiEncode.sol\":710:714  str1 */\n      dup3\n        /* \"contracts/AbiEncode.sol\":716:720  str2 */\n      dup3\n        /* \"contracts/AbiEncode.sol\":658:721  abi.encodeWithSignature(\"strConcat(string,string)\", str1, str2) */\n      add(0x24, mload(0x40))\n      tag_44\n      swap3\n      swap2\n      swap1\n      tag_29\n      jump\t// in\n    tag_44:\n      mload(0x40)\n      0x20\n      dup2\n      dup4\n      sub\n      sub\n      dup2\n      mstore\n      swap1\n      0x40\n      mstore\n      and(not(0xffffffffffffffffffffffffffffffffffffffffffffffffffffffff), 0xff74927b00000000000000000000000000000000000000000000000000000000)\n      0x20\n      dup3\n      add\n      dup1\n      mload\n      0xffffffffffffffffffffffffffffffffffffffffffffffffffffffff\n      dup4\n      dup2\n      dup4\n      and\n      or\n      dup4\n      mstore\n      pop\n      pop\n      pop\n      pop\n        /* \"contracts/AbiEncode.sol\":651:721  return abi.encodeWithSignature(\"strConcat(string,string)\", str1, str2) */\n      swap1\n      pop\n        /* \"contracts/AbiEncode.sol\":509:729  function encodeWithSignature(... */\n      swap3\n      swap2\n      pop\n      pop\n      jump\t// out\n        /* \"#utility.yul\":7:82   */\n    tag_45:\n        /* \"#utility.yul\":40:46   */\n      0x00\n        /* \"#utility.yul\":73:75   */\n      0x40\n        /* \"#utility.yul\":67:76   */\n      mload\n        /* \"#utility.yul\":57:76   */\n      swap1\n      pop\n        /* \"#utility.yul\":7:82   */\n      swap1\n      jump\t// out\n        /* \"#utility.yul\":88:205   */\n    tag_46:\n        /* \"#utility.yul\":197:198   */\n      0x00\n        /* \"#utility.yul\":194:195   */\n      dup1\n        /* \"#utility.yul\":187:199   */\n      revert\n        /* \"#utility.yul\":211:328   */\n    tag_47:\n        /* \"#utility.yul\":320:321   */\n      0x00\n        /* \"#utility.yul\":317:318   */\n      dup1\n        /* \"#utility.yul\":310:322   */\n      revert\n        /* \"#utility.yul\":334:451   */\n    tag_48:\n        /* \"#utility.yul\":443:444   */\n      0x00\n        /* \"#utility.yul\":440:441   */\n      dup1\n        /* \"#utility.yul\":433:445   */\n      revert\n        /* \"#utility.yul\":457:574   */\n    tag_49:\n        /* \"#utility.yul\":566:567   */\n      0x00\n        /* \"#utility.yul\":563:564   */\n      dup1\n        /* \"#utility.yul\":556:568   */\n      revert\n        /* \"#utility.yul\":580:682   */\n    tag_50:\n        /* \"#utility.yul\":621:627   */\n      0x00\n        /* \"#utility.yul\":672:674   */\n      0x1f\n        /* \"#utility.yul\":668:675   */\n      not\n        /* \"#utility.yul\":663:665   */\n      0x1f\n        /* \"#utility.yul\":656:661   */\n      dup4\n        /* \"#utility.yul\":652:666   */\n      add\n        /* \"#utility.yul\":648:676   */\n      and\n        /* \"#utility.yul\":638:676   */\n      swap1\n      pop\n        /* \"#utility.yul\":580:682   */\n      swap2\n      swap1\n      pop\n      jump\t// out\n        /* \"#utility.yul\":688:868   */\n    tag_51:\n        /* \"#utility.yul\":736:813   */\n      0x4e487b7100000000000000000000000000000000000000000000000000000000\n        /* \"#utility.yul\":733:734   */\n      0x00\n        /* \"#utility.yul\":726:814   */\n      mstore\n        /* \"#utility.yul\":833:837   */\n      0x41\n        /* \"#utility.yul\":830:831   */\n      0x04\n        /* \"#utility.yul\":823:838   */\n      mstore\n        /* \"#utility.yul\":857:861   */\n      0x24\n        /* \"#utility.yul\":854:855   */\n      0x00\n        /* \"#utility.yul\":847:862   */\n      revert\n        /* \"#utility.yul\":874:1155   */\n    tag_52:\n        /* \"#utility.yul\":957:984   */\n      tag_85\n        /* \"#utility.yul\":979:983   */\n      dup3\n        /* \"#utility.yul\":957:984   */\n      tag_50\n      jump\t// in\n    tag_85:\n        /* \"#utility.yul\":949:955   */\n      dup2\n        /* \"#utility.yul\":945:985   */\n      add\n        /* \"#utility.yul\":1087:1093   */\n      dup2\n        /* \"#utility.yul\":1075:1085   */\n      dup2\n        /* \"#utility.yul\":1072:1094   */\n      lt\n        /* \"#utility.yul\":1051:1069   */\n      0xffffffffffffffff\n        /* \"#utility.yul\":1039:1049   */\n      dup3\n        /* \"#utility.yul\":1036:1070   */\n      gt\n        /* \"#utility.yul\":1033:1095   */\n      or\n        /* \"#utility.yul\":1030:1118   */\n      iszero\n      tag_86\n      jumpi\n        /* \"#utility.yul\":1098:1116   */\n      tag_87\n      tag_51\n      jump\t// in\n    tag_87:\n        /* \"#utility.yul\":1030:1118   */\n    tag_86:\n        /* \"#utility.yul\":1138:1148   */\n      dup1\n        /* \"#utility.yul\":1134:1136   */\n      0x40\n        /* \"#utility.yul\":1127:1149   */\n      mstore\n        /* \"#utility.yul\":917:1155   */\n      pop\n        /* \"#utility.yul\":874:1155   */\n      pop\n      pop\n      jump\t// out\n        /* \"#utility.yul\":1161:1290   */\n    tag_53:\n        /* \"#utility.yul\":1195:1201   */\n      0x00\n        /* \"#utility.yul\":1222:1242   */\n      tag_89\n      tag_45\n      jump\t// in\n    tag_89:\n        /* \"#utility.yul\":1212:1242   */\n      swap1\n      pop\n        /* \"#utility.yul\":1251:1284   */\n      tag_90\n        /* \"#utility.yul\":1279:1283   */\n      dup3\n        /* \"#utility.yul\":1271:1277   */\n      dup3\n        /* \"#utility.yul\":1251:1284   */\n      tag_52\n      jump\t// in\n    tag_90:\n        /* \"#utility.yul\":1161:1290   */\n      swap2\n      swap1\n      pop\n      jump\t// out\n        /* \"#utility.yul\":1296:1604   */\n    tag_54:\n        /* \"#utility.yul\":1358:1362   */\n      0x00\n        /* \"#utility.yul\":1448:1466   */\n      0xffffffffffffffff\n        /* \"#utility.yul\":1440:1446   */\n      dup3\n        /* \"#utility.yul\":1437:1467   */\n      gt\n        /* \"#utility.yul\":1434:1490   */\n      iszero\n      tag_92\n      jumpi\n        /* \"#utility.yul\":1470:1488   */\n      tag_93\n      tag_51\n      jump\t// in\n    tag_93:\n        /* \"#utility.yul\":1434:1490   */\n    tag_92:\n        /* \"#utility.yul\":1508:1537   */\n      tag_94\n        /* \"#utility.yul\":1530:1536   */\n      dup3\n        /* \"#utility.yul\":1508:1537   */\n      tag_50\n      jump\t// in\n    tag_94:\n        /* \"#utility.yul\":1500:1537   */\n      swap1\n      pop\n        /* \"#utility.yul\":1592:1596   */\n      0x20\n        /* \"#utility.yul\":1586:1590   */\n      dup2\n        /* \"#utility.yul\":1582:1597   */\n      add\n        /* \"#utility.yul\":1574:1597   */\n      swap1\n      pop\n        /* \"#utility.yul\":1296:1604   */\n      swap2\n      swap1\n      pop\n      jump\t// out\n        /* \"#utility.yul\":1610:1756   */\n    tag_55:\n        /* \"#utility.yul\":1707:1713   */\n      dup3\n        /* \"#utility.yul\":1702:1705   */\n      dup2\n        /* \"#utility.yul\":1697:1700   */\n      dup4\n        /* \"#utility.yul\":1684:1714   */\n      calldatacopy\n        /* \"#utility.yul\":1748:1749   */\n      0x00\n        /* \"#utility.yul\":1739:1745   */\n      dup4\n        /* \"#utility.yul\":1734:1737   */\n      dup4\n        /* \"#utility.yul\":1730:1746   */\n      add\n        /* \"#utility.yul\":1723:1750   */\n      mstore\n        /* \"#utility.yul\":1610:1756   */\n      pop\n      pop\n      pop\n      jump\t// out\n        /* \"#utility.yul\":1762:2187   */\n    tag_56:\n        /* \"#utility.yul\":1840:1845   */\n      0x00\n        /* \"#utility.yul\":1865:1931   */\n      tag_97\n        /* \"#utility.yul\":1881:1930   */\n      tag_98\n        /* \"#utility.yul\":1923:1929   */\n      dup5\n        /* \"#utility.yul\":1881:1930   */\n      tag_54\n      jump\t// in\n    tag_98:\n        /* \"#utility.yul\":1865:1931   */\n      tag_53\n      jump\t// in\n    tag_97:\n        /* \"#utility.yul\":1856:1931   */\n      swap1\n      pop\n        /* \"#utility.yul\":1954:1960   */\n      dup3\n        /* \"#utility.yul\":1947:1952   */\n      dup2\n        /* \"#utility.yul\":1940:1961   */\n      mstore\n        /* \"#utility.yul\":1992:1996   */\n      0x20\n        /* \"#utility.yul\":1985:1990   */\n      dup2\n        /* \"#utility.yul\":1981:1997   */\n      add\n        /* \"#utility.yul\":2030:2033   */\n      dup5\n        /* \"#utility.yul\":2021:2027   */\n      dup5\n        /* \"#utility.yul\":2016:2019   */\n      dup5\n        /* \"#utility.yul\":2012:2028   */\n      add\n        /* \"#utility.yul\":2009:2034   */\n      gt\n        /* \"#utility.yul\":2006:2118   */\n      iszero\n      tag_99\n      jumpi\n        /* \"#utility.yul\":2037:2116   */\n      tag_100\n      tag_49\n      jump\t// in\n    tag_100:\n        /* \"#utility.yul\":2006:2118   */\n    tag_99:\n        /* \"#utility.yul\":2127:2181   */\n      tag_101\n        /* \"#utility.yul\":2174:2180   */\n      dup5\n        /* \"#utility.yul\":2169:2172   */\n      dup3\n        /* \"#utility.yul\":2164:2167   */\n      dup6\n        /* \"#utility.yul\":2127:2181   */\n      tag_55\n      jump\t// in\n    tag_101:\n        /* \"#utility.yul\":1846:2187   */\n      pop\n        /* \"#utility.yul\":1762:2187   */\n      swap4\n      swap3\n      pop\n      pop\n      pop\n      jump\t// out\n        /* \"#utility.yul\":2207:2547   */\n    tag_57:\n        /* \"#utility.yul\":2263:2268   */\n      0x00\n        /* \"#utility.yul\":2312:2315   */\n      dup3\n        /* \"#utility.yul\":2305:2309   */\n      0x1f\n        /* \"#utility.yul\":2297:2303   */\n      dup4\n        /* \"#utility.yul\":2293:2310   */\n      add\n        /* \"#utility.yul\":2289:2316   */\n      slt\n        /* \"#utility.yul\":2279:2401   */\n      tag_103\n      jumpi\n        /* \"#utility.yul\":2320:2399   */\n      tag_104\n      tag_48\n      jump\t// in\n    tag_104:\n        /* \"#utility.yul\":2279:2401   */\n    tag_103:\n        /* \"#utility.yul\":2437:2443   */\n      dup2\n        /* \"#utility.yul\":2424:2444   */\n      calldataload\n        /* \"#utility.yul\":2462:2541   */\n      tag_105\n        /* \"#utility.yul\":2537:2540   */\n      dup5\n        /* \"#utility.yul\":2529:2535   */\n      dup3\n        /* \"#utility.yul\":2522:2526   */\n      0x20\n        /* \"#utility.yul\":2514:2520   */\n      dup7\n        /* \"#utility.yul\":2510:2527   */\n      add\n        /* \"#utility.yul\":2462:2541   */\n      tag_56\n      jump\t// in\n    tag_105:\n        /* \"#utility.yul\":2453:2541   */\n      swap2\n      pop\n        /* \"#utility.yul\":2269:2547   */\n      pop\n        /* \"#utility.yul\":2207:2547   */\n      swap3\n      swap2\n      pop\n      pop\n      jump\t// out\n        /* \"#utility.yul\":2553:3387   */\n    tag_9:\n        /* \"#utility.yul\":2641:2647   */\n      0x00\n        /* \"#utility.yul\":2649:2655   */\n      dup1\n        /* \"#utility.yul\":2698:2700   */\n      0x40\n        /* \"#utility.yul\":2686:2695   */\n      dup4\n        /* \"#utility.yul\":2677:2684   */\n      dup6\n        /* \"#utility.yul\":2673:2696   */\n      sub\n        /* \"#utility.yul\":2669:2701   */\n      slt\n        /* \"#utility.yul\":2666:2785   */\n      iszero\n      tag_107\n      jumpi\n        /* \"#utility.yul\":2704:2783   */\n      tag_108\n      tag_46\n      jump\t// in\n    tag_108:\n        /* \"#utility.yul\":2666:2785   */\n    tag_107:\n        /* \"#utility.yul\":2852:2853   */\n      0x00\n        /* \"#utility.yul\":2841:2850   */\n      dup4\n        /* \"#utility.yul\":2837:2854   */\n      add\n        /* \"#utility.yul\":2824:2855   */\n      calldataload\n        /* \"#utility.yul\":2882:2900   */\n      0xffffffffffffffff\n        /* \"#utility.yul\":2874:2880   */\n      dup2\n        /* \"#utility.yul\":2871:2901   */\n      gt\n        /* \"#utility.yul\":2868:2985   */\n      iszero\n      tag_109\n      jumpi\n        /* \"#utility.yul\":2904:2983   */\n      tag_110\n      tag_47\n      jump\t// in\n    tag_110:\n        /* \"#utility.yul\":2868:2985   */\n    tag_109:\n        /* \"#utility.yul\":3009:3072   */\n      tag_111\n        /* \"#utility.yul\":3064:3071   */\n      dup6\n        /* \"#utility.yul\":3055:3061   */\n      dup3\n        /* \"#utility.yul\":3044:3053   */\n      dup7\n        /* \"#utility.yul\":3040:3062   */\n      add\n        /* \"#utility.yul\":3009:3072   */\n      tag_57\n      jump\t// in\n    tag_111:\n        /* \"#utility.yul\":2999:3072   */\n      swap3\n      pop\n        /* \"#utility.yul\":2795:3082   */\n      pop\n        /* \"#utility.yul\":3149:3151   */\n      0x20\n        /* \"#utility.yul\":3138:3147   */\n      dup4\n        /* \"#utility.yul\":3134:3152   */\n      add\n        /* \"#utility.yul\":3121:3153   */\n      calldataload\n        /* \"#utility.yul\":3180:3198   */\n      0xffffffffffffffff\n        /* \"#utility.yul\":3172:3178   */\n      dup2\n        /* \"#utility.yul\":3169:3199   */\n      gt\n        /* \"#utility.yul\":3166:3283   */\n      iszero\n      tag_112\n      jumpi\n        /* \"#utility.yul\":3202:3281   */\n      tag_113\n      tag_47\n      jump\t// in\n    tag_113:\n        /* \"#utility.yul\":3166:3283   */\n    tag_112:\n        /* \"#utility.yul\":3307:3370   */\n      tag_114\n        /* \"#utility.yul\":3362:3369   */\n      dup6\n        /* \"#utility.yul\":3353:3359   */\n      dup3\n        /* \"#utility.yul\":3342:3351   */\n      dup7\n        /* \"#utility.yul\":3338:3360   */\n      add\n        /* \"#utility.yul\":3307:3370   */\n      tag_57\n      jump\t// in\n    tag_114:\n        /* \"#utility.yul\":3297:3370   */\n      swap2\n      pop\n        /* \"#utility.yul\":3092:3380   */\n      pop\n        /* \"#utility.yul\":2553:3387   */\n      swap3\n      pop\n      swap3\n      swap1\n      pop\n      jump\t// out\n        /* \"#utility.yul\":3393:3491   */\n    tag_58:\n        /* \"#utility.yul\":3444:3450   */\n      0x00\n        /* \"#utility.yul\":3478:3483   */\n      dup2\n        /* \"#utility.yul\":3472:3484   */\n      mload\n        /* \"#utility.yul\":3462:3484   */\n      swap1\n      pop\n        /* \"#utility.yul\":3393:3491   */\n      swap2\n      swap1\n      pop\n      jump\t// out\n        /* \"#utility.yul\":3497:3665   */\n    tag_59:\n        /* \"#utility.yul\":3580:3591   */\n      0x00\n        /* \"#utility.yul\":3614:3620   */\n      dup3\n        /* \"#utility.yul\":3609:3612   */\n      dup3\n        /* \"#utility.yul\":3602:3621   */\n      mstore\n        /* \"#utility.yul\":3654:3658   */\n      0x20\n        /* \"#utility.yul\":3649:3652   */\n      dup3\n        /* \"#utility.yul\":3645:3659   */\n      add\n        /* \"#utility.yul\":3630:3659   */\n      swap1\n      pop\n        /* \"#utility.yul\":3497:3665   */\n      swap3\n      swap2\n      pop\n      pop\n      jump\t// out\n        /* \"#utility.yul\":3671:3917   */\n    tag_60:\n        /* \"#utility.yul\":3752:3753   */\n      0x00\n        /* \"#utility.yul\":3762:3875   */\n    tag_118:\n        /* \"#utility.yul\":3776:3782   */\n      dup4\n        /* \"#utility.yul\":3773:3774   */\n      dup2\n        /* \"#utility.yul\":3770:3783   */\n      lt\n        /* \"#utility.yul\":3762:3875   */\n      iszero\n      tag_120\n      jumpi\n        /* \"#utility.yul\":3861:3862   */\n      dup1\n        /* \"#utility.yul\":3856:3859   */\n      dup3\n        /* \"#utility.yul\":3852:3863   */\n      add\n        /* \"#utility.yul\":3846:3864   */\n      mload\n        /* \"#utility.yul\":3842:3843   */\n      dup2\n        /* \"#utility.yul\":3837:3840   */\n      dup5\n        /* \"#utility.yul\":3833:3844   */\n      add\n        /* \"#utility.yul\":3826:3865   */\n      mstore\n        /* \"#utility.yul\":3798:3800   */\n      0x20\n        /* \"#utility.yul\":3795:3796   */\n      dup2\n        /* \"#utility.yul\":3791:3801   */\n      add\n        /* \"#utility.yul\":3786:3801   */\n      swap1\n      pop\n        /* \"#utility.yul\":3762:3875   */\n      jump(tag_118)\n    tag_120:\n        /* \"#utility.yul\":3909:3910   */\n      0x00\n        /* \"#utility.yul\":3900:3906   */\n      dup5\n        /* \"#utility.yul\":3895:3898   */\n      dup5\n        /* \"#utility.yul\":3891:3907   */\n      add\n        /* \"#utility.yul\":3884:3911   */\n      mstore\n        /* \"#utility.yul\":3733:3917   */\n      pop\n        /* \"#utility.yul\":3671:3917   */\n      pop\n      pop\n      pop\n      jump\t// out\n        /* \"#utility.yul\":3923:4296   */\n    tag_61:\n        /* \"#utility.yul\":4009:4012   */\n      0x00\n        /* \"#utility.yul\":4037:4075   */\n      tag_122\n        /* \"#utility.yul\":4069:4074   */\n      dup3\n        /* \"#utility.yul\":4037:4075   */\n      tag_58\n      jump\t// in\n    tag_122:\n        /* \"#utility.yul\":4091:4161   */\n      tag_123\n        /* \"#utility.yul\":4154:4160   */\n      dup2\n        /* \"#utility.yul\":4149:4152   */\n      dup6\n        /* \"#utility.yul\":4091:4161   */\n      tag_59\n      jump\t// in\n    tag_123:\n        /* \"#utility.yul\":4084:4161   */\n      swap4\n      pop\n        /* \"#utility.yul\":4170:4235   */\n      tag_124\n        /* \"#utility.yul\":4228:4234   */\n      dup2\n        /* \"#utility.yul\":4223:4226   */\n      dup6\n        /* \"#utility.yul\":4216:4220   */\n      0x20\n        /* \"#utility.yul\":4209:4214   */\n      dup7\n        /* \"#utility.yul\":4205:4221   */\n      add\n        /* \"#utility.yul\":4170:4235   */\n      tag_60\n      jump\t// in\n    tag_124:\n        /* \"#utility.yul\":4260:4289   */\n      tag_125\n        /* \"#utility.yul\":4282:4288   */\n      dup2\n        /* \"#utility.yul\":4260:4289   */\n      tag_50\n      jump\t// in\n    tag_125:\n        /* \"#utility.yul\":4255:4258   */\n      dup5\n        /* \"#utility.yul\":4251:4290   */\n      add\n        /* \"#utility.yul\":4244:4290   */\n      swap2\n      pop\n        /* \"#utility.yul\":4013:4296   */\n      pop\n        /* \"#utility.yul\":3923:4296   */\n      swap3\n      swap2\n      pop\n      pop\n      jump\t// out\n        /* \"#utility.yul\":4302:4611   */\n    tag_12:\n        /* \"#utility.yul\":4413:4417   */\n      0x00\n        /* \"#utility.yul\":4451:4453   */\n      0x20\n        /* \"#utility.yul\":4440:4449   */\n      dup3\n        /* \"#utility.yul\":4436:4454   */\n      add\n        /* \"#utility.yul\":4428:4454   */\n      swap1\n      pop\n        /* \"#utility.yul\":4500:4509   */\n      dup2\n        /* \"#utility.yul\":4494:4498   */\n      dup2\n        /* \"#utility.yul\":4490:4510   */\n      sub\n        /* \"#utility.yul\":4486:4487   */\n      0x00\n        /* \"#utility.yul\":4475:4484   */\n      dup4\n        /* \"#utility.yul\":4471:4488   */\n      add\n        /* \"#utility.yul\":4464:4511   */\n      mstore\n        /* \"#utility.yul\":4528:4604   */\n      tag_127\n        /* \"#utility.yul\":4599:4603   */\n      dup2\n        /* \"#utility.yul\":4590:4596   */\n      dup5\n        /* \"#utility.yul\":4528:4604   */\n      tag_61\n      jump\t// in\n    tag_127:\n        /* \"#utility.yul\":4520:4604   */\n      swap1\n      pop\n        /* \"#utility.yul\":4302:4611   */\n      swap3\n      swap2\n      pop\n      pop\n      jump\t// out\n        /* \"#utility.yul\":4617:4743   */\n    tag_62:\n        /* \"#utility.yul\":4654:4661   */\n      0x00\n        /* \"#utility.yul\":4694:4736   */\n      0xffffffffffffffffffffffffffffffffffffffff\n        /* \"#utility.yul\":4687:4692   */\n      dup3\n        /* \"#utility.yul\":4683:4737   */\n      and\n        /* \"#utility.yul\":4672:4737   */\n      swap1\n      pop\n        /* \"#utility.yul\":4617:4743   */\n      swap2\n      swap1\n      pop\n      jump\t// out\n        /* \"#utility.yul\":4749:4845   */\n    tag_63:\n        /* \"#utility.yul\":4786:4793   */\n      0x00\n        /* \"#utility.yul\":4815:4839   */\n      tag_130\n        /* \"#utility.yul\":4833:4838   */\n      dup3\n        /* \"#utility.yul\":4815:4839   */\n      tag_62\n      jump\t// in\n    tag_130:\n        /* \"#utility.yul\":4804:4839   */\n      swap1\n      pop\n        /* \"#utility.yul\":4749:4845   */\n      swap2\n      swap1\n      pop\n      jump\t// out\n        /* \"#utility.yul\":4851:4973   */\n    tag_64:\n        /* \"#utility.yul\":4924:4948   */\n      tag_132\n        /* \"#utility.yul\":4942:4947   */\n      dup2\n        /* \"#utility.yul\":4924:4948   */\n      tag_63\n      jump\t// in\n    tag_132:\n        /* \"#utility.yul\":4917:4922   */\n      dup2\n        /* \"#utility.yul\":4914:4949   */\n      eq\n        /* \"#utility.yul\":4904:4967   */\n      tag_133\n      jumpi\n        /* \"#utility.yul\":4963:4964   */\n      0x00\n        /* \"#utility.yul\":4960:4961   */\n      dup1\n        /* \"#utility.yul\":4953:4965   */\n      revert\n        /* \"#utility.yul\":4904:4967   */\n    tag_133:\n        /* \"#utility.yul\":4851:4973   */\n      pop\n      jump\t// out\n        /* \"#utility.yul\":4979:5118   */\n    tag_65:\n        /* \"#utility.yul\":5025:5030   */\n      0x00\n        /* \"#utility.yul\":5063:5069   */\n      dup2\n        /* \"#utility.yul\":5050:5070   */\n      calldataload\n        /* \"#utility.yul\":5041:5070   */\n      swap1\n      pop\n        /* \"#utility.yul\":5079:5112   */\n      tag_135\n        /* \"#utility.yul\":5106:5111   */\n      dup2\n        /* \"#utility.yul\":5079:5112   */\n      tag_64\n      jump\t// in\n    tag_135:\n        /* \"#utility.yul\":4979:5118   */\n      swap3\n      swap2\n      pop\n      pop\n      jump\t// out\n        /* \"#utility.yul\":5124:5241   */\n    tag_66:\n        /* \"#utility.yul\":5233:5234   */\n      0x00\n        /* \"#utility.yul\":5230:5231   */\n      dup1\n        /* \"#utility.yul\":5223:5235   */\n      revert\n        /* \"#utility.yul\":5247:5364   */\n    tag_67:\n        /* \"#utility.yul\":5356:5357   */\n      0x00\n        /* \"#utility.yul\":5353:5354   */\n      dup1\n        /* \"#utility.yul\":5346:5358   */\n      revert\n        /* \"#utility.yul\":5383:5935   */\n    tag_68:\n        /* \"#utility.yul\":5440:5448   */\n      0x00\n        /* \"#utility.yul\":5450:5456   */\n      dup1\n        /* \"#utility.yul\":5500:5503   */\n      dup4\n        /* \"#utility.yul\":5493:5497   */\n      0x1f\n        /* \"#utility.yul\":5485:5491   */\n      dup5\n        /* \"#utility.yul\":5481:5498   */\n      add\n        /* \"#utility.yul\":5477:5504   */\n      slt\n        /* \"#utility.yul\":5467:5589   */\n      tag_139\n      jumpi\n        /* \"#utility.yul\":5508:5587   */\n      tag_140\n      tag_48\n      jump\t// in\n    tag_140:\n        /* \"#utility.yul\":5467:5589   */\n    tag_139:\n        /* \"#utility.yul\":5621:5627   */\n      dup3\n        /* \"#utility.yul\":5608:5628   */\n      calldataload\n        /* \"#utility.yul\":5598:5628   */\n      swap1\n      pop\n        /* \"#utility.yul\":5651:5669   */\n      0xffffffffffffffff\n        /* \"#utility.yul\":5643:5649   */\n      dup2\n        /* \"#utility.yul\":5640:5670   */\n      gt\n        /* \"#utility.yul\":5637:5754   */\n      iszero\n      tag_141\n      jumpi\n        /* \"#utility.yul\":5673:5752   */\n      tag_142\n      tag_66\n      jump\t// in\n    tag_142:\n        /* \"#utility.yul\":5637:5754   */\n    tag_141:\n        /* \"#utility.yul\":5787:5791   */\n      0x20\n        /* \"#utility.yul\":5779:5785   */\n      dup4\n        /* \"#utility.yul\":5775:5792   */\n      add\n        /* \"#utility.yul\":5763:5792   */\n      swap2\n      pop\n        /* \"#utility.yul\":5841:5844   */\n      dup4\n        /* \"#utility.yul\":5833:5837   */\n      0x01\n        /* \"#utility.yul\":5825:5831   */\n      dup3\n        /* \"#utility.yul\":5821:5838   */\n      mul\n        /* \"#utility.yul\":5811:5819   */\n      dup4\n        /* \"#utility.yul\":5807:5839   */\n      add\n        /* \"#utility.yul\":5804:5845   */\n      gt\n        /* \"#utility.yul\":5801:5929   */\n      iszero\n      tag_143\n      jumpi\n        /* \"#utility.yul\":5848:5927   */\n      tag_144\n      tag_67\n      jump\t// in\n    tag_144:\n        /* \"#utility.yul\":5801:5929   */\n    tag_143:\n        /* \"#utility.yul\":5383:5935   */\n      swap3\n      pop\n      swap3\n      swap1\n      pop\n      jump\t// out\n        /* \"#utility.yul\":5941:6613   */\n    tag_15:\n        /* \"#utility.yul\":6020:6026   */\n      0x00\n        /* \"#utility.yul\":6028:6034   */\n      dup1\n        /* \"#utility.yul\":6036:6042   */\n      0x00\n        /* \"#utility.yul\":6085:6087   */\n      0x40\n        /* \"#utility.yul\":6073:6082   */\n      dup5\n        /* \"#utility.yul\":6064:6071   */\n      dup7\n        /* \"#utility.yul\":6060:6083   */\n      sub\n        /* \"#utility.yul\":6056:6088   */\n      slt\n        /* \"#utility.yul\":6053:6172   */\n      iszero\n      tag_146\n      jumpi\n        /* \"#utility.yul\":6091:6170   */\n      tag_147\n      tag_46\n      jump\t// in\n    tag_147:\n        /* \"#utility.yul\":6053:6172   */\n    tag_146:\n        /* \"#utility.yul\":6211:6212   */\n      0x00\n        /* \"#utility.yul\":6236:6289   */\n      tag_148\n        /* \"#utility.yul\":6281:6288   */\n      dup7\n        /* \"#utility.yul\":6272:6278   */\n      dup3\n        /* \"#utility.yul\":6261:6270   */\n      dup8\n        /* \"#utility.yul\":6257:6279   */\n      add\n        /* \"#utility.yul\":6236:6289   */\n      tag_65\n      jump\t// in\n    tag_148:\n        /* \"#utility.yul\":6226:6289   */\n      swap4\n      pop\n        /* \"#utility.yul\":6182:6299   */\n      pop\n        /* \"#utility.yul\":6366:6368   */\n      0x20\n        /* \"#utility.yul\":6355:6364   */\n      dup5\n        /* \"#utility.yul\":6351:6369   */\n      add\n        /* \"#utility.yul\":6338:6370   */\n      calldataload\n        /* \"#utility.yul\":6397:6415   */\n      0xffffffffffffffff\n        /* \"#utility.yul\":6389:6395   */\n      dup2\n        /* \"#utility.yul\":6386:6416   */\n      gt\n        /* \"#utility.yul\":6383:6500   */\n      iszero\n      tag_149\n      jumpi\n        /* \"#utility.yul\":6419:6498   */\n      tag_150\n      tag_47\n      jump\t// in\n    tag_150:\n        /* \"#utility.yul\":6383:6500   */\n    tag_149:\n        /* \"#utility.yul\":6532:6596   */\n      tag_151\n        /* \"#utility.yul\":6588:6595   */\n      dup7\n        /* \"#utility.yul\":6579:6585   */\n      dup3\n        /* \"#utility.yul\":6568:6577   */\n      dup8\n        /* \"#utility.yul\":6564:6586   */\n      add\n        /* \"#utility.yul\":6532:6596   */\n      tag_68\n      jump\t// in\n    tag_151:\n        /* \"#utility.yul\":6514:6596   */\n      swap3\n      pop\n      swap3\n      pop\n        /* \"#utility.yul\":6309:6606   */\n      pop\n        /* \"#utility.yul\":5941:6613   */\n      swap3\n      pop\n      swap3\n      pop\n      swap3\n      jump\t// out\n        /* \"#utility.yul\":6619:6718   */\n    tag_69:\n        /* \"#utility.yul\":6671:6677   */\n      0x00\n        /* \"#utility.yul\":6705:6710   */\n      dup2\n        /* \"#utility.yul\":6699:6711   */\n      mload\n        /* \"#utility.yul\":6689:6711   */\n      swap1\n      pop\n        /* \"#utility.yul\":6619:6718   */\n      swap2\n      swap1\n      pop\n      jump\t// out\n        /* \"#utility.yul\":6724:6893   */\n    tag_70:\n        /* \"#utility.yul\":6808:6819   */\n      0x00\n        /* \"#utility.yul\":6842:6848   */\n      dup3\n        /* \"#utility.yul\":6837:6840   */\n      dup3\n        /* \"#utility.yul\":6830:6849   */\n      mstore\n        /* \"#utility.yul\":6882:6886   */\n      0x20\n        /* \"#utility.yul\":6877:6880   */\n      dup3\n        /* \"#utility.yul\":6873:6887   */\n      add\n        /* \"#utility.yul\":6858:6887   */\n      swap1\n      pop\n        /* \"#utility.yul\":6724:6893   */\n      swap3\n      swap2\n      pop\n      pop\n      jump\t// out\n        /* \"#utility.yul\":6899:7276   */\n    tag_71:\n        /* \"#utility.yul\":6987:6990   */\n      0x00\n        /* \"#utility.yul\":7015:7054   */\n      tag_155\n        /* \"#utility.yul\":7048:7053   */\n      dup3\n        /* \"#utility.yul\":7015:7054   */\n      tag_69\n      jump\t// in\n    tag_155:\n        /* \"#utility.yul\":7070:7141   */\n      tag_156\n        /* \"#utility.yul\":7134:7140   */\n      dup2\n        /* \"#utility.yul\":7129:7132   */\n      dup6\n        /* \"#utility.yul\":7070:7141   */\n      tag_70\n      jump\t// in\n    tag_156:\n        /* \"#utility.yul\":7063:7141   */\n      swap4\n      pop\n        /* \"#utility.yul\":7150:7215   */\n      tag_157\n        /* \"#utility.yul\":7208:7214   */\n      dup2\n        /* \"#utility.yul\":7203:7206   */\n      dup6\n        /* \"#utility.yul\":7196:7200   */\n      0x20\n        /* \"#utility.yul\":7189:7194   */\n      dup7\n        /* \"#utility.yul\":7185:7201   */\n      add\n        /* \"#utility.yul\":7150:7215   */\n      tag_60\n      jump\t// in\n    tag_157:\n        /* \"#utility.yul\":7240:7269   */\n      tag_158\n        /* \"#utility.yul\":7262:7268   */\n      dup2\n        /* \"#utility.yul\":7240:7269   */\n      tag_50\n      jump\t// in\n    tag_158:\n        /* \"#utility.yul\":7235:7238   */\n      dup5\n        /* \"#utility.yul\":7231:7270   */\n      add\n        /* \"#utility.yul\":7224:7270   */\n      swap2\n      pop\n        /* \"#utility.yul\":6991:7276   */\n      pop\n        /* \"#utility.yul\":6899:7276   */\n      swap3\n      swap2\n      pop\n      pop\n      jump\t// out\n        /* \"#utility.yul\":7282:7595   */\n    tag_18:\n        /* \"#utility.yul\":7395:7399   */\n      0x00\n        /* \"#utility.yul\":7433:7435   */\n      0x20\n        /* \"#utility.yul\":7422:7431   */\n      dup3\n        /* \"#utility.yul\":7418:7436   */\n      add\n        /* \"#utility.yul\":7410:7436   */\n      swap1\n      pop\n        /* \"#utility.yul\":7482:7491   */\n      dup2\n        /* \"#utility.yul\":7476:7480   */\n      dup2\n        /* \"#utility.yul\":7472:7492   */\n      sub\n        /* \"#utility.yul\":7468:7469   */\n      0x00\n        /* \"#utility.yul\":7457:7466   */\n      dup4\n        /* \"#utility.yul\":7453:7470   */\n      add\n        /* \"#utility.yul\":7446:7493   */\n      mstore\n        /* \"#utility.yul\":7510:7588   */\n      tag_160\n        /* \"#utility.yul\":7583:7587   */\n      dup2\n        /* \"#utility.yul\":7574:7580   */\n      dup5\n        /* \"#utility.yul\":7510:7588   */\n      tag_71\n      jump\t// in\n    tag_160:\n        /* \"#utility.yul\":7502:7588   */\n      swap1\n      pop\n        /* \"#utility.yul\":7282:7595   */\n      swap3\n      swap2\n      pop\n      pop\n      jump\t// out\n        /* \"#utility.yul\":7601:8115   */\n    tag_29:\n        /* \"#utility.yul\":7762:7766   */\n      0x00\n        /* \"#utility.yul\":7800:7802   */\n      0x40\n        /* \"#utility.yul\":7789:7798   */\n      dup3\n        /* \"#utility.yul\":7785:7803   */\n      add\n        /* \"#utility.yul\":7777:7803   */\n      swap1\n      pop\n        /* \"#utility.yul\":7849:7858   */\n      dup2\n        /* \"#utility.yul\":7843:7847   */\n      dup2\n        /* \"#utility.yul\":7839:7859   */\n      sub\n        /* \"#utility.yul\":7835:7836   */\n      0x00\n        /* \"#utility.yul\":7824:7833   */\n      dup4\n        /* \"#utility.yul\":7820:7837   */\n      add\n        /* \"#utility.yul\":7813:7860   */\n      mstore\n        /* \"#utility.yul\":7877:7955   */\n      tag_162\n        /* \"#utility.yul\":7950:7954   */\n      dup2\n        /* \"#utility.yul\":7941:7947   */\n      dup6\n        /* \"#utility.yul\":7877:7955   */\n      tag_71\n      jump\t// in\n    tag_162:\n        /* \"#utility.yul\":7869:7955   */\n      swap1\n      pop\n        /* \"#utility.yul\":8002:8011   */\n      dup2\n        /* \"#utility.yul\":7996:8000   */\n      dup2\n        /* \"#utility.yul\":7992:8012   */\n      sub\n        /* \"#utility.yul\":7987:7989   */\n      0x20\n        /* \"#utility.yul\":7976:7985   */\n      dup4\n        /* \"#utility.yul\":7972:7990   */\n      add\n        /* \"#utility.yul\":7965:8013   */\n      mstore\n        /* \"#utility.yul\":8030:8108   */\n      tag_163\n        /* \"#utility.yul\":8103:8107   */\n      dup2\n        /* \"#utility.yul\":8094:8100   */\n      dup5\n        /* \"#utility.yul\":8030:8108   */\n      tag_71\n      jump\t// in\n    tag_163:\n        /* \"#utility.yul\":8022:8108   */\n      swap1\n      pop\n        /* \"#utility.yul\":7601:8115   */\n      swap4\n      swap3\n      pop\n      pop\n      pop\n      jump\t// out\n        /* \"#utility.yul\":8121:8268   */\n    tag_72:\n        /* \"#utility.yul\":8222:8233   */\n      0x00\n        /* \"#utility.yul\":8259:8262   */\n      dup2\n        /* \"#utility.yul\":8244:8262   */\n      swap1\n      pop\n        /* \"#utility.yul\":8121:8268   */\n      swap3\n      swap2\n      pop\n      pop\n      jump\t// out\n        /* \"#utility.yul\":8296:8623   */\n    tag_73:\n        /* \"#utility.yul\":8410:8413   */\n      0x00\n        /* \"#utility.yul\":8431:8519   */\n      tag_166\n        /* \"#utility.yul\":8512:8518   */\n      dup4\n        /* \"#utility.yul\":8507:8510   */\n      dup6\n        /* \"#utility.yul\":8431:8519   */\n      tag_72\n      jump\t// in\n    tag_166:\n        /* \"#utility.yul\":8424:8519   */\n      swap4\n      pop\n        /* \"#utility.yul\":8529:8585   */\n      tag_167\n        /* \"#utility.yul\":8578:8584   */\n      dup4\n        /* \"#utility.yul\":8573:8576   */\n      dup6\n        /* \"#utility.yul\":8566:8571   */\n      dup5\n        /* \"#utility.yul\":8529:8585   */\n      tag_55\n      jump\t// in\n    tag_167:\n        /* \"#utility.yul\":8610:8616   */\n      dup3\n        /* \"#utility.yul\":8605:8608   */\n      dup5\n        /* \"#utility.yul\":8601:8617   */\n      add\n        /* \"#utility.yul\":8594:8617   */\n      swap1\n      pop\n        /* \"#utility.yul\":8296:8623   */\n      swap4\n      swap3\n      pop\n      pop\n      pop\n      jump\t// out\n        /* \"#utility.yul\":8629:8920   */\n    tag_32:\n        /* \"#utility.yul\":8769:8772   */\n      0x00\n        /* \"#utility.yul\":8791:8894   */\n      tag_169\n        /* \"#utility.yul\":8890:8893   */\n      dup3\n        /* \"#utility.yul\":8881:8887   */\n      dup5\n        /* \"#utility.yul\":8873:8879   */\n      dup7\n        /* \"#utility.yul\":8791:8894   */\n      tag_73\n      jump\t// in\n    tag_169:\n        /* \"#utility.yul\":8784:8894   */\n      swap2\n      pop\n        /* \"#utility.yul\":8911:8914   */\n      dup2\n        /* \"#utility.yul\":8904:8914   */\n      swap1\n      pop\n        /* \"#utility.yul\":8629:8920   */\n      swap4\n      swap3\n      pop\n      pop\n      pop\n      jump\t// out\n        /* \"#utility.yul\":8926:9087   */\n    tag_74:\n        /* \"#utility.yul\":9066:9079   */\n      0x63616c6c206661696c6564000000000000000000000000000000000000000000\n        /* \"#utility.yul\":9062:9063   */\n      0x00\n        /* \"#utility.yul\":9054:9060   */\n      dup3\n        /* \"#utility.yul\":9050:9064   */\n      add\n        /* \"#utility.yul\":9043:9080   */\n      mstore\n        /* \"#utility.yul\":8926:9087   */\n      pop\n      jump\t// out\n        /* \"#utility.yul\":9093:9459   */\n    tag_75:\n        /* \"#utility.yul\":9235:9238   */\n      0x00\n        /* \"#utility.yul\":9256:9323   */\n      tag_172\n        /* \"#utility.yul\":9320:9322   */\n      0x0b\n        /* \"#utility.yul\":9315:9318   */\n      dup4\n        /* \"#utility.yul\":9256:9323   */\n      tag_70\n      jump\t// in\n    tag_172:\n        /* \"#utility.yul\":9249:9323   */\n      swap2\n      pop\n        /* \"#utility.yul\":9332:9425   */\n      tag_173\n        /* \"#utility.yul\":9421:9424   */\n      dup3\n        /* \"#utility.yul\":9332:9425   */\n      tag_74\n      jump\t// in\n    tag_173:\n        /* \"#utility.yul\":9450:9452   */\n      0x20\n        /* \"#utility.yul\":9445:9448   */\n      dup3\n        /* \"#utility.yul\":9441:9453   */\n      add\n        /* \"#utility.yul\":9434:9453   */\n      swap1\n      pop\n        /* \"#utility.yul\":9093:9459   */\n      swap2\n      swap1\n      pop\n      jump\t// out\n        /* \"#utility.yul\":9465:9884   */\n    tag_38:\n        /* \"#utility.yul\":9631:9635   */\n      0x00\n        /* \"#utility.yul\":9669:9671   */\n      0x20\n        /* \"#utility.yul\":9658:9667   */\n      dup3\n        /* \"#utility.yul\":9654:9672   */\n      add\n        /* \"#utility.yul\":9646:9672   */\n      swap1\n      pop\n        /* \"#utility.yul\":9718:9727   */\n      dup2\n        /* \"#utility.yul\":9712:9716   */\n      dup2\n        /* \"#utility.yul\":9708:9728   */\n      sub\n        /* \"#utility.yul\":9704:9705   */\n      0x00\n        /* \"#utility.yul\":9693:9702   */\n      dup4\n        /* \"#utility.yul\":9689:9706   */\n      add\n        /* \"#utility.yul\":9682:9729   */\n      mstore\n        /* \"#utility.yul\":9746:9877   */\n      tag_175\n        /* \"#utility.yul\":9872:9876   */\n      dup2\n        /* \"#utility.yul\":9746:9877   */\n      tag_75\n      jump\t// in\n    tag_175:\n        /* \"#utility.yul\":9738:9877   */\n      swap1\n      pop\n        /* \"#utility.yul\":9465:9884   */\n      swap2\n      swap1\n      pop\n      jump\t// out\n        /* \"#utility.yul\":9890:10400   */\n    tag_40:\n        /* \"#utility.yul\":10049:10053   */\n      0x00\n        /* \"#utility.yul\":10087:10089   */\n      0x40\n        /* \"#utility.yul\":10076:10085   */\n      dup3\n        /* \"#utility.yul\":10072:10090   */\n      add\n        /* \"#utility.yul\":10064:10090   */\n      swap1\n      pop\n        /* \"#utility.yul\":10136:10145   */\n      dup2\n        /* \"#utility.yul\":10130:10134   */\n      dup2\n        /* \"#utility.yul\":10126:10146   */\n      sub\n        /* \"#utility.yul\":10122:10123   */\n      0x00\n        /* \"#utility.yul\":10111:10120   */\n      dup4\n        /* \"#utility.yul\":10107:10124   */\n      add\n        /* \"#utility.yul\":10100:10147   */\n      mstore\n        /* \"#utility.yul\":10164:10240   */\n      tag_177\n        /* \"#utility.yul\":10235:10239   */\n      dup2\n        /* \"#utility.yul\":10226:10232   */\n      dup6\n        /* \"#utility.yul\":10164:10240   */\n      tag_61\n      jump\t// in\n    tag_177:\n        /* \"#utility.yul\":10156:10240   */\n      swap1\n      pop\n        /* \"#utility.yul\":10287:10296   */\n      dup2\n        /* \"#utility.yul\":10281:10285   */\n      dup2\n        /* \"#utility.yul\":10277:10297   */\n      sub\n        /* \"#utility.yul\":10272:10274   */\n      0x20\n        /* \"#utility.yul\":10261:10270   */\n      dup4\n        /* \"#utility.yul\":10257:10275   */\n      add\n        /* \"#utility.yul\":10250:10298   */\n      mstore\n        /* \"#utility.yul\":10315:10393   */\n      tag_178\n        /* \"#utility.yul\":10388:10392   */\n      dup2\n        /* \"#utility.yul\":10379:10385   */\n      dup5\n        /* \"#utility.yul\":10315:10393   */\n      tag_71\n      jump\t// in\n    tag_178:\n        /* \"#utility.yul\":10307:10393   */\n      swap1\n      pop\n        /* \"#utility.yul\":9890:10400   */\n      swap4\n      swap3\n      pop\n      pop\n      pop\n      jump\t// out\n\n    auxdata: 0xa2646970667358221220725ba47a0266915c0713ead8cf582439057df33bb0f46501a2f7d76566e713b164736f6c63430008160033\n}\n",
				"bytecode": {
					"linkReferences": {},
					"object": "608060405234801561000f575f80fd5b506108b08061001d5f395ff3fe608060405234801561000f575f80fd5b506004361061004a575f3560e01c806383c027ec1461004e57806393e014181461007e578063cbd3a291146100ae578063ebc71074146100de575b5f80fd5b610068600480360381019061006391906104cc565b61010e565b60405161007591906105bc565b60405180910390f35b61009860048036038101906100939190610693565b610170565b6040516100a59190610742565b60405180910390f35b6100c860048036038101906100c391906104cc565b610263565b6040516100d591906105bc565b60405180910390f35b6100f860048036038101906100f391906104cc565b6102e5565b60405161010591906105bc565b60405180910390f35b60608282604051602401610123929190610762565b60405160208183030381529060405263ff74927b60e01b6020820180517bffffffffffffffffffffffffffffffffffffffffffffffffffffffff8381831617835250505050905092915050565b60605f808573ffffffffffffffffffffffffffffffffffffffff16858560405161019b9291906107c5565b5f604051808303815f865af19150503d805f81146101d4576040519150601f19603f3d011682016040523d82523d5f602084013e6101d9565b606091505b50915091508161021e576040517f08c379a000000000000000000000000000000000000000000000000000000000815260040161021590610827565b60405180910390fd5b7f4fd69603ecb4e575f8a345051d766ec5ef30ae2205ecba35684aa98875ee0c2f818260405161024f929190610845565b60405180910390a180925050509392505050565b606063ff74927b60e01b8383604051602401610280929190610762565b604051602081830303815290604052907bffffffffffffffffffffffffffffffffffffffffffffffffffffffff19166020820180517bffffffffffffffffffffffffffffffffffffffffffffffffffffffff8381831617835250505050905092915050565b606082826040516024016102fa929190610762565b6040516020818303038152906040527fff74927b000000000000000000000000000000000000000000000000000000007bffffffffffffffffffffffffffffffffffffffffffffffffffffffff19166020820180517bffffffffffffffffffffffffffffffffffffffffffffffffffffffff8381831617835250505050905092915050565b5f604051905090565b5f80fd5b5f80fd5b5f80fd5b5f80fd5b5f601f19601f8301169050919050565b7f4e487b71000000000000000000000000000000000000000000000000000000005f52604160045260245ffd5b6103de82610398565b810181811067ffffffffffffffff821117156103fd576103fc6103a8565b5b80604052505050565b5f61040f61037f565b905061041b82826103d5565b919050565b5f67ffffffffffffffff82111561043a576104396103a8565b5b61044382610398565b9050602081019050919050565b828183375f83830152505050565b5f61047061046b84610420565b610406565b90508281526020810184848401111561048c5761048b610394565b5b610497848285610450565b509392505050565b5f82601f8301126104b3576104b2610390565b5b81356104c384826020860161045e565b91505092915050565b5f80604083850312156104e2576104e1610388565b5b5f83013567ffffffffffffffff8111156104ff576104fe61038c565b5b61050b8582860161049f565b925050602083013567ffffffffffffffff81111561052c5761052b61038c565b5b6105388582860161049f565b9150509250929050565b5f81519050919050565b5f82825260208201905092915050565b5f5b8381101561057957808201518184015260208101905061055e565b5f8484015250505050565b5f61058e82610542565b610598818561054c565b93506105a881856020860161055c565b6105b181610398565b840191505092915050565b5f6020820190508181035f8301526105d48184610584565b905092915050565b5f73ffffffffffffffffffffffffffffffffffffffff82169050919050565b5f610605826105dc565b9050919050565b610615816105fb565b811461061f575f80fd5b50565b5f813590506106308161060c565b92915050565b5f80fd5b5f80fd5b5f8083601f84011261065357610652610390565b5b8235905067ffffffffffffffff8111156106705761066f610636565b5b60208301915083600182028301111561068c5761068b61063a565b5b9250929050565b5f805f604084860312156106aa576106a9610388565b5b5f6106b786828701610622565b935050602084013567ffffffffffffffff8111156106d8576106d761038c565b5b6106e48682870161063e565b92509250509250925092565b5f81519050919050565b5f82825260208201905092915050565b5f610714826106f0565b61071e81856106fa565b935061072e81856020860161055c565b61073781610398565b840191505092915050565b5f6020820190508181035f83015261075a818461070a565b905092915050565b5f6040820190508181035f83015261077a818561070a565b9050818103602083015261078e818461070a565b90509392505050565b5f81905092915050565b5f6107ac8385610797565b93506107b9838584610450565b82840190509392505050565b5f6107d18284866107a1565b91508190509392505050565b7f63616c6c206661696c65640000000000000000000000000000000000000000005f82015250565b5f610811600b836106fa565b915061081c826107dd565b602082019050919050565b5f6020820190508181035f83015261083e81610805565b9050919050565b5f6040820190508181035f83015261085d8185610584565b90508181036020830152610871818461070a565b9050939250505056fea2646970667358221220725ba47a0266915c0713ead8cf582439057df33bb0f46501a2f7d76566e713b164736f6c63430008160033",
					"opcodes": "PUSH1 0x80 PUSH1 0x40 MSTORE CALLVALUE DUP1 ISZERO PUSH2 0xF JUMPI PUSH0 DUP1 REVERT JUMPDEST POP PUSH2 0x8B0 DUP1 PUSH2 0x1D PUSH0 CODECOPY PUSH0 RETURN INVALID PUSH1 0x80 PUSH1 0x40 MSTORE CALLVALUE DUP1 ISZERO PUSH2 0xF JUMPI PUSH0 DUP1 REVERT JUMPDEST POP PUSH1 0x4 CALLDATASIZE LT PUSH2 0x4A JUMPI PUSH0 CALLDATALOAD PUSH1 0xE0 SHR DUP1 PUSH4 0x83C027EC EQ PUSH2 0x4E JUMPI DUP1 PUSH4 0x93E01418 EQ PUSH2 0x7E JUMPI DUP1 PUSH4 0xCBD3A291 EQ PUSH2 0xAE JUMPI DUP1 PUSH4 0xEBC71074 EQ PUSH2 0xDE JUMPI JUMPDEST PUSH0 DUP1 REVERT JUMPDEST PUSH2 0x68 PUSH1 0x4 DUP1 CALLDATASIZE SUB DUP2 ADD SWAP1 PUSH2 0x63 SWAP2 SWAP1 PUSH2 0x4CC JUMP JUMPDEST PUSH2 0x10E JUMP JUMPDEST PUSH1 0x40 MLOAD PUSH2 0x75 SWAP2 SWAP1 PUSH2 0x5BC JUMP JUMPDEST PUSH1 0x40 MLOAD DUP1 SWAP2 SUB SWAP1 RETURN JUMPDEST PUSH2 0x98 PUSH1 0x4 DUP1 CALLDATASIZE SUB DUP2 ADD SWAP1 PUSH2 0x93 SWAP2 SWAP1 PUSH2 0x693 JUMP JUMPDEST PUSH2 0x170 JUMP JUMPDEST PUSH1 0x40 MLOAD PUSH2 0xA5 SWAP2 SWAP1 PUSH2 0x742 JUMP JUMPDEST PUSH1 0x40 MLOAD DUP1 SWAP2 SUB SWAP1 RETURN JUMPDEST PUSH2 0xC8 PUSH1 0x4 DUP1 CALLDATASIZE SUB DUP2 ADD SWAP1 PUSH2 0xC3 SWAP2 SWAP1 PUSH2 0x4CC JUMP JUMPDEST PUSH2 0x263 JUMP JUMPDEST PUSH1 0x40 MLOAD PUSH2 0xD5 SWAP2 SWAP1 PUSH2 0x5BC JUMP JUMPDEST PUSH1 0x40 MLOAD DUP1 SWAP2 SUB SWAP1 RETURN JUMPDEST PUSH2 0xF8 PUSH1 0x4 DUP1 CALLDATASIZE SUB DUP2 ADD SWAP1 PUSH2 0xF3 SWAP2 SWAP1 PUSH2 0x4CC JUMP JUMPDEST PUSH2 0x2E5 JUMP JUMPDEST PUSH1 0x40 MLOAD PUSH2 0x105 SWAP2 SWAP1 PUSH2 0x5BC JUMP JUMPDEST PUSH1 0x40 MLOAD DUP1 SWAP2 SUB SWAP1 RETURN JUMPDEST PUSH1 0x60 DUP3 DUP3 PUSH1 0x40 MLOAD PUSH1 0x24 ADD PUSH2 0x123 SWAP3 SWAP2 SWAP1 PUSH2 0x762 JUMP JUMPDEST PUSH1 0x40 MLOAD PUSH1 0x20 DUP2 DUP4 SUB SUB DUP2 MSTORE SWAP1 PUSH1 0x40 MSTORE PUSH4 0xFF74927B PUSH1 0xE0 SHL PUSH1 0x20 DUP3 ADD DUP1 MLOAD PUSH28 0xFFFFFFFFFFFFFFFFFFFFFFFFFFFFFFFFFFFFFFFFFFFFFFFFFFFFFFFF DUP4 DUP2 DUP4 AND OR DUP4 MSTORE POP POP POP POP SWAP1 POP SWAP3 SWAP2 POP POP JUMP JUMPDEST PUSH1 0x60 PUSH0 DUP1 DUP6 PUSH20 0xFFFFFFFFFFFFFFFFFFFFFFFFFFFFFFFFFFFFFFFF AND DUP6 DUP6 PUSH1 0x40 MLOAD PUSH2 0x19B SWAP3 SWAP2 SWAP1 PUSH2 0x7C5 JUMP JUMPDEST PUSH0 PUSH1 0x40 MLOAD DUP1 DUP4 SUB DUP2 PUSH0 DUP7 GAS CALL SWAP2 POP POP RETURNDATASIZE DUP1 PUSH0 DUP2 EQ PUSH2 0x1D4 JUMPI PUSH1 0x40 MLOAD SWAP2 POP PUSH1 0x1F NOT PUSH1 0x3F RETURNDATASIZE ADD AND DUP3 ADD PUSH1 0x40 MSTORE RETURNDATASIZE DUP3 MSTORE RETURNDATASIZE PUSH0 PUSH1 0x20 DUP5 ADD RETURNDATACOPY PUSH2 0x1D9 JUMP JUMPDEST PUSH1 0x60 SWAP2 POP JUMPDEST POP SWAP2 POP SWAP2 POP DUP2 PUSH2 0x21E JUMPI PUSH1 0x40 MLOAD PUSH32 0x8C379A000000000000000000000000000000000000000000000000000000000 DUP2 MSTORE PUSH1 0x4 ADD PUSH2 0x215 SWAP1 PUSH2 0x827 JUMP JUMPDEST PUSH1 0x40 MLOAD DUP1 SWAP2 SUB SWAP1 REVERT JUMPDEST PUSH32 0x4FD69603ECB4E575F8A345051D766EC5EF30AE2205ECBA35684AA98875EE0C2F DUP2 DUP3 PUSH1 0x40 MLOAD PUSH2 0x24F SWAP3 SWAP2 SWAP1 PUSH2 0x845 JUMP JUMPDEST PUSH1 0x40 MLOAD DUP1 SWAP2 SUB SWAP1 LOG1 DUP1 SWAP3 POP POP POP SWAP4 SWAP3 POP POP POP JUMP JUMPDEST PUSH1 0x60 PUSH4 0xFF74927B PUSH1 0xE0 SHL DUP4 DUP4 PUSH1 0x40 MLOAD PUSH1 0x24 ADD PUSH2 0x280 SWAP3 SWAP2 SWAP1 PUSH2 0x762 JUMP JUMPDEST PUSH1 0x40 MLOAD PUSH1 0x20 DUP2 DUP4 SUB SUB DUP2 MSTORE SWAP1 PUSH1 0x40 MSTORE SWAP1 PUSH28 0xFFFFFFFFFFFFFFFFFFFFFFFFFFFFFFFFFFFFFFFFFFFFFFFFFFFFFFFF NOT AND PUSH1 0x20 DUP3 ADD DUP1 MLOAD PUSH28 0xFFFFFFFFFFFFFFFFFFFFFFFFFFFFFFFFFFFFFFFFFFFFFFFFFFFFFFFF DUP4 DUP2 DUP4 AND OR DUP4 MSTORE POP POP POP POP SWAP1 POP SWAP3 SWAP2 POP POP JUMP JUMPDEST PUSH1 0x60 DUP3 DUP3 PUSH1 0x40 MLOAD PUSH1 0x24 ADD PUSH2 0x2FA SWAP3 SWAP2 SWAP1 PUSH2 0x762 JUMP JUMPDEST PUSH1 0x40 MLOAD PUSH1 0x20 DUP2 DUP4 SUB SUB DUP2 MSTORE SWAP1 PUSH1 0x40 MSTORE PUSH32 0xFF74927B00000000000000000000000000000000000000000000000000000000 PUSH28 0xFFFFFFFFFFFFFFFFFFFFFFFFFFFFFFFFFFFFFFFFFFFFFFFFFFFFFFFF NOT AND PUSH1 0x20 DUP3 ADD DUP1 MLOAD PUSH28 0xFFFFFFFFFFFFFFFFFFFFFFFFFFFFFFFFFFFFFFFFFFFFFFFFFFFFFFFF DUP4 DUP2 DUP4 AND OR DUP4 MSTORE POP POP POP POP SWAP1 POP SWAP3 SWAP2 POP POP JUMP JUMPDEST PUSH0 PUSH1 0x40 MLOAD SWAP1 POP SWAP1 JUMP JUMPDEST PUSH0 DUP1 REVERT JUMPDEST PUSH0 DUP1 REVERT JUMPDEST PUSH0 DUP1 REVERT JUMPDEST PUSH0 DUP1 REVERT JUMPDEST PUSH0 PUSH1 0x1F NOT PUSH1 0x1F DUP4 ADD AND SWAP1 POP SWAP2 SWAP1 POP JUMP JUMPDEST PUSH32 0x4E487B7100000000000000000000000000000000000000000000000000000000 PUSH0 MSTORE PUSH1 0x41 PUSH1 0x4 MSTORE PUSH1 0x24 PUSH0 REVERT JUMPDEST PUSH2 0x3DE DUP3 PUSH2 0x398 JUMP JUMPDEST DUP2 ADD DUP2 DUP2 LT PUSH8 0xFFFFFFFFFFFFFFFF DUP3 GT OR ISZERO PUSH2 0x3FD JUMPI PUSH2 0x3FC PUSH2 0x3A8 JUMP JUMPDEST JUMPDEST DUP1 PUSH1 0x40 MSTORE POP POP POP JUMP JUMPDEST PUSH0 PUSH2 0x40F PUSH2 0x37F JUMP JUMPDEST SWAP1 POP PUSH2 0x41B DUP3 DUP3 PUSH2 0x3D5 JUMP JUMPDEST SWAP2 SWAP1 POP JUMP JUMPDEST PUSH0 PUSH8 0xFFFFFFFFFFFFFFFF DUP3 GT ISZERO PUSH2 0x43A JUMPI PUSH2 0x439 PUSH2 0x3A8 JUMP JUMPDEST JUMPDEST PUSH2 0x443 DUP3 PUSH2 0x398 JUMP JUMPDEST SWAP1 POP PUSH1 0x20 DUP2 ADD SWAP1 POP SWAP2 SWAP1 POP JUMP JUMPDEST DUP3 DUP2 DUP4 CALLDATACOPY PUSH0 DUP4 DUP4 ADD MSTORE POP POP POP JUMP JUMPDEST PUSH0 PUSH2 0x470 PUSH2 0x46B DUP5 PUSH2 0x420 JUMP JUMPDEST PUSH2 0x406 JUMP JUMPDEST SWAP1 POP DUP3 DUP2 MSTORE PUSH1 0x20 DUP2 ADD DUP5 DUP5 DUP5 ADD GT ISZERO PUSH2 0x48C JUMPI PUSH2 0x48B PUSH2 0x394 JUMP JUMPDEST JUMPDEST PUSH2 0x497 DUP5 DUP3 DUP6 PUSH2 0x450 JUMP JUMPDEST POP SWAP4 SWAP3 POP POP POP JUMP JUMPDEST PUSH0 DUP3 PUSH1 0x1F DUP4 ADD SLT PUSH2 0x4B3 JUMPI PUSH2 0x4B2 PUSH2 0x390 JUMP JUMPDEST JUMPDEST DUP2 CALLDATALOAD PUSH2 0x4C3 DUP5 DUP3 PUSH1 0x20 DUP7 ADD PUSH2 0x45E JUMP JUMPDEST SWAP2 POP POP SWAP3 SWAP2 POP POP JUMP JUMPDEST PUSH0 DUP1 PUSH1 0x40 DUP4 DUP6 SUB SLT ISZERO PUSH2 0x4E2 JUMPI PUSH2 0x4E1 PUSH2 0x388 JUMP JUMPDEST JUMPDEST PUSH0 DUP4 ADD CALLDATALOAD PUSH8 0xFFFFFFFFFFFFFFFF DUP2 GT ISZERO PUSH2 0x4FF JUMPI PUSH2 0x4FE PUSH2 0x38C JUMP JUMPDEST JUMPDEST PUSH2 0x50B DUP6 DUP3 DUP7 ADD PUSH2 0x49F JUMP JUMPDEST SWAP3 POP POP PUSH1 0x20 DUP4 ADD CALLDATALOAD PUSH8 0xFFFFFFFFFFFFFFFF DUP2 GT ISZERO PUSH2 0x52C JUMPI PUSH2 0x52B PUSH2 0x38C JUMP JUMPDEST JUMPDEST PUSH2 0x538 DUP6 DUP3 DUP7 ADD PUSH2 0x49F JUMP JUMPDEST SWAP2 POP POP SWAP3 POP SWAP3 SWAP1 POP JUMP JUMPDEST PUSH0 DUP2 MLOAD SWAP1 POP SWAP2 SWAP1 POP JUMP JUMPDEST PUSH0 DUP3 DUP3 MSTORE PUSH1 0x20 DUP3 ADD SWAP1 POP SWAP3 SWAP2 POP POP JUMP JUMPDEST PUSH0 JUMPDEST DUP4 DUP2 LT ISZERO PUSH2 0x579 JUMPI DUP1 DUP3 ADD MLOAD DUP2 DUP5 ADD MSTORE PUSH1 0x20 DUP2 ADD SWAP1 POP PUSH2 0x55E JUMP JUMPDEST PUSH0 DUP5 DUP5 ADD MSTORE POP POP POP POP JUMP JUMPDEST PUSH0 PUSH2 0x58E DUP3 PUSH2 0x542 JUMP JUMPDEST PUSH2 0x598 DUP2 DUP6 PUSH2 0x54C JUMP JUMPDEST SWAP4 POP PUSH2 0x5A8 DUP2 DUP6 PUSH1 0x20 DUP7 ADD PUSH2 0x55C JUMP JUMPDEST PUSH2 0x5B1 DUP2 PUSH2 0x398 JUMP JUMPDEST DUP5 ADD SWAP2 POP POP SWAP3 SWAP2 POP POP JUMP JUMPDEST PUSH0 PUSH1 0x20 DUP3 ADD SWAP1 POP DUP2 DUP2 SUB PUSH0 DUP4 ADD MSTORE PUSH2 0x5D4 DUP2 DUP5 PUSH2 0x584 JUMP JUMPDEST SWAP1 POP SWAP3 SWAP2 POP POP JUMP JUMPDEST PUSH0 PUSH20 0xFFFFFFFFFFFFFFFFFFFFFFFFFFFFFFFFFFFFFFFF DUP3 AND SWAP1 POP SWAP2 SWAP1 POP JUMP JUMPDEST PUSH0 PUSH2 0x605 DUP3 PUSH2 0x5DC JUMP JUMPDEST SWAP1 POP SWAP2 SWAP1 POP JUMP JUMPDEST PUSH2 0x615 DUP2 PUSH2 0x5FB JUMP JUMPDEST DUP2 EQ PUSH2 0x61F JUMPI PUSH0 DUP1 REVERT JUMPDEST POP JUMP JUMPDEST PUSH0 DUP2 CALLDATALOAD SWAP1 POP PUSH2 0x630 DUP2 PUSH2 0x60C JUMP JUMPDEST SWAP3 SWAP2 POP POP JUMP JUMPDEST PUSH0 DUP1 REVERT JUMPDEST PUSH0 DUP1 REVERT JUMPDEST PUSH0 DUP1 DUP4 PUSH1 0x1F DUP5 ADD SLT PUSH2 0x653 JUMPI PUSH2 0x652 PUSH2 0x390 JUMP JUMPDEST JUMPDEST DUP3 CALLDATALOAD SWAP1 POP PUSH8 0xFFFFFFFFFFFFFFFF DUP2 GT ISZERO PUSH2 0x670 JUMPI PUSH2 0x66F PUSH2 0x636 JUMP JUMPDEST JUMPDEST PUSH1 0x20 DUP4 ADD SWAP2 POP DUP4 PUSH1 0x1 DUP3 MUL DUP4 ADD GT ISZERO PUSH2 0x68C JUMPI PUSH2 0x68B PUSH2 0x63A JUMP JUMPDEST JUMPDEST SWAP3 POP SWAP3 SWAP1 POP JUMP JUMPDEST PUSH0 DUP1 PUSH0 PUSH1 0x40 DUP5 DUP7 SUB SLT ISZERO PUSH2 0x6AA JUMPI PUSH2 0x6A9 PUSH2 0x388 JUMP JUMPDEST JUMPDEST PUSH0 PUSH2 0x6B7 DUP7 DUP3 DUP8 ADD PUSH2 0x622 JUMP JUMPDEST SWAP4 POP POP PUSH1 0x20 DUP5 ADD CALLDATALOAD PUSH8 0xFFFFFFFFFFFFFFFF DUP2 GT ISZERO PUSH2 0x6D8 JUMPI PUSH2 0x6D7 PUSH2 0x38C JUMP JUMPDEST JUMPDEST PUSH2 0x6E4 DUP7 DUP3 DUP8 ADD PUSH2 0x63E JUMP JUMPDEST SWAP3 POP SWAP3 POP POP SWAP3 POP SWAP3 POP SWAP3 JUMP JUMPDEST PUSH0 DUP2 MLOAD SWAP1 POP SWAP2 SWAP1 POP JUMP JUMPDEST PUSH0 DUP3 DUP3 MSTORE PUSH1 0x20 DUP3 ADD SWAP1 POP SWAP3 SWAP2 POP POP JUMP JUMPDEST PUSH0 PUSH2 0x714 DUP3 PUSH2 0x6F0 JUMP JUMPDEST PUSH2 0x71E DUP2 DUP6 PUSH2 0x6FA JUMP JUMPDEST SWAP4 POP PUSH2 0x72E DUP2 DUP6 PUSH1 0x20 DUP7 ADD PUSH2 0x55C JUMP JUMPDEST PUSH2 0x737 DUP2 PUSH2 0x398 JUMP JUMPDEST DUP5 ADD SWAP2 POP POP SWAP3 SWAP2 POP POP JUMP JUMPDEST PUSH0 PUSH1 0x20 DUP3 ADD SWAP1 POP DUP2 DUP2 SUB PUSH0 DUP4 ADD MSTORE PUSH2 0x75A DUP2 DUP5 PUSH2 0x70A JUMP JUMPDEST SWAP1 POP SWAP3 SWAP2 POP POP JUMP JUMPDEST PUSH0 PUSH1 0x40 DUP3 ADD SWAP1 POP DUP2 DUP2 SUB PUSH0 DUP4 ADD MSTORE PUSH2 0x77A DUP2 DUP6 PUSH2 0x70A JUMP JUMPDEST SWAP1 POP DUP2 DUP2 SUB PUSH1 0x20 DUP4 ADD MSTORE PUSH2 0x78E DUP2 DUP5 PUSH2 0x70A JUMP JUMPDEST SWAP1 POP SWAP4 SWAP3 POP POP POP JUMP JUMPDEST PUSH0 DUP2 SWAP1 POP SWAP3 SWAP2 POP POP JUMP JUMPDEST PUSH0 PUSH2 0x7AC DUP4 DUP6 PUSH2 0x797 JUMP JUMPDEST SWAP4 POP PUSH2 0x7B9 DUP4 DUP6 DUP5 PUSH2 0x450 JUMP JUMPDEST DUP3 DUP5 ADD SWAP1 POP SWAP4 SWAP3 POP POP POP JUMP JUMPDEST PUSH0 PUSH2 0x7D1 DUP3 DUP5 DUP7 PUSH2 0x7A1 JUMP JUMPDEST SWAP2 POP DUP2 SWAP1 POP SWAP4 SWAP3 POP POP POP JUMP JUMPDEST PUSH32 0x63616C6C206661696C6564000000000000000000000000000000000000000000 PUSH0 DUP3 ADD MSTORE POP JUMP JUMPDEST PUSH0 PUSH2 0x811 PUSH1 0xB DUP4 PUSH2 0x6FA JUMP JUMPDEST SWAP2 POP PUSH2 0x81C DUP3 PUSH2 0x7DD JUMP JUMPDEST PUSH1 0x20 DUP3 ADD SWAP1 POP SWAP2 SWAP1 POP JUMP JUMPDEST PUSH0 PUSH1 0x20 DUP3 ADD SWAP1 POP DUP2 DUP2 SUB PUSH0 DUP4 ADD MSTORE PUSH2 0x83E DUP2 PUSH2 0x805 JUMP JUMPDEST SWAP1 POP SWAP2 SWAP1 POP JUMP JUMPDEST PUSH0 PUSH1 0x40 DUP3 ADD SWAP1 POP DUP2 DUP2 SUB PUSH0 DUP4 ADD MSTORE PUSH2 0x85D DUP2 DUP6 PUSH2 0x584 JUMP JUMPDEST SWAP1 POP DUP2 DUP2 SUB PUSH1 0x20 DUP4 ADD MSTORE PUSH2 0x871 DUP2 DUP5 PUSH2 0x70A JUMP JUMPDEST SWAP1 POP SWAP4 SWAP3 POP POP POP JUMP INVALID LOG2 PUSH5 0x6970667358 0x22 SLT KECCAK256 PUSH19 0x5BA47A0266915C0713EAD8CF582439057DF33B 0xB0 DELEGATECALL PUSH6 0x1A2F7D76566 0xE7 SGT 0xB1 PUSH5 0x736F6C6343 STOP ADDMOD AND STOP CALLER "
				},
				"gasEstimates": {
					"creation": {
						"codeDepositCost": "444800",
						"executionCost": "478",
						"totalCost": "445278"
					},
					"external": {
						"encodeCall(string,string)": "infinite",
						"encodeWithSelector(string,string)": "infinite",
						"encodeWithSignature(string,string)": "infinite",
						"test(address,bytes)": "infinite"
					}
				},
				"methodIdentifiers": {
					"encodeCall(string,string)": "83c027ec",
					"encodeWithSelector(string,string)": "cbd3a291",
					"encodeWithSignature(string,string)": "ebc71074",
					"test(address,bytes)": "93e01418"
				}
			},
			"storageLayout": {
				"storage": [],
				"types": null
			},
			"userdoc": {
				"kind": "user",
				"methods": {},
				"version": 1
			}
		}
	}
}