{
	"contracts/Event.sol": {
		"Event": {
			"abi": [
				{
					"anonymous": false,
					"inputs": [
						{
							"indexed": true,
							"internalType": "string",
							"name": "name",
							"type": "string"
						},
						{
							"indexed": false,
							"internalType": "uint256",
							"name": "age",
							"type": "uint256"
						}
					],
					"name": "trace",
					"type": "event"
				},
				{
					"inputs": [],
					"name": "age",
					"outputs": [
						{
							"internalType": "uint256",
							"name": "",
							"type": "uint256"
						}
					],
					"stateMutability": "view",
					"type": "function"
				},
				{
					"inputs": [],
					"name": "name",
					"outputs": [
						{
							"internalType": "string",
							"name": "",
							"type": "string"
						}
					],
					"stateMutability": "view",
					"type": "function"
				},
				{
					"inputs": [
						{
							"internalType": "string",
							"name": "_name",
							"type": "string"
						},
						{
							"internalType": "uint256",
							"name": "_age",
							"type": "uint256"
						}
					],
					"name": "setNameAndAge",
					"outputs": [],
					"stateMutability": "nonpayable",
					"type": "function"
				}
			],
			"devdoc": {
				"kind": "dev",
				"methods": {},
				"version": 1
			},
			"evm": {
				"assembly": "    /* \"contracts/Event.sol\":61:332  contract Event {... */\n  mstore(0x40, 0x80)\n  callvalue\n  dup1\n  iszero\n  tag_1\n  jumpi\n  0x00\n  dup1\n  revert\ntag_1:\n  pop\n  dataSize(sub_0)\n  dup1\n  dataOffset(sub_0)\n  0x00\n  codecopy\n  0x00\n  return\nstop\n\nsub_0: assembly {\n        /* \"contracts/Event.sol\":61:332  contract Event {... */\n      mstore(0x40, 0x80)\n      callvalue\n      dup1\n      iszero\n      tag_1\n      jumpi\n      0x00\n      dup1\n      revert\n    tag_1:\n      pop\n      jumpi(tag_2, lt(calldatasize, 0x04))\n      shr(0xe0, calldataload(0x00))\n      dup1\n      0x06fdde03\n      eq\n      tag_3\n      jumpi\n      dup1\n      0x262a9dff\n      eq\n      tag_4\n      jumpi\n      dup1\n      0x9cf34601\n      eq\n      tag_5\n      jumpi\n    tag_2:\n      0x00\n      dup1\n      revert\n        /* \"contracts/Event.sol\":83:101  string public name */\n    tag_3:\n      tag_6\n      tag_7\n      jump\t// in\n    tag_6:\n      mload(0x40)\n      tag_8\n      swap2\n      swap1\n      tag_9\n      jump\t// in\n    tag_8:\n      mload(0x40)\n      dup1\n      swap2\n      sub\n      swap1\n      return\n        /* \"contracts/Event.sol\":108:123  uint public age */\n    tag_4:\n      tag_10\n      tag_11\n      jump\t// in\n    tag_10:\n      mload(0x40)\n      tag_12\n      swap2\n      swap1\n      tag_13\n      jump\t// in\n    tag_12:\n      mload(0x40)\n      dup1\n      swap2\n      sub\n      swap1\n      return\n        /* \"contracts/Event.sol\":179:329  function setNameAndAge(string calldata _name, uint _age) public {... */\n    tag_5:\n      tag_14\n      0x04\n      dup1\n      calldatasize\n      sub\n      dup2\n      add\n      swap1\n      tag_15\n      swap2\n      swap1\n      tag_16\n      jump\t// in\n    tag_15:\n      tag_17\n      jump\t// in\n    tag_14:\n      stop\n        /* \"contracts/Event.sol\":83:101  string public name */\n    tag_7:\n      0x00\n      dup1\n      sload\n      tag_18\n      swap1\n      tag_19\n      jump\t// in\n    tag_18:\n      dup1\n      0x1f\n      add\n      0x20\n      dup1\n      swap2\n      div\n      mul\n      0x20\n      add\n      mload(0x40)\n      swap1\n      dup2\n      add\n      0x40\n      mstore\n      dup1\n      swap3\n      swap2\n      swap1\n      dup2\n      dup2\n      mstore\n      0x20\n      add\n      dup3\n      dup1\n      sload\n      tag_20\n      swap1\n      tag_19\n      jump\t// in\n    tag_20:\n      dup1\n      iszero\n      tag_21\n      jumpi\n      dup1\n      0x1f\n      lt\n      tag_22\n      jumpi\n      0x0100\n      dup1\n      dup4\n      sload\n      div\n      mul\n      dup4\n      mstore\n      swap2\n      0x20\n      add\n      swap2\n      jump(tag_21)\n    tag_22:\n      dup3\n      add\n      swap2\n      swap1\n      0x00\n      mstore\n      keccak256(0x00, 0x20)\n      swap1\n    tag_23:\n      dup2\n      sload\n      dup2\n      mstore\n      swap1\n      0x01\n      add\n      swap1\n      0x20\n      add\n      dup1\n      dup4\n      gt\n      tag_23\n      jumpi\n      dup3\n      swap1\n      sub\n      0x1f\n      and\n      dup3\n      add\n      swap2\n    tag_21:\n      pop\n      pop\n      pop\n      pop\n      pop\n      dup2\n      jump\t// out\n        /* \"contracts/Event.sol\":108:123  uint public age */\n    tag_11:\n      sload(0x01)\n      dup2\n      jump\t// out\n        /* \"contracts/Event.sol\":179:329  function setNameAndAge(string calldata _name, uint _age) public {... */\n    tag_17:\n        /* \"contracts/Event.sol\":261:266  _name */\n      dup3\n      dup3\n        /* \"contracts/Event.sol\":254:258  name */\n      0x00\n        /* \"contracts/Event.sol\":254:266  name = _name */\n      swap2\n      dup3\n      tag_25\n      swap3\n      swap2\n      swap1\n      tag_26\n      jump\t// in\n    tag_25:\n      pop\n        /* \"contracts/Event.sol\":283:287  _age */\n      dup1\n        /* \"contracts/Event.sol\":277:280  age */\n      0x01\n        /* \"contracts/Event.sol\":277:287  age = _age */\n      dup2\n      swap1\n      sstore\n      pop\n        /* \"contracts/Event.sol\":309:314  _name */\n      dup3\n      dup3\n        /* \"contracts/Event.sol\":303:321  trace(_name, _age) */\n      mload(0x40)\n      tag_27\n      swap3\n      swap2\n      swap1\n      tag_28\n      jump\t// in\n    tag_27:\n      mload(0x40)\n      dup1\n      swap2\n      sub\n      swap1\n      keccak256\n      0x9586ae86a652f2c0e2ad2ab09c484174e854363598d19fbc3c19405143b49343\n        /* \"contracts/Event.sol\":316:320  _age */\n      dup3\n        /* \"contracts/Event.sol\":303:321  trace(_name, _age) */\n      mload(0x40)\n      tag_29\n      swap2\n      swap1\n      tag_13\n      jump\t// in\n    tag_29:\n      mload(0x40)\n      dup1\n      swap2\n      sub\n      swap1\n      log2\n        /* \"contracts/Event.sol\":179:329  function setNameAndAge(string calldata _name, uint _age) public {... */\n      pop\n      pop\n      pop\n      jump\t// out\n        /* \"#utility.yul\":7:106   */\n    tag_30:\n        /* \"#utility.yul\":59:65   */\n      0x00\n        /* \"#utility.yul\":93:98   */\n      dup2\n        /* \"#utility.yul\":87:99   */\n      mload\n        /* \"#utility.yul\":77:99   */\n      swap1\n      pop\n        /* \"#utility.yul\":7:106   */\n      swap2\n      swap1\n      pop\n      jump\t// out\n        /* \"#utility.yul\":112:281   */\n    tag_31:\n        /* \"#utility.yul\":196:207   */\n      0x00\n        /* \"#utility.yul\":230:236   */\n      dup3\n        /* \"#utility.yul\":225:228   */\n      dup3\n        /* \"#utility.yul\":218:237   */\n      mstore\n        /* \"#utility.yul\":270:274   */\n      0x20\n        /* \"#utility.yul\":265:268   */\n      dup3\n        /* \"#utility.yul\":261:275   */\n      add\n        /* \"#utility.yul\":246:275   */\n      swap1\n      pop\n        /* \"#utility.yul\":112:281   */\n      swap3\n      swap2\n      pop\n      pop\n      jump\t// out\n        /* \"#utility.yul\":287:533   */\n    tag_32:\n        /* \"#utility.yul\":368:369   */\n      0x00\n        /* \"#utility.yul\":378:491   */\n    tag_71:\n        /* \"#utility.yul\":392:398   */\n      dup4\n        /* \"#utility.yul\":389:390   */\n      dup2\n        /* \"#utility.yul\":386:399   */\n      lt\n        /* \"#utility.yul\":378:491   */\n      iszero\n      tag_73\n      jumpi\n        /* \"#utility.yul\":477:478   */\n      dup1\n        /* \"#utility.yul\":472:475   */\n      dup3\n        /* \"#utility.yul\":468:479   */\n      add\n        /* \"#utility.yul\":462:480   */\n      mload\n        /* \"#utility.yul\":458:459   */\n      dup2\n        /* \"#utility.yul\":453:456   */\n      dup5\n        /* \"#utility.yul\":449:460   */\n      add\n        /* \"#utility.yul\":442:481   */\n      mstore\n        /* \"#utility.yul\":414:416   */\n      0x20\n        /* \"#utility.yul\":411:412   */\n      dup2\n        /* \"#utility.yul\":407:417   */\n      add\n        /* \"#utility.yul\":402:417   */\n      swap1\n      pop\n        /* \"#utility.yul\":378:491   */\n      jump(tag_71)\n    tag_73:\n        /* \"#utility.yul\":525:526   */\n      0x00\n        /* \"#utility.yul\":516:522   */\n      dup5\n        /* \"#utility.yul\":511:514   */\n      dup5\n        /* \"#utility.yul\":507:523   */\n      add\n        /* \"#utility.yul\":500:527   */\n      mstore\n        /* \"#utility.yul\":349:533   */\n      pop\n        /* \"#utility.yul\":287:533   */\n      pop\n      pop\n      pop\n      jump\t// out\n        /* \"#utility.yul\":539:641   */\n    tag_33:\n        /* \"#utility.yul\":580:586   */\n      0x00\n        /* \"#utility.yul\":631:633   */\n      0x1f\n        /* \"#utility.yul\":627:634   */\n      not\n        /* \"#utility.yul\":622:624   */\n      0x1f\n        /* \"#utility.yul\":615:620   */\n      dup4\n        /* \"#utility.yul\":611:625   */\n      add\n        /* \"#utility.yul\":607:635   */\n      and\n        /* \"#utility.yul\":597:635   */\n      swap1\n      pop\n        /* \"#utility.yul\":539:641   */\n      swap2\n      swap1\n      pop\n      jump\t// out\n        /* \"#utility.yul\":647:1024   */\n    tag_34:\n        /* \"#utility.yul\":735:738   */\n      0x00\n        /* \"#utility.yul\":763:802   */\n      tag_76\n        /* \"#utility.yul\":796:801   */\n      dup3\n        /* \"#utility.yul\":763:802   */\n      tag_30\n      jump\t// in\n    tag_76:\n        /* \"#utility.yul\":818:889   */\n      tag_77\n        /* \"#utility.yul\":882:888   */\n      dup2\n        /* \"#utility.yul\":877:880   */\n      dup6\n        /* \"#utility.yul\":818:889   */\n      tag_31\n      jump\t// in\n    tag_77:\n        /* \"#utility.yul\":811:889   */\n      swap4\n      pop\n        /* \"#utility.yul\":898:963   */\n      tag_78\n        /* \"#utility.yul\":956:962   */\n      dup2\n        /* \"#utility.yul\":951:954   */\n      dup6\n        /* \"#utility.yul\":944:948   */\n      0x20\n        /* \"#utility.yul\":937:942   */\n      dup7\n        /* \"#utility.yul\":933:949   */\n      add\n        /* \"#utility.yul\":898:963   */\n      tag_32\n      jump\t// in\n    tag_78:\n        /* \"#utility.yul\":988:1017   */\n      tag_79\n        /* \"#utility.yul\":1010:1016   */\n      dup2\n        /* \"#utility.yul\":988:1017   */\n      tag_33\n      jump\t// in\n    tag_79:\n        /* \"#utility.yul\":983:986   */\n      dup5\n        /* \"#utility.yul\":979:1018   */\n      add\n        /* \"#utility.yul\":972:1018   */\n      swap2\n      pop\n        /* \"#utility.yul\":739:1024   */\n      pop\n        /* \"#utility.yul\":647:1024   */\n      swap3\n      swap2\n      pop\n      pop\n      jump\t// out\n        /* \"#utility.yul\":1030:1343   */\n    tag_9:\n        /* \"#utility.yul\":1143:1147   */\n      0x00\n        /* \"#utility.yul\":1181:1183   */\n      0x20\n        /* \"#utility.yul\":1170:1179   */\n      dup3\n        /* \"#utility.yul\":1166:1184   */\n      add\n        /* \"#utility.yul\":1158:1184   */\n      swap1\n      pop\n        /* \"#utility.yul\":1230:1239   */\n      dup2\n        /* \"#utility.yul\":1224:1228   */\n      dup2\n        /* \"#utility.yul\":1220:1240   */\n      sub\n        /* \"#utility.yul\":1216:1217   */\n      0x00\n        /* \"#utility.yul\":1205:1214   */\n      dup4\n        /* \"#utility.yul\":1201:1218   */\n      add\n        /* \"#utility.yul\":1194:1241   */\n      mstore\n        /* \"#utility.yul\":1258:1336   */\n      tag_81\n        /* \"#utility.yul\":1331:1335   */\n      dup2\n        /* \"#utility.yul\":1322:1328   */\n      dup5\n        /* \"#utility.yul\":1258:1336   */\n      tag_34\n      jump\t// in\n    tag_81:\n        /* \"#utility.yul\":1250:1336   */\n      swap1\n      pop\n        /* \"#utility.yul\":1030:1343   */\n      swap3\n      swap2\n      pop\n      pop\n      jump\t// out\n        /* \"#utility.yul\":1349:1426   */\n    tag_35:\n        /* \"#utility.yul\":1386:1393   */\n      0x00\n        /* \"#utility.yul\":1415:1420   */\n      dup2\n        /* \"#utility.yul\":1404:1420   */\n      swap1\n      pop\n        /* \"#utility.yul\":1349:1426   */\n      swap2\n      swap1\n      pop\n      jump\t// out\n        /* \"#utility.yul\":1432:1550   */\n    tag_36:\n        /* \"#utility.yul\":1519:1543   */\n      tag_84\n        /* \"#utility.yul\":1537:1542   */\n      dup2\n        /* \"#utility.yul\":1519:1543   */\n      tag_35\n      jump\t// in\n    tag_84:\n        /* \"#utility.yul\":1514:1517   */\n      dup3\n        /* \"#utility.yul\":1507:1544   */\n      mstore\n        /* \"#utility.yul\":1432:1550   */\n      pop\n      pop\n      jump\t// out\n        /* \"#utility.yul\":1556:1778   */\n    tag_13:\n        /* \"#utility.yul\":1649:1653   */\n      0x00\n        /* \"#utility.yul\":1687:1689   */\n      0x20\n        /* \"#utility.yul\":1676:1685   */\n      dup3\n        /* \"#utility.yul\":1672:1690   */\n      add\n        /* \"#utility.yul\":1664:1690   */\n      swap1\n      pop\n        /* \"#utility.yul\":1700:1771   */\n      tag_86\n        /* \"#utility.yul\":1768:1769   */\n      0x00\n        /* \"#utility.yul\":1757:1766   */\n      dup4\n        /* \"#utility.yul\":1753:1770   */\n      add\n        /* \"#utility.yul\":1744:1750   */\n      dup5\n        /* \"#utility.yul\":1700:1771   */\n      tag_36\n      jump\t// in\n    tag_86:\n        /* \"#utility.yul\":1556:1778   */\n      swap3\n      swap2\n      pop\n      pop\n      jump\t// out\n        /* \"#utility.yul\":1865:1982   */\n    tag_38:\n        /* \"#utility.yul\":1974:1975   */\n      0x00\n        /* \"#utility.yul\":1971:1972   */\n      dup1\n        /* \"#utility.yul\":1964:1976   */\n      revert\n        /* \"#utility.yul\":1988:2105   */\n    tag_39:\n        /* \"#utility.yul\":2097:2098   */\n      0x00\n        /* \"#utility.yul\":2094:2095   */\n      dup1\n        /* \"#utility.yul\":2087:2099   */\n      revert\n        /* \"#utility.yul\":2111:2228   */\n    tag_40:\n        /* \"#utility.yul\":2220:2221   */\n      0x00\n        /* \"#utility.yul\":2217:2218   */\n      dup1\n        /* \"#utility.yul\":2210:2222   */\n      revert\n        /* \"#utility.yul\":2234:2351   */\n    tag_41:\n        /* \"#utility.yul\":2343:2344   */\n      0x00\n        /* \"#utility.yul\":2340:2341   */\n      dup1\n        /* \"#utility.yul\":2333:2345   */\n      revert\n        /* \"#utility.yul\":2357:2474   */\n    tag_42:\n        /* \"#utility.yul\":2466:2467   */\n      0x00\n        /* \"#utility.yul\":2463:2464   */\n      dup1\n        /* \"#utility.yul\":2456:2468   */\n      revert\n        /* \"#utility.yul\":2494:3047   */\n    tag_43:\n        /* \"#utility.yul\":2552:2560   */\n      0x00\n        /* \"#utility.yul\":2562:2568   */\n      dup1\n        /* \"#utility.yul\":2612:2615   */\n      dup4\n        /* \"#utility.yul\":2605:2609   */\n      0x1f\n        /* \"#utility.yul\":2597:2603   */\n      dup5\n        /* \"#utility.yul\":2593:2610   */\n      add\n        /* \"#utility.yul\":2589:2616   */\n      slt\n        /* \"#utility.yul\":2579:2701   */\n      tag_94\n      jumpi\n        /* \"#utility.yul\":2620:2699   */\n      tag_95\n      tag_40\n      jump\t// in\n    tag_95:\n        /* \"#utility.yul\":2579:2701   */\n    tag_94:\n        /* \"#utility.yul\":2733:2739   */\n      dup3\n        /* \"#utility.yul\":2720:2740   */\n      calldataload\n        /* \"#utility.yul\":2710:2740   */\n      swap1\n      pop\n        /* \"#utility.yul\":2763:2781   */\n      0xffffffffffffffff\n        /* \"#utility.yul\":2755:2761   */\n      dup2\n        /* \"#utility.yul\":2752:2782   */\n      gt\n        /* \"#utility.yul\":2749:2866   */\n      iszero\n      tag_96\n      jumpi\n        /* \"#utility.yul\":2785:2864   */\n      tag_97\n      tag_41\n      jump\t// in\n    tag_97:\n        /* \"#utility.yul\":2749:2866   */\n    tag_96:\n        /* \"#utility.yul\":2899:2903   */\n      0x20\n        /* \"#utility.yul\":2891:2897   */\n      dup4\n        /* \"#utility.yul\":2887:2904   */\n      add\n        /* \"#utility.yul\":2875:2904   */\n      swap2\n      pop\n        /* \"#utility.yul\":2953:2956   */\n      dup4\n        /* \"#utility.yul\":2945:2949   */\n      0x01\n        /* \"#utility.yul\":2937:2943   */\n      dup3\n        /* \"#utility.yul\":2933:2950   */\n      mul\n        /* \"#utility.yul\":2923:2931   */\n      dup4\n        /* \"#utility.yul\":2919:2951   */\n      add\n        /* \"#utility.yul\":2916:2957   */\n      gt\n        /* \"#utility.yul\":2913:3041   */\n      iszero\n      tag_98\n      jumpi\n        /* \"#utility.yul\":2960:3039   */\n      tag_99\n      tag_42\n      jump\t// in\n    tag_99:\n        /* \"#utility.yul\":2913:3041   */\n    tag_98:\n        /* \"#utility.yul\":2494:3047   */\n      swap3\n      pop\n      swap3\n      swap1\n      pop\n      jump\t// out\n        /* \"#utility.yul\":3053:3175   */\n    tag_44:\n        /* \"#utility.yul\":3126:3150   */\n      tag_101\n        /* \"#utility.yul\":3144:3149   */\n      dup2\n        /* \"#utility.yul\":3126:3150   */\n      tag_35\n      jump\t// in\n    tag_101:\n        /* \"#utility.yul\":3119:3124   */\n      dup2\n        /* \"#utility.yul\":3116:3151   */\n      eq\n        /* \"#utility.yul\":3106:3169   */\n      tag_102\n      jumpi\n        /* \"#utility.yul\":3165:3166   */\n      0x00\n        /* \"#utility.yul\":3162:3163   */\n      dup1\n        /* \"#utility.yul\":3155:3167   */\n      revert\n        /* \"#utility.yul\":3106:3169   */\n    tag_102:\n        /* \"#utility.yul\":3053:3175   */\n      pop\n      jump\t// out\n        /* \"#utility.yul\":3181:3320   */\n    tag_45:\n        /* \"#utility.yul\":3227:3232   */\n      0x00\n        /* \"#utility.yul\":3265:3271   */\n      dup2\n        /* \"#utility.yul\":3252:3272   */\n      calldataload\n        /* \"#utility.yul\":3243:3272   */\n      swap1\n      pop\n        /* \"#utility.yul\":3281:3314   */\n      tag_104\n        /* \"#utility.yul\":3308:3313   */\n      dup2\n        /* \"#utility.yul\":3281:3314   */\n      tag_44\n      jump\t// in\n    tag_104:\n        /* \"#utility.yul\":3181:3320   */\n      swap3\n      swap2\n      pop\n      pop\n      jump\t// out\n        /* \"#utility.yul\":3326:4000   */\n    tag_16:\n        /* \"#utility.yul\":3406:3412   */\n      0x00\n        /* \"#utility.yul\":3414:3420   */\n      dup1\n        /* \"#utility.yul\":3422:3428   */\n      0x00\n        /* \"#utility.yul\":3471:3473   */\n      0x40\n        /* \"#utility.yul\":3459:3468   */\n      dup5\n        /* \"#utility.yul\":3450:3457   */\n      dup7\n        /* \"#utility.yul\":3446:3469   */\n      sub\n        /* \"#utility.yul\":3442:3474   */\n      slt\n        /* \"#utility.yul\":3439:3558   */\n      iszero\n      tag_106\n      jumpi\n        /* \"#utility.yul\":3477:3556   */\n      tag_107\n      tag_38\n      jump\t// in\n    tag_107:\n        /* \"#utility.yul\":3439:3558   */\n    tag_106:\n        /* \"#utility.yul\":3625:3626   */\n      0x00\n        /* \"#utility.yul\":3614:3623   */\n      dup5\n        /* \"#utility.yul\":3610:3627   */\n      add\n        /* \"#utility.yul\":3597:3628   */\n      calldataload\n        /* \"#utility.yul\":3655:3673   */\n      0xffffffffffffffff\n        /* \"#utility.yul\":3647:3653   */\n      dup2\n        /* \"#utility.yul\":3644:3674   */\n      gt\n        /* \"#utility.yul\":3641:3758   */\n      iszero\n      tag_108\n      jumpi\n        /* \"#utility.yul\":3677:3756   */\n      tag_109\n      tag_39\n      jump\t// in\n    tag_109:\n        /* \"#utility.yul\":3641:3758   */\n    tag_108:\n        /* \"#utility.yul\":3790:3855   */\n      tag_110\n        /* \"#utility.yul\":3847:3854   */\n      dup7\n        /* \"#utility.yul\":3838:3844   */\n      dup3\n        /* \"#utility.yul\":3827:3836   */\n      dup8\n        /* \"#utility.yul\":3823:3845   */\n      add\n        /* \"#utility.yul\":3790:3855   */\n      tag_43\n      jump\t// in\n    tag_110:\n        /* \"#utility.yul\":3772:3855   */\n      swap4\n      pop\n      swap4\n      pop\n        /* \"#utility.yul\":3568:3865   */\n      pop\n        /* \"#utility.yul\":3904:3906   */\n      0x20\n        /* \"#utility.yul\":3930:3983   */\n      tag_111\n        /* \"#utility.yul\":3975:3982   */\n      dup7\n        /* \"#utility.yul\":3966:3972   */\n      dup3\n        /* \"#utility.yul\":3955:3964   */\n      dup8\n        /* \"#utility.yul\":3951:3973   */\n      add\n        /* \"#utility.yul\":3930:3983   */\n      tag_45\n      jump\t// in\n    tag_111:\n        /* \"#utility.yul\":3920:3983   */\n      swap2\n      pop\n        /* \"#utility.yul\":3875:3993   */\n      pop\n        /* \"#utility.yul\":3326:4000   */\n      swap3\n      pop\n      swap3\n      pop\n      swap3\n      jump\t// out\n        /* \"#utility.yul\":4006:4186   */\n    tag_46:\n        /* \"#utility.yul\":4054:4131   */\n      0x4e487b7100000000000000000000000000000000000000000000000000000000\n        /* \"#utility.yul\":4051:4052   */\n      0x00\n        /* \"#utility.yul\":4044:4132   */\n      mstore\n        /* \"#utility.yul\":4151:4155   */\n      0x22\n        /* \"#utility.yul\":4148:4149   */\n      0x04\n        /* \"#utility.yul\":4141:4156   */\n      mstore\n        /* \"#utility.yul\":4175:4179   */\n      0x24\n        /* \"#utility.yul\":4172:4173   */\n      0x00\n        /* \"#utility.yul\":4165:4180   */\n      revert\n        /* \"#utility.yul\":4192:4512   */\n    tag_19:\n        /* \"#utility.yul\":4236:4242   */\n      0x00\n        /* \"#utility.yul\":4273:4274   */\n      0x02\n        /* \"#utility.yul\":4267:4271   */\n      dup3\n        /* \"#utility.yul\":4263:4275   */\n      div\n        /* \"#utility.yul\":4253:4275   */\n      swap1\n      pop\n        /* \"#utility.yul\":4320:4321   */\n      0x01\n        /* \"#utility.yul\":4314:4318   */\n      dup3\n        /* \"#utility.yul\":4310:4322   */\n      and\n        /* \"#utility.yul\":4341:4359   */\n      dup1\n        /* \"#utility.yul\":4331:4412   */\n      tag_114\n      jumpi\n        /* \"#utility.yul\":4397:4401   */\n      0x7f\n        /* \"#utility.yul\":4389:4395   */\n      dup3\n        /* \"#utility.yul\":4385:4402   */\n      and\n        /* \"#utility.yul\":4375:4402   */\n      swap2\n      pop\n        /* \"#utility.yul\":4331:4412   */\n    tag_114:\n        /* \"#utility.yul\":4459:4461   */\n      0x20\n        /* \"#utility.yul\":4451:4457   */\n      dup3\n        /* \"#utility.yul\":4448:4462   */\n      lt\n        /* \"#utility.yul\":4428:4446   */\n      dup2\n        /* \"#utility.yul\":4425:4463   */\n      sub\n        /* \"#utility.yul\":4422:4506   */\n      tag_115\n      jumpi\n        /* \"#utility.yul\":4478:4496   */\n      tag_116\n      tag_46\n      jump\t// in\n    tag_116:\n        /* \"#utility.yul\":4422:4506   */\n    tag_115:\n        /* \"#utility.yul\":4243:4512   */\n      pop\n        /* \"#utility.yul\":4192:4512   */\n      swap2\n      swap1\n      pop\n      jump\t// out\n        /* \"#utility.yul\":4518:4615   */\n    tag_47:\n        /* \"#utility.yul\":4577:4583   */\n      0x00\n        /* \"#utility.yul\":4605:4608   */\n      dup3\n        /* \"#utility.yul\":4595:4608   */\n      swap1\n      pop\n        /* \"#utility.yul\":4518:4615   */\n      swap3\n      swap2\n      pop\n      pop\n      jump\t// out\n        /* \"#utility.yul\":4621:4801   */\n    tag_48:\n        /* \"#utility.yul\":4669:4746   */\n      0x4e487b7100000000000000000000000000000000000000000000000000000000\n        /* \"#utility.yul\":4666:4667   */\n      0x00\n        /* \"#utility.yul\":4659:4747   */\n      mstore\n        /* \"#utility.yul\":4766:4770   */\n      0x41\n        /* \"#utility.yul\":4763:4764   */\n      0x04\n        /* \"#utility.yul\":4756:4771   */\n      mstore\n        /* \"#utility.yul\":4790:4794   */\n      0x24\n        /* \"#utility.yul\":4787:4788   */\n      0x00\n        /* \"#utility.yul\":4780:4795   */\n      revert\n        /* \"#utility.yul\":4807:4948   */\n    tag_49:\n        /* \"#utility.yul\":4856:4860   */\n      0x00\n        /* \"#utility.yul\":4879:4882   */\n      dup2\n        /* \"#utility.yul\":4871:4882   */\n      swap1\n      pop\n        /* \"#utility.yul\":4902:4905   */\n      dup2\n        /* \"#utility.yul\":4899:4900   */\n      0x00\n        /* \"#utility.yul\":4892:4906   */\n      mstore\n        /* \"#utility.yul\":4936:4940   */\n      0x20\n        /* \"#utility.yul\":4933:4934   */\n      0x00\n        /* \"#utility.yul\":4923:4941   */\n      keccak256\n        /* \"#utility.yul\":4915:4941   */\n      swap1\n      pop\n        /* \"#utility.yul\":4807:4948   */\n      swap2\n      swap1\n      pop\n      jump\t// out\n        /* \"#utility.yul\":4954:5047   */\n    tag_50:\n        /* \"#utility.yul\":4991:4997   */\n      0x00\n        /* \"#utility.yul\":5038:5040   */\n      0x20\n        /* \"#utility.yul\":5033:5035   */\n      0x1f\n        /* \"#utility.yul\":5026:5031   */\n      dup4\n        /* \"#utility.yul\":5022:5036   */\n      add\n        /* \"#utility.yul\":5018:5041   */\n      div\n        /* \"#utility.yul\":5008:5041   */\n      swap1\n      pop\n        /* \"#utility.yul\":4954:5047   */\n      swap2\n      swap1\n      pop\n      jump\t// out\n        /* \"#utility.yul\":5053:5160   */\n    tag_51:\n        /* \"#utility.yul\":5097:5105   */\n      0x00\n        /* \"#utility.yul\":5147:5152   */\n      dup3\n        /* \"#utility.yul\":5141:5145   */\n      dup3\n        /* \"#utility.yul\":5137:5153   */\n      shl\n        /* \"#utility.yul\":5116:5153   */\n      swap1\n      pop\n        /* \"#utility.yul\":5053:5160   */\n      swap3\n      swap2\n      pop\n      pop\n      jump\t// out\n        /* \"#utility.yul\":5166:5559   */\n    tag_52:\n        /* \"#utility.yul\":5235:5241   */\n      0x00\n        /* \"#utility.yul\":5285:5286   */\n      0x08\n        /* \"#utility.yul\":5273:5283   */\n      dup4\n        /* \"#utility.yul\":5269:5287   */\n      mul\n        /* \"#utility.yul\":5308:5405   */\n      tag_123\n        /* \"#utility.yul\":5338:5404   */\n      0xffffffffffffffffffffffffffffffffffffffffffffffffffffffffffffffff\n        /* \"#utility.yul\":5327:5336   */\n      dup3\n        /* \"#utility.yul\":5308:5405   */\n      tag_51\n      jump\t// in\n    tag_123:\n        /* \"#utility.yul\":5426:5465   */\n      tag_124\n        /* \"#utility.yul\":5456:5464   */\n      dup7\n        /* \"#utility.yul\":5445:5454   */\n      dup4\n        /* \"#utility.yul\":5426:5465   */\n      tag_51\n      jump\t// in\n    tag_124:\n        /* \"#utility.yul\":5414:5465   */\n      swap6\n      pop\n        /* \"#utility.yul\":5498:5502   */\n      dup1\n        /* \"#utility.yul\":5494:5503   */\n      not\n        /* \"#utility.yul\":5487:5492   */\n      dup5\n        /* \"#utility.yul\":5483:5504   */\n      and\n        /* \"#utility.yul\":5474:5504   */\n      swap4\n      pop\n        /* \"#utility.yul\":5547:5551   */\n      dup1\n        /* \"#utility.yul\":5537:5545   */\n      dup7\n        /* \"#utility.yul\":5533:5552   */\n      and\n        /* \"#utility.yul\":5526:5531   */\n      dup5\n        /* \"#utility.yul\":5523:5553   */\n      or\n        /* \"#utility.yul\":5513:5553   */\n      swap3\n      pop\n        /* \"#utility.yul\":5242:5559   */\n      pop\n      pop\n        /* \"#utility.yul\":5166:5559   */\n      swap4\n      swap3\n      pop\n      pop\n      pop\n      jump\t// out\n        /* \"#utility.yul\":5565:5625   */\n    tag_53:\n        /* \"#utility.yul\":5593:5596   */\n      0x00\n        /* \"#utility.yul\":5614:5619   */\n      dup2\n        /* \"#utility.yul\":5607:5619   */\n      swap1\n      pop\n        /* \"#utility.yul\":5565:5625   */\n      swap2\n      swap1\n      pop\n      jump\t// out\n        /* \"#utility.yul\":5631:5773   */\n    tag_54:\n        /* \"#utility.yul\":5681:5690   */\n      0x00\n        /* \"#utility.yul\":5714:5767   */\n      tag_127\n        /* \"#utility.yul\":5732:5766   */\n      tag_128\n        /* \"#utility.yul\":5741:5765   */\n      tag_129\n        /* \"#utility.yul\":5759:5764   */\n      dup5\n        /* \"#utility.yul\":5741:5765   */\n      tag_35\n      jump\t// in\n    tag_129:\n        /* \"#utility.yul\":5732:5766   */\n      tag_53\n      jump\t// in\n    tag_128:\n        /* \"#utility.yul\":5714:5767   */\n      tag_35\n      jump\t// in\n    tag_127:\n        /* \"#utility.yul\":5701:5767   */\n      swap1\n      pop\n        /* \"#utility.yul\":5631:5773   */\n      swap2\n      swap1\n      pop\n      jump\t// out\n        /* \"#utility.yul\":5779:5854   */\n    tag_55:\n        /* \"#utility.yul\":5822:5825   */\n      0x00\n        /* \"#utility.yul\":5843:5848   */\n      dup2\n        /* \"#utility.yul\":5836:5848   */\n      swap1\n      pop\n        /* \"#utility.yul\":5779:5854   */\n      swap2\n      swap1\n      pop\n      jump\t// out\n        /* \"#utility.yul\":5860:6129   */\n    tag_56:\n        /* \"#utility.yul\":5970:6009   */\n      tag_132\n        /* \"#utility.yul\":6001:6008   */\n      dup4\n        /* \"#utility.yul\":5970:6009   */\n      tag_54\n      jump\t// in\n    tag_132:\n        /* \"#utility.yul\":6031:6122   */\n      tag_133\n        /* \"#utility.yul\":6080:6121   */\n      tag_134\n        /* \"#utility.yul\":6104:6120   */\n      dup3\n        /* \"#utility.yul\":6080:6121   */\n      tag_55\n      jump\t// in\n    tag_134:\n        /* \"#utility.yul\":6072:6078   */\n      dup5\n        /* \"#utility.yul\":6065:6069   */\n      dup5\n        /* \"#utility.yul\":6059:6070   */\n      sload\n        /* \"#utility.yul\":6031:6122   */\n      tag_52\n      jump\t// in\n    tag_133:\n        /* \"#utility.yul\":6025:6029   */\n      dup3\n        /* \"#utility.yul\":6018:6123   */\n      sstore\n        /* \"#utility.yul\":5936:6129   */\n      pop\n        /* \"#utility.yul\":5860:6129   */\n      pop\n      pop\n      pop\n      jump\t// out\n        /* \"#utility.yul\":6135:6208   */\n    tag_57:\n        /* \"#utility.yul\":6180:6183   */\n      0x00\n        /* \"#utility.yul\":6135:6208   */\n      swap1\n      jump\t// out\n        /* \"#utility.yul\":6214:6403   */\n    tag_58:\n        /* \"#utility.yul\":6291:6323   */\n      tag_137\n      tag_57\n      jump\t// in\n    tag_137:\n        /* \"#utility.yul\":6332:6397   */\n      tag_138\n        /* \"#utility.yul\":6390:6396   */\n      dup2\n        /* \"#utility.yul\":6382:6388   */\n      dup5\n        /* \"#utility.yul\":6376:6380   */\n      dup5\n        /* \"#utility.yul\":6332:6397   */\n      tag_56\n      jump\t// in\n    tag_138:\n        /* \"#utility.yul\":6267:6403   */\n      pop\n        /* \"#utility.yul\":6214:6403   */\n      pop\n      pop\n      jump\t// out\n        /* \"#utility.yul\":6409:6595   */\n    tag_59:\n        /* \"#utility.yul\":6469:6589   */\n    tag_140:\n        /* \"#utility.yul\":6486:6489   */\n      dup2\n        /* \"#utility.yul\":6479:6484   */\n      dup2\n        /* \"#utility.yul\":6476:6490   */\n      lt\n        /* \"#utility.yul\":6469:6589   */\n      iszero\n      tag_142\n      jumpi\n        /* \"#utility.yul\":6540:6579   */\n      tag_143\n        /* \"#utility.yul\":6577:6578   */\n      0x00\n        /* \"#utility.yul\":6570:6575   */\n      dup3\n        /* \"#utility.yul\":6540:6579   */\n      tag_58\n      jump\t// in\n    tag_143:\n        /* \"#utility.yul\":6513:6514   */\n      0x01\n        /* \"#utility.yul\":6506:6511   */\n      dup2\n        /* \"#utility.yul\":6502:6515   */\n      add\n        /* \"#utility.yul\":6493:6515   */\n      swap1\n      pop\n        /* \"#utility.yul\":6469:6589   */\n      jump(tag_140)\n    tag_142:\n        /* \"#utility.yul\":6409:6595   */\n      pop\n      pop\n      jump\t// out\n        /* \"#utility.yul\":6601:7144   */\n    tag_60:\n        /* \"#utility.yul\":6702:6704   */\n      0x1f\n        /* \"#utility.yul\":6697:6700   */\n      dup3\n        /* \"#utility.yul\":6694:6705   */\n      gt\n        /* \"#utility.yul\":6691:7137   */\n      iszero\n      tag_145\n      jumpi\n        /* \"#utility.yul\":6736:6774   */\n      tag_146\n        /* \"#utility.yul\":6768:6773   */\n      dup2\n        /* \"#utility.yul\":6736:6774   */\n      tag_49\n      jump\t// in\n    tag_146:\n        /* \"#utility.yul\":6820:6849   */\n      tag_147\n        /* \"#utility.yul\":6838:6848   */\n      dup5\n        /* \"#utility.yul\":6820:6849   */\n      tag_50\n      jump\t// in\n    tag_147:\n        /* \"#utility.yul\":6810:6818   */\n      dup2\n        /* \"#utility.yul\":6806:6850   */\n      add\n        /* \"#utility.yul\":7003:7005   */\n      0x20\n        /* \"#utility.yul\":6991:7001   */\n      dup6\n        /* \"#utility.yul\":6988:7006   */\n      lt\n        /* \"#utility.yul\":6985:7034   */\n      iszero\n      tag_148\n      jumpi\n        /* \"#utility.yul\":7024:7032   */\n      dup2\n        /* \"#utility.yul\":7009:7032   */\n      swap1\n      pop\n        /* \"#utility.yul\":6985:7034   */\n    tag_148:\n        /* \"#utility.yul\":7047:7127   */\n      tag_149\n        /* \"#utility.yul\":7103:7125   */\n      tag_150\n        /* \"#utility.yul\":7121:7124   */\n      dup6\n        /* \"#utility.yul\":7103:7125   */\n      tag_50\n      jump\t// in\n    tag_150:\n        /* \"#utility.yul\":7093:7101   */\n      dup4\n        /* \"#utility.yul\":7089:7126   */\n      add\n        /* \"#utility.yul\":7076:7087   */\n      dup3\n        /* \"#utility.yul\":7047:7127   */\n      tag_59\n      jump\t// in\n    tag_149:\n        /* \"#utility.yul\":6706:7137   */\n      pop\n      pop\n        /* \"#utility.yul\":6691:7137   */\n    tag_145:\n        /* \"#utility.yul\":6601:7144   */\n      pop\n      pop\n      pop\n      jump\t// out\n        /* \"#utility.yul\":7150:7267   */\n    tag_61:\n        /* \"#utility.yul\":7204:7212   */\n      0x00\n        /* \"#utility.yul\":7254:7259   */\n      dup3\n        /* \"#utility.yul\":7248:7252   */\n      dup3\n        /* \"#utility.yul\":7244:7260   */\n      shr\n        /* \"#utility.yul\":7223:7260   */\n      swap1\n      pop\n        /* \"#utility.yul\":7150:7267   */\n      swap3\n      swap2\n      pop\n      pop\n      jump\t// out\n        /* \"#utility.yul\":7273:7442   */\n    tag_62:\n        /* \"#utility.yul\":7317:7323   */\n      0x00\n        /* \"#utility.yul\":7350:7401   */\n      tag_153\n        /* \"#utility.yul\":7398:7399   */\n      0x00\n        /* \"#utility.yul\":7394:7400   */\n      not\n        /* \"#utility.yul\":7386:7391   */\n      dup5\n        /* \"#utility.yul\":7383:7384   */\n      0x08\n        /* \"#utility.yul\":7379:7392   */\n      mul\n        /* \"#utility.yul\":7350:7401   */\n      tag_61\n      jump\t// in\n    tag_153:\n        /* \"#utility.yul\":7346:7402   */\n      not\n        /* \"#utility.yul\":7431:7435   */\n      dup1\n        /* \"#utility.yul\":7425:7429   */\n      dup4\n        /* \"#utility.yul\":7421:7436   */\n      and\n        /* \"#utility.yul\":7411:7436   */\n      swap2\n      pop\n        /* \"#utility.yul\":7324:7442   */\n      pop\n        /* \"#utility.yul\":7273:7442   */\n      swap3\n      swap2\n      pop\n      pop\n      jump\t// out\n        /* \"#utility.yul\":7447:7742   */\n    tag_63:\n        /* \"#utility.yul\":7523:7527   */\n      0x00\n        /* \"#utility.yul\":7669:7698   */\n      tag_155\n        /* \"#utility.yul\":7694:7697   */\n      dup4\n        /* \"#utility.yul\":7688:7692   */\n      dup4\n        /* \"#utility.yul\":7669:7698   */\n      tag_62\n      jump\t// in\n    tag_155:\n        /* \"#utility.yul\":7661:7698   */\n      swap2\n      pop\n        /* \"#utility.yul\":7731:7734   */\n      dup3\n        /* \"#utility.yul\":7728:7729   */\n      0x02\n        /* \"#utility.yul\":7724:7735   */\n      mul\n        /* \"#utility.yul\":7718:7722   */\n      dup3\n        /* \"#utility.yul\":7715:7736   */\n      or\n        /* \"#utility.yul\":7707:7736   */\n      swap1\n      pop\n        /* \"#utility.yul\":7447:7742   */\n      swap3\n      swap2\n      pop\n      pop\n      jump\t// out\n        /* \"#utility.yul\":7747:9150   */\n    tag_26:\n        /* \"#utility.yul\":7871:7915   */\n      tag_157\n        /* \"#utility.yul\":7911:7914   */\n      dup4\n        /* \"#utility.yul\":7906:7909   */\n      dup4\n        /* \"#utility.yul\":7871:7915   */\n      tag_47\n      jump\t// in\n    tag_157:\n        /* \"#utility.yul\":7980:7998   */\n      0xffffffffffffffff\n        /* \"#utility.yul\":7972:7978   */\n      dup2\n        /* \"#utility.yul\":7969:7999   */\n      gt\n        /* \"#utility.yul\":7966:8022   */\n      iszero\n      tag_158\n      jumpi\n        /* \"#utility.yul\":8002:8020   */\n      tag_159\n      tag_48\n      jump\t// in\n    tag_159:\n        /* \"#utility.yul\":7966:8022   */\n    tag_158:\n        /* \"#utility.yul\":8046:8084   */\n      tag_160\n        /* \"#utility.yul\":8078:8082   */\n      dup3\n        /* \"#utility.yul\":8072:8083   */\n      sload\n        /* \"#utility.yul\":8046:8084   */\n      tag_19\n      jump\t// in\n    tag_160:\n        /* \"#utility.yul\":8131:8198   */\n      tag_161\n        /* \"#utility.yul\":8191:8197   */\n      dup3\n        /* \"#utility.yul\":8183:8189   */\n      dup3\n        /* \"#utility.yul\":8177:8181   */\n      dup6\n        /* \"#utility.yul\":8131:8198   */\n      tag_60\n      jump\t// in\n    tag_161:\n        /* \"#utility.yul\":8225:8226   */\n      0x00\n        /* \"#utility.yul\":8254:8256   */\n      0x1f\n        /* \"#utility.yul\":8246:8252   */\n      dup4\n        /* \"#utility.yul\":8243:8257   */\n      gt\n        /* \"#utility.yul\":8271:8272   */\n      0x01\n        /* \"#utility.yul\":8266:8898   */\n      dup2\n      eq\n      tag_163\n      jumpi\n        /* \"#utility.yul\":8942:8943   */\n      0x00\n        /* \"#utility.yul\":8959:8965   */\n      dup5\n        /* \"#utility.yul\":8956:9040   */\n      iszero\n      tag_164\n      jumpi\n        /* \"#utility.yul\":9015:9024   */\n      dup3\n        /* \"#utility.yul\":9010:9013   */\n      dup8\n        /* \"#utility.yul\":9006:9025   */\n      add\n        /* \"#utility.yul\":8993:9026   */\n      calldataload\n        /* \"#utility.yul\":8984:9026   */\n      swap1\n      pop\n        /* \"#utility.yul\":8956:9040   */\n    tag_164:\n        /* \"#utility.yul\":9066:9133   */\n      tag_165\n        /* \"#utility.yul\":9126:9132   */\n      dup6\n        /* \"#utility.yul\":9119:9124   */\n      dup3\n        /* \"#utility.yul\":9066:9133   */\n      tag_63\n      jump\t// in\n    tag_165:\n        /* \"#utility.yul\":9060:9064   */\n      dup7\n        /* \"#utility.yul\":9053:9134   */\n      sstore\n        /* \"#utility.yul\":8915:9144   */\n      pop\n        /* \"#utility.yul\":8236:9144   */\n      jump(tag_162)\n        /* \"#utility.yul\":8266:8898   */\n    tag_163:\n        /* \"#utility.yul\":8318:8322   */\n      0x1f\n        /* \"#utility.yul\":8314:8323   */\n      not\n        /* \"#utility.yul\":8306:8312   */\n      dup5\n        /* \"#utility.yul\":8302:8324   */\n      and\n        /* \"#utility.yul\":8352:8389   */\n      tag_166\n        /* \"#utility.yul\":8384:8388   */\n      dup7\n        /* \"#utility.yul\":8352:8389   */\n      tag_49\n      jump\t// in\n    tag_166:\n        /* \"#utility.yul\":8411:8412   */\n      0x00\n        /* \"#utility.yul\":8425:8640   */\n    tag_167:\n        /* \"#utility.yul\":8439:8446   */\n      dup3\n        /* \"#utility.yul\":8436:8437   */\n      dup2\n        /* \"#utility.yul\":8433:8447   */\n      lt\n        /* \"#utility.yul\":8425:8640   */\n      iszero\n      tag_169\n      jumpi\n        /* \"#utility.yul\":8525:8534   */\n      dup5\n        /* \"#utility.yul\":8520:8523   */\n      dup10\n        /* \"#utility.yul\":8516:8535   */\n      add\n        /* \"#utility.yul\":8503:8536   */\n      calldataload\n        /* \"#utility.yul\":8495:8501   */\n      dup3\n        /* \"#utility.yul\":8488:8537   */\n      sstore\n        /* \"#utility.yul\":8576:8577   */\n      0x01\n        /* \"#utility.yul\":8568:8574   */\n      dup3\n        /* \"#utility.yul\":8564:8578   */\n      add\n        /* \"#utility.yul\":8554:8578   */\n      swap2\n      pop\n        /* \"#utility.yul\":8623:8625   */\n      0x20\n        /* \"#utility.yul\":8612:8621   */\n      dup6\n        /* \"#utility.yul\":8608:8626   */\n      add\n        /* \"#utility.yul\":8595:8626   */\n      swap5\n      pop\n        /* \"#utility.yul\":8462:8466   */\n      0x20\n        /* \"#utility.yul\":8459:8460   */\n      dup2\n        /* \"#utility.yul\":8455:8467   */\n      add\n        /* \"#utility.yul\":8450:8467   */\n      swap1\n      pop\n        /* \"#utility.yul\":8425:8640   */\n      jump(tag_167)\n    tag_169:\n        /* \"#utility.yul\":8668:8674   */\n      dup7\n        /* \"#utility.yul\":8659:8666   */\n      dup4\n        /* \"#utility.yul\":8656:8675   */\n      lt\n        /* \"#utility.yul\":8653:8839   */\n      iszero\n      tag_170\n      jumpi\n        /* \"#utility.yul\":8733:8742   */\n      dup5\n        /* \"#utility.yul\":8728:8731   */\n      dup10\n        /* \"#utility.yul\":8724:8743   */\n      add\n        /* \"#utility.yul\":8711:8744   */\n      calldataload\n        /* \"#utility.yul\":8776:8824   */\n      tag_171\n        /* \"#utility.yul\":8818:8822   */\n      0x1f\n        /* \"#utility.yul\":8810:8816   */\n      dup10\n        /* \"#utility.yul\":8806:8823   */\n      and\n        /* \"#utility.yul\":8795:8804   */\n      dup3\n        /* \"#utility.yul\":8776:8824   */\n      tag_62\n      jump\t// in\n    tag_171:\n        /* \"#utility.yul\":8768:8774   */\n      dup4\n        /* \"#utility.yul\":8761:8825   */\n      sstore\n        /* \"#utility.yul\":8676:8839   */\n      pop\n        /* \"#utility.yul\":8653:8839   */\n    tag_170:\n        /* \"#utility.yul\":8885:8886   */\n      0x01\n        /* \"#utility.yul\":8881:8882   */\n      0x02\n        /* \"#utility.yul\":8873:8879   */\n      dup9\n        /* \"#utility.yul\":8869:8883   */\n      mul\n        /* \"#utility.yul\":8865:8887   */\n      add\n        /* \"#utility.yul\":8859:8863   */\n      dup9\n        /* \"#utility.yul\":8852:8888   */\n      sstore\n        /* \"#utility.yul\":8273:8898   */\n      pop\n      pop\n      pop\n        /* \"#utility.yul\":8236:9144   */\n    tag_162:\n      pop\n        /* \"#utility.yul\":7846:9150   */\n      pop\n      pop\n      pop\n        /* \"#utility.yul\":7747:9150   */\n      pop\n      pop\n      pop\n      jump\t// out\n        /* \"#utility.yul\":9156:9304   */\n    tag_64:\n        /* \"#utility.yul\":9258:9269   */\n      0x00\n        /* \"#utility.yul\":9295:9298   */\n      dup2\n        /* \"#utility.yul\":9280:9298   */\n      swap1\n      pop\n        /* \"#utility.yul\":9156:9304   */\n      swap3\n      swap2\n      pop\n      pop\n      jump\t// out\n        /* \"#utility.yul\":9310:9456   */\n    tag_65:\n        /* \"#utility.yul\":9407:9413   */\n      dup3\n        /* \"#utility.yul\":9402:9405   */\n      dup2\n        /* \"#utility.yul\":9397:9400   */\n      dup4\n        /* \"#utility.yul\":9384:9414   */\n      calldatacopy\n        /* \"#utility.yul\":9448:9449   */\n      0x00\n        /* \"#utility.yul\":9439:9445   */\n      dup4\n        /* \"#utility.yul\":9434:9437   */\n      dup4\n        /* \"#utility.yul\":9430:9446   */\n      add\n        /* \"#utility.yul\":9423:9450   */\n      mstore\n        /* \"#utility.yul\":9310:9456   */\n      pop\n      pop\n      pop\n      jump\t// out\n        /* \"#utility.yul\":9486:9816   */\n    tag_66:\n        /* \"#utility.yul\":9602:9605   */\n      0x00\n        /* \"#utility.yul\":9623:9712   */\n      tag_175\n        /* \"#utility.yul\":9705:9711   */\n      dup4\n        /* \"#utility.yul\":9700:9703   */\n      dup6\n        /* \"#utility.yul\":9623:9712   */\n      tag_64\n      jump\t// in\n    tag_175:\n        /* \"#utility.yul\":9616:9712   */\n      swap4\n      pop\n        /* \"#utility.yul\":9722:9778   */\n      tag_176\n        /* \"#utility.yul\":9771:9777   */\n      dup4\n        /* \"#utility.yul\":9766:9769   */\n      dup6\n        /* \"#utility.yul\":9759:9764   */\n      dup5\n        /* \"#utility.yul\":9722:9778   */\n      tag_65\n      jump\t// in\n    tag_176:\n        /* \"#utility.yul\":9803:9809   */\n      dup3\n        /* \"#utility.yul\":9798:9801   */\n      dup5\n        /* \"#utility.yul\":9794:9810   */\n      add\n        /* \"#utility.yul\":9787:9810   */\n      swap1\n      pop\n        /* \"#utility.yul\":9486:9816   */\n      swap4\n      swap3\n      pop\n      pop\n      pop\n      jump\t// out\n        /* \"#utility.yul\":9822:10117   */\n    tag_28:\n        /* \"#utility.yul\":9964:9967   */\n      0x00\n        /* \"#utility.yul\":9986:10091   */\n      tag_178\n        /* \"#utility.yul\":10087:10090   */\n      dup3\n        /* \"#utility.yul\":10078:10084   */\n      dup5\n        /* \"#utility.yul\":10070:10076   */\n      dup7\n        /* \"#utility.yul\":9986:10091   */\n      tag_66\n      jump\t// in\n    tag_178:\n        /* \"#utility.yul\":9979:10091   */\n      swap2\n      pop\n        /* \"#utility.yul\":10108:10111   */\n      dup2\n        /* \"#utility.yul\":10101:10111   */\n      swap1\n      pop\n        /* \"#utility.yul\":9822:10117   */\n      swap4\n      swap3\n      pop\n      pop\n      pop\n      jump\t// out\n\n    auxdata: 0xa2646970667358221220ea796afbdba5e4db3ef61776e35d419fc8db8922a0d116352a91bb9821a4ff3064736f6c63430008160033\n}\n",
				"bytecode": {
					"linkReferences": {},
					"object": "608060405234801561000f575f80fd5b506106eb8061001d5f395ff3fe608060405234801561000f575f80fd5b506004361061003f575f3560e01c806306fdde0314610043578063262a9dff146100615780639cf346011461007f575b5f80fd5b61004b61009b565b6040516100589190610222565b60405180910390f35b610069610126565b604051610076919061025a565b60405180910390f35b61009960048036038101906100949190610306565b61012c565b005b5f80546100a790610390565b80601f01602080910402602001604051908101604052809291908181526020018280546100d390610390565b801561011e5780601f106100f55761010080835404028352916020019161011e565b820191905f5260205f20905b81548152906001019060200180831161010157829003601f168201915b505050505081565b60015481565b82825f918261013c929190610594565b5080600181905550828260405161015492919061069d565b60405180910390207f9586ae86a652f2c0e2ad2ab09c484174e854363598d19fbc3c19405143b493438260405161018b919061025a565b60405180910390a2505050565b5f81519050919050565b5f82825260208201905092915050565b5f5b838110156101cf5780820151818401526020810190506101b4565b5f8484015250505050565b5f601f19601f8301169050919050565b5f6101f482610198565b6101fe81856101a2565b935061020e8185602086016101b2565b610217816101da565b840191505092915050565b5f6020820190508181035f83015261023a81846101ea565b905092915050565b5f819050919050565b61025481610242565b82525050565b5f60208201905061026d5f83018461024b565b92915050565b5f80fd5b5f80fd5b5f80fd5b5f80fd5b5f80fd5b5f8083601f84011261029c5761029b61027b565b5b8235905067ffffffffffffffff8111156102b9576102b861027f565b5b6020830191508360018202830111156102d5576102d4610283565b5b9250929050565b6102e581610242565b81146102ef575f80fd5b50565b5f81359050610300816102dc565b92915050565b5f805f6040848603121561031d5761031c610273565b5b5f84013567ffffffffffffffff81111561033a57610339610277565b5b61034686828701610287565b93509350506020610359868287016102f2565b9150509250925092565b7f4e487b71000000000000000000000000000000000000000000000000000000005f52602260045260245ffd5b5f60028204905060018216806103a757607f821691505b6020821081036103ba576103b9610363565b5b50919050565b5f82905092915050565b7f4e487b71000000000000000000000000000000000000000000000000000000005f52604160045260245ffd5b5f819050815f5260205f209050919050565b5f6020601f8301049050919050565b5f82821b905092915050565b5f600883026104537fffffffffffffffffffffffffffffffffffffffffffffffffffffffffffffffff82610418565b61045d8683610418565b95508019841693508086168417925050509392505050565b5f819050919050565b5f61049861049361048e84610242565b610475565b610242565b9050919050565b5f819050919050565b6104b18361047e565b6104c56104bd8261049f565b848454610424565b825550505050565b5f90565b6104d96104cd565b6104e48184846104a8565b505050565b5b81811015610507576104fc5f826104d1565b6001810190506104ea565b5050565b601f82111561054c5761051d816103f7565b61052684610409565b81016020851015610535578190505b61054961054185610409565b8301826104e9565b50505b505050565b5f82821c905092915050565b5f61056c5f1984600802610551565b1980831691505092915050565b5f610584838361055d565b9150826002028217905092915050565b61059e83836103c0565b67ffffffffffffffff8111156105b7576105b66103ca565b5b6105c18254610390565b6105cc82828561050b565b5f601f8311600181146105f9575f84156105e7578287013590505b6105f18582610579565b865550610658565b601f198416610607866103f7565b5f5b8281101561062e57848901358255600182019150602085019450602081019050610609565b8683101561064b5784890135610647601f89168261055d565b8355505b6001600288020188555050505b50505050505050565b5f81905092915050565b828183375f83830152505050565b5f6106848385610661565b935061069183858461066b565b82840190509392505050565b5f6106a9828486610679565b9150819050939250505056fea2646970667358221220ea796afbdba5e4db3ef61776e35d419fc8db8922a0d116352a91bb9821a4ff3064736f6c63430008160033",
					"opcodes": "PUSH1 0x80 PUSH1 0x40 MSTORE CALLVALUE DUP1 ISZERO PUSH2 0xF JUMPI PUSH0 DUP1 REVERT JUMPDEST POP PUSH2 0x6EB DUP1 PUSH2 0x1D PUSH0 CODECOPY PUSH0 RETURN INVALID PUSH1 0x80 PUSH1 0x40 MSTORE CALLVALUE DUP1 ISZERO PUSH2 0xF JUMPI PUSH0 DUP1 REVERT JUMPDEST POP PUSH1 0x4 CALLDATASIZE LT PUSH2 0x3F JUMPI PUSH0 CALLDATALOAD PUSH1 0xE0 SHR DUP1 PUSH4 0x6FDDE03 EQ PUSH2 0x43 JUMPI DUP1 PUSH4 0x262A9DFF EQ PUSH2 0x61 JUMPI DUP1 PUSH4 0x9CF34601 EQ PUSH2 0x7F JUMPI JUMPDEST PUSH0 DUP1 REVERT JUMPDEST PUSH2 0x4B PUSH2 0x9B JUMP JUMPDEST PUSH1 0x40 MLOAD PUSH2 0x58 SWAP2 SWAP1 PUSH2 0x222 JUMP JUMPDEST PUSH1 0x40 MLOAD DUP1 SWAP2 SUB SWAP1 RETURN JUMPDEST PUSH2 0x69 PUSH2 0x126 JUMP JUMPDEST PUSH1 0x40 MLOAD PUSH2 0x76 SWAP2 SWAP1 PUSH2 0x25A JUMP JUMPDEST PUSH1 0x40 MLOAD DUP1 SWAP2 SUB SWAP1 RETURN JUMPDEST PUSH2 0x99 PUSH1 0x4 DUP1 CALLDATASIZE SUB DUP2 ADD SWAP1 PUSH2 0x94 SWAP2 SWAP1 PUSH2 0x306 JUMP JUMPDEST PUSH2 0x12C JUMP JUMPDEST STOP JUMPDEST PUSH0 DUP1 SLOAD PUSH2 0xA7 SWAP1 PUSH2 0x390 JUMP JUMPDEST DUP1 PUSH1 0x1F ADD PUSH1 0x20 DUP1 SWAP2 DIV MUL PUSH1 0x20 ADD PUSH1 0x40 MLOAD SWAP1 DUP2 ADD PUSH1 0x40 MSTORE DUP1 SWAP3 SWAP2 SWAP1 DUP2 DUP2 MSTORE PUSH1 0x20 ADD DUP3 DUP1 SLOAD PUSH2 0xD3 SWAP1 PUSH2 0x390 JUMP JUMPDEST DUP1 ISZERO PUSH2 0x11E JUMPI DUP1 PUSH1 0x1F LT PUSH2 0xF5 JUMPI PUSH2 0x100 DUP1 DUP4 SLOAD DIV MUL DUP4 MSTORE SWAP2 PUSH1 0x20 ADD SWAP2 PUSH2 0x11E JUMP JUMPDEST DUP3 ADD SWAP2 SWAP1 PUSH0 MSTORE PUSH1 0x20 PUSH0 KECCAK256 SWAP1 JUMPDEST DUP2 SLOAD DUP2 MSTORE SWAP1 PUSH1 0x1 ADD SWAP1 PUSH1 0x20 ADD DUP1 DUP4 GT PUSH2 0x101 JUMPI DUP3 SWAP1 SUB PUSH1 0x1F AND DUP3 ADD SWAP2 JUMPDEST POP POP POP POP POP DUP2 JUMP JUMPDEST PUSH1 0x1 SLOAD DUP2 JUMP JUMPDEST DUP3 DUP3 PUSH0 SWAP2 DUP3 PUSH2 0x13C SWAP3 SWAP2 SWAP1 PUSH2 0x594 JUMP JUMPDEST POP DUP1 PUSH1 0x1 DUP2 SWAP1 SSTORE POP DUP3 DUP3 PUSH1 0x40 MLOAD PUSH2 0x154 SWAP3 SWAP2 SWAP1 PUSH2 0x69D JUMP JUMPDEST PUSH1 0x40 MLOAD DUP1 SWAP2 SUB SWAP1 KECCAK256 PUSH32 0x9586AE86A652F2C0E2AD2AB09C484174E854363598D19FBC3C19405143B49343 DUP3 PUSH1 0x40 MLOAD PUSH2 0x18B SWAP2 SWAP1 PUSH2 0x25A JUMP JUMPDEST PUSH1 0x40 MLOAD DUP1 SWAP2 SUB SWAP1 LOG2 POP POP POP JUMP JUMPDEST PUSH0 DUP2 MLOAD SWAP1 POP SWAP2 SWAP1 POP JUMP JUMPDEST PUSH0 DUP3 DUP3 MSTORE PUSH1 0x20 DUP3 ADD SWAP1 POP SWAP3 SWAP2 POP POP JUMP JUMPDEST PUSH0 JUMPDEST DUP4 DUP2 LT ISZERO PUSH2 0x1CF JUMPI DUP1 DUP3 ADD MLOAD DUP2 DUP5 ADD MSTORE PUSH1 0x20 DUP2 ADD SWAP1 POP PUSH2 0x1B4 JUMP JUMPDEST PUSH0 DUP5 DUP5 ADD MSTORE POP POP POP POP JUMP JUMPDEST PUSH0 PUSH1 0x1F NOT PUSH1 0x1F DUP4 ADD AND SWAP1 POP SWAP2 SWAP1 POP JUMP JUMPDEST PUSH0 PUSH2 0x1F4 DUP3 PUSH2 0x198 JUMP JUMPDEST PUSH2 0x1FE DUP2 DUP6 PUSH2 0x1A2 JUMP JUMPDEST SWAP4 POP PUSH2 0x20E DUP2 DUP6 PUSH1 0x20 DUP7 ADD PUSH2 0x1B2 JUMP JUMPDEST PUSH2 0x217 DUP2 PUSH2 0x1DA JUMP JUMPDEST DUP5 ADD SWAP2 POP POP SWAP3 SWAP2 POP POP JUMP JUMPDEST PUSH0 PUSH1 0x20 DUP3 ADD SWAP1 POP DUP2 DUP2 SUB PUSH0 DUP4 ADD MSTORE PUSH2 0x23A DUP2 DUP5 PUSH2 0x1EA JUMP JUMPDEST SWAP1 POP SWAP3 SWAP2 POP POP JUMP JUMPDEST PUSH0 DUP2 SWAP1 POP SWAP2 SWAP1 POP JUMP JUMPDEST PUSH2 0x254 DUP2 PUSH2 0x242 JUMP JUMPDEST DUP3 MSTORE POP POP JUMP JUMPDEST PUSH0 PUSH1 0x20 DUP3 ADD SWAP1 POP PUSH2 0x26D PUSH0 DUP4 ADD DUP5 PUSH2 0x24B JUMP JUMPDEST SWAP3 SWAP2 POP POP JUMP JUMPDEST PUSH0 DUP1 REVERT JUMPDEST PUSH0 DUP1 REVERT JUMPDEST PUSH0 DUP1 REVERT JUMPDEST PUSH0 DUP1 REVERT JUMPDEST PUSH0 DUP1 REVERT JUMPDEST PUSH0 DUP1 DUP4 PUSH1 0x1F DUP5 ADD SLT PUSH2 0x29C JUMPI PUSH2 0x29B PUSH2 0x27B JUMP JUMPDEST JUMPDEST DUP3 CALLDATALOAD SWAP1 POP PUSH8 0xFFFFFFFFFFFFFFFF DUP2 GT ISZERO PUSH2 0x2B9 JUMPI PUSH2 0x2B8 PUSH2 0x27F JUMP JUMPDEST JUMPDEST PUSH1 0x20 DUP4 ADD SWAP2 POP DUP4 PUSH1 0x1 DUP3 MUL DUP4 ADD GT ISZERO PUSH2 0x2D5 JUMPI PUSH2 0x2D4 PUSH2 0x283 JUMP JUMPDEST JUMPDEST SWAP3 POP SWAP3 SWAP1 POP JUMP JUMPDEST PUSH2 0x2E5 DUP2 PUSH2 0x242 JUMP JUMPDEST DUP2 EQ PUSH2 0x2EF JUMPI PUSH0 DUP1 REVERT JUMPDEST POP JUMP JUMPDEST PUSH0 DUP2 CALLDATALOAD SWAP1 POP PUSH2 0x300 DUP2 PUSH2 0x2DC JUMP JUMPDEST SWAP3 SWAP2 POP POP JUMP JUMPDEST PUSH0 DUP1 PUSH0 PUSH1 0x40 DUP5 DUP7 SUB SLT ISZERO PUSH2 0x31D JUMPI PUSH2 0x31C PUSH2 0x273 JUMP JUMPDEST JUMPDEST PUSH0 DUP5 ADD CALLDATALOAD PUSH8 0xFFFFFFFFFFFFFFFF DUP2 GT ISZERO PUSH2 0x33A JUMPI PUSH2 0x339 PUSH2 0x277 JUMP JUMPDEST JUMPDEST PUSH2 0x346 DUP7 DUP3 DUP8 ADD PUSH2 0x287 JUMP JUMPDEST SWAP4 POP SWAP4 POP POP PUSH1 0x20 PUSH2 0x359 DUP7 DUP3 DUP8 ADD PUSH2 0x2F2 JUMP JUMPDEST SWAP2 POP POP SWAP3 POP SWAP3 POP SWAP3 JUMP JUMPDEST PUSH32 0x4E487B7100000000000000000000000000000000000000000000000000000000 PUSH0 MSTORE PUSH1 0x22 PUSH1 0x4 MSTORE PUSH1 0x24 PUSH0 REVERT JUMPDEST PUSH0 PUSH1 0x2 DUP3 DIV SWAP1 POP PUSH1 0x1 DUP3 AND DUP1 PUSH2 0x3A7 JUMPI PUSH1 0x7F DUP3 AND SWAP2 POP JUMPDEST PUSH1 0x20 DUP3 LT DUP2 SUB PUSH2 0x3BA JUMPI PUSH2 0x3B9 PUSH2 0x363 JUMP JUMPDEST JUMPDEST POP SWAP2 SWAP1 POP JUMP JUMPDEST PUSH0 DUP3 SWAP1 POP SWAP3 SWAP2 POP POP JUMP JUMPDEST PUSH32 0x4E487B7100000000000000000000000000000000000000000000000000000000 PUSH0 MSTORE PUSH1 0x41 PUSH1 0x4 MSTORE PUSH1 0x24 PUSH0 REVERT JUMPDEST PUSH0 DUP2 SWAP1 POP DUP2 PUSH0 MSTORE PUSH1 0x20 PUSH0 KECCAK256 SWAP1 POP SWAP2 SWAP1 POP JUMP JUMPDEST PUSH0 PUSH1 0x20 PUSH1 0x1F DUP4 ADD DIV SWAP1 POP SWAP2 SWAP1 POP JUMP JUMPDEST PUSH0 DUP3 DUP3 SHL SWAP1 POP SWAP3 SWAP2 POP POP JUMP JUMPDEST PUSH0 PUSH1 0x8 DUP4 MUL PUSH2 0x453 PUSH32 0xFFFFFFFFFFFFFFFFFFFFFFFFFFFFFFFFFFFFFFFFFFFFFFFFFFFFFFFFFFFFFFFF DUP3 PUSH2 0x418 JUMP JUMPDEST PUSH2 0x45D DUP7 DUP4 PUSH2 0x418 JUMP JUMPDEST SWAP6 POP DUP1 NOT DUP5 AND SWAP4 POP DUP1 DUP7 AND DUP5 OR SWAP3 POP POP POP SWAP4 SWAP3 POP POP POP JUMP JUMPDEST PUSH0 DUP2 SWAP1 POP SWAP2 SWAP1 POP JUMP JUMPDEST PUSH0 PUSH2 0x498 PUSH2 0x493 PUSH2 0x48E DUP5 PUSH2 0x242 JUMP JUMPDEST PUSH2 0x475 JUMP JUMPDEST PUSH2 0x242 JUMP JUMPDEST SWAP1 POP SWAP2 SWAP1 POP JUMP JUMPDEST PUSH0 DUP2 SWAP1 POP SWAP2 SWAP1 POP JUMP JUMPDEST PUSH2 0x4B1 DUP4 PUSH2 0x47E JUMP JUMPDEST PUSH2 0x4C5 PUSH2 0x4BD DUP3 PUSH2 0x49F JUMP JUMPDEST DUP5 DUP5 SLOAD PUSH2 0x424 JUMP JUMPDEST DUP3 SSTORE POP POP POP POP JUMP JUMPDEST PUSH0 SWAP1 JUMP JUMPDEST PUSH2 0x4D9 PUSH2 0x4CD JUMP JUMPDEST PUSH2 0x4E4 DUP2 DUP5 DUP5 PUSH2 0x4A8 JUMP JUMPDEST POP POP POP JUMP JUMPDEST JUMPDEST DUP2 DUP2 LT ISZERO PUSH2 0x507 JUMPI PUSH2 0x4FC PUSH0 DUP3 PUSH2 0x4D1 JUMP JUMPDEST PUSH1 0x1 DUP2 ADD SWAP1 POP PUSH2 0x4EA JUMP JUMPDEST POP POP JUMP JUMPDEST PUSH1 0x1F DUP3 GT ISZERO PUSH2 0x54C JUMPI PUSH2 0x51D DUP2 PUSH2 0x3F7 JUMP JUMPDEST PUSH2 0x526 DUP5 PUSH2 0x409 JUMP JUMPDEST DUP2 ADD PUSH1 0x20 DUP6 LT ISZERO PUSH2 0x535 JUMPI DUP2 SWAP1 POP JUMPDEST PUSH2 0x549 PUSH2 0x541 DUP6 PUSH2 0x409 JUMP JUMPDEST DUP4 ADD DUP3 PUSH2 0x4E9 JUMP JUMPDEST POP POP JUMPDEST POP POP POP JUMP JUMPDEST PUSH0 DUP3 DUP3 SHR SWAP1 POP SWAP3 SWAP2 POP POP JUMP JUMPDEST PUSH0 PUSH2 0x56C PUSH0 NOT DUP5 PUSH1 0x8 MUL PUSH2 0x551 JUMP JUMPDEST NOT DUP1 DUP4 AND SWAP2 POP POP SWAP3 SWAP2 POP POP JUMP JUMPDEST PUSH0 PUSH2 0x584 DUP4 DUP4 PUSH2 0x55D JUMP JUMPDEST SWAP2 POP DUP3 PUSH1 0x2 MUL DUP3 OR SWAP1 POP SWAP3 SWAP2 POP POP JUMP JUMPDEST PUSH2 0x59E DUP4 DUP4 PUSH2 0x3C0 JUMP JUMPDEST PUSH8 0xFFFFFFFFFFFFFFFF DUP2 GT ISZERO PUSH2 0x5B7 JUMPI PUSH2 0x5B6 PUSH2 0x3CA JUMP JUMPDEST JUMPDEST PUSH2 0x5C1 DUP3 SLOAD PUSH2 0x390 JUMP JUMPDEST PUSH2 0x5CC DUP3 DUP3 DUP6 PUSH2 0x50B JUMP JUMPDEST PUSH0 PUSH1 0x1F DUP4 GT PUSH1 0x1 DUP2 EQ PUSH2 0x5F9 JUMPI PUSH0 DUP5 ISZERO PUSH2 0x5E7 JUMPI DUP3 DUP8 ADD CALLDATALOAD SWAP1 POP JUMPDEST PUSH2 0x5F1 DUP6 DUP3 PUSH2 0x579 JUMP JUMPDEST DUP7 SSTORE POP PUSH2 0x658 JUMP JUMPDEST PUSH1 0x1F NOT DUP5 AND PUSH2 0x607 DUP7 PUSH2 0x3F7 JUMP JUMPDEST PUSH0 JUMPDEST DUP3 DUP2 LT ISZERO PUSH2 0x62E JUMPI DUP5 DUP10 ADD CALLDATALOAD DUP3 SSTORE PUSH1 0x1 DUP3 ADD SWAP2 POP PUSH1 0x20 DUP6 ADD SWAP5 POP PUSH1 0x20 DUP2 ADD SWAP1 POP PUSH2 0x609 JUMP JUMPDEST DUP7 DUP4 LT ISZERO PUSH2 0x64B JUMPI DUP5 DUP10 ADD CALLDATALOAD PUSH2 0x647 PUSH1 0x1F DUP10 AND DUP3 PUSH2 0x55D JUMP JUMPDEST DUP4 SSTORE POP JUMPDEST PUSH1 0x1 PUSH1 0x2 DUP9 MUL ADD DUP9 SSTORE POP POP POP JUMPDEST POP POP POP POP POP POP POP JUMP JUMPDEST PUSH0 DUP2 SWAP1 POP SWAP3 SWAP2 POP POP JUMP JUMPDEST DUP3 DUP2 DUP4 CALLDATACOPY PUSH0 DUP4 DUP4 ADD MSTORE POP POP POP JUMP JUMPDEST PUSH0 PUSH2 0x684 DUP4 DUP6 PUSH2 0x661 JUMP JUMPDEST SWAP4 POP PUSH2 0x691 DUP4 DUP6 DUP5 PUSH2 0x66B JUMP JUMPDEST DUP3 DUP5 ADD SWAP1 POP SWAP4 SWAP3 POP POP POP JUMP JUMPDEST PUSH0 PUSH2 0x6A9 DUP3 DUP5 DUP7 PUSH2 0x679 JUMP JUMPDEST SWAP2 POP DUP2 SWAP1 POP SWAP4 SWAP3 POP POP POP JUMP INVALID LOG2 PUSH5 0x6970667358 0x22 SLT KECCAK256 0xEA PUSH26 0x6AFBDBA5E4DB3EF61776E35D419FC8DB8922A0D116352A91BB98 0x21 LOG4 SELFDESTRUCT ADDRESS PUSH5 0x736F6C6343 STOP ADDMOD AND STOP CALLER "
				},
				"gasEstimates": {
					"creation": {
						"codeDepositCost": "354200",
						"executionCost": "391",
						"totalCost": "354591"
					},
					"external": {
						"age()": "2425",
						"name()": "infinite",
						"setNameAndAge(string,uint256)": "infinite"
					}
				},
				"methodIdentifiers": {
					"age()": "262a9dff",
					"name()": "06fdde03",
					"setNameAndAge(string,uint256)": "9cf34601"
				}
			},
			"storageLayout": {
				"storage": [
					{
						"astId": 3,
						"contract": "contracts/Event.sol:Event",
						"label": "name",
						"offset": 0,
						"slot": "0",
						"type": "t_string_storage"
					},
					{
						"astId": 5,
						"contract": "contracts/Event.sol:Event",
						"label": "age",
						"offset": 0,
						"slot": "1",
						"type": "t_uint256"
					}
				],
				"types": {
					"t_string_storage": {
						"encoding": "bytes",
						"label": "string",
						"numberOfBytes": "32"
					},
					"t_uint256": {
						"encoding": "inplace",
						"label": "uint256",
						"numberOfBytes": "32"
					}
				}
			},
			"userdoc": {
				"kind": "user",
				"methods": {},
				"version": 1
			}
		}
	}
}