{
	"contracts/Mywallet.sol": {
		"Mywallet": {
			"abi": [
				{
					"inputs": [],
					"stateMutability": "payable",
					"type": "constructor"
				},
				{
					"inputs": [],
					"name": "deposit",
					"outputs": [],
					"stateMutability": "payable",
					"type": "function"
				},
				{
					"inputs": [],
					"name": "nonPayable",
					"outputs": [],
					"stateMutability": "nonpayable",
					"type": "function"
				},
				{
					"inputs": [],
					"name": "owner",
					"outputs": [
						{
							"internalType": "address payable",
							"name": "",
							"type": "address"
						}
					],
					"stateMutability": "view",
					"type": "function"
				},
				{
					"inputs": [
						{
							"internalType": "address payable",
							"name": "_to",
							"type": "address"
						},
						{
							"internalType": "uint256",
							"name": "amount",
							"type": "uint256"
						}
					],
					"name": "transfer",
					"outputs": [],
					"stateMutability": "payable",
					"type": "function"
				},
				{
					"inputs": [],
					"name": "withDraw",
					"outputs": [],
					"stateMutability": "nonpayable",
					"type": "function"
				}
			],
			"devdoc": {
				"kind": "dev",
				"methods": {},
				"version": 1
			},
			"evm": {
				"assembly": "    /* \"contracts/Mywallet.sol\":61:913  contract Mywallet {... */\n  mstore(0x40, 0x80)\n    /* \"contracts/Mywallet.sol\":170:180  msg.sender */\n  caller\n    /* \"contracts/Mywallet.sol\":154:159  owner */\n  0x00\n  dup1\n    /* \"contracts/Mywallet.sol\":154:181  owner = payable(msg.sender) */\n  0x0100\n  exp\n  dup2\n  sload\n  dup2\n  0xffffffffffffffffffffffffffffffffffffffff\n  mul\n  not\n  and\n  swap1\n  dup4\n  0xffffffffffffffffffffffffffffffffffffffff\n  and\n  mul\n  or\n  swap1\n  sstore\n  pop\n    /* \"contracts/Mywallet.sol\":61:913  contract Mywallet {... */\n  dataSize(sub_0)\n  dup1\n  dataOffset(sub_0)\n  0x00\n  codecopy\n  0x00\n  return\nstop\n\nsub_0: assembly {\n        /* \"contracts/Mywallet.sol\":61:913  contract Mywallet {... */\n      mstore(0x40, 0x80)\n      jumpi(tag_1, lt(calldatasize, 0x04))\n      shr(0xe0, calldataload(0x00))\n      dup1\n      0x0fdb1c10\n      eq\n      tag_2\n      jumpi\n      dup1\n      0x52da86d5\n      eq\n      tag_3\n      jumpi\n      dup1\n      0x8da5cb5b\n      eq\n      tag_4\n      jumpi\n      dup1\n      0xa9059cbb\n      eq\n      tag_5\n      jumpi\n      dup1\n      0xd0e30db0\n      eq\n      tag_6\n      jumpi\n    tag_1:\n      0x00\n      dup1\n      revert\n        /* \"contracts/Mywallet.sol\":517:714  function withDraw() public isOwner {... */\n    tag_2:\n      callvalue\n      dup1\n      iszero\n      tag_7\n      jumpi\n      0x00\n      dup1\n      revert\n    tag_7:\n      pop\n      tag_8\n      tag_9\n      jump\t// in\n    tag_8:\n      stop\n        /* \"contracts/Mywallet.sol\":408:439  function nonPayable() public {} */\n    tag_3:\n      callvalue\n      dup1\n      iszero\n      tag_10\n      jumpi\n      0x00\n      dup1\n      revert\n    tag_10:\n      pop\n      tag_11\n      tag_12\n      jump\t// in\n    tag_11:\n      stop\n        /* \"contracts/Mywallet.sol\":86:114  address payable public owner */\n    tag_4:\n      callvalue\n      dup1\n      iszero\n      tag_13\n      jumpi\n      0x00\n      dup1\n      revert\n    tag_13:\n      pop\n      tag_14\n      tag_15\n      jump\t// in\n    tag_14:\n      mload(0x40)\n      tag_16\n      swap2\n      swap1\n      tag_17\n      jump\t// in\n    tag_16:\n      mload(0x40)\n      dup1\n      swap2\n      sub\n      swap1\n      return\n        /* \"contracts/Mywallet.sol\":720:910  function transfer(address payable _to, uint amount) public payable isOwner {... */\n    tag_5:\n      tag_18\n      0x04\n      dup1\n      calldatasize\n      sub\n      dup2\n      add\n      swap1\n      tag_19\n      swap2\n      swap1\n      tag_20\n      jump\t// in\n    tag_19:\n      tag_21\n      jump\t// in\n    tag_18:\n      stop\n        /* \"contracts/Mywallet.sol\":302:338  function deposit() public payable {} */\n    tag_6:\n      tag_22\n      tag_23\n      jump\t// in\n    tag_22:\n      stop\n        /* \"contracts/Mywallet.sol\":517:714  function withDraw() public isOwner {... */\n    tag_9:\n        /* \"contracts/Mywallet.sol\":247:252  owner */\n      0x00\n      dup1\n      sload\n      swap1\n      0x0100\n      exp\n      swap1\n      div\n      0xffffffffffffffffffffffffffffffffffffffff\n      and\n        /* \"contracts/Mywallet.sol\":233:252  msg.sender == owner */\n      0xffffffffffffffffffffffffffffffffffffffff\n      and\n        /* \"contracts/Mywallet.sol\":233:243  msg.sender */\n      caller\n        /* \"contracts/Mywallet.sol\":233:252  msg.sender == owner */\n      0xffffffffffffffffffffffffffffffffffffffff\n      and\n      eq\n        /* \"contracts/Mywallet.sol\":225:274  require(msg.sender == owner, \"You are not owner\") */\n      tag_25\n      jumpi\n      mload(0x40)\n      0x08c379a000000000000000000000000000000000000000000000000000000000\n      dup2\n      mstore\n      0x04\n      add\n      tag_26\n      swap1\n      tag_27\n      jump\t// in\n    tag_26:\n      mload(0x40)\n      dup1\n      swap2\n      sub\n      swap1\n      revert\n    tag_25:\n        /* \"contracts/Mywallet.sol\":563:574  uint amount */\n      0x00\n        /* \"contracts/Mywallet.sol\":577:598  address(this).balance */\n      selfbalance\n        /* \"contracts/Mywallet.sol\":563:598  uint amount = address(this).balance */\n      swap1\n      pop\n        /* \"contracts/Mywallet.sol\":610:622  bool success */\n      0x00\n        /* \"contracts/Mywallet.sol\":628:633  owner */\n      dup1\n      0x00\n      swap1\n      sload\n      swap1\n      0x0100\n      exp\n      swap1\n      div\n      0xffffffffffffffffffffffffffffffffffffffff\n      and\n        /* \"contracts/Mywallet.sol\":628:638  owner.call */\n      0xffffffffffffffffffffffffffffffffffffffff\n      and\n        /* \"contracts/Mywallet.sol\":646:652  amount */\n      dup3\n        /* \"contracts/Mywallet.sol\":628:657  owner.call{value: amount}(\"\") */\n      mload(0x40)\n      tag_29\n      swap1\n      tag_30\n      jump\t// in\n    tag_29:\n      0x00\n      mload(0x40)\n      dup1\n      dup4\n      sub\n      dup2\n      dup6\n      dup8\n      gas\n      call\n      swap3\n      pop\n      pop\n      pop\n      returndatasize\n      dup1\n      0x00\n      dup2\n      eq\n      tag_33\n      jumpi\n      mload(0x40)\n      swap2\n      pop\n      and(add(returndatasize, 0x3f), not(0x1f))\n      dup3\n      add\n      0x40\n      mstore\n      returndatasize\n      dup3\n      mstore\n      returndatasize\n      0x00\n      0x20\n      dup5\n      add\n      returndatacopy\n      jump(tag_32)\n    tag_33:\n      0x60\n      swap2\n      pop\n    tag_32:\n      pop\n        /* \"contracts/Mywallet.sol\":609:657  (bool success, ) = owner.call{value: amount}(\"\") */\n      pop\n      swap1\n      pop\n        /* \"contracts/Mywallet.sol\":676:683  success */\n      dup1\n        /* \"contracts/Mywallet.sol\":668:706  require(success, \"withdraw is failed\") */\n      tag_34\n      jumpi\n      mload(0x40)\n      0x08c379a000000000000000000000000000000000000000000000000000000000\n      dup2\n      mstore\n      0x04\n      add\n      tag_35\n      swap1\n      tag_36\n      jump\t// in\n    tag_35:\n      mload(0x40)\n      dup1\n      swap2\n      sub\n      swap1\n      revert\n    tag_34:\n        /* \"contracts/Mywallet.sol\":552:714  {... */\n      pop\n      pop\n        /* \"contracts/Mywallet.sol\":517:714  function withDraw() public isOwner {... */\n      jump\t// out\n        /* \"contracts/Mywallet.sol\":408:439  function nonPayable() public {} */\n    tag_12:\n      jump\t// out\n        /* \"contracts/Mywallet.sol\":86:114  address payable public owner */\n    tag_15:\n      0x00\n      dup1\n      sload\n      swap1\n      0x0100\n      exp\n      swap1\n      div\n      0xffffffffffffffffffffffffffffffffffffffff\n      and\n      dup2\n      jump\t// out\n        /* \"contracts/Mywallet.sol\":720:910  function transfer(address payable _to, uint amount) public payable isOwner {... */\n    tag_21:\n        /* \"contracts/Mywallet.sol\":247:252  owner */\n      0x00\n      dup1\n      sload\n      swap1\n      0x0100\n      exp\n      swap1\n      div\n      0xffffffffffffffffffffffffffffffffffffffff\n      and\n        /* \"contracts/Mywallet.sol\":233:252  msg.sender == owner */\n      0xffffffffffffffffffffffffffffffffffffffff\n      and\n        /* \"contracts/Mywallet.sol\":233:243  msg.sender */\n      caller\n        /* \"contracts/Mywallet.sol\":233:252  msg.sender == owner */\n      0xffffffffffffffffffffffffffffffffffffffff\n      and\n      eq\n        /* \"contracts/Mywallet.sol\":225:274  require(msg.sender == owner, \"You are not owner\") */\n      tag_39\n      jumpi\n      mload(0x40)\n      0x08c379a000000000000000000000000000000000000000000000000000000000\n      dup2\n      mstore\n      0x04\n      add\n      tag_40\n      swap1\n      tag_27\n      jump\t// in\n    tag_40:\n      mload(0x40)\n      dup1\n      swap2\n      sub\n      swap1\n      revert\n    tag_39:\n        /* \"contracts/Mywallet.sol\":807:819  bool success */\n      0x00\n        /* \"contracts/Mywallet.sol\":825:828  _to */\n      dup3\n        /* \"contracts/Mywallet.sol\":825:833  _to.call */\n      0xffffffffffffffffffffffffffffffffffffffff\n      and\n        /* \"contracts/Mywallet.sol\":841:847  amount */\n      dup3\n        /* \"contracts/Mywallet.sol\":825:852  _to.call{value: amount}(\"\") */\n      mload(0x40)\n      tag_42\n      swap1\n      tag_30\n      jump\t// in\n    tag_42:\n      0x00\n      mload(0x40)\n      dup1\n      dup4\n      sub\n      dup2\n      dup6\n      dup8\n      gas\n      call\n      swap3\n      pop\n      pop\n      pop\n      returndatasize\n      dup1\n      0x00\n      dup2\n      eq\n      tag_45\n      jumpi\n      mload(0x40)\n      swap2\n      pop\n      and(add(returndatasize, 0x3f), not(0x1f))\n      dup3\n      add\n      0x40\n      mstore\n      returndatasize\n      dup3\n      mstore\n      returndatasize\n      0x00\n      0x20\n      dup5\n      add\n      returndatacopy\n      jump(tag_44)\n    tag_45:\n      0x60\n      swap2\n      pop\n    tag_44:\n      pop\n        /* \"contracts/Mywallet.sol\":806:852  (bool success, ) = _to.call{value: amount}(\"\") */\n      pop\n      swap1\n      pop\n        /* \"contracts/Mywallet.sol\":872:879  success */\n      dup1\n        /* \"contracts/Mywallet.sol\":864:902  require(success, \"transfer is failed\") */\n      tag_46\n      jumpi\n      mload(0x40)\n      0x08c379a000000000000000000000000000000000000000000000000000000000\n      dup2\n      mstore\n      0x04\n      add\n      tag_47\n      swap1\n      tag_48\n      jump\t// in\n    tag_47:\n      mload(0x40)\n      dup1\n      swap2\n      sub\n      swap1\n      revert\n    tag_46:\n        /* \"contracts/Mywallet.sol\":795:910  {... */\n      pop\n        /* \"contracts/Mywallet.sol\":720:910  function transfer(address payable _to, uint amount) public payable isOwner {... */\n      pop\n      pop\n      jump\t// out\n        /* \"contracts/Mywallet.sol\":302:338  function deposit() public payable {} */\n    tag_23:\n      jump\t// out\n        /* \"#utility.yul\":7:133   */\n    tag_50:\n        /* \"#utility.yul\":44:51   */\n      0x00\n        /* \"#utility.yul\":84:126   */\n      0xffffffffffffffffffffffffffffffffffffffff\n        /* \"#utility.yul\":77:82   */\n      dup3\n        /* \"#utility.yul\":73:127   */\n      and\n        /* \"#utility.yul\":62:127   */\n      swap1\n      pop\n        /* \"#utility.yul\":7:133   */\n      swap2\n      swap1\n      pop\n      jump\t// out\n        /* \"#utility.yul\":139:243   */\n    tag_51:\n        /* \"#utility.yul\":184:191   */\n      0x00\n        /* \"#utility.yul\":213:237   */\n      tag_74\n        /* \"#utility.yul\":231:236   */\n      dup3\n        /* \"#utility.yul\":213:237   */\n      tag_50\n      jump\t// in\n    tag_74:\n        /* \"#utility.yul\":202:237   */\n      swap1\n      pop\n        /* \"#utility.yul\":139:243   */\n      swap2\n      swap1\n      pop\n      jump\t// out\n        /* \"#utility.yul\":249:391   */\n    tag_52:\n        /* \"#utility.yul\":352:384   */\n      tag_76\n        /* \"#utility.yul\":378:383   */\n      dup2\n        /* \"#utility.yul\":352:384   */\n      tag_51\n      jump\t// in\n    tag_76:\n        /* \"#utility.yul\":347:350   */\n      dup3\n        /* \"#utility.yul\":340:385   */\n      mstore\n        /* \"#utility.yul\":249:391   */\n      pop\n      pop\n      jump\t// out\n        /* \"#utility.yul\":397:651   */\n    tag_17:\n        /* \"#utility.yul\":506:510   */\n      0x00\n        /* \"#utility.yul\":544:546   */\n      0x20\n        /* \"#utility.yul\":533:542   */\n      dup3\n        /* \"#utility.yul\":529:547   */\n      add\n        /* \"#utility.yul\":521:547   */\n      swap1\n      pop\n        /* \"#utility.yul\":557:644   */\n      tag_78\n        /* \"#utility.yul\":641:642   */\n      0x00\n        /* \"#utility.yul\":630:639   */\n      dup4\n        /* \"#utility.yul\":626:643   */\n      add\n        /* \"#utility.yul\":617:623   */\n      dup5\n        /* \"#utility.yul\":557:644   */\n      tag_52\n      jump\t// in\n    tag_78:\n        /* \"#utility.yul\":397:651   */\n      swap3\n      swap2\n      pop\n      pop\n      jump\t// out\n        /* \"#utility.yul\":738:855   */\n    tag_54:\n        /* \"#utility.yul\":847:848   */\n      0x00\n        /* \"#utility.yul\":844:845   */\n      dup1\n        /* \"#utility.yul\":837:849   */\n      revert\n        /* \"#utility.yul\":984:1122   */\n    tag_56:\n        /* \"#utility.yul\":1065:1097   */\n      tag_83\n        /* \"#utility.yul\":1091:1096   */\n      dup2\n        /* \"#utility.yul\":1065:1097   */\n      tag_51\n      jump\t// in\n    tag_83:\n        /* \"#utility.yul\":1058:1063   */\n      dup2\n        /* \"#utility.yul\":1055:1098   */\n      eq\n        /* \"#utility.yul\":1045:1116   */\n      tag_84\n      jumpi\n        /* \"#utility.yul\":1112:1113   */\n      0x00\n        /* \"#utility.yul\":1109:1110   */\n      dup1\n        /* \"#utility.yul\":1102:1114   */\n      revert\n        /* \"#utility.yul\":1045:1116   */\n    tag_84:\n        /* \"#utility.yul\":984:1122   */\n      pop\n      jump\t// out\n        /* \"#utility.yul\":1128:1283   */\n    tag_57:\n        /* \"#utility.yul\":1182:1187   */\n      0x00\n        /* \"#utility.yul\":1220:1226   */\n      dup2\n        /* \"#utility.yul\":1207:1227   */\n      calldataload\n        /* \"#utility.yul\":1198:1227   */\n      swap1\n      pop\n        /* \"#utility.yul\":1236:1277   */\n      tag_86\n        /* \"#utility.yul\":1271:1276   */\n      dup2\n        /* \"#utility.yul\":1236:1277   */\n      tag_56\n      jump\t// in\n    tag_86:\n        /* \"#utility.yul\":1128:1283   */\n      swap3\n      swap2\n      pop\n      pop\n      jump\t// out\n        /* \"#utility.yul\":1289:1366   */\n    tag_58:\n        /* \"#utility.yul\":1326:1333   */\n      0x00\n        /* \"#utility.yul\":1355:1360   */\n      dup2\n        /* \"#utility.yul\":1344:1360   */\n      swap1\n      pop\n        /* \"#utility.yul\":1289:1366   */\n      swap2\n      swap1\n      pop\n      jump\t// out\n        /* \"#utility.yul\":1372:1494   */\n    tag_59:\n        /* \"#utility.yul\":1445:1469   */\n      tag_89\n        /* \"#utility.yul\":1463:1468   */\n      dup2\n        /* \"#utility.yul\":1445:1469   */\n      tag_58\n      jump\t// in\n    tag_89:\n        /* \"#utility.yul\":1438:1443   */\n      dup2\n        /* \"#utility.yul\":1435:1470   */\n      eq\n        /* \"#utility.yul\":1425:1488   */\n      tag_90\n      jumpi\n        /* \"#utility.yul\":1484:1485   */\n      0x00\n        /* \"#utility.yul\":1481:1482   */\n      dup1\n        /* \"#utility.yul\":1474:1486   */\n      revert\n        /* \"#utility.yul\":1425:1488   */\n    tag_90:\n        /* \"#utility.yul\":1372:1494   */\n      pop\n      jump\t// out\n        /* \"#utility.yul\":1500:1639   */\n    tag_60:\n        /* \"#utility.yul\":1546:1551   */\n      0x00\n        /* \"#utility.yul\":1584:1590   */\n      dup2\n        /* \"#utility.yul\":1571:1591   */\n      calldataload\n        /* \"#utility.yul\":1562:1591   */\n      swap1\n      pop\n        /* \"#utility.yul\":1600:1633   */\n      tag_92\n        /* \"#utility.yul\":1627:1632   */\n      dup2\n        /* \"#utility.yul\":1600:1633   */\n      tag_59\n      jump\t// in\n    tag_92:\n        /* \"#utility.yul\":1500:1639   */\n      swap3\n      swap2\n      pop\n      pop\n      jump\t// out\n        /* \"#utility.yul\":1645:2135   */\n    tag_20:\n        /* \"#utility.yul\":1721:1727   */\n      0x00\n        /* \"#utility.yul\":1729:1735   */\n      dup1\n        /* \"#utility.yul\":1778:1780   */\n      0x40\n        /* \"#utility.yul\":1766:1775   */\n      dup4\n        /* \"#utility.yul\":1757:1764   */\n      dup6\n        /* \"#utility.yul\":1753:1776   */\n      sub\n        /* \"#utility.yul\":1749:1781   */\n      slt\n        /* \"#utility.yul\":1746:1865   */\n      iszero\n      tag_94\n      jumpi\n        /* \"#utility.yul\":1784:1863   */\n      tag_95\n      tag_54\n      jump\t// in\n    tag_95:\n        /* \"#utility.yul\":1746:1865   */\n    tag_94:\n        /* \"#utility.yul\":1904:1905   */\n      0x00\n        /* \"#utility.yul\":1929:1990   */\n      tag_96\n        /* \"#utility.yul\":1982:1989   */\n      dup6\n        /* \"#utility.yul\":1973:1979   */\n      dup3\n        /* \"#utility.yul\":1962:1971   */\n      dup7\n        /* \"#utility.yul\":1958:1980   */\n      add\n        /* \"#utility.yul\":1929:1990   */\n      tag_57\n      jump\t// in\n    tag_96:\n        /* \"#utility.yul\":1919:1990   */\n      swap3\n      pop\n        /* \"#utility.yul\":1875:2000   */\n      pop\n        /* \"#utility.yul\":2039:2041   */\n      0x20\n        /* \"#utility.yul\":2065:2118   */\n      tag_97\n        /* \"#utility.yul\":2110:2117   */\n      dup6\n        /* \"#utility.yul\":2101:2107   */\n      dup3\n        /* \"#utility.yul\":2090:2099   */\n      dup7\n        /* \"#utility.yul\":2086:2108   */\n      add\n        /* \"#utility.yul\":2065:2118   */\n      tag_60\n      jump\t// in\n    tag_97:\n        /* \"#utility.yul\":2055:2118   */\n      swap2\n      pop\n        /* \"#utility.yul\":2010:2128   */\n      pop\n        /* \"#utility.yul\":1645:2135   */\n      swap3\n      pop\n      swap3\n      swap1\n      pop\n      jump\t// out\n        /* \"#utility.yul\":2141:2310   */\n    tag_61:\n        /* \"#utility.yul\":2225:2236   */\n      0x00\n        /* \"#utility.yul\":2259:2265   */\n      dup3\n        /* \"#utility.yul\":2254:2257   */\n      dup3\n        /* \"#utility.yul\":2247:2266   */\n      mstore\n        /* \"#utility.yul\":2299:2303   */\n      0x20\n        /* \"#utility.yul\":2294:2297   */\n      dup3\n        /* \"#utility.yul\":2290:2304   */\n      add\n        /* \"#utility.yul\":2275:2304   */\n      swap1\n      pop\n        /* \"#utility.yul\":2141:2310   */\n      swap3\n      swap2\n      pop\n      pop\n      jump\t// out\n        /* \"#utility.yul\":2316:2483   */\n    tag_62:\n        /* \"#utility.yul\":2456:2475   */\n      0x596f7520617265206e6f74206f776e6572000000000000000000000000000000\n        /* \"#utility.yul\":2452:2453   */\n      0x00\n        /* \"#utility.yul\":2444:2450   */\n      dup3\n        /* \"#utility.yul\":2440:2454   */\n      add\n        /* \"#utility.yul\":2433:2476   */\n      mstore\n        /* \"#utility.yul\":2316:2483   */\n      pop\n      jump\t// out\n        /* \"#utility.yul\":2489:2855   */\n    tag_63:\n        /* \"#utility.yul\":2631:2634   */\n      0x00\n        /* \"#utility.yul\":2652:2719   */\n      tag_101\n        /* \"#utility.yul\":2716:2718   */\n      0x11\n        /* \"#utility.yul\":2711:2714   */\n      dup4\n        /* \"#utility.yul\":2652:2719   */\n      tag_61\n      jump\t// in\n    tag_101:\n        /* \"#utility.yul\":2645:2719   */\n      swap2\n      pop\n        /* \"#utility.yul\":2728:2821   */\n      tag_102\n        /* \"#utility.yul\":2817:2820   */\n      dup3\n        /* \"#utility.yul\":2728:2821   */\n      tag_62\n      jump\t// in\n    tag_102:\n        /* \"#utility.yul\":2846:2848   */\n      0x20\n        /* \"#utility.yul\":2841:2844   */\n      dup3\n        /* \"#utility.yul\":2837:2849   */\n      add\n        /* \"#utility.yul\":2830:2849   */\n      swap1\n      pop\n        /* \"#utility.yul\":2489:2855   */\n      swap2\n      swap1\n      pop\n      jump\t// out\n        /* \"#utility.yul\":2861:3280   */\n    tag_27:\n        /* \"#utility.yul\":3027:3031   */\n      0x00\n        /* \"#utility.yul\":3065:3067   */\n      0x20\n        /* \"#utility.yul\":3054:3063   */\n      dup3\n        /* \"#utility.yul\":3050:3068   */\n      add\n        /* \"#utility.yul\":3042:3068   */\n      swap1\n      pop\n        /* \"#utility.yul\":3114:3123   */\n      dup2\n        /* \"#utility.yul\":3108:3112   */\n      dup2\n        /* \"#utility.yul\":3104:3124   */\n      sub\n        /* \"#utility.yul\":3100:3101   */\n      0x00\n        /* \"#utility.yul\":3089:3098   */\n      dup4\n        /* \"#utility.yul\":3085:3102   */\n      add\n        /* \"#utility.yul\":3078:3125   */\n      mstore\n        /* \"#utility.yul\":3142:3273   */\n      tag_104\n        /* \"#utility.yul\":3268:3272   */\n      dup2\n        /* \"#utility.yul\":3142:3273   */\n      tag_63\n      jump\t// in\n    tag_104:\n        /* \"#utility.yul\":3134:3273   */\n      swap1\n      pop\n        /* \"#utility.yul\":2861:3280   */\n      swap2\n      swap1\n      pop\n      jump\t// out\n        /* \"#utility.yul\":3286:3433   */\n    tag_64:\n        /* \"#utility.yul\":3387:3398   */\n      0x00\n        /* \"#utility.yul\":3424:3427   */\n      dup2\n        /* \"#utility.yul\":3409:3427   */\n      swap1\n      pop\n        /* \"#utility.yul\":3286:3433   */\n      swap3\n      swap2\n      pop\n      pop\n      jump\t// out\n        /* \"#utility.yul\":3439:3553   */\n    tag_65:\n      pop\n      jump\t// out\n        /* \"#utility.yul\":3559:3957   */\n    tag_66:\n        /* \"#utility.yul\":3718:3721   */\n      0x00\n        /* \"#utility.yul\":3739:3822   */\n      tag_108\n        /* \"#utility.yul\":3820:3821   */\n      0x00\n        /* \"#utility.yul\":3815:3818   */\n      dup4\n        /* \"#utility.yul\":3739:3822   */\n      tag_64\n      jump\t// in\n    tag_108:\n        /* \"#utility.yul\":3732:3822   */\n      swap2\n      pop\n        /* \"#utility.yul\":3831:3924   */\n      tag_109\n        /* \"#utility.yul\":3920:3923   */\n      dup3\n        /* \"#utility.yul\":3831:3924   */\n      tag_65\n      jump\t// in\n    tag_109:\n        /* \"#utility.yul\":3949:3950   */\n      0x00\n        /* \"#utility.yul\":3944:3947   */\n      dup3\n        /* \"#utility.yul\":3940:3951   */\n      add\n        /* \"#utility.yul\":3933:3951   */\n      swap1\n      pop\n        /* \"#utility.yul\":3559:3957   */\n      swap2\n      swap1\n      pop\n      jump\t// out\n        /* \"#utility.yul\":3963:4342   */\n    tag_30:\n        /* \"#utility.yul\":4147:4150   */\n      0x00\n        /* \"#utility.yul\":4169:4316   */\n      tag_111\n        /* \"#utility.yul\":4312:4315   */\n      dup3\n        /* \"#utility.yul\":4169:4316   */\n      tag_66\n      jump\t// in\n    tag_111:\n        /* \"#utility.yul\":4162:4316   */\n      swap2\n      pop\n        /* \"#utility.yul\":4333:4336   */\n      dup2\n        /* \"#utility.yul\":4326:4336   */\n      swap1\n      pop\n        /* \"#utility.yul\":3963:4342   */\n      swap2\n      swap1\n      pop\n      jump\t// out\n        /* \"#utility.yul\":4348:4516   */\n    tag_67:\n        /* \"#utility.yul\":4488:4508   */\n      0x7769746864726177206973206661696c65640000000000000000000000000000\n        /* \"#utility.yul\":4484:4485   */\n      0x00\n        /* \"#utility.yul\":4476:4482   */\n      dup3\n        /* \"#utility.yul\":4472:4486   */\n      add\n        /* \"#utility.yul\":4465:4509   */\n      mstore\n        /* \"#utility.yul\":4348:4516   */\n      pop\n      jump\t// out\n        /* \"#utility.yul\":4522:4888   */\n    tag_68:\n        /* \"#utility.yul\":4664:4667   */\n      0x00\n        /* \"#utility.yul\":4685:4752   */\n      tag_114\n        /* \"#utility.yul\":4749:4751   */\n      0x12\n        /* \"#utility.yul\":4744:4747   */\n      dup4\n        /* \"#utility.yul\":4685:4752   */\n      tag_61\n      jump\t// in\n    tag_114:\n        /* \"#utility.yul\":4678:4752   */\n      swap2\n      pop\n        /* \"#utility.yul\":4761:4854   */\n      tag_115\n        /* \"#utility.yul\":4850:4853   */\n      dup3\n        /* \"#utility.yul\":4761:4854   */\n      tag_67\n      jump\t// in\n    tag_115:\n        /* \"#utility.yul\":4879:4881   */\n      0x20\n        /* \"#utility.yul\":4874:4877   */\n      dup3\n        /* \"#utility.yul\":4870:4882   */\n      add\n        /* \"#utility.yul\":4863:4882   */\n      swap1\n      pop\n        /* \"#utility.yul\":4522:4888   */\n      swap2\n      swap1\n      pop\n      jump\t// out\n        /* \"#utility.yul\":4894:5313   */\n    tag_36:\n        /* \"#utility.yul\":5060:5064   */\n      0x00\n        /* \"#utility.yul\":5098:5100   */\n      0x20\n        /* \"#utility.yul\":5087:5096   */\n      dup3\n        /* \"#utility.yul\":5083:5101   */\n      add\n        /* \"#utility.yul\":5075:5101   */\n      swap1\n      pop\n        /* \"#utility.yul\":5147:5156   */\n      dup2\n        /* \"#utility.yul\":5141:5145   */\n      dup2\n        /* \"#utility.yul\":5137:5157   */\n      sub\n        /* \"#utility.yul\":5133:5134   */\n      0x00\n        /* \"#utility.yul\":5122:5131   */\n      dup4\n        /* \"#utility.yul\":5118:5135   */\n      add\n        /* \"#utility.yul\":5111:5158   */\n      mstore\n        /* \"#utility.yul\":5175:5306   */\n      tag_117\n        /* \"#utility.yul\":5301:5305   */\n      dup2\n        /* \"#utility.yul\":5175:5306   */\n      tag_68\n      jump\t// in\n    tag_117:\n        /* \"#utility.yul\":5167:5306   */\n      swap1\n      pop\n        /* \"#utility.yul\":4894:5313   */\n      swap2\n      swap1\n      pop\n      jump\t// out\n        /* \"#utility.yul\":5319:5487   */\n    tag_69:\n        /* \"#utility.yul\":5459:5479   */\n      0x7472616e73666572206973206661696c65640000000000000000000000000000\n        /* \"#utility.yul\":5455:5456   */\n      0x00\n        /* \"#utility.yul\":5447:5453   */\n      dup3\n        /* \"#utility.yul\":5443:5457   */\n      add\n        /* \"#utility.yul\":5436:5480   */\n      mstore\n        /* \"#utility.yul\":5319:5487   */\n      pop\n      jump\t// out\n        /* \"#utility.yul\":5493:5859   */\n    tag_70:\n        /* \"#utility.yul\":5635:5638   */\n      0x00\n        /* \"#utility.yul\":5656:5723   */\n      tag_120\n        /* \"#utility.yul\":5720:5722   */\n      0x12\n        /* \"#utility.yul\":5715:5718   */\n      dup4\n        /* \"#utility.yul\":5656:5723   */\n      tag_61\n      jump\t// in\n    tag_120:\n        /* \"#utility.yul\":5649:5723   */\n      swap2\n      pop\n        /* \"#utility.yul\":5732:5825   */\n      tag_121\n        /* \"#utility.yul\":5821:5824   */\n      dup3\n        /* \"#utility.yul\":5732:5825   */\n      tag_69\n      jump\t// in\n    tag_121:\n        /* \"#utility.yul\":5850:5852   */\n      0x20\n        /* \"#utility.yul\":5845:5848   */\n      dup3\n        /* \"#utility.yul\":5841:5853   */\n      add\n        /* \"#utility.yul\":5834:5853   */\n      swap1\n      pop\n        /* \"#utility.yul\":5493:5859   */\n      swap2\n      swap1\n      pop\n      jump\t// out\n        /* \"#utility.yul\":5865:6284   */\n    tag_48:\n        /* \"#utility.yul\":6031:6035   */\n      0x00\n        /* \"#utility.yul\":6069:6071   */\n      0x20\n        /* \"#utility.yul\":6058:6067   */\n      dup3\n        /* \"#utility.yul\":6054:6072   */\n      add\n        /* \"#utility.yul\":6046:6072   */\n      swap1\n      pop\n        /* \"#utility.yul\":6118:6127   */\n      dup2\n        /* \"#utility.yul\":6112:6116   */\n      dup2\n        /* \"#utility.yul\":6108:6128   */\n      sub\n        /* \"#utility.yul\":6104:6105   */\n      0x00\n        /* \"#utility.yul\":6093:6102   */\n      dup4\n        /* \"#utility.yul\":6089:6106   */\n      add\n        /* \"#utility.yul\":6082:6129   */\n      mstore\n        /* \"#utility.yul\":6146:6277   */\n      tag_123\n        /* \"#utility.yul\":6272:6276   */\n      dup2\n        /* \"#utility.yul\":6146:6277   */\n      tag_70\n      jump\t// in\n    tag_123:\n        /* \"#utility.yul\":6138:6277   */\n      swap1\n      pop\n        /* \"#utility.yul\":5865:6284   */\n      swap2\n      swap1\n      pop\n      jump\t// out\n\n    auxdata: 0xa2646970667358221220064b880b8731a69c47caa45bf9af3e3d0670c10eb012ccfa35b7ce6cc94e1e7164736f6c63430008160033\n}\n",
				"bytecode": {
					"linkReferences": {},
					"object": "6080604052335f806101000a81548173ffffffffffffffffffffffffffffffffffffffff021916908373ffffffffffffffffffffffffffffffffffffffff16021790555061063d806100505f395ff3fe608060405260043610610049575f3560e01c80630fdb1c101461004d57806352da86d5146100635780638da5cb5b14610079578063a9059cbb146100a3578063d0e30db0146100bf575b5f80fd5b348015610058575f80fd5b506100616100c9565b005b34801561006e575f80fd5b50610077610226565b005b348015610084575f80fd5b5061008d610228565b60405161009a91906103c6565b60405180910390f35b6100bd60048036038101906100b89190610440565b61024b565b005b6100c7610385565b005b5f8054906101000a900473ffffffffffffffffffffffffffffffffffffffff1673ffffffffffffffffffffffffffffffffffffffff163373ffffffffffffffffffffffffffffffffffffffff1614610156576040517f08c379a000000000000000000000000000000000000000000000000000000000815260040161014d906104d8565b60405180910390fd5b5f4790505f805f9054906101000a900473ffffffffffffffffffffffffffffffffffffffff1673ffffffffffffffffffffffffffffffffffffffff168260405161019f90610523565b5f6040518083038185875af1925050503d805f81146101d9576040519150601f19603f3d011682016040523d82523d5f602084013e6101de565b606091505b5050905080610222576040517f08c379a000000000000000000000000000000000000000000000000000000000815260040161021990610581565b60405180910390fd5b5050565b565b5f8054906101000a900473ffffffffffffffffffffffffffffffffffffffff1681565b5f8054906101000a900473ffffffffffffffffffffffffffffffffffffffff1673ffffffffffffffffffffffffffffffffffffffff163373ffffffffffffffffffffffffffffffffffffffff16146102d8576040517f08c379a00000000000000000000000000000000000000000000000000000000081526004016102cf906104d8565b60405180910390fd5b5f8273ffffffffffffffffffffffffffffffffffffffff16826040516102fd90610523565b5f6040518083038185875af1925050503d805f8114610337576040519150601f19603f3d011682016040523d82523d5f602084013e61033c565b606091505b5050905080610380576040517f08c379a0000000000000000000000000000000000000000000000000000000008152600401610377906105e9565b60405180910390fd5b505050565b565b5f73ffffffffffffffffffffffffffffffffffffffff82169050919050565b5f6103b082610387565b9050919050565b6103c0816103a6565b82525050565b5f6020820190506103d95f8301846103b7565b92915050565b5f80fd5b6103ec816103a6565b81146103f6575f80fd5b50565b5f81359050610407816103e3565b92915050565b5f819050919050565b61041f8161040d565b8114610429575f80fd5b50565b5f8135905061043a81610416565b92915050565b5f8060408385031215610456576104556103df565b5b5f610463858286016103f9565b92505060206104748582860161042c565b9150509250929050565b5f82825260208201905092915050565b7f596f7520617265206e6f74206f776e65720000000000000000000000000000005f82015250565b5f6104c260118361047e565b91506104cd8261048e565b602082019050919050565b5f6020820190508181035f8301526104ef816104b6565b9050919050565b5f81905092915050565b50565b5f61050e5f836104f6565b915061051982610500565b5f82019050919050565b5f61052d82610503565b9150819050919050565b7f7769746864726177206973206661696c656400000000000000000000000000005f82015250565b5f61056b60128361047e565b915061057682610537565b602082019050919050565b5f6020820190508181035f8301526105988161055f565b9050919050565b7f7472616e73666572206973206661696c656400000000000000000000000000005f82015250565b5f6105d360128361047e565b91506105de8261059f565b602082019050919050565b5f6020820190508181035f830152610600816105c7565b905091905056fea2646970667358221220064b880b8731a69c47caa45bf9af3e3d0670c10eb012ccfa35b7ce6cc94e1e7164736f6c63430008160033",
					"opcodes": "PUSH1 0x80 PUSH1 0x40 MSTORE CALLER PUSH0 DUP1 PUSH2 0x100 EXP DUP2 SLOAD DUP2 PUSH20 0xFFFFFFFFFFFFFFFFFFFFFFFFFFFFFFFFFFFFFFFF MUL NOT AND SWAP1 DUP4 PUSH20 0xFFFFFFFFFFFFFFFFFFFFFFFFFFFFFFFFFFFFFFFF AND MUL OR SWAP1 SSTORE POP PUSH2 0x63D DUP1 PUSH2 0x50 PUSH0 CODECOPY PUSH0 RETURN INVALID PUSH1 0x80 PUSH1 0x40 MSTORE PUSH1 0x4 CALLDATASIZE LT PUSH2 0x49 JUMPI PUSH0 CALLDATALOAD PUSH1 0xE0 SHR DUP1 PUSH4 0xFDB1C10 EQ PUSH2 0x4D JUMPI DUP1 PUSH4 0x52DA86D5 EQ PUSH2 0x63 JUMPI DUP1 PUSH4 0x8DA5CB5B EQ PUSH2 0x79 JUMPI DUP1 PUSH4 0xA9059CBB EQ PUSH2 0xA3 JUMPI DUP1 PUSH4 0xD0E30DB0 EQ PUSH2 0xBF JUMPI JUMPDEST PUSH0 DUP1 REVERT JUMPDEST CALLVALUE DUP1 ISZERO PUSH2 0x58 JUMPI PUSH0 DUP1 REVERT JUMPDEST POP PUSH2 0x61 PUSH2 0xC9 JUMP JUMPDEST STOP JUMPDEST CALLVALUE DUP1 ISZERO PUSH2 0x6E JUMPI PUSH0 DUP1 REVERT JUMPDEST POP PUSH2 0x77 PUSH2 0x226 JUMP JUMPDEST STOP JUMPDEST CALLVALUE DUP1 ISZERO PUSH2 0x84 JUMPI PUSH0 DUP1 REVERT JUMPDEST POP PUSH2 0x8D PUSH2 0x228 JUMP JUMPDEST PUSH1 0x40 MLOAD PUSH2 0x9A SWAP2 SWAP1 PUSH2 0x3C6 JUMP JUMPDEST PUSH1 0x40 MLOAD DUP1 SWAP2 SUB SWAP1 RETURN JUMPDEST PUSH2 0xBD PUSH1 0x4 DUP1 CALLDATASIZE SUB DUP2 ADD SWAP1 PUSH2 0xB8 SWAP2 SWAP1 PUSH2 0x440 JUMP JUMPDEST PUSH2 0x24B JUMP JUMPDEST STOP JUMPDEST PUSH2 0xC7 PUSH2 0x385 JUMP JUMPDEST STOP JUMPDEST PUSH0 DUP1 SLOAD SWAP1 PUSH2 0x100 EXP SWAP1 DIV PUSH20 0xFFFFFFFFFFFFFFFFFFFFFFFFFFFFFFFFFFFFFFFF AND PUSH20 0xFFFFFFFFFFFFFFFFFFFFFFFFFFFFFFFFFFFFFFFF AND CALLER PUSH20 0xFFFFFFFFFFFFFFFFFFFFFFFFFFFFFFFFFFFFFFFF AND EQ PUSH2 0x156 JUMPI PUSH1 0x40 MLOAD PUSH32 0x8C379A000000000000000000000000000000000000000000000000000000000 DUP2 MSTORE PUSH1 0x4 ADD PUSH2 0x14D SWAP1 PUSH2 0x4D8 JUMP JUMPDEST PUSH1 0x40 MLOAD DUP1 SWAP2 SUB SWAP1 REVERT JUMPDEST PUSH0 SELFBALANCE SWAP1 POP PUSH0 DUP1 PUSH0 SWAP1 SLOAD SWAP1 PUSH2 0x100 EXP SWAP1 DIV PUSH20 0xFFFFFFFFFFFFFFFFFFFFFFFFFFFFFFFFFFFFFFFF AND PUSH20 0xFFFFFFFFFFFFFFFFFFFFFFFFFFFFFFFFFFFFFFFF AND DUP3 PUSH1 0x40 MLOAD PUSH2 0x19F SWAP1 PUSH2 0x523 JUMP JUMPDEST PUSH0 PUSH1 0x40 MLOAD DUP1 DUP4 SUB DUP2 DUP6 DUP8 GAS CALL SWAP3 POP POP POP RETURNDATASIZE DUP1 PUSH0 DUP2 EQ PUSH2 0x1D9 JUMPI PUSH1 0x40 MLOAD SWAP2 POP PUSH1 0x1F NOT PUSH1 0x3F RETURNDATASIZE ADD AND DUP3 ADD PUSH1 0x40 MSTORE RETURNDATASIZE DUP3 MSTORE RETURNDATASIZE PUSH0 PUSH1 0x20 DUP5 ADD RETURNDATACOPY PUSH2 0x1DE JUMP JUMPDEST PUSH1 0x60 SWAP2 POP JUMPDEST POP POP SWAP1 POP DUP1 PUSH2 0x222 JUMPI PUSH1 0x40 MLOAD PUSH32 0x8C379A000000000000000000000000000000000000000000000000000000000 DUP2 MSTORE PUSH1 0x4 ADD PUSH2 0x219 SWAP1 PUSH2 0x581 JUMP JUMPDEST PUSH1 0x40 MLOAD DUP1 SWAP2 SUB SWAP1 REVERT JUMPDEST POP POP JUMP JUMPDEST JUMP JUMPDEST PUSH0 DUP1 SLOAD SWAP1 PUSH2 0x100 EXP SWAP1 DIV PUSH20 0xFFFFFFFFFFFFFFFFFFFFFFFFFFFFFFFFFFFFFFFF AND DUP2 JUMP JUMPDEST PUSH0 DUP1 SLOAD SWAP1 PUSH2 0x100 EXP SWAP1 DIV PUSH20 0xFFFFFFFFFFFFFFFFFFFFFFFFFFFFFFFFFFFFFFFF AND PUSH20 0xFFFFFFFFFFFFFFFFFFFFFFFFFFFFFFFFFFFFFFFF AND CALLER PUSH20 0xFFFFFFFFFFFFFFFFFFFFFFFFFFFFFFFFFFFFFFFF AND EQ PUSH2 0x2D8 JUMPI PUSH1 0x40 MLOAD PUSH32 0x8C379A000000000000000000000000000000000000000000000000000000000 DUP2 MSTORE PUSH1 0x4 ADD PUSH2 0x2CF SWAP1 PUSH2 0x4D8 JUMP JUMPDEST PUSH1 0x40 MLOAD DUP1 SWAP2 SUB SWAP1 REVERT JUMPDEST PUSH0 DUP3 PUSH20 0xFFFFFFFFFFFFFFFFFFFFFFFFFFFFFFFFFFFFFFFF AND DUP3 PUSH1 0x40 MLOAD PUSH2 0x2FD SWAP1 PUSH2 0x523 JUMP JUMPDEST PUSH0 PUSH1 0x40 MLOAD DUP1 DUP4 SUB DUP2 DUP6 DUP8 GAS CALL SWAP3 POP POP POP RETURNDATASIZE DUP1 PUSH0 DUP2 EQ PUSH2 0x337 JUMPI PUSH1 0x40 MLOAD SWAP2 POP PUSH1 0x1F NOT PUSH1 0x3F RETURNDATASIZE ADD AND DUP3 ADD PUSH1 0x40 MSTORE RETURNDATASIZE DUP3 MSTORE RETURNDATASIZE PUSH0 PUSH1 0x20 DUP5 ADD RETURNDATACOPY PUSH2 0x33C JUMP JUMPDEST PUSH1 0x60 SWAP2 POP JUMPDEST POP POP SWAP1 POP DUP1 PUSH2 0x380 JUMPI PUSH1 0x40 MLOAD PUSH32 0x8C379A000000000000000000000000000000000000000000000000000000000 DUP2 MSTORE PUSH1 0x4 ADD PUSH2 0x377 SWAP1 PUSH2 0x5E9 JUMP JUMPDEST PUSH1 0x40 MLOAD DUP1 SWAP2 SUB SWAP1 REVERT JUMPDEST POP POP POP JUMP JUMPDEST JUMP JUMPDEST PUSH0 PUSH20 0xFFFFFFFFFFFFFFFFFFFFFFFFFFFFFFFFFFFFFFFF DUP3 AND SWAP1 POP SWAP2 SWAP1 POP JUMP JUMPDEST PUSH0 PUSH2 0x3B0 DUP3 PUSH2 0x387 JUMP JUMPDEST SWAP1 POP SWAP2 SWAP1 POP JUMP JUMPDEST PUSH2 0x3C0 DUP2 PUSH2 0x3A6 JUMP JUMPDEST DUP3 MSTORE POP POP JUMP JUMPDEST PUSH0 PUSH1 0x20 DUP3 ADD SWAP1 POP PUSH2 0x3D9 PUSH0 DUP4 ADD DUP5 PUSH2 0x3B7 JUMP JUMPDEST SWAP3 SWAP2 POP POP JUMP JUMPDEST PUSH0 DUP1 REVERT JUMPDEST PUSH2 0x3EC DUP2 PUSH2 0x3A6 JUMP JUMPDEST DUP2 EQ PUSH2 0x3F6 JUMPI PUSH0 DUP1 REVERT JUMPDEST POP JUMP JUMPDEST PUSH0 DUP2 CALLDATALOAD SWAP1 POP PUSH2 0x407 DUP2 PUSH2 0x3E3 JUMP JUMPDEST SWAP3 SWAP2 POP POP JUMP JUMPDEST PUSH0 DUP2 SWAP1 POP SWAP2 SWAP1 POP JUMP JUMPDEST PUSH2 0x41F DUP2 PUSH2 0x40D JUMP JUMPDEST DUP2 EQ PUSH2 0x429 JUMPI PUSH0 DUP1 REVERT JUMPDEST POP JUMP JUMPDEST PUSH0 DUP2 CALLDATALOAD SWAP1 POP PUSH2 0x43A DUP2 PUSH2 0x416 JUMP JUMPDEST SWAP3 SWAP2 POP POP JUMP JUMPDEST PUSH0 DUP1 PUSH1 0x40 DUP4 DUP6 SUB SLT ISZERO PUSH2 0x456 JUMPI PUSH2 0x455 PUSH2 0x3DF JUMP JUMPDEST JUMPDEST PUSH0 PUSH2 0x463 DUP6 DUP3 DUP7 ADD PUSH2 0x3F9 JUMP JUMPDEST SWAP3 POP POP PUSH1 0x20 PUSH2 0x474 DUP6 DUP3 DUP7 ADD PUSH2 0x42C JUMP JUMPDEST SWAP2 POP POP SWAP3 POP SWAP3 SWAP1 POP JUMP JUMPDEST PUSH0 DUP3 DUP3 MSTORE PUSH1 0x20 DUP3 ADD SWAP1 POP SWAP3 SWAP2 POP POP JUMP JUMPDEST PUSH32 0x596F7520617265206E6F74206F776E6572000000000000000000000000000000 PUSH0 DUP3 ADD MSTORE POP JUMP JUMPDEST PUSH0 PUSH2 0x4C2 PUSH1 0x11 DUP4 PUSH2 0x47E JUMP JUMPDEST SWAP2 POP PUSH2 0x4CD DUP3 PUSH2 0x48E JUMP JUMPDEST PUSH1 0x20 DUP3 ADD SWAP1 POP SWAP2 SWAP1 POP JUMP JUMPDEST PUSH0 PUSH1 0x20 DUP3 ADD SWAP1 POP DUP2 DUP2 SUB PUSH0 DUP4 ADD MSTORE PUSH2 0x4EF DUP2 PUSH2 0x4B6 JUMP JUMPDEST SWAP1 POP SWAP2 SWAP1 POP JUMP JUMPDEST PUSH0 DUP2 SWAP1 POP SWAP3 SWAP2 POP POP JUMP JUMPDEST POP JUMP JUMPDEST PUSH0 PUSH2 0x50E PUSH0 DUP4 PUSH2 0x4F6 JUMP JUMPDEST SWAP2 POP PUSH2 0x519 DUP3 PUSH2 0x500 JUMP JUMPDEST PUSH0 DUP3 ADD SWAP1 POP SWAP2 SWAP1 POP JUMP JUMPDEST PUSH0 PUSH2 0x52D DUP3 PUSH2 0x503 JUMP JUMPDEST SWAP2 POP DUP2 SWAP1 POP SWAP2 SWAP1 POP JUMP JUMPDEST PUSH32 0x7769746864726177206973206661696C65640000000000000000000000000000 PUSH0 DUP3 ADD MSTORE POP JUMP JUMPDEST PUSH0 PUSH2 0x56B PUSH1 0x12 DUP4 PUSH2 0x47E JUMP JUMPDEST SWAP2 POP PUSH2 0x576 DUP3 PUSH2 0x537 JUMP JUMPDEST PUSH1 0x20 DUP3 ADD SWAP1 POP SWAP2 SWAP1 POP JUMP JUMPDEST PUSH0 PUSH1 0x20 DUP3 ADD SWAP1 POP DUP2 DUP2 SUB PUSH0 DUP4 ADD MSTORE PUSH2 0x598 DUP2 PUSH2 0x55F JUMP JUMPDEST SWAP1 POP SWAP2 SWAP1 POP JUMP JUMPDEST PUSH32 0x7472616E73666572206973206661696C65640000000000000000000000000000 PUSH0 DUP3 ADD MSTORE POP JUMP JUMPDEST PUSH0 PUSH2 0x5D3 PUSH1 0x12 DUP4 PUSH2 0x47E JUMP JUMPDEST SWAP2 POP PUSH2 0x5DE DUP3 PUSH2 0x59F JUMP JUMPDEST PUSH1 0x20 DUP3 ADD SWAP1 POP SWAP2 SWAP1 POP JUMP JUMPDEST PUSH0 PUSH1 0x20 DUP3 ADD SWAP1 POP DUP2 DUP2 SUB PUSH0 DUP4 ADD MSTORE PUSH2 0x600 DUP2 PUSH2 0x5C7 JUMP JUMPDEST SWAP1 POP SWAP2 SWAP1 POP JUMP INVALID LOG2 PUSH5 0x6970667358 0x22 SLT KECCAK256 MOD 0x4B DUP9 SIGNEXTEND DUP8 BALANCE 0xA6 SWAP13 SELFBALANCE 0xCA LOG4 JUMPDEST 0xF9 0xAF RETURNDATACOPY RETURNDATASIZE MOD PUSH17 0xC10EB012CCFA35B7CE6CC94E1E7164736F PUSH13 0x63430008160033000000000000 "
				},
				"gasEstimates": {
					"creation": {
						"codeDepositCost": "319400",
						"executionCost": "24594",
						"totalCost": "343994"
					},
					"external": {
						"deposit()": "185",
						"nonPayable()": "143",
						"owner()": "2527",
						"transfer(address,uint256)": "infinite",
						"withDraw()": "infinite"
					}
				},
				"methodIdentifiers": {
					"deposit()": "d0e30db0",
					"nonPayable()": "52da86d5",
					"owner()": "8da5cb5b",
					"transfer(address,uint256)": "a9059cbb",
					"withDraw()": "0fdb1c10"
				}
			},
			"storageLayout": {
				"storage": [
					{
						"astId": 3,
						"contract": "contracts/Mywallet.sol:Mywallet",
						"label": "owner",
						"offset": 0,
						"slot": "0",
						"type": "t_address_payable"
					}
				],
				"types": {
					"t_address_payable": {
						"encoding": "inplace",
						"label": "address payable",
						"numberOfBytes": "20"
					}
				}
			},
			"userdoc": {
				"kind": "user",
				"methods": {},
				"version": 1
			}
		}
	}
}