{
	"contracts/ReceiveEther.sol": {
		"ReceiveEther": {
			"abi": [
				{
					"anonymous": false,
					"inputs": [
						{
							"indexed": true,
							"internalType": "address",
							"name": "from",
							"type": "address"
						},
						{
							"indexed": false,
							"internalType": "string",
							"name": "action",
							"type": "string"
						}
					],
					"name": "log",
					"type": "event"
				},
				{
					"stateMutability": "payable",
					"type": "fallback"
				},
				{
					"inputs": [],
					"name": "getBlance",
					"outputs": [
						{
							"internalType": "uint256",
							"name": "",
							"type": "uint256"
						}
					],
					"stateMutability": "view",
					"type": "function"
				},
				{
					"inputs": [
						{
							"internalType": "uint256",
							"name": "_amount",
							"type": "uint256"
						}
					],
					"name": "withdraw",
					"outputs": [],
					"stateMutability": "nonpayable",
					"type": "function"
				},
				{
					"stateMutability": "payable",
					"type": "receive"
				}
			],
			"devdoc": {
				"kind": "dev",
				"methods": {},
				"version": 1
			},
			"evm": {
				"assembly": "    /* \"contracts/ReceiveEther.sol\":59:512  contract ReceiveEther {... */\n  mstore(0x40, 0x80)\n  callvalue\n  dup1\n  iszero\n  tag_1\n  jumpi\n  0x00\n  dup1\n  revert\ntag_1:\n  pop\n  dataSize(sub_0)\n  dup1\n  dataOffset(sub_0)\n  0x00\n  codecopy\n  0x00\n  return\nstop\n\nsub_0: assembly {\n        /* \"contracts/ReceiveEther.sol\":59:512  contract ReceiveEther {... */\n      mstore(0x40, 0x80)\n      jumpi(tag_1, lt(calldatasize, 0x04))\n      shr(0xe0, calldataload(0x00))\n      dup1\n      0x2e1a7d4d\n      eq\n      tag_3\n      jumpi\n      dup1\n      0x941be5f7\n      eq\n      tag_4\n      jumpi\n      jump(tag_2)\n    tag_1:\n      jumpi(tag_2, calldatasize)\n        /* \"contracts/ReceiveEther.sol\":196:200  this */\n      address\n        /* \"contracts/ReceiveEther.sol\":184:213  log(address(this), \"receive\") */\n      0xffffffffffffffffffffffffffffffffffffffff\n      and\n      0x759f86bbdd0758679ecefbd32ea620068b2339dddd9e45ee0fa567ee6c81f0ab\n      mload(0x40)\n      tag_7\n      swap1\n      tag_8\n      jump\t// in\n    tag_7:\n      mload(0x40)\n      dup1\n      swap2\n      sub\n      swap1\n      log2\n        /* \"contracts/ReceiveEther.sol\":59:512  contract ReceiveEther {... */\n      stop\n    tag_2:\n        /* \"contracts/ReceiveEther.sol\":283:287  this */\n      address\n        /* \"contracts/ReceiveEther.sol\":271:301  log(address(this), \"fallback\") */\n      0xffffffffffffffffffffffffffffffffffffffff\n      and\n      0x759f86bbdd0758679ecefbd32ea620068b2339dddd9e45ee0fa567ee6c81f0ab\n      mload(0x40)\n      tag_11\n      swap1\n      tag_12\n      jump\t// in\n    tag_11:\n      mload(0x40)\n      dup1\n      swap2\n      sub\n      swap1\n      log2\n        /* \"contracts/ReceiveEther.sol\":59:512  contract ReceiveEther {... */\n      stop\n        /* \"contracts/ReceiveEther.sol\":415:509  function withdraw(uint _amount) public {... */\n    tag_3:\n      callvalue\n      dup1\n      iszero\n      tag_13\n      jumpi\n      0x00\n      dup1\n      revert\n    tag_13:\n      pop\n      tag_14\n      0x04\n      dup1\n      calldatasize\n      sub\n      dup2\n      add\n      swap1\n      tag_15\n      swap2\n      swap1\n      tag_16\n      jump\t// in\n    tag_15:\n      tag_17\n      jump\t// in\n    tag_14:\n      stop\n        /* \"contracts/ReceiveEther.sol\":315:409  function getBlance() public view returns(uint) {... */\n    tag_4:\n      callvalue\n      dup1\n      iszero\n      tag_18\n      jumpi\n      0x00\n      dup1\n      revert\n    tag_18:\n      pop\n      tag_19\n      tag_20\n      jump\t// in\n    tag_19:\n      mload(0x40)\n      tag_21\n      swap2\n      swap1\n      tag_22\n      jump\t// in\n    tag_21:\n      mload(0x40)\n      dup1\n      swap2\n      sub\n      swap1\n      return\n        /* \"contracts/ReceiveEther.sol\":415:509  function withdraw(uint _amount) public {... */\n    tag_17:\n        /* \"contracts/ReceiveEther.sol\":483:487  this */\n      address\n        /* \"contracts/ReceiveEther.sol\":471:501  log(address(this), \"withdraw\") */\n      0xffffffffffffffffffffffffffffffffffffffff\n      and\n      0x759f86bbdd0758679ecefbd32ea620068b2339dddd9e45ee0fa567ee6c81f0ab\n      mload(0x40)\n      tag_24\n      swap1\n      tag_25\n      jump\t// in\n    tag_24:\n      mload(0x40)\n      dup1\n      swap2\n      sub\n      swap1\n      log2\n        /* \"contracts/ReceiveEther.sol\":415:509  function withdraw(uint _amount) public {... */\n      pop\n      jump\t// out\n        /* \"contracts/ReceiveEther.sol\":315:409  function getBlance() public view returns(uint) {... */\n    tag_20:\n        /* \"contracts/ReceiveEther.sol\":356:360  uint */\n      0x00\n        /* \"contracts/ReceiveEther.sol\":380:401  address(this).balance */\n      selfbalance\n        /* \"contracts/ReceiveEther.sol\":373:401  return address(this).balance */\n      swap1\n      pop\n        /* \"contracts/ReceiveEther.sol\":315:409  function getBlance() public view returns(uint) {... */\n      swap1\n      jump\t// out\n        /* \"#utility.yul\":7:176   */\n    tag_27:\n        /* \"#utility.yul\":91:102   */\n      0x00\n        /* \"#utility.yul\":125:131   */\n      dup3\n        /* \"#utility.yul\":120:123   */\n      dup3\n        /* \"#utility.yul\":113:132   */\n      mstore\n        /* \"#utility.yul\":165:169   */\n      0x20\n        /* \"#utility.yul\":160:163   */\n      dup3\n        /* \"#utility.yul\":156:170   */\n      add\n        /* \"#utility.yul\":141:170   */\n      swap1\n      pop\n        /* \"#utility.yul\":7:176   */\n      swap3\n      swap2\n      pop\n      pop\n      jump\t// out\n        /* \"#utility.yul\":182:339   */\n    tag_28:\n        /* \"#utility.yul\":322:331   */\n      0x7265636569766500000000000000000000000000000000000000000000000000\n        /* \"#utility.yul\":318:319   */\n      0x00\n        /* \"#utility.yul\":310:316   */\n      dup3\n        /* \"#utility.yul\":306:320   */\n      add\n        /* \"#utility.yul\":299:332   */\n      mstore\n        /* \"#utility.yul\":182:339   */\n      pop\n      jump\t// out\n        /* \"#utility.yul\":345:710   */\n    tag_29:\n        /* \"#utility.yul\":487:490   */\n      0x00\n        /* \"#utility.yul\":508:574   */\n      tag_45\n        /* \"#utility.yul\":572:573   */\n      0x07\n        /* \"#utility.yul\":567:570   */\n      dup4\n        /* \"#utility.yul\":508:574   */\n      tag_27\n      jump\t// in\n    tag_45:\n        /* \"#utility.yul\":501:574   */\n      swap2\n      pop\n        /* \"#utility.yul\":583:676   */\n      tag_46\n        /* \"#utility.yul\":672:675   */\n      dup3\n        /* \"#utility.yul\":583:676   */\n      tag_28\n      jump\t// in\n    tag_46:\n        /* \"#utility.yul\":701:703   */\n      0x20\n        /* \"#utility.yul\":696:699   */\n      dup3\n        /* \"#utility.yul\":692:704   */\n      add\n        /* \"#utility.yul\":685:704   */\n      swap1\n      pop\n        /* \"#utility.yul\":345:710   */\n      swap2\n      swap1\n      pop\n      jump\t// out\n        /* \"#utility.yul\":716:1135   */\n    tag_8:\n        /* \"#utility.yul\":882:886   */\n      0x00\n        /* \"#utility.yul\":920:922   */\n      0x20\n        /* \"#utility.yul\":909:918   */\n      dup3\n        /* \"#utility.yul\":905:923   */\n      add\n        /* \"#utility.yul\":897:923   */\n      swap1\n      pop\n        /* \"#utility.yul\":969:978   */\n      dup2\n        /* \"#utility.yul\":963:967   */\n      dup2\n        /* \"#utility.yul\":959:979   */\n      sub\n        /* \"#utility.yul\":955:956   */\n      0x00\n        /* \"#utility.yul\":944:953   */\n      dup4\n        /* \"#utility.yul\":940:957   */\n      add\n        /* \"#utility.yul\":933:980   */\n      mstore\n        /* \"#utility.yul\":997:1128   */\n      tag_48\n        /* \"#utility.yul\":1123:1127   */\n      dup2\n        /* \"#utility.yul\":997:1128   */\n      tag_29\n      jump\t// in\n    tag_48:\n        /* \"#utility.yul\":989:1128   */\n      swap1\n      pop\n        /* \"#utility.yul\":716:1135   */\n      swap2\n      swap1\n      pop\n      jump\t// out\n        /* \"#utility.yul\":1141:1299   */\n    tag_30:\n        /* \"#utility.yul\":1281:1291   */\n      0x66616c6c6261636b000000000000000000000000000000000000000000000000\n        /* \"#utility.yul\":1277:1278   */\n      0x00\n        /* \"#utility.yul\":1269:1275   */\n      dup3\n        /* \"#utility.yul\":1265:1279   */\n      add\n        /* \"#utility.yul\":1258:1292   */\n      mstore\n        /* \"#utility.yul\":1141:1299   */\n      pop\n      jump\t// out\n        /* \"#utility.yul\":1305:1670   */\n    tag_31:\n        /* \"#utility.yul\":1447:1450   */\n      0x00\n        /* \"#utility.yul\":1468:1534   */\n      tag_51\n        /* \"#utility.yul\":1532:1533   */\n      0x08\n        /* \"#utility.yul\":1527:1530   */\n      dup4\n        /* \"#utility.yul\":1468:1534   */\n      tag_27\n      jump\t// in\n    tag_51:\n        /* \"#utility.yul\":1461:1534   */\n      swap2\n      pop\n        /* \"#utility.yul\":1543:1636   */\n      tag_52\n        /* \"#utility.yul\":1632:1635   */\n      dup3\n        /* \"#utility.yul\":1543:1636   */\n      tag_30\n      jump\t// in\n    tag_52:\n        /* \"#utility.yul\":1661:1663   */\n      0x20\n        /* \"#utility.yul\":1656:1659   */\n      dup3\n        /* \"#utility.yul\":1652:1664   */\n      add\n        /* \"#utility.yul\":1645:1664   */\n      swap1\n      pop\n        /* \"#utility.yul\":1305:1670   */\n      swap2\n      swap1\n      pop\n      jump\t// out\n        /* \"#utility.yul\":1676:2095   */\n    tag_12:\n        /* \"#utility.yul\":1842:1846   */\n      0x00\n        /* \"#utility.yul\":1880:1882   */\n      0x20\n        /* \"#utility.yul\":1869:1878   */\n      dup3\n        /* \"#utility.yul\":1865:1883   */\n      add\n        /* \"#utility.yul\":1857:1883   */\n      swap1\n      pop\n        /* \"#utility.yul\":1929:1938   */\n      dup2\n        /* \"#utility.yul\":1923:1927   */\n      dup2\n        /* \"#utility.yul\":1919:1939   */\n      sub\n        /* \"#utility.yul\":1915:1916   */\n      0x00\n        /* \"#utility.yul\":1904:1913   */\n      dup4\n        /* \"#utility.yul\":1900:1917   */\n      add\n        /* \"#utility.yul\":1893:1940   */\n      mstore\n        /* \"#utility.yul\":1957:2088   */\n      tag_54\n        /* \"#utility.yul\":2083:2087   */\n      dup2\n        /* \"#utility.yul\":1957:2088   */\n      tag_31\n      jump\t// in\n    tag_54:\n        /* \"#utility.yul\":1949:2088   */\n      swap1\n      pop\n        /* \"#utility.yul\":1676:2095   */\n      swap2\n      swap1\n      pop\n      jump\t// out\n        /* \"#utility.yul\":2182:2299   */\n    tag_33:\n        /* \"#utility.yul\":2291:2292   */\n      0x00\n        /* \"#utility.yul\":2288:2289   */\n      dup1\n        /* \"#utility.yul\":2281:2293   */\n      revert\n        /* \"#utility.yul\":2428:2505   */\n    tag_35:\n        /* \"#utility.yul\":2465:2472   */\n      0x00\n        /* \"#utility.yul\":2494:2499   */\n      dup2\n        /* \"#utility.yul\":2483:2499   */\n      swap1\n      pop\n        /* \"#utility.yul\":2428:2505   */\n      swap2\n      swap1\n      pop\n      jump\t// out\n        /* \"#utility.yul\":2511:2633   */\n    tag_36:\n        /* \"#utility.yul\":2584:2608   */\n      tag_60\n        /* \"#utility.yul\":2602:2607   */\n      dup2\n        /* \"#utility.yul\":2584:2608   */\n      tag_35\n      jump\t// in\n    tag_60:\n        /* \"#utility.yul\":2577:2582   */\n      dup2\n        /* \"#utility.yul\":2574:2609   */\n      eq\n        /* \"#utility.yul\":2564:2627   */\n      tag_61\n      jumpi\n        /* \"#utility.yul\":2623:2624   */\n      0x00\n        /* \"#utility.yul\":2620:2621   */\n      dup1\n        /* \"#utility.yul\":2613:2625   */\n      revert\n        /* \"#utility.yul\":2564:2627   */\n    tag_61:\n        /* \"#utility.yul\":2511:2633   */\n      pop\n      jump\t// out\n        /* \"#utility.yul\":2639:2778   */\n    tag_37:\n        /* \"#utility.yul\":2685:2690   */\n      0x00\n        /* \"#utility.yul\":2723:2729   */\n      dup2\n        /* \"#utility.yul\":2710:2730   */\n      calldataload\n        /* \"#utility.yul\":2701:2730   */\n      swap1\n      pop\n        /* \"#utility.yul\":2739:2772   */\n      tag_63\n        /* \"#utility.yul\":2766:2771   */\n      dup2\n        /* \"#utility.yul\":2739:2772   */\n      tag_36\n      jump\t// in\n    tag_63:\n        /* \"#utility.yul\":2639:2778   */\n      swap3\n      swap2\n      pop\n      pop\n      jump\t// out\n        /* \"#utility.yul\":2784:3113   */\n    tag_16:\n        /* \"#utility.yul\":2843:2849   */\n      0x00\n        /* \"#utility.yul\":2892:2894   */\n      0x20\n        /* \"#utility.yul\":2880:2889   */\n      dup3\n        /* \"#utility.yul\":2871:2878   */\n      dup5\n        /* \"#utility.yul\":2867:2890   */\n      sub\n        /* \"#utility.yul\":2863:2895   */\n      slt\n        /* \"#utility.yul\":2860:2979   */\n      iszero\n      tag_65\n      jumpi\n        /* \"#utility.yul\":2898:2977   */\n      tag_66\n      tag_33\n      jump\t// in\n    tag_66:\n        /* \"#utility.yul\":2860:2979   */\n    tag_65:\n        /* \"#utility.yul\":3018:3019   */\n      0x00\n        /* \"#utility.yul\":3043:3096   */\n      tag_67\n        /* \"#utility.yul\":3088:3095   */\n      dup5\n        /* \"#utility.yul\":3079:3085   */\n      dup3\n        /* \"#utility.yul\":3068:3077   */\n      dup6\n        /* \"#utility.yul\":3064:3086   */\n      add\n        /* \"#utility.yul\":3043:3096   */\n      tag_37\n      jump\t// in\n    tag_67:\n        /* \"#utility.yul\":3033:3096   */\n      swap2\n      pop\n        /* \"#utility.yul\":2989:3106   */\n      pop\n        /* \"#utility.yul\":2784:3113   */\n      swap3\n      swap2\n      pop\n      pop\n      jump\t// out\n        /* \"#utility.yul\":3119:3237   */\n    tag_38:\n        /* \"#utility.yul\":3206:3230   */\n      tag_69\n        /* \"#utility.yul\":3224:3229   */\n      dup2\n        /* \"#utility.yul\":3206:3230   */\n      tag_35\n      jump\t// in\n    tag_69:\n        /* \"#utility.yul\":3201:3204   */\n      dup3\n        /* \"#utility.yul\":3194:3231   */\n      mstore\n        /* \"#utility.yul\":3119:3237   */\n      pop\n      pop\n      jump\t// out\n        /* \"#utility.yul\":3243:3465   */\n    tag_22:\n        /* \"#utility.yul\":3336:3340   */\n      0x00\n        /* \"#utility.yul\":3374:3376   */\n      0x20\n        /* \"#utility.yul\":3363:3372   */\n      dup3\n        /* \"#utility.yul\":3359:3377   */\n      add\n        /* \"#utility.yul\":3351:3377   */\n      swap1\n      pop\n        /* \"#utility.yul\":3387:3458   */\n      tag_71\n        /* \"#utility.yul\":3455:3456   */\n      0x00\n        /* \"#utility.yul\":3444:3453   */\n      dup4\n        /* \"#utility.yul\":3440:3457   */\n      add\n        /* \"#utility.yul\":3431:3437   */\n      dup5\n        /* \"#utility.yul\":3387:3458   */\n      tag_38\n      jump\t// in\n    tag_71:\n        /* \"#utility.yul\":3243:3465   */\n      swap3\n      swap2\n      pop\n      pop\n      jump\t// out\n        /* \"#utility.yul\":3471:3629   */\n    tag_39:\n        /* \"#utility.yul\":3611:3621   */\n      0x7769746864726177000000000000000000000000000000000000000000000000\n        /* \"#utility.yul\":3607:3608   */\n      0x00\n        /* \"#utility.yul\":3599:3605   */\n      dup3\n        /* \"#utility.yul\":3595:3609   */\n      add\n        /* \"#utility.yul\":3588:3622   */\n      mstore\n        /* \"#utility.yul\":3471:3629   */\n      pop\n      jump\t// out\n        /* \"#utility.yul\":3635:4000   */\n    tag_40:\n        /* \"#utility.yul\":3777:3780   */\n      0x00\n        /* \"#utility.yul\":3798:3864   */\n      tag_74\n        /* \"#utility.yul\":3862:3863   */\n      0x08\n        /* \"#utility.yul\":3857:3860   */\n      dup4\n        /* \"#utility.yul\":3798:3864   */\n      tag_27\n      jump\t// in\n    tag_74:\n        /* \"#utility.yul\":3791:3864   */\n      swap2\n      pop\n        /* \"#utility.yul\":3873:3966   */\n      tag_75\n        /* \"#utility.yul\":3962:3965   */\n      dup3\n        /* \"#utility.yul\":3873:3966   */\n      tag_39\n      jump\t// in\n    tag_75:\n        /* \"#utility.yul\":3991:3993   */\n      0x20\n        /* \"#utility.yul\":3986:3989   */\n      dup3\n        /* \"#utility.yul\":3982:3994   */\n      add\n        /* \"#utility.yul\":3975:3994   */\n      swap1\n      pop\n        /* \"#utility.yul\":3635:4000   */\n      swap2\n      swap1\n      pop\n      jump\t// out\n        /* \"#utility.yul\":4006:4425   */\n    tag_25:\n        /* \"#utility.yul\":4172:4176   */\n      0x00\n        /* \"#utility.yul\":4210:4212   */\n      0x20\n        /* \"#utility.yul\":4199:4208   */\n      dup3\n        /* \"#utility.yul\":4195:4213   */\n      add\n        /* \"#utility.yul\":4187:4213   */\n      swap1\n      pop\n        /* \"#utility.yul\":4259:4268   */\n      dup2\n        /* \"#utility.yul\":4253:4257   */\n      dup2\n        /* \"#utility.yul\":4249:4269   */\n      sub\n        /* \"#utility.yul\":4245:4246   */\n      0x00\n        /* \"#utility.yul\":4234:4243   */\n      dup4\n        /* \"#utility.yul\":4230:4247   */\n      add\n        /* \"#utility.yul\":4223:4270   */\n      mstore\n        /* \"#utility.yul\":4287:4418   */\n      tag_77\n        /* \"#utility.yul\":4413:4417   */\n      dup2\n        /* \"#utility.yul\":4287:4418   */\n      tag_40\n      jump\t// in\n    tag_77:\n        /* \"#utility.yul\":4279:4418   */\n      swap1\n      pop\n        /* \"#utility.yul\":4006:4425   */\n      swap2\n      swap1\n      pop\n      jump\t// out\n\n    auxdata: 0xa26469706673582212206ab13de81fdd7528bbc5b8db2efb7e976e82071a20eb9401e37a6c94e6ab7ce464736f6c63430008160033\n}\n",
				"bytecode": {
					"linkReferences": {},
					"object": "608060405234801561000f575f80fd5b5061037d8061001d5f395ff3fe60806040526004361061002c575f3560e01c80632e1a7d4d146100cd578063941be5f7146100f55761007f565b3661007f573073ffffffffffffffffffffffffffffffffffffffff167f759f86bbdd0758679ecefbd32ea620068b2339dddd9e45ee0fa567ee6c81f0ab604051610075906101cf565b60405180910390a2005b3073ffffffffffffffffffffffffffffffffffffffff167f759f86bbdd0758679ecefbd32ea620068b2339dddd9e45ee0fa567ee6c81f0ab6040516100c390610237565b60405180910390a2005b3480156100d8575f80fd5b506100f360048036038101906100ee919061028c565b61011f565b005b348015610100575f80fd5b5061010961016e565b60405161011691906102c6565b60405180910390f35b3073ffffffffffffffffffffffffffffffffffffffff167f759f86bbdd0758679ecefbd32ea620068b2339dddd9e45ee0fa567ee6c81f0ab60405161016390610329565b60405180910390a250565b5f47905090565b5f82825260208201905092915050565b7f72656365697665000000000000000000000000000000000000000000000000005f82015250565b5f6101b9600783610175565b91506101c482610185565b602082019050919050565b5f6020820190508181035f8301526101e6816101ad565b9050919050565b7f66616c6c6261636b0000000000000000000000000000000000000000000000005f82015250565b5f610221600883610175565b915061022c826101ed565b602082019050919050565b5f6020820190508181035f83015261024e81610215565b9050919050565b5f80fd5b5f819050919050565b61026b81610259565b8114610275575f80fd5b50565b5f8135905061028681610262565b92915050565b5f602082840312156102a1576102a0610255565b5b5f6102ae84828501610278565b91505092915050565b6102c081610259565b82525050565b5f6020820190506102d95f8301846102b7565b92915050565b7f77697468647261770000000000000000000000000000000000000000000000005f82015250565b5f610313600883610175565b915061031e826102df565b602082019050919050565b5f6020820190508181035f83015261034081610307565b905091905056fea26469706673582212206ab13de81fdd7528bbc5b8db2efb7e976e82071a20eb9401e37a6c94e6ab7ce464736f6c63430008160033",
					"opcodes": "PUSH1 0x80 PUSH1 0x40 MSTORE CALLVALUE DUP1 ISZERO PUSH2 0xF JUMPI PUSH0 DUP1 REVERT JUMPDEST POP PUSH2 0x37D DUP1 PUSH2 0x1D PUSH0 CODECOPY PUSH0 RETURN INVALID PUSH1 0x80 PUSH1 0x40 MSTORE PUSH1 0x4 CALLDATASIZE LT PUSH2 0x2C JUMPI PUSH0 CALLDATALOAD PUSH1 0xE0 SHR DUP1 PUSH4 0x2E1A7D4D EQ PUSH2 0xCD JUMPI DUP1 PUSH4 0x941BE5F7 EQ PUSH2 0xF5 JUMPI PUSH2 0x7F JUMP JUMPDEST CALLDATASIZE PUSH2 0x7F JUMPI ADDRESS PUSH20 0xFFFFFFFFFFFFFFFFFFFFFFFFFFFFFFFFFFFFFFFF AND PUSH32 0x759F86BBDD0758679ECEFBD32EA620068B2339DDDD9E45EE0FA567EE6C81F0AB PUSH1 0x40 MLOAD PUSH2 0x75 SWAP1 PUSH2 0x1CF JUMP JUMPDEST PUSH1 0x40 MLOAD DUP1 SWAP2 SUB SWAP1 LOG2 STOP JUMPDEST ADDRESS PUSH20 0xFFFFFFFFFFFFFFFFFFFFFFFFFFFFFFFFFFFFFFFF AND PUSH32 0x759F86BBDD0758679ECEFBD32EA620068B2339DDDD9E45EE0FA567EE6C81F0AB PUSH1 0x40 MLOAD PUSH2 0xC3 SWAP1 PUSH2 0x237 JUMP JUMPDEST PUSH1 0x40 MLOAD DUP1 SWAP2 SUB SWAP1 LOG2 STOP JUMPDEST CALLVALUE DUP1 ISZERO PUSH2 0xD8 JUMPI PUSH0 DUP1 REVERT JUMPDEST POP PUSH2 0xF3 PUSH1 0x4 DUP1 CALLDATASIZE SUB DUP2 ADD SWAP1 PUSH2 0xEE SWAP2 SWAP1 PUSH2 0x28C JUMP JUMPDEST PUSH2 0x11F JUMP JUMPDEST STOP JUMPDEST CALLVALUE DUP1 ISZERO PUSH2 0x100 JUMPI PUSH0 DUP1 REVERT JUMPDEST POP PUSH2 0x109 PUSH2 0x16E JUMP JUMPDEST PUSH1 0x40 MLOAD PUSH2 0x116 SWAP2 SWAP1 PUSH2 0x2C6 JUMP JUMPDEST PUSH1 0x40 MLOAD DUP1 SWAP2 SUB SWAP1 RETURN JUMPDEST ADDRESS PUSH20 0xFFFFFFFFFFFFFFFFFFFFFFFFFFFFFFFFFFFFFFFF AND PUSH32 0x759F86BBDD0758679ECEFBD32EA620068B2339DDDD9E45EE0FA567EE6C81F0AB PUSH1 0x40 MLOAD PUSH2 0x163 SWAP1 PUSH2 0x329 JUMP JUMPDEST PUSH1 0x40 MLOAD DUP1 SWAP2 SUB SWAP1 LOG2 POP JUMP JUMPDEST PUSH0 SELFBALANCE SWAP1 POP SWAP1 JUMP JUMPDEST PUSH0 DUP3 DUP3 MSTORE PUSH1 0x20 DUP3 ADD SWAP1 POP SWAP3 SWAP2 POP POP JUMP JUMPDEST PUSH32 0x7265636569766500000000000000000000000000000000000000000000000000 PUSH0 DUP3 ADD MSTORE POP JUMP JUMPDEST PUSH0 PUSH2 0x1B9 PUSH1 0x7 DUP4 PUSH2 0x175 JUMP JUMPDEST SWAP2 POP PUSH2 0x1C4 DUP3 PUSH2 0x185 JUMP JUMPDEST PUSH1 0x20 DUP3 ADD SWAP1 POP SWAP2 SWAP1 POP JUMP JUMPDEST PUSH0 PUSH1 0x20 DUP3 ADD SWAP1 POP DUP2 DUP2 SUB PUSH0 DUP4 ADD MSTORE PUSH2 0x1E6 DUP2 PUSH2 0x1AD JUMP JUMPDEST SWAP1 POP SWAP2 SWAP1 POP JUMP JUMPDEST PUSH32 0x66616C6C6261636B000000000000000000000000000000000000000000000000 PUSH0 DUP3 ADD MSTORE POP JUMP JUMPDEST PUSH0 PUSH2 0x221 PUSH1 0x8 DUP4 PUSH2 0x175 JUMP JUMPDEST SWAP2 POP PUSH2 0x22C DUP3 PUSH2 0x1ED JUMP JUMPDEST PUSH1 0x20 DUP3 ADD SWAP1 POP SWAP2 SWAP1 POP JUMP JUMPDEST PUSH0 PUSH1 0x20 DUP3 ADD SWAP1 POP DUP2 DUP2 SUB PUSH0 DUP4 ADD MSTORE PUSH2 0x24E DUP2 PUSH2 0x215 JUMP JUMPDEST SWAP1 POP SWAP2 SWAP1 POP JUMP JUMPDEST PUSH0 DUP1 REVERT JUMPDEST PUSH0 DUP2 SWAP1 POP SWAP2 SWAP1 POP JUMP JUMPDEST PUSH2 0x26B DUP2 PUSH2 0x259 JUMP JUMPDEST DUP2 EQ PUSH2 0x275 JUMPI PUSH0 DUP1 REVERT JUMPDEST POP JUMP JUMPDEST PUSH0 DUP2 CALLDATALOAD SWAP1 POP PUSH2 0x286 DUP2 PUSH2 0x262 JUMP JUMPDEST SWAP3 SWAP2 POP POP JUMP JUMPDEST PUSH0 PUSH1 0x20 DUP3 DUP5 SUB SLT ISZERO PUSH2 0x2A1 JUMPI PUSH2 0x2A0 PUSH2 0x255 JUMP JUMPDEST JUMPDEST PUSH0 PUSH2 0x2AE DUP5 DUP3 DUP6 ADD PUSH2 0x278 JUMP JUMPDEST SWAP2 POP POP SWAP3 SWAP2 POP POP JUMP JUMPDEST PUSH2 0x2C0 DUP2 PUSH2 0x259 JUMP JUMPDEST DUP3 MSTORE POP POP JUMP JUMPDEST PUSH0 PUSH1 0x20 DUP3 ADD SWAP1 POP PUSH2 0x2D9 PUSH0 DUP4 ADD DUP5 PUSH2 0x2B7 JUMP JUMPDEST SWAP3 SWAP2 POP POP JUMP JUMPDEST PUSH32 0x7769746864726177000000000000000000000000000000000000000000000000 PUSH0 DUP3 ADD MSTORE POP JUMP JUMPDEST PUSH0 PUSH2 0x313 PUSH1 0x8 DUP4 PUSH2 0x175 JUMP JUMPDEST SWAP2 POP PUSH2 0x31E DUP3 PUSH2 0x2DF JUMP JUMPDEST PUSH1 0x20 DUP3 ADD SWAP1 POP SWAP2 SWAP1 POP JUMP JUMPDEST PUSH0 PUSH1 0x20 DUP3 ADD SWAP1 POP DUP2 DUP2 SUB PUSH0 DUP4 ADD MSTORE PUSH2 0x340 DUP2 PUSH2 0x307 JUMP JUMPDEST SWAP1 POP SWAP2 SWAP1 POP JUMP INVALID LOG2 PUSH5 0x6970667358 0x22 SLT KECCAK256 PUSH11 0xB13DE81FDD7528BBC5B8DB 0x2E 0xFB PUSH31 0x976E82071A20EB9401E37A6C94E6AB7CE464736F6C63430008160033000000 "
				},
				"gasEstimates": {
					"creation": {
						"codeDepositCost": "178600",
						"executionCost": "218",
						"totalCost": "178818"
					},
					"external": {
						"": "2286",
						"getBlance()": "334",
						"withdraw(uint256)": "2559"
					}
				},
				"methodIdentifiers": {
					"getBlance()": "941be5f7",
					"withdraw(uint256)": "2e1a7d4d"
				}
			},
			"storageLayout": {
				"storage": [],
				"types": null
			},
			"userdoc": {
				"kind": "user",
				"methods": {},
				"version": 1
			}
		}
	}
}