{
	"contracts/Mycoder.sol": {
		"Mycoder": {
			"abi": [
				{
					"inputs": [
						{
							"internalType": "bytes",
							"name": "data",
							"type": "bytes"
						}
					],
					"name": "decode",
					"outputs": [
						{
							"internalType": "string",
							"name": "_name",
							"type": "string"
						},
						{
							"internalType": "uint256",
							"name": "_age",
							"type": "uint256"
						}
					],
					"stateMutability": "pure",
					"type": "function"
				},
				{
					"inputs": [
						{
							"internalType": "string",
							"name": "name",
							"type": "string"
						},
						{
							"internalType": "uint256",
							"name": "age",
							"type": "uint256"
						}
					],
					"name": "encode",
					"outputs": [
						{
							"internalType": "bytes",
							"name": "",
							"type": "bytes"
						}
					],
					"stateMutability": "pure",
					"type": "function"
				}
			],
			"devdoc": {
				"kind": "dev",
				"methods": {},
				"version": 1
			},
			"evm": {
				"assembly": "    /* \"contracts/Mycoder.sol\":61:377  contract Mycoder {... */\n  mstore(0x40, 0x80)\n  callvalue\n  dup1\n  iszero\n  tag_1\n  jumpi\n  0x00\n  dup1\n  revert\ntag_1:\n  pop\n  dataSize(sub_0)\n  dup1\n  dataOffset(sub_0)\n  0x00\n  codecopy\n  0x00\n  return\nstop\n\nsub_0: assembly {\n        /* \"contracts/Mycoder.sol\":61:377  contract Mycoder {... */\n      mstore(0x40, 0x80)\n      callvalue\n      dup1\n      iszero\n      tag_1\n      jumpi\n      0x00\n      dup1\n      revert\n    tag_1:\n      pop\n      jumpi(tag_2, lt(calldatasize, 0x04))\n      shr(0xe0, calldataload(0x00))\n      dup1\n      0x3c1c8e49\n      eq\n      tag_3\n      jumpi\n      dup1\n      0xe5c5e9a3\n      eq\n      tag_4\n      jumpi\n    tag_2:\n      0x00\n      dup1\n      revert\n        /* \"contracts/Mycoder.sol\":85:212  function encode(string memory name, uint age) public pure returns(bytes memory) {... */\n    tag_3:\n      tag_5\n      0x04\n      dup1\n      calldatasize\n      sub\n      dup2\n      add\n      swap1\n      tag_6\n      swap2\n      swap1\n      tag_7\n      jump\t// in\n    tag_6:\n      tag_8\n      jump\t// in\n    tag_5:\n      mload(0x40)\n      tag_9\n      swap2\n      swap1\n      tag_10\n      jump\t// in\n    tag_9:\n      mload(0x40)\n      dup1\n      swap2\n      sub\n      swap1\n      return\n        /* \"contracts/Mycoder.sol\":218:374  function decode(bytes calldata data) public pure returns(string memory _name, uint _age) {... */\n    tag_4:\n      tag_11\n      0x04\n      dup1\n      calldatasize\n      sub\n      dup2\n      add\n      swap1\n      tag_12\n      swap2\n      swap1\n      tag_13\n      jump\t// in\n    tag_12:\n      tag_14\n      jump\t// in\n    tag_11:\n      mload(0x40)\n      tag_15\n      swap3\n      swap2\n      swap1\n      tag_16\n      jump\t// in\n    tag_15:\n      mload(0x40)\n      dup1\n      swap2\n      sub\n      swap1\n      return\n        /* \"contracts/Mycoder.sol\":85:212  function encode(string memory name, uint age) public pure returns(bytes memory) {... */\n    tag_8:\n        /* \"contracts/Mycoder.sol\":151:163  bytes memory */\n      0x60\n        /* \"contracts/Mycoder.sol\":194:198  name */\n      dup3\n        /* \"contracts/Mycoder.sol\":200:203  age */\n      dup3\n        /* \"contracts/Mycoder.sol\":183:204  abi.encode(name, age) */\n      add(0x20, mload(0x40))\n      tag_18\n      swap3\n      swap2\n      swap1\n      tag_16\n      jump\t// in\n    tag_18:\n      mload(0x40)\n      0x20\n      dup2\n      dup4\n      sub\n      sub\n      dup2\n      mstore\n      swap1\n      0x40\n      mstore\n        /* \"contracts/Mycoder.sol\":176:204  return abi.encode(name, age) */\n      swap1\n      pop\n        /* \"contracts/Mycoder.sol\":85:212  function encode(string memory name, uint age) public pure returns(bytes memory) {... */\n      swap3\n      swap2\n      pop\n      pop\n      jump\t// out\n        /* \"contracts/Mycoder.sol\":218:374  function decode(bytes calldata data) public pure returns(string memory _name, uint _age) {... */\n    tag_14:\n        /* \"contracts/Mycoder.sol\":275:294  string memory _name */\n      0x60\n        /* \"contracts/Mycoder.sol\":296:305  uint _age */\n      0x00\n        /* \"contracts/Mycoder.sol\":345:349  data */\n      dup4\n      dup4\n        /* \"contracts/Mycoder.sol\":334:366  abi.decode(data, (string, uint)) */\n      dup2\n      add\n      swap1\n      tag_20\n      swap2\n      swap1\n      tag_7\n      jump\t// in\n    tag_20:\n        /* \"contracts/Mycoder.sol\":318:366  (_name, _age) = abi.decode(data, (string, uint)) */\n      dup1\n      swap3\n      pop\n      dup2\n      swap4\n      pop\n      pop\n      pop\n        /* \"contracts/Mycoder.sol\":218:374  function decode(bytes calldata data) public pure returns(string memory _name, uint _age) {... */\n      swap3\n      pop\n      swap3\n      swap1\n      pop\n      jump\t// out\n        /* \"#utility.yul\":7:82   */\n    tag_21:\n        /* \"#utility.yul\":40:46   */\n      0x00\n        /* \"#utility.yul\":73:75   */\n      0x40\n        /* \"#utility.yul\":67:76   */\n      mload\n        /* \"#utility.yul\":57:76   */\n      swap1\n      pop\n        /* \"#utility.yul\":7:82   */\n      swap1\n      jump\t// out\n        /* \"#utility.yul\":88:205   */\n    tag_22:\n        /* \"#utility.yul\":197:198   */\n      0x00\n        /* \"#utility.yul\":194:195   */\n      dup1\n        /* \"#utility.yul\":187:199   */\n      revert\n        /* \"#utility.yul\":211:328   */\n    tag_23:\n        /* \"#utility.yul\":320:321   */\n      0x00\n        /* \"#utility.yul\":317:318   */\n      dup1\n        /* \"#utility.yul\":310:322   */\n      revert\n        /* \"#utility.yul\":334:451   */\n    tag_24:\n        /* \"#utility.yul\":443:444   */\n      0x00\n        /* \"#utility.yul\":440:441   */\n      dup1\n        /* \"#utility.yul\":433:445   */\n      revert\n        /* \"#utility.yul\":457:574   */\n    tag_25:\n        /* \"#utility.yul\":566:567   */\n      0x00\n        /* \"#utility.yul\":563:564   */\n      dup1\n        /* \"#utility.yul\":556:568   */\n      revert\n        /* \"#utility.yul\":580:682   */\n    tag_26:\n        /* \"#utility.yul\":621:627   */\n      0x00\n        /* \"#utility.yul\":672:674   */\n      0x1f\n        /* \"#utility.yul\":668:675   */\n      not\n        /* \"#utility.yul\":663:665   */\n      0x1f\n        /* \"#utility.yul\":656:661   */\n      dup4\n        /* \"#utility.yul\":652:666   */\n      add\n        /* \"#utility.yul\":648:676   */\n      and\n        /* \"#utility.yul\":638:676   */\n      swap1\n      pop\n        /* \"#utility.yul\":580:682   */\n      swap2\n      swap1\n      pop\n      jump\t// out\n        /* \"#utility.yul\":688:868   */\n    tag_27:\n        /* \"#utility.yul\":736:813   */\n      0x4e487b7100000000000000000000000000000000000000000000000000000000\n        /* \"#utility.yul\":733:734   */\n      0x00\n        /* \"#utility.yul\":726:814   */\n      mstore\n        /* \"#utility.yul\":833:837   */\n      0x41\n        /* \"#utility.yul\":830:831   */\n      0x04\n        /* \"#utility.yul\":823:838   */\n      mstore\n        /* \"#utility.yul\":857:861   */\n      0x24\n        /* \"#utility.yul\":854:855   */\n      0x00\n        /* \"#utility.yul\":847:862   */\n      revert\n        /* \"#utility.yul\":874:1155   */\n    tag_28:\n        /* \"#utility.yul\":957:984   */\n      tag_57\n        /* \"#utility.yul\":979:983   */\n      dup3\n        /* \"#utility.yul\":957:984   */\n      tag_26\n      jump\t// in\n    tag_57:\n        /* \"#utility.yul\":949:955   */\n      dup2\n        /* \"#utility.yul\":945:985   */\n      add\n        /* \"#utility.yul\":1087:1093   */\n      dup2\n        /* \"#utility.yul\":1075:1085   */\n      dup2\n        /* \"#utility.yul\":1072:1094   */\n      lt\n        /* \"#utility.yul\":1051:1069   */\n      0xffffffffffffffff\n        /* \"#utility.yul\":1039:1049   */\n      dup3\n        /* \"#utility.yul\":1036:1070   */\n      gt\n        /* \"#utility.yul\":1033:1095   */\n      or\n        /* \"#utility.yul\":1030:1118   */\n      iszero\n      tag_58\n      jumpi\n        /* \"#utility.yul\":1098:1116   */\n      tag_59\n      tag_27\n      jump\t// in\n    tag_59:\n        /* \"#utility.yul\":1030:1118   */\n    tag_58:\n        /* \"#utility.yul\":1138:1148   */\n      dup1\n        /* \"#utility.yul\":1134:1136   */\n      0x40\n        /* \"#utility.yul\":1127:1149   */\n      mstore\n        /* \"#utility.yul\":917:1155   */\n      pop\n        /* \"#utility.yul\":874:1155   */\n      pop\n      pop\n      jump\t// out\n        /* \"#utility.yul\":1161:1290   */\n    tag_29:\n        /* \"#utility.yul\":1195:1201   */\n      0x00\n        /* \"#utility.yul\":1222:1242   */\n      tag_61\n      tag_21\n      jump\t// in\n    tag_61:\n        /* \"#utility.yul\":1212:1242   */\n      swap1\n      pop\n        /* \"#utility.yul\":1251:1284   */\n      tag_62\n        /* \"#utility.yul\":1279:1283   */\n      dup3\n        /* \"#utility.yul\":1271:1277   */\n      dup3\n        /* \"#utility.yul\":1251:1284   */\n      tag_28\n      jump\t// in\n    tag_62:\n        /* \"#utility.yul\":1161:1290   */\n      swap2\n      swap1\n      pop\n      jump\t// out\n        /* \"#utility.yul\":1296:1604   */\n    tag_30:\n        /* \"#utility.yul\":1358:1362   */\n      0x00\n        /* \"#utility.yul\":1448:1466   */\n      0xffffffffffffffff\n        /* \"#utility.yul\":1440:1446   */\n      dup3\n        /* \"#utility.yul\":1437:1467   */\n      gt\n        /* \"#utility.yul\":1434:1490   */\n      iszero\n      tag_64\n      jumpi\n        /* \"#utility.yul\":1470:1488   */\n      tag_65\n      tag_27\n      jump\t// in\n    tag_65:\n        /* \"#utility.yul\":1434:1490   */\n    tag_64:\n        /* \"#utility.yul\":1508:1537   */\n      tag_66\n        /* \"#utility.yul\":1530:1536   */\n      dup3\n        /* \"#utility.yul\":1508:1537   */\n      tag_26\n      jump\t// in\n    tag_66:\n        /* \"#utility.yul\":1500:1537   */\n      swap1\n      pop\n        /* \"#utility.yul\":1592:1596   */\n      0x20\n        /* \"#utility.yul\":1586:1590   */\n      dup2\n        /* \"#utility.yul\":1582:1597   */\n      add\n        /* \"#utility.yul\":1574:1597   */\n      swap1\n      pop\n        /* \"#utility.yul\":1296:1604   */\n      swap2\n      swap1\n      pop\n      jump\t// out\n        /* \"#utility.yul\":1610:1756   */\n    tag_31:\n        /* \"#utility.yul\":1707:1713   */\n      dup3\n        /* \"#utility.yul\":1702:1705   */\n      dup2\n        /* \"#utility.yul\":1697:1700   */\n      dup4\n        /* \"#utility.yul\":1684:1714   */\n      calldatacopy\n        /* \"#utility.yul\":1748:1749   */\n      0x00\n        /* \"#utility.yul\":1739:1745   */\n      dup4\n        /* \"#utility.yul\":1734:1737   */\n      dup4\n        /* \"#utility.yul\":1730:1746   */\n      add\n        /* \"#utility.yul\":1723:1750   */\n      mstore\n        /* \"#utility.yul\":1610:1756   */\n      pop\n      pop\n      pop\n      jump\t// out\n        /* \"#utility.yul\":1762:2187   */\n    tag_32:\n        /* \"#utility.yul\":1840:1845   */\n      0x00\n        /* \"#utility.yul\":1865:1931   */\n      tag_69\n        /* \"#utility.yul\":1881:1930   */\n      tag_70\n        /* \"#utility.yul\":1923:1929   */\n      dup5\n        /* \"#utility.yul\":1881:1930   */\n      tag_30\n      jump\t// in\n    tag_70:\n        /* \"#utility.yul\":1865:1931   */\n      tag_29\n      jump\t// in\n    tag_69:\n        /* \"#utility.yul\":1856:1931   */\n      swap1\n      pop\n        /* \"#utility.yul\":1954:1960   */\n      dup3\n        /* \"#utility.yul\":1947:1952   */\n      dup2\n        /* \"#utility.yul\":1940:1961   */\n      mstore\n        /* \"#utility.yul\":1992:1996   */\n      0x20\n        /* \"#utility.yul\":1985:1990   */\n      dup2\n        /* \"#utility.yul\":1981:1997   */\n      add\n        /* \"#utility.yul\":2030:2033   */\n      dup5\n        /* \"#utility.yul\":2021:2027   */\n      dup5\n        /* \"#utility.yul\":2016:2019   */\n      dup5\n        /* \"#utility.yul\":2012:2028   */\n      add\n        /* \"#utility.yul\":2009:2034   */\n      gt\n        /* \"#utility.yul\":2006:2118   */\n      iszero\n      tag_71\n      jumpi\n        /* \"#utility.yul\":2037:2116   */\n      tag_72\n      tag_25\n      jump\t// in\n    tag_72:\n        /* \"#utility.yul\":2006:2118   */\n    tag_71:\n        /* \"#utility.yul\":2127:2181   */\n      tag_73\n        /* \"#utility.yul\":2174:2180   */\n      dup5\n        /* \"#utility.yul\":2169:2172   */\n      dup3\n        /* \"#utility.yul\":2164:2167   */\n      dup6\n        /* \"#utility.yul\":2127:2181   */\n      tag_31\n      jump\t// in\n    tag_73:\n        /* \"#utility.yul\":1846:2187   */\n      pop\n        /* \"#utility.yul\":1762:2187   */\n      swap4\n      swap3\n      pop\n      pop\n      pop\n      jump\t// out\n        /* \"#utility.yul\":2207:2547   */\n    tag_33:\n        /* \"#utility.yul\":2263:2268   */\n      0x00\n        /* \"#utility.yul\":2312:2315   */\n      dup3\n        /* \"#utility.yul\":2305:2309   */\n      0x1f\n        /* \"#utility.yul\":2297:2303   */\n      dup4\n        /* \"#utility.yul\":2293:2310   */\n      add\n        /* \"#utility.yul\":2289:2316   */\n      slt\n        /* \"#utility.yul\":2279:2401   */\n      tag_75\n      jumpi\n        /* \"#utility.yul\":2320:2399   */\n      tag_76\n      tag_24\n      jump\t// in\n    tag_76:\n        /* \"#utility.yul\":2279:2401   */\n    tag_75:\n        /* \"#utility.yul\":2437:2443   */\n      dup2\n        /* \"#utility.yul\":2424:2444   */\n      calldataload\n        /* \"#utility.yul\":2462:2541   */\n      tag_77\n        /* \"#utility.yul\":2537:2540   */\n      dup5\n        /* \"#utility.yul\":2529:2535   */\n      dup3\n        /* \"#utility.yul\":2522:2526   */\n      0x20\n        /* \"#utility.yul\":2514:2520   */\n      dup7\n        /* \"#utility.yul\":2510:2527   */\n      add\n        /* \"#utility.yul\":2462:2541   */\n      tag_32\n      jump\t// in\n    tag_77:\n        /* \"#utility.yul\":2453:2541   */\n      swap2\n      pop\n        /* \"#utility.yul\":2269:2547   */\n      pop\n        /* \"#utility.yul\":2207:2547   */\n      swap3\n      swap2\n      pop\n      pop\n      jump\t// out\n        /* \"#utility.yul\":2553:2630   */\n    tag_34:\n        /* \"#utility.yul\":2590:2597   */\n      0x00\n        /* \"#utility.yul\":2619:2624   */\n      dup2\n        /* \"#utility.yul\":2608:2624   */\n      swap1\n      pop\n        /* \"#utility.yul\":2553:2630   */\n      swap2\n      swap1\n      pop\n      jump\t// out\n        /* \"#utility.yul\":2636:2758   */\n    tag_35:\n        /* \"#utility.yul\":2709:2733   */\n      tag_80\n        /* \"#utility.yul\":2727:2732   */\n      dup2\n        /* \"#utility.yul\":2709:2733   */\n      tag_34\n      jump\t// in\n    tag_80:\n        /* \"#utility.yul\":2702:2707   */\n      dup2\n        /* \"#utility.yul\":2699:2734   */\n      eq\n        /* \"#utility.yul\":2689:2752   */\n      tag_81\n      jumpi\n        /* \"#utility.yul\":2748:2749   */\n      0x00\n        /* \"#utility.yul\":2745:2746   */\n      dup1\n        /* \"#utility.yul\":2738:2750   */\n      revert\n        /* \"#utility.yul\":2689:2752   */\n    tag_81:\n        /* \"#utility.yul\":2636:2758   */\n      pop\n      jump\t// out\n        /* \"#utility.yul\":2764:2903   */\n    tag_36:\n        /* \"#utility.yul\":2810:2815   */\n      0x00\n        /* \"#utility.yul\":2848:2854   */\n      dup2\n        /* \"#utility.yul\":2835:2855   */\n      calldataload\n        /* \"#utility.yul\":2826:2855   */\n      swap1\n      pop\n        /* \"#utility.yul\":2864:2897   */\n      tag_83\n        /* \"#utility.yul\":2891:2896   */\n      dup2\n        /* \"#utility.yul\":2864:2897   */\n      tag_35\n      jump\t// in\n    tag_83:\n        /* \"#utility.yul\":2764:2903   */\n      swap3\n      swap2\n      pop\n      pop\n      jump\t// out\n        /* \"#utility.yul\":2909:3563   */\n    tag_7:\n        /* \"#utility.yul\":2987:2993   */\n      0x00\n        /* \"#utility.yul\":2995:3001   */\n      dup1\n        /* \"#utility.yul\":3044:3046   */\n      0x40\n        /* \"#utility.yul\":3032:3041   */\n      dup4\n        /* \"#utility.yul\":3023:3030   */\n      dup6\n        /* \"#utility.yul\":3019:3042   */\n      sub\n        /* \"#utility.yul\":3015:3047   */\n      slt\n        /* \"#utility.yul\":3012:3131   */\n      iszero\n      tag_85\n      jumpi\n        /* \"#utility.yul\":3050:3129   */\n      tag_86\n      tag_22\n      jump\t// in\n    tag_86:\n        /* \"#utility.yul\":3012:3131   */\n    tag_85:\n        /* \"#utility.yul\":3198:3199   */\n      0x00\n        /* \"#utility.yul\":3187:3196   */\n      dup4\n        /* \"#utility.yul\":3183:3200   */\n      add\n        /* \"#utility.yul\":3170:3201   */\n      calldataload\n        /* \"#utility.yul\":3228:3246   */\n      0xffffffffffffffff\n        /* \"#utility.yul\":3220:3226   */\n      dup2\n        /* \"#utility.yul\":3217:3247   */\n      gt\n        /* \"#utility.yul\":3214:3331   */\n      iszero\n      tag_87\n      jumpi\n        /* \"#utility.yul\":3250:3329   */\n      tag_88\n      tag_23\n      jump\t// in\n    tag_88:\n        /* \"#utility.yul\":3214:3331   */\n    tag_87:\n        /* \"#utility.yul\":3355:3418   */\n      tag_89\n        /* \"#utility.yul\":3410:3417   */\n      dup6\n        /* \"#utility.yul\":3401:3407   */\n      dup3\n        /* \"#utility.yul\":3390:3399   */\n      dup7\n        /* \"#utility.yul\":3386:3408   */\n      add\n        /* \"#utility.yul\":3355:3418   */\n      tag_33\n      jump\t// in\n    tag_89:\n        /* \"#utility.yul\":3345:3418   */\n      swap3\n      pop\n        /* \"#utility.yul\":3141:3428   */\n      pop\n        /* \"#utility.yul\":3467:3469   */\n      0x20\n        /* \"#utility.yul\":3493:3546   */\n      tag_90\n        /* \"#utility.yul\":3538:3545   */\n      dup6\n        /* \"#utility.yul\":3529:3535   */\n      dup3\n        /* \"#utility.yul\":3518:3527   */\n      dup7\n        /* \"#utility.yul\":3514:3536   */\n      add\n        /* \"#utility.yul\":3493:3546   */\n      tag_36\n      jump\t// in\n    tag_90:\n        /* \"#utility.yul\":3483:3546   */\n      swap2\n      pop\n        /* \"#utility.yul\":3438:3556   */\n      pop\n        /* \"#utility.yul\":2909:3563   */\n      swap3\n      pop\n      swap3\n      swap1\n      pop\n      jump\t// out\n        /* \"#utility.yul\":3569:3667   */\n    tag_37:\n        /* \"#utility.yul\":3620:3626   */\n      0x00\n        /* \"#utility.yul\":3654:3659   */\n      dup2\n        /* \"#utility.yul\":3648:3660   */\n      mload\n        /* \"#utility.yul\":3638:3660   */\n      swap1\n      pop\n        /* \"#utility.yul\":3569:3667   */\n      swap2\n      swap1\n      pop\n      jump\t// out\n        /* \"#utility.yul\":3673:3841   */\n    tag_38:\n        /* \"#utility.yul\":3756:3767   */\n      0x00\n        /* \"#utility.yul\":3790:3796   */\n      dup3\n        /* \"#utility.yul\":3785:3788   */\n      dup3\n        /* \"#utility.yul\":3778:3797   */\n      mstore\n        /* \"#utility.yul\":3830:3834   */\n      0x20\n        /* \"#utility.yul\":3825:3828   */\n      dup3\n        /* \"#utility.yul\":3821:3835   */\n      add\n        /* \"#utility.yul\":3806:3835   */\n      swap1\n      pop\n        /* \"#utility.yul\":3673:3841   */\n      swap3\n      swap2\n      pop\n      pop\n      jump\t// out\n        /* \"#utility.yul\":3847:4093   */\n    tag_39:\n        /* \"#utility.yul\":3928:3929   */\n      0x00\n        /* \"#utility.yul\":3938:4051   */\n    tag_94:\n        /* \"#utility.yul\":3952:3958   */\n      dup4\n        /* \"#utility.yul\":3949:3950   */\n      dup2\n        /* \"#utility.yul\":3946:3959   */\n      lt\n        /* \"#utility.yul\":3938:4051   */\n      iszero\n      tag_96\n      jumpi\n        /* \"#utility.yul\":4037:4038   */\n      dup1\n        /* \"#utility.yul\":4032:4035   */\n      dup3\n        /* \"#utility.yul\":4028:4039   */\n      add\n        /* \"#utility.yul\":4022:4040   */\n      mload\n        /* \"#utility.yul\":4018:4019   */\n      dup2\n        /* \"#utility.yul\":4013:4016   */\n      dup5\n        /* \"#utility.yul\":4009:4020   */\n      add\n        /* \"#utility.yul\":4002:4041   */\n      mstore\n        /* \"#utility.yul\":3974:3976   */\n      0x20\n        /* \"#utility.yul\":3971:3972   */\n      dup2\n        /* \"#utility.yul\":3967:3977   */\n      add\n        /* \"#utility.yul\":3962:3977   */\n      swap1\n      pop\n        /* \"#utility.yul\":3938:4051   */\n      jump(tag_94)\n    tag_96:\n        /* \"#utility.yul\":4085:4086   */\n      0x00\n        /* \"#utility.yul\":4076:4082   */\n      dup5\n        /* \"#utility.yul\":4071:4074   */\n      dup5\n        /* \"#utility.yul\":4067:4083   */\n      add\n        /* \"#utility.yul\":4060:4087   */\n      mstore\n        /* \"#utility.yul\":3909:4093   */\n      pop\n        /* \"#utility.yul\":3847:4093   */\n      pop\n      pop\n      pop\n      jump\t// out\n        /* \"#utility.yul\":4099:4472   */\n    tag_40:\n        /* \"#utility.yul\":4185:4188   */\n      0x00\n        /* \"#utility.yul\":4213:4251   */\n      tag_98\n        /* \"#utility.yul\":4245:4250   */\n      dup3\n        /* \"#utility.yul\":4213:4251   */\n      tag_37\n      jump\t// in\n    tag_98:\n        /* \"#utility.yul\":4267:4337   */\n      tag_99\n        /* \"#utility.yul\":4330:4336   */\n      dup2\n        /* \"#utility.yul\":4325:4328   */\n      dup6\n        /* \"#utility.yul\":4267:4337   */\n      tag_38\n      jump\t// in\n    tag_99:\n        /* \"#utility.yul\":4260:4337   */\n      swap4\n      pop\n        /* \"#utility.yul\":4346:4411   */\n      tag_100\n        /* \"#utility.yul\":4404:4410   */\n      dup2\n        /* \"#utility.yul\":4399:4402   */\n      dup6\n        /* \"#utility.yul\":4392:4396   */\n      0x20\n        /* \"#utility.yul\":4385:4390   */\n      dup7\n        /* \"#utility.yul\":4381:4397   */\n      add\n        /* \"#utility.yul\":4346:4411   */\n      tag_39\n      jump\t// in\n    tag_100:\n        /* \"#utility.yul\":4436:4465   */\n      tag_101\n        /* \"#utility.yul\":4458:4464   */\n      dup2\n        /* \"#utility.yul\":4436:4465   */\n      tag_26\n      jump\t// in\n    tag_101:\n        /* \"#utility.yul\":4431:4434   */\n      dup5\n        /* \"#utility.yul\":4427:4466   */\n      add\n        /* \"#utility.yul\":4420:4466   */\n      swap2\n      pop\n        /* \"#utility.yul\":4189:4472   */\n      pop\n        /* \"#utility.yul\":4099:4472   */\n      swap3\n      swap2\n      pop\n      pop\n      jump\t// out\n        /* \"#utility.yul\":4478:4787   */\n    tag_10:\n        /* \"#utility.yul\":4589:4593   */\n      0x00\n        /* \"#utility.yul\":4627:4629   */\n      0x20\n        /* \"#utility.yul\":4616:4625   */\n      dup3\n        /* \"#utility.yul\":4612:4630   */\n      add\n        /* \"#utility.yul\":4604:4630   */\n      swap1\n      pop\n        /* \"#utility.yul\":4676:4685   */\n      dup2\n        /* \"#utility.yul\":4670:4674   */\n      dup2\n        /* \"#utility.yul\":4666:4686   */\n      sub\n        /* \"#utility.yul\":4662:4663   */\n      0x00\n        /* \"#utility.yul\":4651:4660   */\n      dup4\n        /* \"#utility.yul\":4647:4664   */\n      add\n        /* \"#utility.yul\":4640:4687   */\n      mstore\n        /* \"#utility.yul\":4704:4780   */\n      tag_103\n        /* \"#utility.yul\":4775:4779   */\n      dup2\n        /* \"#utility.yul\":4766:4772   */\n      dup5\n        /* \"#utility.yul\":4704:4780   */\n      tag_40\n      jump\t// in\n    tag_103:\n        /* \"#utility.yul\":4696:4780   */\n      swap1\n      pop\n        /* \"#utility.yul\":4478:4787   */\n      swap3\n      swap2\n      pop\n      pop\n      jump\t// out\n        /* \"#utility.yul\":4793:4910   */\n    tag_41:\n        /* \"#utility.yul\":4902:4903   */\n      0x00\n        /* \"#utility.yul\":4899:4900   */\n      dup1\n        /* \"#utility.yul\":4892:4904   */\n      revert\n        /* \"#utility.yul\":4916:5033   */\n    tag_42:\n        /* \"#utility.yul\":5025:5026   */\n      0x00\n        /* \"#utility.yul\":5022:5023   */\n      dup1\n        /* \"#utility.yul\":5015:5027   */\n      revert\n        /* \"#utility.yul\":5052:5604   */\n    tag_43:\n        /* \"#utility.yul\":5109:5117   */\n      0x00\n        /* \"#utility.yul\":5119:5125   */\n      dup1\n        /* \"#utility.yul\":5169:5172   */\n      dup4\n        /* \"#utility.yul\":5162:5166   */\n      0x1f\n        /* \"#utility.yul\":5154:5160   */\n      dup5\n        /* \"#utility.yul\":5150:5167   */\n      add\n        /* \"#utility.yul\":5146:5173   */\n      slt\n        /* \"#utility.yul\":5136:5258   */\n      tag_107\n      jumpi\n        /* \"#utility.yul\":5177:5256   */\n      tag_108\n      tag_24\n      jump\t// in\n    tag_108:\n        /* \"#utility.yul\":5136:5258   */\n    tag_107:\n        /* \"#utility.yul\":5290:5296   */\n      dup3\n        /* \"#utility.yul\":5277:5297   */\n      calldataload\n        /* \"#utility.yul\":5267:5297   */\n      swap1\n      pop\n        /* \"#utility.yul\":5320:5338   */\n      0xffffffffffffffff\n        /* \"#utility.yul\":5312:5318   */\n      dup2\n        /* \"#utility.yul\":5309:5339   */\n      gt\n        /* \"#utility.yul\":5306:5423   */\n      iszero\n      tag_109\n      jumpi\n        /* \"#utility.yul\":5342:5421   */\n      tag_110\n      tag_41\n      jump\t// in\n    tag_110:\n        /* \"#utility.yul\":5306:5423   */\n    tag_109:\n        /* \"#utility.yul\":5456:5460   */\n      0x20\n        /* \"#utility.yul\":5448:5454   */\n      dup4\n        /* \"#utility.yul\":5444:5461   */\n      add\n        /* \"#utility.yul\":5432:5461   */\n      swap2\n      pop\n        /* \"#utility.yul\":5510:5513   */\n      dup4\n        /* \"#utility.yul\":5502:5506   */\n      0x01\n        /* \"#utility.yul\":5494:5500   */\n      dup3\n        /* \"#utility.yul\":5490:5507   */\n      mul\n        /* \"#utility.yul\":5480:5488   */\n      dup4\n        /* \"#utility.yul\":5476:5508   */\n      add\n        /* \"#utility.yul\":5473:5514   */\n      gt\n        /* \"#utility.yul\":5470:5598   */\n      iszero\n      tag_111\n      jumpi\n        /* \"#utility.yul\":5517:5596   */\n      tag_112\n      tag_42\n      jump\t// in\n    tag_112:\n        /* \"#utility.yul\":5470:5598   */\n    tag_111:\n        /* \"#utility.yul\":5052:5604   */\n      swap3\n      pop\n      swap3\n      swap1\n      pop\n      jump\t// out\n        /* \"#utility.yul\":5610:6137   */\n    tag_13:\n        /* \"#utility.yul\":5680:5686   */\n      0x00\n        /* \"#utility.yul\":5688:5694   */\n      dup1\n        /* \"#utility.yul\":5737:5739   */\n      0x20\n        /* \"#utility.yul\":5725:5734   */\n      dup4\n        /* \"#utility.yul\":5716:5723   */\n      dup6\n        /* \"#utility.yul\":5712:5735   */\n      sub\n        /* \"#utility.yul\":5708:5740   */\n      slt\n        /* \"#utility.yul\":5705:5824   */\n      iszero\n      tag_114\n      jumpi\n        /* \"#utility.yul\":5743:5822   */\n      tag_115\n      tag_22\n      jump\t// in\n    tag_115:\n        /* \"#utility.yul\":5705:5824   */\n    tag_114:\n        /* \"#utility.yul\":5891:5892   */\n      0x00\n        /* \"#utility.yul\":5880:5889   */\n      dup4\n        /* \"#utility.yul\":5876:5893   */\n      add\n        /* \"#utility.yul\":5863:5894   */\n      calldataload\n        /* \"#utility.yul\":5921:5939   */\n      0xffffffffffffffff\n        /* \"#utility.yul\":5913:5919   */\n      dup2\n        /* \"#utility.yul\":5910:5940   */\n      gt\n        /* \"#utility.yul\":5907:6024   */\n      iszero\n      tag_116\n      jumpi\n        /* \"#utility.yul\":5943:6022   */\n      tag_117\n      tag_23\n      jump\t// in\n    tag_117:\n        /* \"#utility.yul\":5907:6024   */\n    tag_116:\n        /* \"#utility.yul\":6056:6120   */\n      tag_118\n        /* \"#utility.yul\":6112:6119   */\n      dup6\n        /* \"#utility.yul\":6103:6109   */\n      dup3\n        /* \"#utility.yul\":6092:6101   */\n      dup7\n        /* \"#utility.yul\":6088:6110   */\n      add\n        /* \"#utility.yul\":6056:6120   */\n      tag_43\n      jump\t// in\n    tag_118:\n        /* \"#utility.yul\":6038:6120   */\n      swap3\n      pop\n      swap3\n      pop\n        /* \"#utility.yul\":5834:6130   */\n      pop\n        /* \"#utility.yul\":5610:6137   */\n      swap3\n      pop\n      swap3\n      swap1\n      pop\n      jump\t// out\n        /* \"#utility.yul\":6143:6242   */\n    tag_44:\n        /* \"#utility.yul\":6195:6201   */\n      0x00\n        /* \"#utility.yul\":6229:6234   */\n      dup2\n        /* \"#utility.yul\":6223:6235   */\n      mload\n        /* \"#utility.yul\":6213:6235   */\n      swap1\n      pop\n        /* \"#utility.yul\":6143:6242   */\n      swap2\n      swap1\n      pop\n      jump\t// out\n        /* \"#utility.yul\":6248:6417   */\n    tag_45:\n        /* \"#utility.yul\":6332:6343   */\n      0x00\n        /* \"#utility.yul\":6366:6372   */\n      dup3\n        /* \"#utility.yul\":6361:6364   */\n      dup3\n        /* \"#utility.yul\":6354:6373   */\n      mstore\n        /* \"#utility.yul\":6406:6410   */\n      0x20\n        /* \"#utility.yul\":6401:6404   */\n      dup3\n        /* \"#utility.yul\":6397:6411   */\n      add\n        /* \"#utility.yul\":6382:6411   */\n      swap1\n      pop\n        /* \"#utility.yul\":6248:6417   */\n      swap3\n      swap2\n      pop\n      pop\n      jump\t// out\n        /* \"#utility.yul\":6423:6800   */\n    tag_46:\n        /* \"#utility.yul\":6511:6514   */\n      0x00\n        /* \"#utility.yul\":6539:6578   */\n      tag_122\n        /* \"#utility.yul\":6572:6577   */\n      dup3\n        /* \"#utility.yul\":6539:6578   */\n      tag_44\n      jump\t// in\n    tag_122:\n        /* \"#utility.yul\":6594:6665   */\n      tag_123\n        /* \"#utility.yul\":6658:6664   */\n      dup2\n        /* \"#utility.yul\":6653:6656   */\n      dup6\n        /* \"#utility.yul\":6594:6665   */\n      tag_45\n      jump\t// in\n    tag_123:\n        /* \"#utility.yul\":6587:6665   */\n      swap4\n      pop\n        /* \"#utility.yul\":6674:6739   */\n      tag_124\n        /* \"#utility.yul\":6732:6738   */\n      dup2\n        /* \"#utility.yul\":6727:6730   */\n      dup6\n        /* \"#utility.yul\":6720:6724   */\n      0x20\n        /* \"#utility.yul\":6713:6718   */\n      dup7\n        /* \"#utility.yul\":6709:6725   */\n      add\n        /* \"#utility.yul\":6674:6739   */\n      tag_39\n      jump\t// in\n    tag_124:\n        /* \"#utility.yul\":6764:6793   */\n      tag_125\n        /* \"#utility.yul\":6786:6792   */\n      dup2\n        /* \"#utility.yul\":6764:6793   */\n      tag_26\n      jump\t// in\n    tag_125:\n        /* \"#utility.yul\":6759:6762   */\n      dup5\n        /* \"#utility.yul\":6755:6794   */\n      add\n        /* \"#utility.yul\":6748:6794   */\n      swap2\n      pop\n        /* \"#utility.yul\":6515:6800   */\n      pop\n        /* \"#utility.yul\":6423:6800   */\n      swap3\n      swap2\n      pop\n      pop\n      jump\t// out\n        /* \"#utility.yul\":6806:6924   */\n    tag_47:\n        /* \"#utility.yul\":6893:6917   */\n      tag_127\n        /* \"#utility.yul\":6911:6916   */\n      dup2\n        /* \"#utility.yul\":6893:6917   */\n      tag_34\n      jump\t// in\n    tag_127:\n        /* \"#utility.yul\":6888:6891   */\n      dup3\n        /* \"#utility.yul\":6881:6918   */\n      mstore\n        /* \"#utility.yul\":6806:6924   */\n      pop\n      pop\n      jump\t// out\n        /* \"#utility.yul\":6930:7353   */\n    tag_16:\n        /* \"#utility.yul\":7071:7075   */\n      0x00\n        /* \"#utility.yul\":7109:7111   */\n      0x40\n        /* \"#utility.yul\":7098:7107   */\n      dup3\n        /* \"#utility.yul\":7094:7112   */\n      add\n        /* \"#utility.yul\":7086:7112   */\n      swap1\n      pop\n        /* \"#utility.yul\":7158:7167   */\n      dup2\n        /* \"#utility.yul\":7152:7156   */\n      dup2\n        /* \"#utility.yul\":7148:7168   */\n      sub\n        /* \"#utility.yul\":7144:7145   */\n      0x00\n        /* \"#utility.yul\":7133:7142   */\n      dup4\n        /* \"#utility.yul\":7129:7146   */\n      add\n        /* \"#utility.yul\":7122:7169   */\n      mstore\n        /* \"#utility.yul\":7186:7264   */\n      tag_129\n        /* \"#utility.yul\":7259:7263   */\n      dup2\n        /* \"#utility.yul\":7250:7256   */\n      dup6\n        /* \"#utility.yul\":7186:7264   */\n      tag_46\n      jump\t// in\n    tag_129:\n        /* \"#utility.yul\":7178:7264   */\n      swap1\n      pop\n        /* \"#utility.yul\":7274:7346   */\n      tag_130\n        /* \"#utility.yul\":7342:7344   */\n      0x20\n        /* \"#utility.yul\":7331:7340   */\n      dup4\n        /* \"#utility.yul\":7327:7345   */\n      add\n        /* \"#utility.yul\":7318:7324   */\n      dup5\n        /* \"#utility.yul\":7274:7346   */\n      tag_47\n      jump\t// in\n    tag_130:\n        /* \"#utility.yul\":6930:7353   */\n      swap4\n      swap3\n      pop\n      pop\n      pop\n      jump\t// out\n\n    auxdata: 0xa26469706673582212202d9929d5e88553f5a90d7ea307d197c3a0e7786793f60e9c35f9fcdbd7439e9464736f6c63430008160033\n}\n",
				"bytecode": {
					"linkReferences": {},
					"object": "608060405234801561000f575f80fd5b506104c78061001d5f395ff3fe608060405234801561000f575f80fd5b5060043610610034575f3560e01c80633c1c8e4914610038578063e5c5e9a314610068575b5f80fd5b610052600480360381019061004d9190610266565b610099565b60405161005f919061033a565b60405180910390f35b610082600480360381019061007d91906103b7565b6100c5565b604051610090929190610463565b60405180910390f35b606082826040516020016100ae929190610463565b604051602081830303815290604052905092915050565b60605f83838101906100d79190610266565b80925081935050509250929050565b5f604051905090565b5f80fd5b5f80fd5b5f80fd5b5f80fd5b5f601f19601f8301169050919050565b7f4e487b71000000000000000000000000000000000000000000000000000000005f52604160045260245ffd5b610145826100ff565b810181811067ffffffffffffffff821117156101645761016361010f565b5b80604052505050565b5f6101766100e6565b9050610182828261013c565b919050565b5f67ffffffffffffffff8211156101a1576101a061010f565b5b6101aa826100ff565b9050602081019050919050565b828183375f83830152505050565b5f6101d76101d284610187565b61016d565b9050828152602081018484840111156101f3576101f26100fb565b5b6101fe8482856101b7565b509392505050565b5f82601f83011261021a576102196100f7565b5b813561022a8482602086016101c5565b91505092915050565b5f819050919050565b61024581610233565b811461024f575f80fd5b50565b5f813590506102608161023c565b92915050565b5f806040838503121561027c5761027b6100ef565b5b5f83013567ffffffffffffffff811115610299576102986100f3565b5b6102a585828601610206565b92505060206102b685828601610252565b9150509250929050565b5f81519050919050565b5f82825260208201905092915050565b5f5b838110156102f75780820151818401526020810190506102dc565b5f8484015250505050565b5f61030c826102c0565b61031681856102ca565b93506103268185602086016102da565b61032f816100ff565b840191505092915050565b5f6020820190508181035f8301526103528184610302565b905092915050565b5f80fd5b5f80fd5b5f8083601f840112610377576103766100f7565b5b8235905067ffffffffffffffff8111156103945761039361035a565b5b6020830191508360018202830111156103b0576103af61035e565b5b9250929050565b5f80602083850312156103cd576103cc6100ef565b5b5f83013567ffffffffffffffff8111156103ea576103e96100f3565b5b6103f685828601610362565b92509250509250929050565b5f81519050919050565b5f82825260208201905092915050565b5f61042682610402565b610430818561040c565b93506104408185602086016102da565b610449816100ff565b840191505092915050565b61045d81610233565b82525050565b5f6040820190508181035f83015261047b818561041c565b905061048a6020830184610454565b939250505056fea26469706673582212202d9929d5e88553f5a90d7ea307d197c3a0e7786793f60e9c35f9fcdbd7439e9464736f6c63430008160033",
					"opcodes": "PUSH1 0x80 PUSH1 0x40 MSTORE CALLVALUE DUP1 ISZERO PUSH2 0xF JUMPI PUSH0 DUP1 REVERT JUMPDEST POP PUSH2 0x4C7 DUP1 PUSH2 0x1D PUSH0 CODECOPY PUSH0 RETURN INVALID PUSH1 0x80 PUSH1 0x40 MSTORE CALLVALUE DUP1 ISZERO PUSH2 0xF JUMPI PUSH0 DUP1 REVERT JUMPDEST POP PUSH1 0x4 CALLDATASIZE LT PUSH2 0x34 JUMPI PUSH0 CALLDATALOAD PUSH1 0xE0 SHR DUP1 PUSH4 0x3C1C8E49 EQ PUSH2 0x38 JUMPI DUP1 PUSH4 0xE5C5E9A3 EQ PUSH2 0x68 JUMPI JUMPDEST PUSH0 DUP1 REVERT JUMPDEST PUSH2 0x52 PUSH1 0x4 DUP1 CALLDATASIZE SUB DUP2 ADD SWAP1 PUSH2 0x4D SWAP2 SWAP1 PUSH2 0x266 JUMP JUMPDEST PUSH2 0x99 JUMP JUMPDEST PUSH1 0x40 MLOAD PUSH2 0x5F SWAP2 SWAP1 PUSH2 0x33A JUMP JUMPDEST PUSH1 0x40 MLOAD DUP1 SWAP2 SUB SWAP1 RETURN JUMPDEST PUSH2 0x82 PUSH1 0x4 DUP1 CALLDATASIZE SUB DUP2 ADD SWAP1 PUSH2 0x7D SWAP2 SWAP1 PUSH2 0x3B7 JUMP JUMPDEST PUSH2 0xC5 JUMP JUMPDEST PUSH1 0x40 MLOAD PUSH2 0x90 SWAP3 SWAP2 SWAP1 PUSH2 0x463 JUMP JUMPDEST PUSH1 0x40 MLOAD DUP1 SWAP2 SUB SWAP1 RETURN JUMPDEST PUSH1 0x60 DUP3 DUP3 PUSH1 0x40 MLOAD PUSH1 0x20 ADD PUSH2 0xAE SWAP3 SWAP2 SWAP1 PUSH2 0x463 JUMP JUMPDEST PUSH1 0x40 MLOAD PUSH1 0x20 DUP2 DUP4 SUB SUB DUP2 MSTORE SWAP1 PUSH1 0x40 MSTORE SWAP1 POP SWAP3 SWAP2 POP POP JUMP JUMPDEST PUSH1 0x60 PUSH0 DUP4 DUP4 DUP2 ADD SWAP1 PUSH2 0xD7 SWAP2 SWAP1 PUSH2 0x266 JUMP JUMPDEST DUP1 SWAP3 POP DUP2 SWAP4 POP POP POP SWAP3 POP SWAP3 SWAP1 POP JUMP JUMPDEST PUSH0 PUSH1 0x40 MLOAD SWAP1 POP SWAP1 JUMP JUMPDEST PUSH0 DUP1 REVERT JUMPDEST PUSH0 DUP1 REVERT JUMPDEST PUSH0 DUP1 REVERT JUMPDEST PUSH0 DUP1 REVERT JUMPDEST PUSH0 PUSH1 0x1F NOT PUSH1 0x1F DUP4 ADD AND SWAP1 POP SWAP2 SWAP1 POP JUMP JUMPDEST PUSH32 0x4E487B7100000000000000000000000000000000000000000000000000000000 PUSH0 MSTORE PUSH1 0x41 PUSH1 0x4 MSTORE PUSH1 0x24 PUSH0 REVERT JUMPDEST PUSH2 0x145 DUP3 PUSH2 0xFF JUMP JUMPDEST DUP2 ADD DUP2 DUP2 LT PUSH8 0xFFFFFFFFFFFFFFFF DUP3 GT OR ISZERO PUSH2 0x164 JUMPI PUSH2 0x163 PUSH2 0x10F JUMP JUMPDEST JUMPDEST DUP1 PUSH1 0x40 MSTORE POP POP POP JUMP JUMPDEST PUSH0 PUSH2 0x176 PUSH2 0xE6 JUMP JUMPDEST SWAP1 POP PUSH2 0x182 DUP3 DUP3 PUSH2 0x13C JUMP JUMPDEST SWAP2 SWAP1 POP JUMP JUMPDEST PUSH0 PUSH8 0xFFFFFFFFFFFFFFFF DUP3 GT ISZERO PUSH2 0x1A1 JUMPI PUSH2 0x1A0 PUSH2 0x10F JUMP JUMPDEST JUMPDEST PUSH2 0x1AA DUP3 PUSH2 0xFF JUMP JUMPDEST SWAP1 POP PUSH1 0x20 DUP2 ADD SWAP1 POP SWAP2 SWAP1 POP JUMP JUMPDEST DUP3 DUP2 DUP4 CALLDATACOPY PUSH0 DUP4 DUP4 ADD MSTORE POP POP POP JUMP JUMPDEST PUSH0 PUSH2 0x1D7 PUSH2 0x1D2 DUP5 PUSH2 0x187 JUMP JUMPDEST PUSH2 0x16D JUMP JUMPDEST SWAP1 POP DUP3 DUP2 MSTORE PUSH1 0x20 DUP2 ADD DUP5 DUP5 DUP5 ADD GT ISZERO PUSH2 0x1F3 JUMPI PUSH2 0x1F2 PUSH2 0xFB JUMP JUMPDEST JUMPDEST PUSH2 0x1FE DUP5 DUP3 DUP6 PUSH2 0x1B7 JUMP JUMPDEST POP SWAP4 SWAP3 POP POP POP JUMP JUMPDEST PUSH0 DUP3 PUSH1 0x1F DUP4 ADD SLT PUSH2 0x21A JUMPI PUSH2 0x219 PUSH2 0xF7 JUMP JUMPDEST JUMPDEST DUP2 CALLDATALOAD PUSH2 0x22A DUP5 DUP3 PUSH1 0x20 DUP7 ADD PUSH2 0x1C5 JUMP JUMPDEST SWAP2 POP POP SWAP3 SWAP2 POP POP JUMP JUMPDEST PUSH0 DUP2 SWAP1 POP SWAP2 SWAP1 POP JUMP JUMPDEST PUSH2 0x245 DUP2 PUSH2 0x233 JUMP JUMPDEST DUP2 EQ PUSH2 0x24F JUMPI PUSH0 DUP1 REVERT JUMPDEST POP JUMP JUMPDEST PUSH0 DUP2 CALLDATALOAD SWAP1 POP PUSH2 0x260 DUP2 PUSH2 0x23C JUMP JUMPDEST SWAP3 SWAP2 POP POP JUMP JUMPDEST PUSH0 DUP1 PUSH1 0x40 DUP4 DUP6 SUB SLT ISZERO PUSH2 0x27C JUMPI PUSH2 0x27B PUSH2 0xEF JUMP JUMPDEST JUMPDEST PUSH0 DUP4 ADD CALLDATALOAD PUSH8 0xFFFFFFFFFFFFFFFF DUP2 GT ISZERO PUSH2 0x299 JUMPI PUSH2 0x298 PUSH2 0xF3 JUMP JUMPDEST JUMPDEST PUSH2 0x2A5 DUP6 DUP3 DUP7 ADD PUSH2 0x206 JUMP JUMPDEST SWAP3 POP POP PUSH1 0x20 PUSH2 0x2B6 DUP6 DUP3 DUP7 ADD PUSH2 0x252 JUMP JUMPDEST SWAP2 POP POP SWAP3 POP SWAP3 SWAP1 POP JUMP JUMPDEST PUSH0 DUP2 MLOAD SWAP1 POP SWAP2 SWAP1 POP JUMP JUMPDEST PUSH0 DUP3 DUP3 MSTORE PUSH1 0x20 DUP3 ADD SWAP1 POP SWAP3 SWAP2 POP POP JUMP JUMPDEST PUSH0 JUMPDEST DUP4 DUP2 LT ISZERO PUSH2 0x2F7 JUMPI DUP1 DUP3 ADD MLOAD DUP2 DUP5 ADD MSTORE PUSH1 0x20 DUP2 ADD SWAP1 POP PUSH2 0x2DC JUMP JUMPDEST PUSH0 DUP5 DUP5 ADD MSTORE POP POP POP POP JUMP JUMPDEST PUSH0 PUSH2 0x30C DUP3 PUSH2 0x2C0 JUMP JUMPDEST PUSH2 0x316 DUP2 DUP6 PUSH2 0x2CA JUMP JUMPDEST SWAP4 POP PUSH2 0x326 DUP2 DUP6 PUSH1 0x20 DUP7 ADD PUSH2 0x2DA JUMP JUMPDEST PUSH2 0x32F DUP2 PUSH2 0xFF JUMP JUMPDEST DUP5 ADD SWAP2 POP POP SWAP3 SWAP2 POP POP JUMP JUMPDEST PUSH0 PUSH1 0x20 DUP3 ADD SWAP1 POP DUP2 DUP2 SUB PUSH0 DUP4 ADD MSTORE PUSH2 0x352 DUP2 DUP5 PUSH2 0x302 JUMP JUMPDEST SWAP1 POP SWAP3 SWAP2 POP POP JUMP JUMPDEST PUSH0 DUP1 REVERT JUMPDEST PUSH0 DUP1 REVERT JUMPDEST PUSH0 DUP1 DUP4 PUSH1 0x1F DUP5 ADD SLT PUSH2 0x377 JUMPI PUSH2 0x376 PUSH2 0xF7 JUMP JUMPDEST JUMPDEST DUP3 CALLDATALOAD SWAP1 POP PUSH8 0xFFFFFFFFFFFFFFFF DUP2 GT ISZERO PUSH2 0x394 JUMPI PUSH2 0x393 PUSH2 0x35A JUMP JUMPDEST JUMPDEST PUSH1 0x20 DUP4 ADD SWAP2 POP DUP4 PUSH1 0x1 DUP3 MUL DUP4 ADD GT ISZERO PUSH2 0x3B0 JUMPI PUSH2 0x3AF PUSH2 0x35E JUMP JUMPDEST JUMPDEST SWAP3 POP SWAP3 SWAP1 POP JUMP JUMPDEST PUSH0 DUP1 PUSH1 0x20 DUP4 DUP6 SUB SLT ISZERO PUSH2 0x3CD JUMPI PUSH2 0x3CC PUSH2 0xEF JUMP JUMPDEST JUMPDEST PUSH0 DUP4 ADD CALLDATALOAD PUSH8 0xFFFFFFFFFFFFFFFF DUP2 GT ISZERO PUSH2 0x3EA JUMPI PUSH2 0x3E9 PUSH2 0xF3 JUMP JUMPDEST JUMPDEST PUSH2 0x3F6 DUP6 DUP3 DUP7 ADD PUSH2 0x362 JUMP JUMPDEST SWAP3 POP SWAP3 POP POP SWAP3 POP SWAP3 SWAP1 POP JUMP JUMPDEST PUSH0 DUP2 MLOAD SWAP1 POP SWAP2 SWAP1 POP JUMP JUMPDEST PUSH0 DUP3 DUP3 MSTORE PUSH1 0x20 DUP3 ADD SWAP1 POP SWAP3 SWAP2 POP POP JUMP JUMPDEST PUSH0 PUSH2 0x426 DUP3 PUSH2 0x402 JUMP JUMPDEST PUSH2 0x430 DUP2 DUP6 PUSH2 0x40C JUMP JUMPDEST SWAP4 POP PUSH2 0x440 DUP2 DUP6 PUSH1 0x20 DUP7 ADD PUSH2 0x2DA JUMP JUMPDEST PUSH2 0x449 DUP2 PUSH2 0xFF JUMP JUMPDEST DUP5 ADD SWAP2 POP POP SWAP3 SWAP2 POP POP JUMP JUMPDEST PUSH2 0x45D DUP2 PUSH2 0x233 JUMP JUMPDEST DUP3 MSTORE POP POP JUMP JUMPDEST PUSH0 PUSH1 0x40 DUP3 ADD SWAP1 POP DUP2 DUP2 SUB PUSH0 DUP4 ADD MSTORE PUSH2 0x47B DUP2 DUP6 PUSH2 0x41C JUMP JUMPDEST SWAP1 POP PUSH2 0x48A PUSH1 0x20 DUP4 ADD DUP5 PUSH2 0x454 JUMP JUMPDEST SWAP4 SWAP3 POP POP POP JUMP INVALID LOG2 PUSH5 0x6970667358 0x22 SLT KECCAK256 0x2D SWAP10 0x29 0xD5 0xE8 DUP6 MSTORE8 CREATE2 0xA9 0xD PUSH31 0xA307D197C3A0E7786793F60E9C35F9FCDBD7439E9464736F6C634300081600 CALLER "
				},
				"gasEstimates": {
					"creation": {
						"codeDepositCost": "244600",
						"executionCost": "285",
						"totalCost": "244885"
					},
					"external": {
						"decode(bytes)": "infinite",
						"encode(string,uint256)": "infinite"
					}
				},
				"methodIdentifiers": {
					"decode(bytes)": "e5c5e9a3",
					"encode(string,uint256)": "3c1c8e49"
				}
			},
			"storageLayout": {
				"storage": [],
				"types": null
			},
			"userdoc": {
				"kind": "user",
				"methods": {},
				"version": 1
			}
		}
	}
}