{
	"data": {
		"bytecode": {
			"linkReferences": {},
			"object": "608060405234801561000f575f80fd5b5061010d8061001d5f395ff3fe6080604052348015600e575f80fd5b50600436106026575f3560e01c8063b0bea72514602a575b5f80fd5b60306032565b005b7fc90ed2a0abbce0ddd0cfd1fd303f15bf1a3860b32002dc1ed37873ea8894883033323060405160639392919060a8565b60405180910390a1565b5f73ffffffffffffffffffffffffffffffffffffffff82169050919050565b5f609482606d565b9050919050565b60a281608c565b82525050565b5f60608201905060b95f830186609b565b60c46020830185609b565b60cf6040830184609b565b94935050505056fea2646970667358221220a6bf383e57f8a6b440f0f6935cb39081f9ba7b60811ca68509a4135c8ce794c164736f6c63430008160033",
			"opcodes": "PUSH1 0x80 PUSH1 0x40 MSTORE CALLVALUE DUP1 ISZERO PUSH2 0xF JUMPI PUSH0 DUP1 REVERT JUMPDEST POP PUSH2 0x10D DUP1 PUSH2 0x1D PUSH0 CODECOPY PUSH0 RETURN INVALID PUSH1 0x80 PUSH1 0x40 MSTORE CALLVALUE DUP1 ISZERO PUSH1 0xE JUMPI PUSH0 DUP1 REVERT JUMPDEST POP PUSH1 0x4 CALLDATASIZE LT PUSH1 0x26 JUMPI PUSH0 CALLDATALOAD PUSH1 0xE0 SHR DUP1 PUSH4 0xB0BEA725 EQ PUSH1 0x2A JUMPI JUMPDEST PUSH0 DUP1 REVERT JUMPDEST PUSH1 0x30 PUSH1 0x32 JUMP JUMPDEST STOP JUMPDEST PUSH32 0xC90ED2A0ABBCE0DDD0CFD1FD303F15BF1A3860B32002DC1ED37873EA88948830 CALLER ORIGIN ADDRESS PUSH1 0x40 MLOAD PUSH1 0x63 SWAP4 SWAP3 SWAP2 SWAP1 PUSH1 0xA8 JUMP JUMPDEST PUSH1 0x40 MLOAD DUP1 SWAP2 SUB SWAP1 LOG1 JUMP JUMPDEST PUSH0 PUSH20 0xFFFFFFFFFFFFFFFFFFFFFFFFFFFFFFFFFFFFFFFF DUP3 AND SWAP1 POP SWAP2 SWAP1 POP JUMP JUMPDEST PUSH0 PUSH1 0x94 DUP3 PUSH1 0x6D JUMP JUMPDEST SWAP1 POP SWAP2 SWAP1 POP JUMP JUMPDEST PUSH1 0xA2 DUP2 PUSH1 0x8C JUMP JUMPDEST DUP3 MSTORE POP POP JUMP JUMPDEST PUSH0 PUSH1 0x60 DUP3 ADD SWAP1 POP PUSH1 0xB9 PUSH0 DUP4 ADD DUP7 PUSH1 0x9B JUMP JUMPDEST PUSH1 0xC4 PUSH1 0x20 DUP4 ADD DUP6 PUSH1 0x9B JUMP JUMPDEST PUSH1 0xCF PUSH1 0x40 DUP4 ADD DUP5 PUSH1 0x9B JUMP JUMPDEST SWAP5 SWAP4 POP POP POP POP JUMP INVALID LOG2 PUSH5 0x6970667358 0x22 SLT KECCAK256 0xA6 0xBF CODESIZE RETURNDATACOPY JUMPI 0xF8 0xA6 0xB4 BLOCKHASH CREATE 0xF6 SWAP4 0x5C 0xB3 SWAP1 DUP2 0xF9 0xBA PUSH28 0x60811CA68509A4135C8CE794C164736F6C6343000816003300000000 "
		},
		"gasEstimates": {
			"creation": {
				"codeDepositCost": "53800",
				"executionCost": "103",
				"totalCost": "53903"
			},
			"external": {
				"callMe()": "infinite"
			}
		},
		"methodIdentifiers": {
			"callMe()": "b0bea725"
		}
	},
	"abi": [
		{
			"anonymous": false,
			"inputs": [
				{
					"indexed": false,
					"internalType": "address",
					"name": "sender",
					"type": "address"
				},
				{
					"indexed": false,
					"internalType": "address",
					"name": "origin",
					"type": "address"
				},
				{
					"indexed": false,
					"internalType": "address",
					"name": "from",
					"type": "address"
				}
			],
			"name": "callEvent",
			"type": "event"
		},
		{
			"inputs": [],
			"name": "callMe",
			"outputs": [],
			"stateMutability": "nonpayable",
			"type": "function"
		}
	]
}