{
	"data": {
		"bytecode": {
			"linkReferences": {},
			"object": "608060405234801561000f575f80fd5b503360405161001d90610084565b61002791906100d0565b604051809103905ff080158015610040573d5f803e3d5ffd5b505f806101000a81548173ffffffffffffffffffffffffffffffffffffffff021916908373ffffffffffffffffffffffffffffffffffffffff1602179055506100e9565b6107848061127283390190565b5f73ffffffffffffffffffffffffffffffffffffffff82169050919050565b5f6100ba82610091565b9050919050565b6100ca816100b0565b82525050565b5f6020820190506100e35f8301846100c1565b92915050565b61117c806100f65f395ff3fe608060405234801562000010575f80fd5b506004361062000044575f3560e01c806377bdab831462000048578063933ac0841462000068578063f02ad1311462000088575b5f80fd5b6200006660048036038101906200006091906200045f565b620000aa565b005b620000866004803603810190620000809190620004c7565b620001fc565b005b62000092620003bc565b604051620000a191906200055e565b60405180910390f35b80604051620000b990620003df565b620000c591906200058a565b604051809103905ff08015620000d85760015b620001c057620000e7620005b1565b806308c379a0036200014b5750620000fe62000646565b806200010b57506200014d565b7fcf34ef537ac33ee1ac626ca1587a0a7e8e51561e5514f8cb36afa1c5102b3bab816040516200013c919062000764565b60405180910390a150620001ba565b505b3d805f811462000179576040519150601f19603f3d011682016040523d82523d5f602084013e6200017e565b606091505b507f532fd6ea96cfb78bb46e09279a26828b8b493de1a2b8b1ee1face527978a15a581604051620001b09190620007e0565b60405180910390a1505b620001f9565b7fcf34ef537ac33ee1ac626ca1587a0a7e8e51561e5514f8cb36afa1c5102b3bab604051620001ef9062000850565b60405180910390a1505b50565b5f8054906101000a900473ffffffffffffffffffffffffffffffffffffffff1673ffffffffffffffffffffffffffffffffffffffff166396712958826040518263ffffffff1660e01b815260040162000256919062000881565b5f60405180830381865afa9250505080156200029657506040513d5f823e3d601f19601f8201168201806040525081019062000293919062000973565b60015b6200037e57620002a5620005b1565b806308c379a003620003095750620002bc62000646565b80620002c957506200030b565b7fcf34ef537ac33ee1ac626ca1587a0a7e8e51561e5514f8cb36afa1c5102b3bab81604051620002fa919062000764565b60405180910390a15062000378565b505b3d805f811462000337576040519150601f19603f3d011682016040523d82523d5f602084013e6200033c565b606091505b507f532fd6ea96cfb78bb46e09279a26828b8b493de1a2b8b1ee1face527978a15a5816040516200036e9190620007e0565b60405180910390a1505b620003b9565b7fcf34ef537ac33ee1ac626ca1587a0a7e8e51561e5514f8cb36afa1c5102b3bab81604051620003af919062000764565b60405180910390a1505b50565b5f8054906101000a900473ffffffffffffffffffffffffffffffffffffffff1681565b61078480620009c383390190565b5f604051905090565b5f80fd5b5f80fd5b5f73ffffffffffffffffffffffffffffffffffffffff82169050919050565b5f6200042982620003fe565b9050919050565b6200043b816200041d565b811462000446575f80fd5b50565b5f81359050620004598162000430565b92915050565b5f60208284031215620004775762000476620003f6565b5b5f620004868482850162000449565b91505092915050565b5f819050919050565b620004a3816200048f565b8114620004ae575f80fd5b50565b5f81359050620004c18162000498565b92915050565b5f60208284031215620004df57620004de620003f6565b5b5f620004ee84828501620004b1565b91505092915050565b5f819050919050565b5f620005206200051a6200051484620003fe565b620004f7565b620003fe565b9050919050565b5f620005338262000500565b9050919050565b5f620005468262000527565b9050919050565b62000558816200053a565b82525050565b5f602082019050620005735f8301846200054d565b92915050565b62000584816200041d565b82525050565b5f6020820190506200059f5f83018462000579565b92915050565b5f8160e01c9050919050565b5f60033d1115620005d05760045f803e620005cd5f51620005a5565b90505b90565b5f601f19601f8301169050919050565b7f4e487b71000000000000000000000000000000000000000000000000000000005f52604160045260245ffd5b6200061b82620005d3565b810181811067ffffffffffffffff821117156200063d576200063c620005e3565b5b80604052505050565b5f60443d10620006dd576200065a620003ed565b60043d036004823e80513d602482011167ffffffffffffffff8211171562000684575050620006dd565b808201805167ffffffffffffffff811115620006a45750505050620006dd565b80602083010160043d038501811115620006c3575050505050620006dd565b620006d48260200185018662000610565b82955050505050505b90565b5f81519050919050565b5f82825260208201905092915050565b5f5b8381101562000719578082015181840152602081019050620006fc565b5f8484015250505050565b5f6200073082620006e0565b6200073c8185620006ea565b93506200074e818560208601620006fa565b6200075981620005d3565b840191505092915050565b5f6020820190508181035f8301526200077e818462000724565b905092915050565b5f81519050919050565b5f82825260208201905092915050565b5f620007ac8262000786565b620007b8818562000790565b9350620007ca818560208601620006fa565b620007d581620005d3565b840191505092915050565b5f6020820190508181035f830152620007fa8184620007a0565b905092915050565b7f6e657720636174636865722069732063726561746564000000000000000000005f82015250565b5f62000838601683620006ea565b9150620008458262000802565b602082019050919050565b5f6020820190508181035f83015262000869816200082a565b9050919050565b6200087b816200048f565b82525050565b5f602082019050620008965f83018462000870565b92915050565b5f80fd5b5f80fd5b5f620008af620003ed565b9050620008bd828262000610565b919050565b5f67ffffffffffffffff821115620008df57620008de620005e3565b5b620008ea82620005d3565b9050602081019050919050565b5f6200090d6200090784620008c2565b620008a4565b9050828152602081018484840111156200092c576200092b620008a0565b5b62000939848285620006fa565b509392505050565b5f82601f8301126200095857620009576200089c565b5b81516200096a848260208601620008f7565b91505092915050565b5f602082840312156200098b576200098a620003f6565b5b5f82015167ffffffffffffffff811115620009ab57620009aa620003fa565b5b620009b98482850162000941565b9150509291505056fe608060405234801561000f575f80fd5b50604051610784380380610784833981810160405281019061003191906101ee565b5f73ffffffffffffffffffffffffffffffffffffffff168173ffffffffffffffffffffffffffffffffffffffff160361009f576040517f08c379a000000000000000000000000000000000000000000000000000000000815260040161009690610273565b60405180910390fd5b600173ffffffffffffffffffffffffffffffffffffffff168173ffffffffffffffffffffffffffffffffffffffff161461010e576040517f08c379a000000000000000000000000000000000000000000000000000000000815260040161010590610301565b60405180910390fd5b600273ffffffffffffffffffffffffffffffffffffffff168173ffffffffffffffffffffffffffffffffffffffff160361014b5761014a61031f565b5b805f806101000a81548173ffffffffffffffffffffffffffffffffffffffff021916908373ffffffffffffffffffffffffffffffffffffffff1602179055505061034c565b5f80fd5b5f73ffffffffffffffffffffffffffffffffffffffff82169050919050565b5f6101bd82610194565b9050919050565b6101cd816101b3565b81146101d7575f80fd5b50565b5f815190506101e8816101c4565b92915050565b5f6020828403121561020357610202610190565b5b5f610210848285016101da565b91505092915050565b5f82825260208201905092915050565b7f6164647265737320697320696e76616c696420776869636820697320300000005f82015250565b5f61025d601d83610219565b915061026882610229565b602082019050919050565b5f6020820190508181035f83015261028a81610251565b9050919050565b7f7265766572743a206164647265737320697320307830303030303030303030305f8201527f3030303030303030303030303030303030303030303030303030303031000000602082015250565b5f6102eb603d83610219565b91506102f682610291565b604082019050919050565b5f6020820190508181035f830152610318816102df565b9050919050565b7f4e487b71000000000000000000000000000000000000000000000000000000005f52600160045260245ffd5b61042b806103595f395ff3fe608060405234801561000f575f80fd5b5060043610610034575f3560e01c80638da5cb5b146100385780639671295814610056575b5f80fd5b610040610086565b60405161004d91906101a0565b60405180910390f35b610070600480360381019061006b91906101f0565b6100a9565b60405161007d91906102a5565b60405180910390f35b5f8054906101000a900473ffffffffffffffffffffffffffffffffffffffff1681565b60605f82036100ed576040517f08c379a00000000000000000000000000000000000000000000000000000000081526004016100e49061030f565b60405180910390fd5b60018203610130576040517f08c379a000000000000000000000000000000000000000000000000000000000815260040161012790610377565b60405180910390fd5b6002820361014157610140610395565b5b6040518060600160405280603381526020016103c3603391399050919050565b5f73ffffffffffffffffffffffffffffffffffffffff82169050919050565b5f61018a82610161565b9050919050565b61019a81610180565b82525050565b5f6020820190506101b35f830184610191565b92915050565b5f80fd5b5f819050919050565b6101cf816101bd565b81146101d9575f80fd5b50565b5f813590506101ea816101c6565b92915050565b5f60208284031215610205576102046101b9565b5b5f610212848285016101dc565b91505092915050565b5f81519050919050565b5f82825260208201905092915050565b5f5b83811015610252578082015181840152602081019050610237565b5f8484015250505050565b5f601f19601f8301169050919050565b5f6102778261021b565b6102818185610225565b9350610291818560208601610235565b61029a8161025d565b840191505092915050565b5f6020820190508181035f8301526102bd818461026d565b905092915050565b7f54686520696e70757420666f72206d7946756e206973203000000000000000005f82015250565b5f6102f9601883610225565b9150610304826102c5565b602082019050919050565b5f6020820190508181035f830152610326816102ed565b9050919050565b7f54686520696e70757420666f72206d7946756e206973203100000000000000005f82015250565b5f610361601883610225565b915061036c8261032d565b602082019050919050565b5f6020820190508181035f83015261038e81610355565b9050919050565b7f4e487b71000000000000000000000000000000000000000000000000000000005f52600160045260245ffdfe54686520696e70757420666f72206d7946756e206973206772656174657220207468616e20312c207468617427732066696e65a26469706673582212206d33d46a0972c62bb7e134c6db8c8632463bed9e26265babeba35c0b06902bb464736f6c63430008160033a264697066735822122073c9442877864fa7b94ebc7aca15f3634fc06ebae6c8c2762e9c8b6be637a53764736f6c63430008160033608060405234801561000f575f80fd5b50604051610784380380610784833981810160405281019061003191906101ee565b5f73ffffffffffffffffffffffffffffffffffffffff168173ffffffffffffffffffffffffffffffffffffffff160361009f576040517f08c379a000000000000000000000000000000000000000000000000000000000815260040161009690610273565b60405180910390fd5b600173ffffffffffffffffffffffffffffffffffffffff168173ffffffffffffffffffffffffffffffffffffffff161461010e576040517f08c379a000000000000000000000000000000000000000000000000000000000815260040161010590610301565b60405180910390fd5b600273ffffffffffffffffffffffffffffffffffffffff168173ffffffffffffffffffffffffffffffffffffffff160361014b5761014a61031f565b5b805f806101000a81548173ffffffffffffffffffffffffffffffffffffffff021916908373ffffffffffffffffffffffffffffffffffffffff1602179055505061034c565b5f80fd5b5f73ffffffffffffffffffffffffffffffffffffffff82169050919050565b5f6101bd82610194565b9050919050565b6101cd816101b3565b81146101d7575f80fd5b50565b5f815190506101e8816101c4565b92915050565b5f6020828403121561020357610202610190565b5b5f610210848285016101da565b91505092915050565b5f82825260208201905092915050565b7f6164647265737320697320696e76616c696420776869636820697320300000005f82015250565b5f61025d601d83610219565b915061026882610229565b602082019050919050565b5f6020820190508181035f83015261028a81610251565b9050919050565b7f7265766572743a206164647265737320697320307830303030303030303030305f8201527f3030303030303030303030303030303030303030303030303030303031000000602082015250565b5f6102eb603d83610219565b91506102f682610291565b604082019050919050565b5f6020820190508181035f830152610318816102df565b9050919050565b7f4e487b71000000000000000000000000000000000000000000000000000000005f52600160045260245ffd5b61042b806103595f395ff3fe608060405234801561000f575f80fd5b5060043610610034575f3560e01c80638da5cb5b146100385780639671295814610056575b5f80fd5b610040610086565b60405161004d91906101a0565b60405180910390f35b610070600480360381019061006b91906101f0565b6100a9565b60405161007d91906102a5565b60405180910390f35b5f8054906101000a900473ffffffffffffffffffffffffffffffffffffffff1681565b60605f82036100ed576040517f08c379a00000000000000000000000000000000000000000000000000000000081526004016100e49061030f565b60405180910390fd5b60018203610130576040517f08c379a000000000000000000000000000000000000000000000000000000000815260040161012790610377565b60405180910390fd5b6002820361014157610140610395565b5b6040518060600160405280603381526020016103c3603391399050919050565b5f73ffffffffffffffffffffffffffffffffffffffff82169050919050565b5f61018a82610161565b9050919050565b61019a81610180565b82525050565b5f6020820190506101b35f830184610191565b92915050565b5f80fd5b5f819050919050565b6101cf816101bd565b81146101d9575f80fd5b50565b5f813590506101ea816101c6565b92915050565b5f60208284031215610205576102046101b9565b5b5f610212848285016101dc565b91505092915050565b5f81519050919050565b5f82825260208201905092915050565b5f5b83811015610252578082015181840152602081019050610237565b5f8484015250505050565b5f601f19601f8301169050919050565b5f6102778261021b565b6102818185610225565b9350610291818560208601610235565b61029a8161025d565b840191505092915050565b5f6020820190508181035f8301526102bd818461026d565b905092915050565b7f54686520696e70757420666f72206d7946756e206973203000000000000000005f82015250565b5f6102f9601883610225565b9150610304826102c5565b602082019050919050565b5f6020820190508181035f830152610326816102ed565b9050919050565b7f54686520696e70757420666f72206d7946756e206973203100000000000000005f82015250565b5f610361601883610225565b915061036c8261032d565b602082019050919050565b5f6020820190508181035f83015261038e81610355565b9050919050565b7f4e487b71000000000000000000000000000000000000000000000000000000005f52600160045260245ffdfe54686520696e70757420666f72206d7946756e206973206772656174657220207468616e20312c207468617427732066696e65a26469706673582212206d33d46a0972c62bb7e134c6db8c8632463bed9e26265babeba35c0b06902bb464736f6c63430008160033",
			"opcodes": "PUSH1 0x80 PUSH1 0x40 MSTORE CALLVALUE DUP1 ISZERO PUSH2 0xF JUMPI PUSH0 DUP1 REVERT JUMPDEST POP CALLER PUSH1 0x40 MLOAD PUSH2 0x1D SWAP1 PUSH2 0x84 JUMP JUMPDEST PUSH2 0x27 SWAP2 SWAP1 PUSH2 0xD0 JUMP JUMPDEST PUSH1 0x40 MLOAD DUP1 SWAP2 SUB SWAP1 PUSH0 CREATE DUP1 ISZERO DUP1 ISZERO PUSH2 0x40 JUMPI RETURNDATASIZE PUSH0 DUP1 RETURNDATACOPY RETURNDATASIZE PUSH0 REVERT JUMPDEST POP PUSH0 DUP1 PUSH2 0x100 EXP DUP2 SLOAD DUP2 PUSH20 0xFFFFFFFFFFFFFFFFFFFFFFFFFFFFFFFFFFFFFFFF MUL NOT AND SWAP1 DUP4 PUSH20 0xFFFFFFFFFFFFFFFFFFFFFFFFFFFFFFFFFFFFFFFF AND MUL OR SWAP1 SSTORE POP PUSH2 0xE9 JUMP JUMPDEST PUSH2 0x784 DUP1 PUSH2 0x1272 DUP4 CODECOPY ADD SWAP1 JUMP JUMPDEST PUSH0 PUSH20 0xFFFFFFFFFFFFFFFFFFFFFFFFFFFFFFFFFFFFFFFF DUP3 AND SWAP1 POP SWAP2 SWAP1 POP JUMP JUMPDEST PUSH0 PUSH2 0xBA DUP3 PUSH2 0x91 JUMP JUMPDEST SWAP1 POP SWAP2 SWAP1 POP JUMP JUMPDEST PUSH2 0xCA DUP2 PUSH2 0xB0 JUMP JUMPDEST DUP3 MSTORE POP POP JUMP JUMPDEST PUSH0 PUSH1 0x20 DUP3 ADD SWAP1 POP PUSH2 0xE3 PUSH0 DUP4 ADD DUP5 PUSH2 0xC1 JUMP JUMPDEST SWAP3 SWAP2 POP POP JUMP JUMPDEST PUSH2 0x117C DUP1 PUSH2 0xF6 PUSH0 CODECOPY PUSH0 RETURN INVALID PUSH1 0x80 PUSH1 0x40 MSTORE CALLVALUE DUP1 ISZERO PUSH3 0x10 JUMPI PUSH0 DUP1 REVERT JUMPDEST POP PUSH1 0x4 CALLDATASIZE LT PUSH3 0x44 JUMPI PUSH0 CALLDATALOAD PUSH1 0xE0 SHR DUP1 PUSH4 0x77BDAB83 EQ PUSH3 0x48 JUMPI DUP1 PUSH4 0x933AC084 EQ PUSH3 0x68 JUMPI DUP1 PUSH4 0xF02AD131 EQ PUSH3 0x88 JUMPI JUMPDEST PUSH0 DUP1 REVERT JUMPDEST PUSH3 0x66 PUSH1 0x4 DUP1 CALLDATASIZE SUB DUP2 ADD SWAP1 PUSH3 0x60 SWAP2 SWAP1 PUSH3 0x45F JUMP JUMPDEST PUSH3 0xAA JUMP JUMPDEST STOP JUMPDEST PUSH3 0x86 PUSH1 0x4 DUP1 CALLDATASIZE SUB DUP2 ADD SWAP1 PUSH3 0x80 SWAP2 SWAP1 PUSH3 0x4C7 JUMP JUMPDEST PUSH3 0x1FC JUMP JUMPDEST STOP JUMPDEST PUSH3 0x92 PUSH3 0x3BC JUMP JUMPDEST PUSH1 0x40 MLOAD PUSH3 0xA1 SWAP2 SWAP1 PUSH3 0x55E JUMP JUMPDEST PUSH1 0x40 MLOAD DUP1 SWAP2 SUB SWAP1 RETURN JUMPDEST DUP1 PUSH1 0x40 MLOAD PUSH3 0xB9 SWAP1 PUSH3 0x3DF JUMP JUMPDEST PUSH3 0xC5 SWAP2 SWAP1 PUSH3 0x58A JUMP JUMPDEST PUSH1 0x40 MLOAD DUP1 SWAP2 SUB SWAP1 PUSH0 CREATE DUP1 ISZERO PUSH3 0xD8 JUMPI PUSH1 0x1 JUMPDEST PUSH3 0x1C0 JUMPI PUSH3 0xE7 PUSH3 0x5B1 JUMP JUMPDEST DUP1 PUSH4 0x8C379A0 SUB PUSH3 0x14B JUMPI POP PUSH3 0xFE PUSH3 0x646 JUMP JUMPDEST DUP1 PUSH3 0x10B JUMPI POP PUSH3 0x14D JUMP JUMPDEST PUSH32 0xCF34EF537AC33EE1AC626CA1587A0A7E8E51561E5514F8CB36AFA1C5102B3BAB DUP2 PUSH1 0x40 MLOAD PUSH3 0x13C SWAP2 SWAP1 PUSH3 0x764 JUMP JUMPDEST PUSH1 0x40 MLOAD DUP1 SWAP2 SUB SWAP1 LOG1 POP PUSH3 0x1BA JUMP JUMPDEST POP JUMPDEST RETURNDATASIZE DUP1 PUSH0 DUP2 EQ PUSH3 0x179 JUMPI PUSH1 0x40 MLOAD SWAP2 POP PUSH1 0x1F NOT PUSH1 0x3F RETURNDATASIZE ADD AND DUP3 ADD PUSH1 0x40 MSTORE RETURNDATASIZE DUP3 MSTORE RETURNDATASIZE PUSH0 PUSH1 0x20 DUP5 ADD RETURNDATACOPY PUSH3 0x17E JUMP JUMPDEST PUSH1 0x60 SWAP2 POP JUMPDEST POP PUSH32 0x532FD6EA96CFB78BB46E09279A26828B8B493DE1A2B8B1EE1FACE527978A15A5 DUP2 PUSH1 0x40 MLOAD PUSH3 0x1B0 SWAP2 SWAP1 PUSH3 0x7E0 JUMP JUMPDEST PUSH1 0x40 MLOAD DUP1 SWAP2 SUB SWAP1 LOG1 POP JUMPDEST PUSH3 0x1F9 JUMP JUMPDEST PUSH32 0xCF34EF537AC33EE1AC626CA1587A0A7E8E51561E5514F8CB36AFA1C5102B3BAB PUSH1 0x40 MLOAD PUSH3 0x1EF SWAP1 PUSH3 0x850 JUMP JUMPDEST PUSH1 0x40 MLOAD DUP1 SWAP2 SUB SWAP1 LOG1 POP JUMPDEST POP JUMP JUMPDEST PUSH0 DUP1 SLOAD SWAP1 PUSH2 0x100 EXP SWAP1 DIV PUSH20 0xFFFFFFFFFFFFFFFFFFFFFFFFFFFFFFFFFFFFFFFF AND PUSH20 0xFFFFFFFFFFFFFFFFFFFFFFFFFFFFFFFFFFFFFFFF AND PUSH4 0x96712958 DUP3 PUSH1 0x40 MLOAD DUP3 PUSH4 0xFFFFFFFF AND PUSH1 0xE0 SHL DUP2 MSTORE PUSH1 0x4 ADD PUSH3 0x256 SWAP2 SWAP1 PUSH3 0x881 JUMP JUMPDEST PUSH0 PUSH1 0x40 MLOAD DUP1 DUP4 SUB DUP2 DUP7 GAS STATICCALL SWAP3 POP POP POP DUP1 ISZERO PUSH3 0x296 JUMPI POP PUSH1 0x40 MLOAD RETURNDATASIZE PUSH0 DUP3 RETURNDATACOPY RETURNDATASIZE PUSH1 0x1F NOT PUSH1 0x1F DUP3 ADD AND DUP3 ADD DUP1 PUSH1 0x40 MSTORE POP DUP2 ADD SWAP1 PUSH3 0x293 SWAP2 SWAP1 PUSH3 0x973 JUMP JUMPDEST PUSH1 0x1 JUMPDEST PUSH3 0x37E JUMPI PUSH3 0x2A5 PUSH3 0x5B1 JUMP JUMPDEST DUP1 PUSH4 0x8C379A0 SUB PUSH3 0x309 JUMPI POP PUSH3 0x2BC PUSH3 0x646 JUMP JUMPDEST DUP1 PUSH3 0x2C9 JUMPI POP PUSH3 0x30B JUMP JUMPDEST PUSH32 0xCF34EF537AC33EE1AC626CA1587A0A7E8E51561E5514F8CB36AFA1C5102B3BAB DUP2 PUSH1 0x40 MLOAD PUSH3 0x2FA SWAP2 SWAP1 PUSH3 0x764 JUMP JUMPDEST PUSH1 0x40 MLOAD DUP1 SWAP2 SUB SWAP1 LOG1 POP PUSH3 0x378 JUMP JUMPDEST POP JUMPDEST RETURNDATASIZE DUP1 PUSH0 DUP2 EQ PUSH3 0x337 JUMPI PUSH1 0x40 MLOAD SWAP2 POP PUSH1 0x1F NOT PUSH1 0x3F RETURNDATASIZE ADD AND DUP3 ADD PUSH1 0x40 MSTORE RETURNDATASIZE DUP3 MSTORE RETURNDATASIZE PUSH0 PUSH1 0x20 DUP5 ADD RETURNDATACOPY PUSH3 0x33C JUMP JUMPDEST PUSH1 0x60 SWAP2 POP JUMPDEST POP PUSH32 0x532FD6EA96CFB78BB46E09279A26828B8B493DE1A2B8B1EE1FACE527978A15A5 DUP2 PUSH1 0x40 MLOAD PUSH3 0x36E SWAP2 SWAP1 PUSH3 0x7E0 JUMP JUMPDEST PUSH1 0x40 MLOAD DUP1 SWAP2 SUB SWAP1 LOG1 POP JUMPDEST PUSH3 0x3B9 JUMP JUMPDEST PUSH32 0xCF34EF537AC33EE1AC626CA1587A0A7E8E51561E5514F8CB36AFA1C5102B3BAB DUP2 PUSH1 0x40 MLOAD PUSH3 0x3AF SWAP2 SWAP1 PUSH3 0x764 JUMP JUMPDEST PUSH1 0x40 MLOAD DUP1 SWAP2 SUB SWAP1 LOG1 POP JUMPDEST POP JUMP JUMPDEST PUSH0 DUP1 SLOAD SWAP1 PUSH2 0x100 EXP SWAP1 DIV PUSH20 0xFFFFFFFFFFFFFFFFFFFFFFFFFFFFFFFFFFFFFFFF AND DUP2 JUMP JUMPDEST PUSH2 0x784 DUP1 PUSH3 0x9C3 DUP4 CODECOPY ADD SWAP1 JUMP JUMPDEST PUSH0 PUSH1 0x40 MLOAD SWAP1 POP SWAP1 JUMP JUMPDEST PUSH0 DUP1 REVERT JUMPDEST PUSH0 DUP1 REVERT JUMPDEST PUSH0 PUSH20 0xFFFFFFFFFFFFFFFFFFFFFFFFFFFFFFFFFFFFFFFF DUP3 AND SWAP1 POP SWAP2 SWAP1 POP JUMP JUMPDEST PUSH0 PUSH3 0x429 DUP3 PUSH3 0x3FE JUMP JUMPDEST SWAP1 POP SWAP2 SWAP1 POP JUMP JUMPDEST PUSH3 0x43B DUP2 PUSH3 0x41D JUMP JUMPDEST DUP2 EQ PUSH3 0x446 JUMPI PUSH0 DUP1 REVERT JUMPDEST POP JUMP JUMPDEST PUSH0 DUP2 CALLDATALOAD SWAP1 POP PUSH3 0x459 DUP2 PUSH3 0x430 JUMP JUMPDEST SWAP3 SWAP2 POP POP JUMP JUMPDEST PUSH0 PUSH1 0x20 DUP3 DUP5 SUB SLT ISZERO PUSH3 0x477 JUMPI PUSH3 0x476 PUSH3 0x3F6 JUMP JUMPDEST JUMPDEST PUSH0 PUSH3 0x486 DUP5 DUP3 DUP6 ADD PUSH3 0x449 JUMP JUMPDEST SWAP2 POP POP SWAP3 SWAP2 POP POP JUMP JUMPDEST PUSH0 DUP2 SWAP1 POP SWAP2 SWAP1 POP JUMP JUMPDEST PUSH3 0x4A3 DUP2 PUSH3 0x48F JUMP JUMPDEST DUP2 EQ PUSH3 0x4AE JUMPI PUSH0 DUP1 REVERT JUMPDEST POP JUMP JUMPDEST PUSH0 DUP2 CALLDATALOAD SWAP1 POP PUSH3 0x4C1 DUP2 PUSH3 0x498 JUMP JUMPDEST SWAP3 SWAP2 POP POP JUMP JUMPDEST PUSH0 PUSH1 0x20 DUP3 DUP5 SUB SLT ISZERO PUSH3 0x4DF JUMPI PUSH3 0x4DE PUSH3 0x3F6 JUMP JUMPDEST JUMPDEST PUSH0 PUSH3 0x4EE DUP5 DUP3 DUP6 ADD PUSH3 0x4B1 JUMP JUMPDEST SWAP2 POP POP SWAP3 SWAP2 POP POP JUMP JUMPDEST PUSH0 DUP2 SWAP1 POP SWAP2 SWAP1 POP JUMP JUMPDEST PUSH0 PUSH3 0x520 PUSH3 0x51A PUSH3 0x514 DUP5 PUSH3 0x3FE JUMP JUMPDEST PUSH3 0x4F7 JUMP JUMPDEST PUSH3 0x3FE JUMP JUMPDEST SWAP1 POP SWAP2 SWAP1 POP JUMP JUMPDEST PUSH0 PUSH3 0x533 DUP3 PUSH3 0x500 JUMP JUMPDEST SWAP1 POP SWAP2 SWAP1 POP JUMP JUMPDEST PUSH0 PUSH3 0x546 DUP3 PUSH3 0x527 JUMP JUMPDEST SWAP1 POP SWAP2 SWAP1 POP JUMP JUMPDEST PUSH3 0x558 DUP2 PUSH3 0x53A JUMP JUMPDEST DUP3 MSTORE POP POP JUMP JUMPDEST PUSH0 PUSH1 0x20 DUP3 ADD SWAP1 POP PUSH3 0x573 PUSH0 DUP4 ADD DUP5 PUSH3 0x54D JUMP JUMPDEST SWAP3 SWAP2 POP POP JUMP JUMPDEST PUSH3 0x584 DUP2 PUSH3 0x41D JUMP JUMPDEST DUP3 MSTORE POP POP JUMP JUMPDEST PUSH0 PUSH1 0x20 DUP3 ADD SWAP1 POP PUSH3 0x59F PUSH0 DUP4 ADD DUP5 PUSH3 0x579 JUMP JUMPDEST SWAP3 SWAP2 POP POP JUMP JUMPDEST PUSH0 DUP2 PUSH1 0xE0 SHR SWAP1 POP SWAP2 SWAP1 POP JUMP JUMPDEST PUSH0 PUSH1 0x3 RETURNDATASIZE GT ISZERO PUSH3 0x5D0 JUMPI PUSH1 0x4 PUSH0 DUP1 RETURNDATACOPY PUSH3 0x5CD PUSH0 MLOAD PUSH3 0x5A5 JUMP JUMPDEST SWAP1 POP JUMPDEST SWAP1 JUMP JUMPDEST PUSH0 PUSH1 0x1F NOT PUSH1 0x1F DUP4 ADD AND SWAP1 POP SWAP2 SWAP1 POP JUMP JUMPDEST PUSH32 0x4E487B7100000000000000000000000000000000000000000000000000000000 PUSH0 MSTORE PUSH1 0x41 PUSH1 0x4 MSTORE PUSH1 0x24 PUSH0 REVERT JUMPDEST PUSH3 0x61B DUP3 PUSH3 0x5D3 JUMP JUMPDEST DUP2 ADD DUP2 DUP2 LT PUSH8 0xFFFFFFFFFFFFFFFF DUP3 GT OR ISZERO PUSH3 0x63D JUMPI PUSH3 0x63C PUSH3 0x5E3 JUMP JUMPDEST JUMPDEST DUP1 PUSH1 0x40 MSTORE POP POP POP JUMP JUMPDEST PUSH0 PUSH1 0x44 RETURNDATASIZE LT PUSH3 0x6DD JUMPI PUSH3 0x65A PUSH3 0x3ED JUMP JUMPDEST PUSH1 0x4 RETURNDATASIZE SUB PUSH1 0x4 DUP3 RETURNDATACOPY DUP1 MLOAD RETURNDATASIZE PUSH1 0x24 DUP3 ADD GT PUSH8 0xFFFFFFFFFFFFFFFF DUP3 GT OR ISZERO PUSH3 0x684 JUMPI POP POP PUSH3 0x6DD JUMP JUMPDEST DUP1 DUP3 ADD DUP1 MLOAD PUSH8 0xFFFFFFFFFFFFFFFF DUP2 GT ISZERO PUSH3 0x6A4 JUMPI POP POP POP POP PUSH3 0x6DD JUMP JUMPDEST DUP1 PUSH1 0x20 DUP4 ADD ADD PUSH1 0x4 RETURNDATASIZE SUB DUP6 ADD DUP2 GT ISZERO PUSH3 0x6C3 JUMPI POP POP POP POP POP PUSH3 0x6DD JUMP JUMPDEST PUSH3 0x6D4 DUP3 PUSH1 0x20 ADD DUP6 ADD DUP7 PUSH3 0x610 JUMP JUMPDEST DUP3 SWAP6 POP POP POP POP POP POP JUMPDEST SWAP1 JUMP JUMPDEST PUSH0 DUP2 MLOAD SWAP1 POP SWAP2 SWAP1 POP JUMP JUMPDEST PUSH0 DUP3 DUP3 MSTORE PUSH1 0x20 DUP3 ADD SWAP1 POP SWAP3 SWAP2 POP POP JUMP JUMPDEST PUSH0 JUMPDEST DUP4 DUP2 LT ISZERO PUSH3 0x719 JUMPI DUP1 DUP3 ADD MLOAD DUP2 DUP5 ADD MSTORE PUSH1 0x20 DUP2 ADD SWAP1 POP PUSH3 0x6FC JUMP JUMPDEST PUSH0 DUP5 DUP5 ADD MSTORE POP POP POP POP JUMP JUMPDEST PUSH0 PUSH3 0x730 DUP3 PUSH3 0x6E0 JUMP JUMPDEST PUSH3 0x73C DUP2 DUP6 PUSH3 0x6EA JUMP JUMPDEST SWAP4 POP PUSH3 0x74E DUP2 DUP6 PUSH1 0x20 DUP7 ADD PUSH3 0x6FA JUMP JUMPDEST PUSH3 0x759 DUP2 PUSH3 0x5D3 JUMP JUMPDEST DUP5 ADD SWAP2 POP POP SWAP3 SWAP2 POP POP JUMP JUMPDEST PUSH0 PUSH1 0x20 DUP3 ADD SWAP1 POP DUP2 DUP2 SUB PUSH0 DUP4 ADD MSTORE PUSH3 0x77E DUP2 DUP5 PUSH3 0x724 JUMP JUMPDEST SWAP1 POP SWAP3 SWAP2 POP POP JUMP JUMPDEST PUSH0 DUP2 MLOAD SWAP1 POP SWAP2 SWAP1 POP JUMP JUMPDEST PUSH0 DUP3 DUP3 MSTORE PUSH1 0x20 DUP3 ADD SWAP1 POP SWAP3 SWAP2 POP POP JUMP JUMPDEST PUSH0 PUSH3 0x7AC DUP3 PUSH3 0x786 JUMP JUMPDEST PUSH3 0x7B8 DUP2 DUP6 PUSH3 0x790 JUMP JUMPDEST SWAP4 POP PUSH3 0x7CA DUP2 DUP6 PUSH1 0x20 DUP7 ADD PUSH3 0x6FA JUMP JUMPDEST PUSH3 0x7D5 DUP2 PUSH3 0x5D3 JUMP JUMPDEST DUP5 ADD SWAP2 POP POP SWAP3 SWAP2 POP POP JUMP JUMPDEST PUSH0 PUSH1 0x20 DUP3 ADD SWAP1 POP DUP2 DUP2 SUB PUSH0 DUP4 ADD MSTORE PUSH3 0x7FA DUP2 DUP5 PUSH3 0x7A0 JUMP JUMPDEST SWAP1 POP SWAP3 SWAP2 POP POP JUMP JUMPDEST PUSH32 0x6E65772063617463686572206973206372656174656400000000000000000000 PUSH0 DUP3 ADD MSTORE POP JUMP JUMPDEST PUSH0 PUSH3 0x838 PUSH1 0x16 DUP4 PUSH3 0x6EA JUMP JUMPDEST SWAP2 POP PUSH3 0x845 DUP3 PUSH3 0x802 JUMP JUMPDEST PUSH1 0x20 DUP3 ADD SWAP1 POP SWAP2 SWAP1 POP JUMP JUMPDEST PUSH0 PUSH1 0x20 DUP3 ADD SWAP1 POP DUP2 DUP2 SUB PUSH0 DUP4 ADD MSTORE PUSH3 0x869 DUP2 PUSH3 0x82A JUMP JUMPDEST SWAP1 POP SWAP2 SWAP1 POP JUMP JUMPDEST PUSH3 0x87B DUP2 PUSH3 0x48F JUMP JUMPDEST DUP3 MSTORE POP POP JUMP JUMPDEST PUSH0 PUSH1 0x20 DUP3 ADD SWAP1 POP PUSH3 0x896 PUSH0 DUP4 ADD DUP5 PUSH3 0x870 JUMP JUMPDEST SWAP3 SWAP2 POP POP JUMP JUMPDEST PUSH0 DUP1 REVERT JUMPDEST PUSH0 DUP1 REVERT JUMPDEST PUSH0 PUSH3 0x8AF PUSH3 0x3ED JUMP JUMPDEST SWAP1 POP PUSH3 0x8BD DUP3 DUP3 PUSH3 0x610 JUMP JUMPDEST SWAP2 SWAP1 POP JUMP JUMPDEST PUSH0 PUSH8 0xFFFFFFFFFFFFFFFF DUP3 GT ISZERO PUSH3 0x8DF JUMPI PUSH3 0x8DE PUSH3 0x5E3 JUMP JUMPDEST JUMPDEST PUSH3 0x8EA DUP3 PUSH3 0x5D3 JUMP JUMPDEST SWAP1 POP PUSH1 0x20 DUP2 ADD SWAP1 POP SWAP2 SWAP1 POP JUMP JUMPDEST PUSH0 PUSH3 0x90D PUSH3 0x907 DUP5 PUSH3 0x8C2 JUMP JUMPDEST PUSH3 0x8A4 JUMP JUMPDEST SWAP1 POP DUP3 DUP2 MSTORE PUSH1 0x20 DUP2 ADD DUP5 DUP5 DUP5 ADD GT ISZERO PUSH3 0x92C JUMPI PUSH3 0x92B PUSH3 0x8A0 JUMP JUMPDEST JUMPDEST PUSH3 0x939 DUP5 DUP3 DUP6 PUSH3 0x6FA JUMP JUMPDEST POP SWAP4 SWAP3 POP POP POP JUMP JUMPDEST PUSH0 DUP3 PUSH1 0x1F DUP4 ADD SLT PUSH3 0x958 JUMPI PUSH3 0x957 PUSH3 0x89C JUMP JUMPDEST JUMPDEST DUP2 MLOAD PUSH3 0x96A DUP5 DUP3 PUSH1 0x20 DUP7 ADD PUSH3 0x8F7 JUMP JUMPDEST SWAP2 POP POP SWAP3 SWAP2 POP POP JUMP JUMPDEST PUSH0 PUSH1 0x20 DUP3 DUP5 SUB SLT ISZERO PUSH3 0x98B JUMPI PUSH3 0x98A PUSH3 0x3F6 JUMP JUMPDEST JUMPDEST PUSH0 DUP3 ADD MLOAD PUSH8 0xFFFFFFFFFFFFFFFF DUP2 GT ISZERO PUSH3 0x9AB JUMPI PUSH3 0x9AA PUSH3 0x3FA JUMP JUMPDEST JUMPDEST PUSH3 0x9B9 DUP5 DUP3 DUP6 ADD PUSH3 0x941 JUMP JUMPDEST SWAP2 POP POP SWAP3 SWAP2 POP POP JUMP INVALID PUSH1 0x80 PUSH1 0x40 MSTORE CALLVALUE DUP1 ISZERO PUSH2 0xF JUMPI PUSH0 DUP1 REVERT JUMPDEST POP PUSH1 0x40 MLOAD PUSH2 0x784 CODESIZE SUB DUP1 PUSH2 0x784 DUP4 CODECOPY DUP2 DUP2 ADD PUSH1 0x40 MSTORE DUP2 ADD SWAP1 PUSH2 0x31 SWAP2 SWAP1 PUSH2 0x1EE JUMP JUMPDEST PUSH0 PUSH20 0xFFFFFFFFFFFFFFFFFFFFFFFFFFFFFFFFFFFFFFFF AND DUP2 PUSH20 0xFFFFFFFFFFFFFFFFFFFFFFFFFFFFFFFFFFFFFFFF AND SUB PUSH2 0x9F JUMPI PUSH1 0x40 MLOAD PUSH32 0x8C379A000000000000000000000000000000000000000000000000000000000 DUP2 MSTORE PUSH1 0x4 ADD PUSH2 0x96 SWAP1 PUSH2 0x273 JUMP JUMPDEST PUSH1 0x40 MLOAD DUP1 SWAP2 SUB SWAP1 REVERT JUMPDEST PUSH1 0x1 PUSH20 0xFFFFFFFFFFFFFFFFFFFFFFFFFFFFFFFFFFFFFFFF AND DUP2 PUSH20 0xFFFFFFFFFFFFFFFFFFFFFFFFFFFFFFFFFFFFFFFF AND EQ PUSH2 0x10E JUMPI PUSH1 0x40 MLOAD PUSH32 0x8C379A000000000000000000000000000000000000000000000000000000000 DUP2 MSTORE PUSH1 0x4 ADD PUSH2 0x105 SWAP1 PUSH2 0x301 JUMP JUMPDEST PUSH1 0x40 MLOAD DUP1 SWAP2 SUB SWAP1 REVERT JUMPDEST PUSH1 0x2 PUSH20 0xFFFFFFFFFFFFFFFFFFFFFFFFFFFFFFFFFFFFFFFF AND DUP2 PUSH20 0xFFFFFFFFFFFFFFFFFFFFFFFFFFFFFFFFFFFFFFFF AND SUB PUSH2 0x14B JUMPI PUSH2 0x14A PUSH2 0x31F JUMP JUMPDEST JUMPDEST DUP1 PUSH0 DUP1 PUSH2 0x100 EXP DUP2 SLOAD DUP2 PUSH20 0xFFFFFFFFFFFFFFFFFFFFFFFFFFFFFFFFFFFFFFFF MUL NOT AND SWAP1 DUP4 PUSH20 0xFFFFFFFFFFFFFFFFFFFFFFFFFFFFFFFFFFFFFFFF AND MUL OR SWAP1 SSTORE POP POP PUSH2 0x34C JUMP JUMPDEST PUSH0 DUP1 REVERT JUMPDEST PUSH0 PUSH20 0xFFFFFFFFFFFFFFFFFFFFFFFFFFFFFFFFFFFFFFFF DUP3 AND SWAP1 POP SWAP2 SWAP1 POP JUMP JUMPDEST PUSH0 PUSH2 0x1BD DUP3 PUSH2 0x194 JUMP JUMPDEST SWAP1 POP SWAP2 SWAP1 POP JUMP JUMPDEST PUSH2 0x1CD DUP2 PUSH2 0x1B3 JUMP JUMPDEST DUP2 EQ PUSH2 0x1D7 JUMPI PUSH0 DUP1 REVERT JUMPDEST POP JUMP JUMPDEST PUSH0 DUP2 MLOAD SWAP1 POP PUSH2 0x1E8 DUP2 PUSH2 0x1C4 JUMP JUMPDEST SWAP3 SWAP2 POP POP JUMP JUMPDEST PUSH0 PUSH1 0x20 DUP3 DUP5 SUB SLT ISZERO PUSH2 0x203 JUMPI PUSH2 0x202 PUSH2 0x190 JUMP JUMPDEST JUMPDEST PUSH0 PUSH2 0x210 DUP5 DUP3 DUP6 ADD PUSH2 0x1DA JUMP JUMPDEST SWAP2 POP POP SWAP3 SWAP2 POP POP JUMP JUMPDEST PUSH0 DUP3 DUP3 MSTORE PUSH1 0x20 DUP3 ADD SWAP1 POP SWAP3 SWAP2 POP POP JUMP JUMPDEST PUSH32 0x6164647265737320697320696E76616C69642077686963682069732030000000 PUSH0 DUP3 ADD MSTORE POP JUMP JUMPDEST PUSH0 PUSH2 0x25D PUSH1 0x1D DUP4 PUSH2 0x219 JUMP JUMPDEST SWAP2 POP PUSH2 0x268 DUP3 PUSH2 0x229 JUMP JUMPDEST PUSH1 0x20 DUP3 ADD SWAP1 POP SWAP2 SWAP1 POP JUMP JUMPDEST PUSH0 PUSH1 0x20 DUP3 ADD SWAP1 POP DUP2 DUP2 SUB PUSH0 DUP4 ADD MSTORE PUSH2 0x28A DUP2 PUSH2 0x251 JUMP JUMPDEST SWAP1 POP SWAP2 SWAP1 POP JUMP JUMPDEST PUSH32 0x7265766572743A20616464726573732069732030783030303030303030303030 PUSH0 DUP3 ADD MSTORE PUSH32 0x3030303030303030303030303030303030303030303030303030303031000000 PUSH1 0x20 DUP3 ADD MSTORE POP JUMP JUMPDEST PUSH0 PUSH2 0x2EB PUSH1 0x3D DUP4 PUSH2 0x219 JUMP JUMPDEST SWAP2 POP PUSH2 0x2F6 DUP3 PUSH2 0x291 JUMP JUMPDEST PUSH1 0x40 DUP3 ADD SWAP1 POP SWAP2 SWAP1 POP JUMP JUMPDEST PUSH0 PUSH1 0x20 DUP3 ADD SWAP1 POP DUP2 DUP2 SUB PUSH0 DUP4 ADD MSTORE PUSH2 0x318 DUP2 PUSH2 0x2DF JUMP JUMPDEST SWAP1 POP SWAP2 SWAP1 POP JUMP JUMPDEST PUSH32 0x4E487B7100000000000000000000000000000000000000000000000000000000 PUSH0 MSTORE PUSH1 0x1 PUSH1 0x4 MSTORE PUSH1 0x24 PUSH0 REVERT JUMPDEST PUSH2 0x42B DUP1 PUSH2 0x359 PUSH0 CODECOPY PUSH0 RETURN INVALID PUSH1 0x80 PUSH1 0x40 MSTORE CALLVALUE DUP1 ISZERO PUSH2 0xF JUMPI PUSH0 DUP1 REVERT JUMPDEST POP PUSH1 0x4 CALLDATASIZE LT PUSH2 0x34 JUMPI PUSH0 CALLDATALOAD PUSH1 0xE0 SHR DUP1 PUSH4 0x8DA5CB5B EQ PUSH2 0x38 JUMPI DUP1 PUSH4 0x96712958 EQ PUSH2 0x56 JUMPI JUMPDEST PUSH0 DUP1 REVERT JUMPDEST PUSH2 0x40 PUSH2 0x86 JUMP JUMPDEST PUSH1 0x40 MLOAD PUSH2 0x4D SWAP2 SWAP1 PUSH2 0x1A0 JUMP JUMPDEST PUSH1 0x40 MLOAD DUP1 SWAP2 SUB SWAP1 RETURN JUMPDEST PUSH2 0x70 PUSH1 0x4 DUP1 CALLDATASIZE SUB DUP2 ADD SWAP1 PUSH2 0x6B SWAP2 SWAP1 PUSH2 0x1F0 JUMP JUMPDEST PUSH2 0xA9 JUMP JUMPDEST PUSH1 0x40 MLOAD PUSH2 0x7D SWAP2 SWAP1 PUSH2 0x2A5 JUMP JUMPDEST PUSH1 0x40 MLOAD DUP1 SWAP2 SUB SWAP1 RETURN JUMPDEST PUSH0 DUP1 SLOAD SWAP1 PUSH2 0x100 EXP SWAP1 DIV PUSH20 0xFFFFFFFFFFFFFFFFFFFFFFFFFFFFFFFFFFFFFFFF AND DUP2 JUMP JUMPDEST PUSH1 0x60 PUSH0 DUP3 SUB PUSH2 0xED JUMPI PUSH1 0x40 MLOAD PUSH32 0x8C379A000000000000000000000000000000000000000000000000000000000 DUP2 MSTORE PUSH1 0x4 ADD PUSH2 0xE4 SWAP1 PUSH2 0x30F JUMP JUMPDEST PUSH1 0x40 MLOAD DUP1 SWAP2 SUB SWAP1 REVERT JUMPDEST PUSH1 0x1 DUP3 SUB PUSH2 0x130 JUMPI PUSH1 0x40 MLOAD PUSH32 0x8C379A000000000000000000000000000000000000000000000000000000000 DUP2 MSTORE PUSH1 0x4 ADD PUSH2 0x127 SWAP1 PUSH2 0x377 JUMP JUMPDEST PUSH1 0x40 MLOAD DUP1 SWAP2 SUB SWAP1 REVERT JUMPDEST PUSH1 0x2 DUP3 SUB PUSH2 0x141 JUMPI PUSH2 0x140 PUSH2 0x395 JUMP JUMPDEST JUMPDEST PUSH1 0x40 MLOAD DUP1 PUSH1 0x60 ADD PUSH1 0x40 MSTORE DUP1 PUSH1 0x33 DUP2 MSTORE PUSH1 0x20 ADD PUSH2 0x3C3 PUSH1 0x33 SWAP2 CODECOPY SWAP1 POP SWAP2 SWAP1 POP JUMP JUMPDEST PUSH0 PUSH20 0xFFFFFFFFFFFFFFFFFFFFFFFFFFFFFFFFFFFFFFFF DUP3 AND SWAP1 POP SWAP2 SWAP1 POP JUMP JUMPDEST PUSH0 PUSH2 0x18A DUP3 PUSH2 0x161 JUMP JUMPDEST SWAP1 POP SWAP2 SWAP1 POP JUMP JUMPDEST PUSH2 0x19A DUP2 PUSH2 0x180 JUMP JUMPDEST DUP3 MSTORE POP POP JUMP JUMPDEST PUSH0 PUSH1 0x20 DUP3 ADD SWAP1 POP PUSH2 0x1B3 PUSH0 DUP4 ADD DUP5 PUSH2 0x191 JUMP JUMPDEST SWAP3 SWAP2 POP POP JUMP JUMPDEST PUSH0 DUP1 REVERT JUMPDEST PUSH0 DUP2 SWAP1 POP SWAP2 SWAP1 POP JUMP JUMPDEST PUSH2 0x1CF DUP2 PUSH2 0x1BD JUMP JUMPDEST DUP2 EQ PUSH2 0x1D9 JUMPI PUSH0 DUP1 REVERT JUMPDEST POP JUMP JUMPDEST PUSH0 DUP2 CALLDATALOAD SWAP1 POP PUSH2 0x1EA DUP2 PUSH2 0x1C6 JUMP JUMPDEST SWAP3 SWAP2 POP POP JUMP JUMPDEST PUSH0 PUSH1 0x20 DUP3 DUP5 SUB SLT ISZERO PUSH2 0x205 JUMPI PUSH2 0x204 PUSH2 0x1B9 JUMP JUMPDEST JUMPDEST PUSH0 PUSH2 0x212 DUP5 DUP3 DUP6 ADD PUSH2 0x1DC JUMP JUMPDEST SWAP2 POP POP SWAP3 SWAP2 POP POP JUMP JUMPDEST PUSH0 DUP2 MLOAD SWAP1 POP SWAP2 SWAP1 POP JUMP JUMPDEST PUSH0 DUP3 DUP3 MSTORE PUSH1 0x20 DUP3 ADD SWAP1 POP SWAP3 SWAP2 POP POP JUMP JUMPDEST PUSH0 JUMPDEST DUP4 DUP2 LT ISZERO PUSH2 0x252 JUMPI DUP1 DUP3 ADD MLOAD DUP2 DUP5 ADD MSTORE PUSH1 0x20 DUP2 ADD SWAP1 POP PUSH2 0x237 JUMP JUMPDEST PUSH0 DUP5 DUP5 ADD MSTORE POP POP POP POP JUMP JUMPDEST PUSH0 PUSH1 0x1F NOT PUSH1 0x1F DUP4 ADD AND SWAP1 POP SWAP2 SWAP1 POP JUMP JUMPDEST PUSH0 PUSH2 0x277 DUP3 PUSH2 0x21B JUMP JUMPDEST PUSH2 0x281 DUP2 DUP6 PUSH2 0x225 JUMP JUMPDEST SWAP4 POP PUSH2 0x291 DUP2 DUP6 PUSH1 0x20 DUP7 ADD PUSH2 0x235 JUMP JUMPDEST PUSH2 0x29A DUP2 PUSH2 0x25D JUMP JUMPDEST DUP5 ADD SWAP2 POP POP SWAP3 SWAP2 POP POP JUMP JUMPDEST PUSH0 PUSH1 0x20 DUP3 ADD SWAP1 POP DUP2 DUP2 SUB PUSH0 DUP4 ADD MSTORE PUSH2 0x2BD DUP2 DUP5 PUSH2 0x26D JUMP JUMPDEST SWAP1 POP SWAP3 SWAP2 POP POP JUMP JUMPDEST PUSH32 0x54686520696E70757420666F72206D7946756E20697320300000000000000000 PUSH0 DUP3 ADD MSTORE POP JUMP JUMPDEST PUSH0 PUSH2 0x2F9 PUSH1 0x18 DUP4 PUSH2 0x225 JUMP JUMPDEST SWAP2 POP PUSH2 0x304 DUP3 PUSH2 0x2C5 JUMP JUMPDEST PUSH1 0x20 DUP3 ADD SWAP1 POP SWAP2 SWAP1 POP JUMP JUMPDEST PUSH0 PUSH1 0x20 DUP3 ADD SWAP1 POP DUP2 DUP2 SUB PUSH0 DUP4 ADD MSTORE PUSH2 0x326 DUP2 PUSH2 0x2ED JUMP JUMPDEST SWAP1 POP SWAP2 SWAP1 POP JUMP JUMPDEST PUSH32 0x54686520696E70757420666F72206D7946756E20697320310000000000000000 PUSH0 DUP3 ADD MSTORE POP JUMP JUMPDEST PUSH0 PUSH2 0x361 PUSH1 0x18 DUP4 PUSH2 0x225 JUMP JUMPDEST SWAP2 POP PUSH2 0x36C DUP3 PUSH2 0x32D JUMP JUMPDEST PUSH1 0x20 DUP3 ADD SWAP1 POP SWAP2 SWAP1 POP JUMP JUMPDEST PUSH0 PUSH1 0x20 DUP3 ADD SWAP1 POP DUP2 DUP2 SUB PUSH0 DUP4 ADD MSTORE PUSH2 0x38E DUP2 PUSH2 0x355 JUMP JUMPDEST SWAP1 POP SWAP2 SWAP1 POP JUMP JUMPDEST PUSH32 0x4E487B7100000000000000000000000000000000000000000000000000000000 PUSH0 MSTORE PUSH1 0x1 PUSH1 0x4 MSTORE PUSH1 0x24 PUSH0 REVERT INVALID SLOAD PUSH9 0x6520696E7075742066 PUSH16 0x72206D7946756E206973206772656174 PUSH6 0x722020746861 PUSH15 0x20312C207468617427732066696E65 LOG2 PUSH5 0x6970667358 0x22 SLT KECCAK256 PUSH14 0x33D46A0972C62BB7E134C6DB8C86 ORIGIN CHAINID EXTCODESIZE 0xED SWAP15 0x26 0x26 JUMPDEST 0xAB 0xEB LOG3 0x5C SIGNEXTEND MOD SWAP1 0x2B 0xB4 PUSH5 0x736F6C6343 STOP ADDMOD AND STOP CALLER LOG2 PUSH5 0x6970667358 0x22 SLT KECCAK256 PUSH20 0xC9442877864FA7B94EBC7ACA15F3634FC06EBAE6 0xC8 0xC2 PUSH23 0x2E9C8B6BE637A53764736F6C6343000816003360806040 MSTORE CALLVALUE DUP1 ISZERO PUSH2 0xF JUMPI PUSH0 DUP1 REVERT JUMPDEST POP PUSH1 0x40 MLOAD PUSH2 0x784 CODESIZE SUB DUP1 PUSH2 0x784 DUP4 CODECOPY DUP2 DUP2 ADD PUSH1 0x40 MSTORE DUP2 ADD SWAP1 PUSH2 0x31 SWAP2 SWAP1 PUSH2 0x1EE JUMP JUMPDEST PUSH0 PUSH20 0xFFFFFFFFFFFFFFFFFFFFFFFFFFFFFFFFFFFFFFFF AND DUP2 PUSH20 0xFFFFFFFFFFFFFFFFFFFFFFFFFFFFFFFFFFFFFFFF AND SUB PUSH2 0x9F JUMPI PUSH1 0x40 MLOAD PUSH32 0x8C379A000000000000000000000000000000000000000000000000000000000 DUP2 MSTORE PUSH1 0x4 ADD PUSH2 0x96 SWAP1 PUSH2 0x273 JUMP JUMPDEST PUSH1 0x40 MLOAD DUP1 SWAP2 SUB SWAP1 REVERT JUMPDEST PUSH1 0x1 PUSH20 0xFFFFFFFFFFFFFFFFFFFFFFFFFFFFFFFFFFFFFFFF AND DUP2 PUSH20 0xFFFFFFFFFFFFFFFFFFFFFFFFFFFFFFFFFFFFFFFF AND EQ PUSH2 0x10E JUMPI PUSH1 0x40 MLOAD PUSH32 0x8C379A000000000000000000000000000000000000000000000000000000000 DUP2 MSTORE PUSH1 0x4 ADD PUSH2 0x105 SWAP1 PUSH2 0x301 JUMP JUMPDEST PUSH1 0x40 MLOAD DUP1 SWAP2 SUB SWAP1 REVERT JUMPDEST PUSH1 0x2 PUSH20 0xFFFFFFFFFFFFFFFFFFFFFFFFFFFFFFFFFFFFFFFF AND DUP2 PUSH20 0xFFFFFFFFFFFFFFFFFFFFFFFFFFFFFFFFFFFFFFFF AND SUB PUSH2 0x14B JUMPI PUSH2 0x14A PUSH2 0x31F JUMP JUMPDEST JUMPDEST DUP1 PUSH0 DUP1 PUSH2 0x100 EXP DUP2 SLOAD DUP2 PUSH20 0xFFFFFFFFFFFFFFFFFFFFFFFFFFFFFFFFFFFFFFFF MUL NOT AND SWAP1 DUP4 PUSH20 0xFFFFFFFFFFFFFFFFFFFFFFFFFFFFFFFFFFFFFFFF AND MUL OR SWAP1 SSTORE POP POP PUSH2 0x34C JUMP JUMPDEST PUSH0 DUP1 REVERT JUMPDEST PUSH0 PUSH20 0xFFFFFFFFFFFFFFFFFFFFFFFFFFFFFFFFFFFFFFFF DUP3 AND SWAP1 POP SWAP2 SWAP1 POP JUMP JUMPDEST PUSH0 PUSH2 0x1BD DUP3 PUSH2 0x194 JUMP JUMPDEST SWAP1 POP SWAP2 SWAP1 POP JUMP JUMPDEST PUSH2 0x1CD DUP2 PUSH2 0x1B3 JUMP JUMPDEST DUP2 EQ PUSH2 0x1D7 JUMPI PUSH0 DUP1 REVERT JUMPDEST POP JUMP JUMPDEST PUSH0 DUP2 MLOAD SWAP1 POP PUSH2 0x1E8 DUP2 PUSH2 0x1C4 JUMP JUMPDEST SWAP3 SWAP2 POP POP JUMP JUMPDEST PUSH0 PUSH1 0x20 DUP3 DUP5 SUB SLT ISZERO PUSH2 0x203 JUMPI PUSH2 0x202 PUSH2 0x190 JUMP JUMPDEST JUMPDEST PUSH0 PUSH2 0x210 DUP5 DUP3 DUP6 ADD PUSH2 0x1DA JUMP JUMPDEST SWAP2 POP POP SWAP3 SWAP2 POP POP JUMP JUMPDEST PUSH0 DUP3 DUP3 MSTORE PUSH1 0x20 DUP3 ADD SWAP1 POP SWAP3 SWAP2 POP POP JUMP JUMPDEST PUSH32 0x6164647265737320697320696E76616C69642077686963682069732030000000 PUSH0 DUP3 ADD MSTORE POP JUMP JUMPDEST PUSH0 PUSH2 0x25D PUSH1 0x1D DUP4 PUSH2 0x219 JUMP JUMPDEST SWAP2 POP PUSH2 0x268 DUP3 PUSH2 0x229 JUMP JUMPDEST PUSH1 0x20 DUP3 ADD SWAP1 POP SWAP2 SWAP1 POP JUMP JUMPDEST PUSH0 PUSH1 0x20 DUP3 ADD SWAP1 POP DUP2 DUP2 SUB PUSH0 DUP4 ADD MSTORE PUSH2 0x28A DUP2 PUSH2 0x251 JUMP JUMPDEST SWAP1 POP SWAP2 SWAP1 POP JUMP JUMPDEST PUSH32 0x7265766572743A20616464726573732069732030783030303030303030303030 PUSH0 DUP3 ADD MSTORE PUSH32 0x3030303030303030303030303030303030303030303030303030303031000000 PUSH1 0x20 DUP3 ADD MSTORE POP JUMP JUMPDEST PUSH0 PUSH2 0x2EB PUSH1 0x3D DUP4 PUSH2 0x219 JUMP JUMPDEST SWAP2 POP PUSH2 0x2F6 DUP3 PUSH2 0x291 JUMP JUMPDEST PUSH1 0x40 DUP3 ADD SWAP1 POP SWAP2 SWAP1 POP JUMP JUMPDEST PUSH0 PUSH1 0x20 DUP3 ADD SWAP1 POP DUP2 DUP2 SUB PUSH0 DUP4 ADD MSTORE PUSH2 0x318 DUP2 PUSH2 0x2DF JUMP JUMPDEST SWAP1 POP SWAP2 SWAP1 POP JUMP JUMPDEST PUSH32 0x4E487B7100000000000000000000000000000000000000000000000000000000 PUSH0 MSTORE PUSH1 0x1 PUSH1 0x4 MSTORE PUSH1 0x24 PUSH0 REVERT JUMPDEST PUSH2 0x42B DUP1 PUSH2 0x359 PUSH0 CODECOPY PUSH0 RETURN INVALID PUSH1 0x80 PUSH1 0x40 MSTORE CALLVALUE DUP1 ISZERO PUSH2 0xF JUMPI PUSH0 DUP1 REVERT JUMPDEST POP PUSH1 0x4 CALLDATASIZE LT PUSH2 0x34 JUMPI PUSH0 CALLDATALOAD PUSH1 0xE0 SHR DUP1 PUSH4 0x8DA5CB5B EQ PUSH2 0x38 JUMPI DUP1 PUSH4 0x96712958 EQ PUSH2 0x56 JUMPI JUMPDEST PUSH0 DUP1 REVERT JUMPDEST PUSH2 0x40 PUSH2 0x86 JUMP JUMPDEST PUSH1 0x40 MLOAD PUSH2 0x4D SWAP2 SWAP1 PUSH2 0x1A0 JUMP JUMPDEST PUSH1 0x40 MLOAD DUP1 SWAP2 SUB SWAP1 RETURN JUMPDEST PUSH2 0x70 PUSH1 0x4 DUP1 CALLDATASIZE SUB DUP2 ADD SWAP1 PUSH2 0x6B SWAP2 SWAP1 PUSH2 0x1F0 JUMP JUMPDEST PUSH2 0xA9 JUMP JUMPDEST PUSH1 0x40 MLOAD PUSH2 0x7D SWAP2 SWAP1 PUSH2 0x2A5 JUMP JUMPDEST PUSH1 0x40 MLOAD DUP1 SWAP2 SUB SWAP1 RETURN JUMPDEST PUSH0 DUP1 SLOAD SWAP1 PUSH2 0x100 EXP SWAP1 DIV PUSH20 0xFFFFFFFFFFFFFFFFFFFFFFFFFFFFFFFFFFFFFFFF AND DUP2 JUMP JUMPDEST PUSH1 0x60 PUSH0 DUP3 SUB PUSH2 0xED JUMPI PUSH1 0x40 MLOAD PUSH32 0x8C379A000000000000000000000000000000000000000000000000000000000 DUP2 MSTORE PUSH1 0x4 ADD PUSH2 0xE4 SWAP1 PUSH2 0x30F JUMP JUMPDEST PUSH1 0x40 MLOAD DUP1 SWAP2 SUB SWAP1 REVERT JUMPDEST PUSH1 0x1 DUP3 SUB PUSH2 0x130 JUMPI PUSH1 0x40 MLOAD PUSH32 0x8C379A000000000000000000000000000000000000000000000000000000000 DUP2 MSTORE PUSH1 0x4 ADD PUSH2 0x127 SWAP1 PUSH2 0x377 JUMP JUMPDEST PUSH1 0x40 MLOAD DUP1 SWAP2 SUB SWAP1 REVERT JUMPDEST PUSH1 0x2 DUP3 SUB PUSH2 0x141 JUMPI PUSH2 0x140 PUSH2 0x395 JUMP JUMPDEST JUMPDEST PUSH1 0x40 MLOAD DUP1 PUSH1 0x60 ADD PUSH1 0x40 MSTORE DUP1 PUSH1 0x33 DUP2 MSTORE PUSH1 0x20 ADD PUSH2 0x3C3 PUSH1 0x33 SWAP2 CODECOPY SWAP1 POP SWAP2 SWAP1 POP JUMP JUMPDEST PUSH0 PUSH20 0xFFFFFFFFFFFFFFFFFFFFFFFFFFFFFFFFFFFFFFFF DUP3 AND SWAP1 POP SWAP2 SWAP1 POP JUMP JUMPDEST PUSH0 PUSH2 0x18A DUP3 PUSH2 0x161 JUMP JUMPDEST SWAP1 POP SWAP2 SWAP1 POP JUMP JUMPDEST PUSH2 0x19A DUP2 PUSH2 0x180 JUMP JUMPDEST DUP3 MSTORE POP POP JUMP JUMPDEST PUSH0 PUSH1 0x20 DUP3 ADD SWAP1 POP PUSH2 0x1B3 PUSH0 DUP4 ADD DUP5 PUSH2 0x191 JUMP JUMPDEST SWAP3 SWAP2 POP POP JUMP JUMPDEST PUSH0 DUP1 REVERT JUMPDEST PUSH0 DUP2 SWAP1 POP SWAP2 SWAP1 POP JUMP JUMPDEST PUSH2 0x1CF DUP2 PUSH2 0x1BD JUMP JUMPDEST DUP2 EQ PUSH2 0x1D9 JUMPI PUSH0 DUP1 REVERT JUMPDEST POP JUMP JUMPDEST PUSH0 DUP2 CALLDATALOAD SWAP1 POP PUSH2 0x1EA DUP2 PUSH2 0x1C6 JUMP JUMPDEST SWAP3 SWAP2 POP POP JUMP JUMPDEST PUSH0 PUSH1 0x20 DUP3 DUP5 SUB SLT ISZERO PUSH2 0x205 JUMPI PUSH2 0x204 PUSH2 0x1B9 JUMP JUMPDEST JUMPDEST PUSH0 PUSH2 0x212 DUP5 DUP3 DUP6 ADD PUSH2 0x1DC JUMP JUMPDEST SWAP2 POP POP SWAP3 SWAP2 POP POP JUMP JUMPDEST PUSH0 DUP2 MLOAD SWAP1 POP SWAP2 SWAP1 POP JUMP JUMPDEST PUSH0 DUP3 DUP3 MSTORE PUSH1 0x20 DUP3 ADD SWAP1 POP SWAP3 SWAP2 POP POP JUMP JUMPDEST PUSH0 JUMPDEST DUP4 DUP2 LT ISZERO PUSH2 0x252 JUMPI DUP1 DUP3 ADD MLOAD DUP2 DUP5 ADD MSTORE PUSH1 0x20 DUP2 ADD SWAP1 POP PUSH2 0x237 JUMP JUMPDEST PUSH0 DUP5 DUP5 ADD MSTORE POP POP POP POP JUMP JUMPDEST PUSH0 PUSH1 0x1F NOT PUSH1 0x1F DUP4 ADD AND SWAP1 POP SWAP2 SWAP1 POP JUMP JUMPDEST PUSH0 PUSH2 0x277 DUP3 PUSH2 0x21B JUMP JUMPDEST PUSH2 0x281 DUP2 DUP6 PUSH2 0x225 JUMP JUMPDEST SWAP4 POP PUSH2 0x291 DUP2 DUP6 PUSH1 0x20 DUP7 ADD PUSH2 0x235 JUMP JUMPDEST PUSH2 0x29A DUP2 PUSH2 0x25D JUMP JUMPDEST DUP5 ADD SWAP2 POP POP SWAP3 SWAP2 POP POP JUMP JUMPDEST PUSH0 PUSH1 0x20 DUP3 ADD SWAP1 POP DUP2 DUP2 SUB PUSH0 DUP4 ADD MSTORE PUSH2 0x2BD DUP2 DUP5 PUSH2 0x26D JUMP JUMPDEST SWAP1 POP SWAP3 SWAP2 POP POP JUMP JUMPDEST PUSH32 0x54686520696E70757420666F72206D7946756E20697320300000000000000000 PUSH0 DUP3 ADD MSTORE POP JUMP JUMPDEST PUSH0 PUSH2 0x2F9 PUSH1 0x18 DUP4 PUSH2 0x225 JUMP JUMPDEST SWAP2 POP PUSH2 0x304 DUP3 PUSH2 0x2C5 JUMP JUMPDEST PUSH1 0x20 DUP3 ADD SWAP1 POP SWAP2 SWAP1 POP JUMP JUMPDEST PUSH0 PUSH1 0x20 DUP3 ADD SWAP1 POP DUP2 DUP2 SUB PUSH0 DUP4 ADD MSTORE PUSH2 0x326 DUP2 PUSH2 0x2ED JUMP JUMPDEST SWAP1 POP SWAP2 SWAP1 POP JUMP JUMPDEST PUSH32 0x54686520696E70757420666F72206D7946756E20697320310000000000000000 PUSH0 DUP3 ADD MSTORE POP JUMP JUMPDEST PUSH0 PUSH2 0x361 PUSH1 0x18 DUP4 PUSH2 0x225 JUMP JUMPDEST SWAP2 POP PUSH2 0x36C DUP3 PUSH2 0x32D JUMP JUMPDEST PUSH1 0x20 DUP3 ADD SWAP1 POP SWAP2 SWAP1 POP JUMP JUMPDEST PUSH0 PUSH1 0x20 DUP3 ADD SWAP1 POP DUP2 DUP2 SUB PUSH0 DUP4 ADD MSTORE PUSH2 0x38E DUP2 PUSH2 0x355 JUMP JUMPDEST SWAP1 POP SWAP2 SWAP1 POP JUMP JUMPDEST PUSH32 0x4E487B7100000000000000000000000000000000000000000000000000000000 PUSH0 MSTORE PUSH1 0x1 PUSH1 0x4 MSTORE PUSH1 0x24 PUSH0 REVERT INVALID SLOAD PUSH9 0x6520696E7075742066 PUSH16 0x72206D7946756E206973206772656174 PUSH6 0x722020746861 PUSH15 0x20312C207468617427732066696E65 LOG2 PUSH5 0x6970667358 0x22 SLT KECCAK256 PUSH14 0x33D46A0972C62BB7E134C6DB8C86 ORIGIN CHAINID EXTCODESIZE 0xED SWAP15 0x26 0x26 JUMPDEST 0xAB 0xEB LOG3 0x5C SIGNEXTEND MOD SWAP1 0x2B 0xB4 PUSH5 0x736F6C6343 STOP ADDMOD AND STOP CALLER "
		},
		"gasEstimates": {
			"creation": {
				"codeDepositCost": "895200",
				"executionCost": "infinite",
				"totalCost": "infinite"
			},
			"external": {
				"catcher()": "infinite",
				"tryCatchExternalCall(uint256)": "infinite",
				"tryCatchNewContract(address)": "infinite"
			}
		},
		"methodIdentifiers": {
			"catcher()": "f02ad131",
			"tryCatchExternalCall(uint256)": "933ac084",
			"tryCatchNewContract(address)": "77bdab83"
		}
	},
	"abi": [
		{
			"inputs": [],
			"stateMutability": "nonpayable",
			"type": "constructor"
		},
		{
			"anonymous": false,
			"inputs": [
				{
					"indexed": false,
					"internalType": "string",
					"name": "message",
					"type": "string"
				}
			],
			"name": "Log",
			"type": "event"
		},
		{
			"anonymous": false,
			"inputs": [
				{
					"indexed": false,
					"internalType": "bytes",
					"name": "message",
					"type": "bytes"
				}
			],
			"name": "LogBytes",
			"type": "event"
		},
		{
			"inputs": [],
			"name": "catcher",
			"outputs": [
				{
					"internalType": "contract Catcher",
					"name": "",
					"type": "address"
				}
			],
			"stateMutability": "view",
			"type": "function"
		},
		{
			"inputs": [
				{
					"internalType": "uint256",
					"name": "i",
					"type": "uint256"
				}
			],
			"name": "tryCatchExternalCall",
			"outputs": [],
			"stateMutability": "nonpayable",
			"type": "function"
		},
		{
			"inputs": [
				{
					"internalType": "address",
					"name": "_owner",
					"type": "address"
				}
			],
			"name": "tryCatchNewContract",
			"outputs": [],
			"stateMutability": "nonpayable",
			"type": "function"
		}
	]
}